{
	"contracts/04_Aguacate_token.sol": {
		"AGUACATE": {
			"abi": [
				{
					"inputs": [],
					"stateMutability": "nonpayable",
					"type": "constructor"
				},
				{
					"anonymous": false,
					"inputs": [
						{
							"indexed": true,
							"internalType": "address",
							"name": "owner",
							"type": "address"
						},
						{
							"indexed": true,
							"internalType": "address",
							"name": "spender",
							"type": "address"
						},
						{
							"indexed": false,
							"internalType": "uint256",
							"name": "value",
							"type": "uint256"
						}
					],
					"name": "Approval",
					"type": "event"
				},
				{
					"anonymous": false,
					"inputs": [
						{
							"indexed": true,
							"internalType": "address",
							"name": "previousOwner",
							"type": "address"
						},
						{
							"indexed": true,
							"internalType": "address",
							"name": "newOwner",
							"type": "address"
						}
					],
					"name": "OwnershipTransferred",
					"type": "event"
				},
				{
					"anonymous": false,
					"inputs": [
						{
							"indexed": true,
							"internalType": "address",
							"name": "from",
							"type": "address"
						},
						{
							"indexed": true,
							"internalType": "address",
							"name": "to",
							"type": "address"
						},
						{
							"indexed": false,
							"internalType": "uint256",
							"name": "value",
							"type": "uint256"
						}
					],
					"name": "Transfer",
					"type": "event"
				},
				{
					"inputs": [],
					"name": "_burnFee",
					"outputs": [
						{
							"internalType": "uint256",
							"name": "",
							"type": "uint256"
						}
					],
					"stateMutability": "view",
					"type": "function"
				},
				{
					"inputs": [],
					"name": "_getBurnFee",
					"outputs": [
						{
							"internalType": "uint256",
							"name": "",
							"type": "uint256"
						}
					],
					"stateMutability": "view",
					"type": "function"
				},
				{
					"inputs": [],
					"name": "_getMaxTxAmount",
					"outputs": [
						{
							"internalType": "uint256",
							"name": "",
							"type": "uint256"
						}
					],
					"stateMutability": "view",
					"type": "function"
				},
				{
					"inputs": [],
					"name": "_getTaxFee",
					"outputs": [
						{
							"internalType": "uint256",
							"name": "",
							"type": "uint256"
						}
					],
					"stateMutability": "view",
					"type": "function"
				},
				{
					"inputs": [
						{
							"internalType": "uint256",
							"name": "burnFee",
							"type": "uint256"
						}
					],
					"name": "_setBurnFee",
					"outputs": [],
					"stateMutability": "nonpayable",
					"type": "function"
				},
				{
					"inputs": [
						{
							"internalType": "uint256",
							"name": "taxFee",
							"type": "uint256"
						}
					],
					"name": "_setTaxFee",
					"outputs": [],
					"stateMutability": "nonpayable",
					"type": "function"
				},
				{
					"inputs": [],
					"name": "_taxFee",
					"outputs": [
						{
							"internalType": "uint256",
							"name": "",
							"type": "uint256"
						}
					],
					"stateMutability": "view",
					"type": "function"
				},
				{
					"inputs": [
						{
							"internalType": "address",
							"name": "owner",
							"type": "address"
						},
						{
							"internalType": "address",
							"name": "spender",
							"type": "address"
						}
					],
					"name": "allowance",
					"outputs": [
						{
							"internalType": "uint256",
							"name": "",
							"type": "uint256"
						}
					],
					"stateMutability": "view",
					"type": "function"
				},
				{
					"inputs": [
						{
							"internalType": "address",
							"name": "spender",
							"type": "address"
						},
						{
							"internalType": "uint256",
							"name": "amount",
							"type": "uint256"
						}
					],
					"name": "approve",
					"outputs": [
						{
							"internalType": "bool",
							"name": "",
							"type": "bool"
						}
					],
					"stateMutability": "nonpayable",
					"type": "function"
				},
				{
					"inputs": [
						{
							"internalType": "address",
							"name": "account",
							"type": "address"
						}
					],
					"name": "balanceOf",
					"outputs": [
						{
							"internalType": "uint256",
							"name": "",
							"type": "uint256"
						}
					],
					"stateMutability": "view",
					"type": "function"
				},
				{
					"inputs": [],
					"name": "burnAdd",
					"outputs": [
						{
							"internalType": "address",
							"name": "",
							"type": "address"
						}
					],
					"stateMutability": "view",
					"type": "function"
				},
				{
					"inputs": [],
					"name": "decimals",
					"outputs": [
						{
							"internalType": "uint8",
							"name": "",
							"type": "uint8"
						}
					],
					"stateMutability": "view",
					"type": "function"
				},
				{
					"inputs": [
						{
							"internalType": "address",
							"name": "spender",
							"type": "address"
						},
						{
							"internalType": "uint256",
							"name": "subtractedValue",
							"type": "uint256"
						}
					],
					"name": "decreaseAllowance",
					"outputs": [
						{
							"internalType": "bool",
							"name": "",
							"type": "bool"
						}
					],
					"stateMutability": "nonpayable",
					"type": "function"
				},
				{
					"inputs": [
						{
							"internalType": "uint256",
							"name": "tAmount",
							"type": "uint256"
						}
					],
					"name": "deliver",
					"outputs": [],
					"stateMutability": "nonpayable",
					"type": "function"
				},
				{
					"inputs": [
						{
							"internalType": "address",
							"name": "account",
							"type": "address"
						}
					],
					"name": "excludeAccount",
					"outputs": [],
					"stateMutability": "nonpayable",
					"type": "function"
				},
				{
					"inputs": [],
					"name": "geUnlockTime",
					"outputs": [
						{
							"internalType": "uint256",
							"name": "",
							"type": "uint256"
						}
					],
					"stateMutability": "view",
					"type": "function"
				},
				{
					"inputs": [
						{
							"internalType": "address",
							"name": "account",
							"type": "address"
						}
					],
					"name": "includeAccount",
					"outputs": [],
					"stateMutability": "nonpayable",
					"type": "function"
				},
				{
					"inputs": [
						{
							"internalType": "address",
							"name": "spender",
							"type": "address"
						},
						{
							"internalType": "uint256",
							"name": "addedValue",
							"type": "uint256"
						}
					],
					"name": "increaseAllowance",
					"outputs": [
						{
							"internalType": "bool",
							"name": "",
							"type": "bool"
						}
					],
					"stateMutability": "nonpayable",
					"type": "function"
				},
				{
					"inputs": [
						{
							"internalType": "address",
							"name": "account",
							"type": "address"
						}
					],
					"name": "isExcluded",
					"outputs": [
						{
							"internalType": "bool",
							"name": "",
							"type": "bool"
						}
					],
					"stateMutability": "view",
					"type": "function"
				},
				{
					"inputs": [
						{
							"internalType": "uint256",
							"name": "time",
							"type": "uint256"
						}
					],
					"name": "lock",
					"outputs": [],
					"stateMutability": "nonpayable",
					"type": "function"
				},
				{
					"inputs": [],
					"name": "name",
					"outputs": [
						{
							"internalType": "string",
							"name": "",
							"type": "string"
						}
					],
					"stateMutability": "view",
					"type": "function"
				},
				{
					"inputs": [],
					"name": "owner",
					"outputs": [
						{
							"internalType": "address",
							"name": "",
							"type": "address"
						}
					],
					"stateMutability": "view",
					"type": "function"
				},
				{
					"inputs": [
						{
							"internalType": "uint256",
							"name": "tAmount",
							"type": "uint256"
						},
						{
							"internalType": "bool",
							"name": "deductTransferFee",
							"type": "bool"
						}
					],
					"name": "reflectionFromToken",
					"outputs": [
						{
							"internalType": "uint256",
							"name": "",
							"type": "uint256"
						}
					],
					"stateMutability": "view",
					"type": "function"
				},
				{
					"inputs": [],
					"name": "renounceOwnership",
					"outputs": [],
					"stateMutability": "nonpayable",
					"type": "function"
				},
				{
					"inputs": [],
					"name": "symbol",
					"outputs": [
						{
							"internalType": "string",
							"name": "",
							"type": "string"
						}
					],
					"stateMutability": "view",
					"type": "function"
				},
				{
					"inputs": [
						{
							"internalType": "uint256",
							"name": "rAmount",
							"type": "uint256"
						}
					],
					"name": "tokenFromReflection",
					"outputs": [
						{
							"internalType": "uint256",
							"name": "",
							"type": "uint256"
						}
					],
					"stateMutability": "view",
					"type": "function"
				},
				{
					"inputs": [],
					"name": "totalFees",
					"outputs": [
						{
							"internalType": "uint256",
							"name": "",
							"type": "uint256"
						}
					],
					"stateMutability": "view",
					"type": "function"
				},
				{
					"inputs": [],
					"name": "totalSupply",
					"outputs": [
						{
							"internalType": "uint256",
							"name": "",
							"type": "uint256"
						}
					],
					"stateMutability": "view",
					"type": "function"
				},
				{
					"inputs": [
						{
							"internalType": "address",
							"name": "recipient",
							"type": "address"
						},
						{
							"internalType": "uint256",
							"name": "amount",
							"type": "uint256"
						}
					],
					"name": "transfer",
					"outputs": [
						{
							"internalType": "bool",
							"name": "",
							"type": "bool"
						}
					],
					"stateMutability": "nonpayable",
					"type": "function"
				},
				{
					"inputs": [
						{
							"internalType": "address",
							"name": "sender",
							"type": "address"
						},
						{
							"internalType": "address",
							"name": "recipient",
							"type": "address"
						},
						{
							"internalType": "uint256",
							"name": "amount",
							"type": "uint256"
						}
					],
					"name": "transferFrom",
					"outputs": [
						{
							"internalType": "bool",
							"name": "",
							"type": "bool"
						}
					],
					"stateMutability": "nonpayable",
					"type": "function"
				},
				{
					"inputs": [
						{
							"internalType": "address",
							"name": "newOwner",
							"type": "address"
						}
					],
					"name": "transferOwnership",
					"outputs": [],
					"stateMutability": "nonpayable",
					"type": "function"
				},
				{
					"inputs": [],
					"name": "unlock",
					"outputs": [],
					"stateMutability": "nonpayable",
					"type": "function"
				}
			],
			"devdoc": {
				"kind": "dev",
				"methods": {
					"owner()": {
						"details": "Returns the address of the current owner."
					},
					"renounceOwnership()": {
						"details": "Leaves the contract without owner. It will not be possible to call `onlyOwner` functions anymore. Can only be called by the current owner. NOTE: Renouncing ownership will leave the contract without an owner, thereby removing any functionality that is only available to the owner."
					},
					"transferOwnership(address)": {
						"details": "Transfers ownership of the contract to a new account (`newOwner`). Can only be called by the current owner."
					}
				},
				"version": 1
			},
			"evm": {
				"assembly": "    /* \"contracts/04_Aguacate_token.sol\":761:14414  contract AGUACATE is Context, IERC20, Ownable {\r... */\n  mstore(0x40, 0x80)\n    /* \"contracts/04_Aguacate_token.sol\":1377:1402  500000000 * 10**6 * 10**9 */\n  0x69e10de76676d0800000\n    /* \"contracts/04_Aguacate_token.sol\":1351:1402  uint256 private _tTotal = 500000000 * 10**6 * 10**9 */\n  0x08\n  sstore\n    /* \"contracts/04_Aguacate_token.sol\":1470:1477  _tTotal */\n  sload(0x08)\n    /* \"contracts/04_Aguacate_token.sol\":1301:1302  0 */\n  0x00\n    /* \"contracts/04_Aguacate_token.sol\":1292:1303  ~uint256(0) */\n  not\n    /* \"contracts/04_Aguacate_token.sol\":1464:1477  MAX % _tTotal */\n  tag_1\n  swap2\n  swap1\n  tag_2\n  jump\t// in\ntag_1:\n    /* \"contracts/04_Aguacate_token.sol\":1301:1302  0 */\n  0x00\n    /* \"contracts/04_Aguacate_token.sol\":1292:1303  ~uint256(0) */\n  not\n    /* \"contracts/04_Aguacate_token.sol\":1457:1478  MAX - (MAX % _tTotal) */\n  tag_3\n  swap2\n  swap1\n  tag_4\n  jump\t// in\ntag_3:\n    /* \"contracts/04_Aguacate_token.sol\":1430:1479  uint256 private _rTotal = (MAX - (MAX % _tTotal)) */\n  0x09\n  sstore\n    /* \"contracts/04_Aguacate_token.sol\":1548:1576  string private _name = 'tes' */\n  mload(0x40)\n  dup1\n  0x40\n  add\n  0x40\n  mstore\n  dup1\n  0x03\n  dup2\n  mstore\n  0x20\n  add\n  0x7465730000000000000000000000000000000000000000000000000000000000\n  dup2\n  mstore\n  pop\n  0x0b\n  swap1\n  dup1\n  mload\n  swap1\n  0x20\n  add\n  swap1\n  tag_5\n  swap3\n  swap2\n  swap1\n  tag_6\n  jump\t// in\ntag_5:\n  pop\n    /* \"contracts/04_Aguacate_token.sol\":1583:1618  string private _symbol = 'AGUACATE' */\n  mload(0x40)\n  dup1\n  0x40\n  add\n  0x40\n  mstore\n  dup1\n  0x08\n  dup2\n  mstore\n  0x20\n  add\n  0x4147554143415445000000000000000000000000000000000000000000000000\n  dup2\n  mstore\n  pop\n  0x0c\n  swap1\n  dup1\n  mload\n  swap1\n  0x20\n  add\n  swap1\n  tag_7\n  swap3\n  swap2\n  swap1\n  tag_6\n  jump\t// in\ntag_7:\n  pop\n    /* \"contracts/04_Aguacate_token.sol\":1651:1652  9 */\n  0x09\n    /* \"contracts/04_Aguacate_token.sol\":1625:1652  uint8 private _decimals = 9 */\n  0x0d\n  exp(0x0100, 0x00)\n  dup2\n  sload\n  dup2\n  0xff\n  mul\n  not\n  and\n  swap1\n  dup4\n  0xff\n  and\n  mul\n  or\n  swap1\n  sstore\n  pop\n    /* \"contracts/04_Aguacate_token.sol\":1722:1723  2 */\n  0x02\n    /* \"contracts/04_Aguacate_token.sol\":1696:1723  uint256  public _taxFee = 2 */\n  0x0e\n  sstore\n    /* \"contracts/04_Aguacate_token.sol\":1764:1771  _taxFee */\n  sload(0x0e)\n    /* \"contracts/04_Aguacate_token.sol\":1730:1771  uint256 private _previousTaxFee = _taxFee */\n  0x0f\n  sstore\n    /* \"contracts/04_Aguacate_token.sol\":1852:1853  6 */\n  0x06\n    /* \"contracts/04_Aguacate_token.sol\":1826:1853  uint256 public _burnFee = 6 */\n  0x10\n  sstore\n    /* \"contracts/04_Aguacate_token.sol\":1895:1903  _burnFee */\n  sload(0x10)\n    /* \"contracts/04_Aguacate_token.sol\":1860:1903  uint256 private _previousBurnFee = _burnFee */\n  0x11\n  sstore\n    /* \"contracts/04_Aguacate_token.sol\":1961:2003  0x000000000000000000000000000000000000dEaD */\n  0xdead\n    /* \"contracts/04_Aguacate_token.sol\":1936:2003  address public burnAdd = 0x000000000000000000000000000000000000dEaD */\n  0x12\n  exp(0x0100, 0x00)\n  dup2\n  sload\n  dup2\n  0xffffffffffffffffffffffffffffffffffffffff\n  mul\n  not\n  and\n  swap1\n  dup4\n  0xffffffffffffffffffffffffffffffffffffffff\n  and\n  mul\n  or\n  swap1\n  sstore\n  pop\n    /* \"contracts/04_Aguacate_token.sol\":2044:2066  200000 * 10**6 * 10**9 */\n  0x0ad78ebc5ac6200000\n    /* \"contracts/04_Aguacate_token.sol\":2016:2066  uint private _max_tx_size = 200000 * 10**6 * 10**9 */\n  0x13\n  sstore\n    /* \"contracts/04_Aguacate_token.sol\":2075:2245  constructor () public {\r... */\n  callvalue\n  dup1\n  iszero\n  tag_8\n  jumpi\n  0x00\n  dup1\n  revert\ntag_8:\n  pop\n    /* \"contracts/abstracts/Ownable.sol\":1050:1082  _transferOwnership(_msgSender()) */\n  tag_12\n    /* \"contracts/abstracts/Ownable.sol\":1069:1081  _msgSender() */\n  tag_13\n    /* \"contracts/abstracts/Ownable.sol\":1069:1079  _msgSender */\n  shl(0x20, tag_14)\n    /* \"contracts/abstracts/Ownable.sol\":1069:1081  _msgSender() */\n  0x20\n  shr\n  jump\t// in\ntag_13:\n    /* \"contracts/abstracts/Ownable.sol\":1050:1068  _transferOwnership */\n  shl(0x20, tag_15)\n    /* \"contracts/abstracts/Ownable.sol\":1050:1082  _transferOwnership(_msgSender()) */\n  0x20\n  shr\n  jump\t// in\ntag_12:\n    /* \"contracts/04_Aguacate_token.sol\":2169:2176  _rTotal */\n  sload(0x09)\n    /* \"contracts/04_Aguacate_token.sol\":2145:2152  _rOwned */\n  0x03\n    /* \"contracts/04_Aguacate_token.sol\":2145:2166  _rOwned[_msgSender()] */\n  0x00\n    /* \"contracts/04_Aguacate_token.sol\":2153:2165  _msgSender() */\n  tag_17\n    /* \"contracts/04_Aguacate_token.sol\":2153:2163  _msgSender */\n  shl(0x20, tag_14)\n    /* \"contracts/04_Aguacate_token.sol\":2153:2165  _msgSender() */\n  0x20\n  shr\n  jump\t// in\ntag_17:\n    /* \"contracts/04_Aguacate_token.sol\":2145:2166  _rOwned[_msgSender()] */\n  0xffffffffffffffffffffffffffffffffffffffff\n  and\n  0xffffffffffffffffffffffffffffffffffffffff\n  and\n  dup2\n  mstore\n  0x20\n  add\n  swap1\n  dup2\n  mstore\n  0x20\n  add\n  0x00\n  keccak256\n    /* \"contracts/04_Aguacate_token.sol\":2145:2176  _rOwned[_msgSender()] = _rTotal */\n  dup2\n  swap1\n  sstore\n  pop\n    /* \"contracts/04_Aguacate_token.sol\":2215:2227  _msgSender() */\n  tag_18\n    /* \"contracts/04_Aguacate_token.sol\":2215:2225  _msgSender */\n  shl(0x20, tag_14)\n    /* \"contracts/04_Aguacate_token.sol\":2215:2227  _msgSender() */\n  0x20\n  shr\n  jump\t// in\ntag_18:\n    /* \"contracts/04_Aguacate_token.sol\":2194:2237  Transfer(address(0), _msgSender(), _tTotal) */\n  0xffffffffffffffffffffffffffffffffffffffff\n  and\n    /* \"contracts/04_Aguacate_token.sol\":2211:2212  0 */\n  0x00\n    /* \"contracts/04_Aguacate_token.sol\":2194:2237  Transfer(address(0), _msgSender(), _tTotal) */\n  0xffffffffffffffffffffffffffffffffffffffff\n  and\n  0xddf252ad1be2c89b69c2b068fc378daa952ba7f163c4a11628f55a4df523b3ef\n    /* \"contracts/04_Aguacate_token.sol\":2229:2236  _tTotal */\n  sload(0x08)\n    /* \"contracts/04_Aguacate_token.sol\":2194:2237  Transfer(address(0), _msgSender(), _tTotal) */\n  mload(0x40)\n  tag_19\n  swap2\n  swap1\n  tag_20\n  jump\t// in\ntag_19:\n  mload(0x40)\n  dup1\n  swap2\n  sub\n  swap1\n  log3\n    /* \"contracts/04_Aguacate_token.sol\":761:14414  contract AGUACATE is Context, IERC20, Ownable {\r... */\n  jump(tag_21)\n    /* \"contracts/abstracts/Context.sol\":480:578  function _msgSender() internal view virtual returns (address) {\r... */\ntag_14:\n    /* \"contracts/abstracts/Context.sol\":533:540  address */\n  0x00\n    /* \"contracts/abstracts/Context.sol\":560:570  msg.sender */\n  caller\n    /* \"contracts/abstracts/Context.sol\":553:570  return msg.sender */\n  swap1\n  pop\n    /* \"contracts/abstracts/Context.sol\":480:578  function _msgSender() internal view virtual returns (address) {\r... */\n  swap1\n  jump\t// out\n    /* \"contracts/abstracts/Ownable.sol\":2596:2787  function _transferOwnership(address newOwner) internal virtual {\r... */\ntag_15:\n    /* \"contracts/abstracts/Ownable.sol\":2670:2686  address oldOwner */\n  0x00\n    /* \"contracts/abstracts/Ownable.sol\":2689:2695  _owner */\n  dup1\n  0x00\n  swap1\n  sload\n  swap1\n  0x0100\n  exp\n  swap1\n  div\n  0xffffffffffffffffffffffffffffffffffffffff\n  and\n    /* \"contracts/abstracts/Ownable.sol\":2670:2695  address oldOwner = _owner */\n  swap1\n  pop\n    /* \"contracts/abstracts/Ownable.sol\":2715:2723  newOwner */\n  dup2\n    /* \"contracts/abstracts/Ownable.sol\":2706:2712  _owner */\n  0x00\n  dup1\n    /* \"contracts/abstracts/Ownable.sol\":2706:2723  _owner = newOwner */\n  0x0100\n  exp\n  dup2\n  sload\n  dup2\n  0xffffffffffffffffffffffffffffffffffffffff\n  mul\n  not\n  and\n  swap1\n  dup4\n  0xffffffffffffffffffffffffffffffffffffffff\n  and\n  mul\n  or\n  swap1\n  sstore\n  pop\n    /* \"contracts/abstracts/Ownable.sol\":2770:2778  newOwner */\n  dup2\n    /* \"contracts/abstracts/Ownable.sol\":2739:2779  OwnershipTransferred(oldOwner, newOwner) */\n  0xffffffffffffffffffffffffffffffffffffffff\n  and\n    /* \"contracts/abstracts/Ownable.sol\":2760:2768  oldOwner */\n  dup2\n    /* \"contracts/abstracts/Ownable.sol\":2739:2779  OwnershipTransferred(oldOwner, newOwner) */\n  0xffffffffffffffffffffffffffffffffffffffff\n  and\n  0x8be0079c531659141344cd1fd0a4f28419497f9722a3daafe3b4186f6b6457e0\n  mload(0x40)\n  mload(0x40)\n  dup1\n  swap2\n  sub\n  swap1\n  log3\n    /* \"contracts/abstracts/Ownable.sol\":2659:2787  {\r... */\n  pop\n    /* \"contracts/abstracts/Ownable.sol\":2596:2787  function _transferOwnership(address newOwner) internal virtual {\r... */\n  pop\n  jump\t// out\n    /* \"contracts/04_Aguacate_token.sol\":761:14414  contract AGUACATE is Context, IERC20, Ownable {\r... */\ntag_6:\n  dup3\n  dup1\n  sload\n  tag_24\n  swap1\n  tag_25\n  jump\t// in\ntag_24:\n  swap1\n  0x00\n  mstore\n  keccak256(0x00, 0x20)\n  swap1\n  0x1f\n  add\n  0x20\n  swap1\n  div\n  dup2\n  add\n  swap3\n  dup3\n  tag_27\n  jumpi\n  0x00\n  dup6\n  sstore\n  jump(tag_26)\ntag_27:\n  dup3\n  0x1f\n  lt\n  tag_28\n  jumpi\n  dup1\n  mload\n  not(0xff)\n  and\n  dup4\n  dup1\n  add\n  or\n  dup6\n  sstore\n  jump(tag_26)\ntag_28:\n  dup3\n  dup1\n  add\n  0x01\n  add\n  dup6\n  sstore\n  dup3\n  iszero\n  tag_26\n  jumpi\n  swap2\n  dup3\n  add\ntag_29:\n  dup3\n  dup2\n  gt\n  iszero\n  tag_30\n  jumpi\n  dup3\n  mload\n  dup3\n  sstore\n  swap2\n  0x20\n  add\n  swap2\n  swap1\n  0x01\n  add\n  swap1\n  jump(tag_29)\ntag_30:\ntag_26:\n  pop\n  swap1\n  pop\n  tag_31\n  swap2\n  swap1\n  tag_32\n  jump\t// in\ntag_31:\n  pop\n  swap1\n  jump\t// out\ntag_32:\ntag_33:\n  dup1\n  dup3\n  gt\n  iszero\n  tag_34\n  jumpi\n  0x00\n  dup2\n  0x00\n  swap1\n  sstore\n  pop\n  0x01\n  add\n  jump(tag_33)\ntag_34:\n  pop\n  swap1\n  jump\t// out\n    /* \"#utility.yul\":7:125   */\ntag_36:\n    /* \"#utility.yul\":94:118   */\n  tag_38\n    /* \"#utility.yul\":112:117   */\n  dup2\n    /* \"#utility.yul\":94:118   */\n  tag_39\n  jump\t// in\ntag_38:\n    /* \"#utility.yul\":89:92   */\n  dup3\n    /* \"#utility.yul\":82:119   */\n  mstore\n    /* \"#utility.yul\":7:125   */\n  pop\n  pop\n  jump\t// out\n    /* \"#utility.yul\":131:353   */\ntag_20:\n    /* \"#utility.yul\":224:228   */\n  0x00\n    /* \"#utility.yul\":262:264   */\n  0x20\n    /* \"#utility.yul\":251:260   */\n  dup3\n    /* \"#utility.yul\":247:265   */\n  add\n    /* \"#utility.yul\":239:265   */\n  swap1\n  pop\n    /* \"#utility.yul\":275:346   */\n  tag_41\n    /* \"#utility.yul\":343:344   */\n  0x00\n    /* \"#utility.yul\":332:341   */\n  dup4\n    /* \"#utility.yul\":328:345   */\n  add\n    /* \"#utility.yul\":319:325   */\n  dup5\n    /* \"#utility.yul\":275:346   */\n  tag_36\n  jump\t// in\ntag_41:\n    /* \"#utility.yul\":131:353   */\n  swap3\n  swap2\n  pop\n  pop\n  jump\t// out\n    /* \"#utility.yul\":359:550   */\ntag_4:\n    /* \"#utility.yul\":399:403   */\n  0x00\n    /* \"#utility.yul\":419:439   */\n  tag_43\n    /* \"#utility.yul\":437:438   */\n  dup3\n    /* \"#utility.yul\":419:439   */\n  tag_39\n  jump\t// in\ntag_43:\n    /* \"#utility.yul\":414:439   */\n  swap2\n  pop\n    /* \"#utility.yul\":453:473   */\n  tag_44\n    /* \"#utility.yul\":471:472   */\n  dup4\n    /* \"#utility.yul\":453:473   */\n  tag_39\n  jump\t// in\ntag_44:\n    /* \"#utility.yul\":448:473   */\n  swap3\n  pop\n    /* \"#utility.yul\":492:493   */\n  dup3\n    /* \"#utility.yul\":489:490   */\n  dup3\n    /* \"#utility.yul\":486:494   */\n  lt\n    /* \"#utility.yul\":483:517   */\n  iszero\n  tag_45\n  jumpi\n    /* \"#utility.yul\":497:515   */\n  tag_46\n  tag_47\n  jump\t// in\ntag_46:\n    /* \"#utility.yul\":483:517   */\ntag_45:\n    /* \"#utility.yul\":542:543   */\n  dup3\n    /* \"#utility.yul\":539:540   */\n  dup3\n    /* \"#utility.yul\":535:544   */\n  sub\n    /* \"#utility.yul\":527:544   */\n  swap1\n  pop\n    /* \"#utility.yul\":359:550   */\n  swap3\n  swap2\n  pop\n  pop\n  jump\t// out\n    /* \"#utility.yul\":556:633   */\ntag_39:\n    /* \"#utility.yul\":593:600   */\n  0x00\n    /* \"#utility.yul\":622:627   */\n  dup2\n    /* \"#utility.yul\":611:627   */\n  swap1\n  pop\n    /* \"#utility.yul\":556:633   */\n  swap2\n  swap1\n  pop\n  jump\t// out\n    /* \"#utility.yul\":639:959   */\ntag_25:\n    /* \"#utility.yul\":683:689   */\n  0x00\n    /* \"#utility.yul\":720:721   */\n  0x02\n    /* \"#utility.yul\":714:718   */\n  dup3\n    /* \"#utility.yul\":710:722   */\n  div\n    /* \"#utility.yul\":700:722   */\n  swap1\n  pop\n    /* \"#utility.yul\":767:768   */\n  0x01\n    /* \"#utility.yul\":761:765   */\n  dup3\n    /* \"#utility.yul\":757:769   */\n  and\n    /* \"#utility.yul\":788:806   */\n  dup1\n    /* \"#utility.yul\":778:859   */\n  tag_50\n  jumpi\n    /* \"#utility.yul\":844:848   */\n  0x7f\n    /* \"#utility.yul\":836:842   */\n  dup3\n    /* \"#utility.yul\":832:849   */\n  and\n    /* \"#utility.yul\":822:849   */\n  swap2\n  pop\n    /* \"#utility.yul\":778:859   */\ntag_50:\n    /* \"#utility.yul\":906:908   */\n  0x20\n    /* \"#utility.yul\":898:904   */\n  dup3\n    /* \"#utility.yul\":895:909   */\n  lt\n    /* \"#utility.yul\":875:893   */\n  dup2\n    /* \"#utility.yul\":872:910   */\n  eq\n    /* \"#utility.yul\":869:953   */\n  iszero\n  tag_51\n  jumpi\n    /* \"#utility.yul\":925:943   */\n  tag_52\n  tag_53\n  jump\t// in\ntag_52:\n    /* \"#utility.yul\":869:953   */\ntag_51:\n    /* \"#utility.yul\":690:959   */\n  pop\n    /* \"#utility.yul\":639:959   */\n  swap2\n  swap1\n  pop\n  jump\t// out\n    /* \"#utility.yul\":965:1141   */\ntag_2:\n    /* \"#utility.yul\":997:998   */\n  0x00\n    /* \"#utility.yul\":1014:1034   */\n  tag_55\n    /* \"#utility.yul\":1032:1033   */\n  dup3\n    /* \"#utility.yul\":1014:1034   */\n  tag_39\n  jump\t// in\ntag_55:\n    /* \"#utility.yul\":1009:1034   */\n  swap2\n  pop\n    /* \"#utility.yul\":1048:1068   */\n  tag_56\n    /* \"#utility.yul\":1066:1067   */\n  dup4\n    /* \"#utility.yul\":1048:1068   */\n  tag_39\n  jump\t// in\ntag_56:\n    /* \"#utility.yul\":1043:1068   */\n  swap3\n  pop\n    /* \"#utility.yul\":1087:1088   */\n  dup3\n    /* \"#utility.yul\":1077:1112   */\n  tag_57\n  jumpi\n    /* \"#utility.yul\":1092:1110   */\n  tag_58\n  tag_59\n  jump\t// in\ntag_58:\n    /* \"#utility.yul\":1077:1112   */\ntag_57:\n    /* \"#utility.yul\":1133:1134   */\n  dup3\n    /* \"#utility.yul\":1130:1131   */\n  dup3\n    /* \"#utility.yul\":1126:1135   */\n  mod\n    /* \"#utility.yul\":1121:1135   */\n  swap1\n  pop\n    /* \"#utility.yul\":965:1141   */\n  swap3\n  swap2\n  pop\n  pop\n  jump\t// out\n    /* \"#utility.yul\":1147:1327   */\ntag_47:\n    /* \"#utility.yul\":1195:1272   */\n  0x4e487b7100000000000000000000000000000000000000000000000000000000\n    /* \"#utility.yul\":1192:1193   */\n  0x00\n    /* \"#utility.yul\":1185:1273   */\n  mstore\n    /* \"#utility.yul\":1292:1296   */\n  0x11\n    /* \"#utility.yul\":1289:1290   */\n  0x04\n    /* \"#utility.yul\":1282:1297   */\n  mstore\n    /* \"#utility.yul\":1316:1320   */\n  0x24\n    /* \"#utility.yul\":1313:1314   */\n  0x00\n    /* \"#utility.yul\":1306:1321   */\n  revert\n    /* \"#utility.yul\":1333:1513   */\ntag_59:\n    /* \"#utility.yul\":1381:1458   */\n  0x4e487b7100000000000000000000000000000000000000000000000000000000\n    /* \"#utility.yul\":1378:1379   */\n  0x00\n    /* \"#utility.yul\":1371:1459   */\n  mstore\n    /* \"#utility.yul\":1478:1482   */\n  0x12\n    /* \"#utility.yul\":1475:1476   */\n  0x04\n    /* \"#utility.yul\":1468:1483   */\n  mstore\n    /* \"#utility.yul\":1502:1506   */\n  0x24\n    /* \"#utility.yul\":1499:1500   */\n  0x00\n    /* \"#utility.yul\":1492:1507   */\n  revert\n    /* \"#utility.yul\":1519:1699   */\ntag_53:\n    /* \"#utility.yul\":1567:1644   */\n  0x4e487b7100000000000000000000000000000000000000000000000000000000\n    /* \"#utility.yul\":1564:1565   */\n  0x00\n    /* \"#utility.yul\":1557:1645   */\n  mstore\n    /* \"#utility.yul\":1664:1668   */\n  0x22\n    /* \"#utility.yul\":1661:1662   */\n  0x04\n    /* \"#utility.yul\":1654:1669   */\n  mstore\n    /* \"#utility.yul\":1688:1692   */\n  0x24\n    /* \"#utility.yul\":1685:1686   */\n  0x00\n    /* \"#utility.yul\":1678:1693   */\n  revert\n    /* \"contracts/04_Aguacate_token.sol\":761:14414  contract AGUACATE is Context, IERC20, Ownable {\r... */\ntag_21:\n  dataSize(sub_0)\n  dup1\n  dataOffset(sub_0)\n  0x00\n  codecopy\n  0x00\n  return\nstop\n\nsub_0: assembly {\n        /* \"contracts/04_Aguacate_token.sol\":761:14414  contract AGUACATE is Context, IERC20, Ownable {\r... */\n      mstore(0x40, 0x80)\n      callvalue\n      dup1\n      iszero\n      tag_1\n      jumpi\n      0x00\n      dup1\n      revert\n    tag_1:\n      pop\n      jumpi(tag_2, lt(calldatasize, 0x04))\n      shr(0xe0, calldataload(0x00))\n      dup1\n      0x70a08231\n      gt\n      tag_35\n      jumpi\n      dup1\n      0xc0b0fda2\n      gt\n      tag_36\n      jumpi\n      dup1\n      0xf2cc0c18\n      gt\n      tag_37\n      jumpi\n      dup1\n      0xf2cc0c18\n      eq\n      tag_31\n      jumpi\n      dup1\n      0xf2fde38b\n      eq\n      tag_32\n      jumpi\n      dup1\n      0xf7a91591\n      eq\n      tag_33\n      jumpi\n      dup1\n      0xf84354f1\n      eq\n      tag_34\n      jumpi\n      jump(tag_2)\n    tag_37:\n      dup1\n      0xc0b0fda2\n      eq\n      tag_27\n      jumpi\n      dup1\n      0xcba0e996\n      eq\n      tag_28\n      jumpi\n      dup1\n      0xdd467064\n      eq\n      tag_29\n      jumpi\n      dup1\n      0xdd62ed3e\n      eq\n      tag_30\n      jumpi\n      jump(tag_2)\n    tag_36:\n      dup1\n      0xa457c2d7\n      gt\n      tag_38\n      jumpi\n      dup1\n      0xa457c2d7\n      eq\n      tag_23\n      jumpi\n      dup1\n      0xa69df4b5\n      eq\n      tag_24\n      jumpi\n      dup1\n      0xa9059cbb\n      eq\n      tag_25\n      jumpi\n      dup1\n      0xb6c52324\n      eq\n      tag_26\n      jumpi\n      jump(tag_2)\n    tag_38:\n      dup1\n      0x70a08231\n      eq\n      tag_19\n      jumpi\n      dup1\n      0x715018a6\n      eq\n      tag_20\n      jumpi\n      dup1\n      0x8da5cb5b\n      eq\n      tag_21\n      jumpi\n      dup1\n      0x95d89b41\n      eq\n      tag_22\n      jumpi\n      jump(tag_2)\n    tag_35:\n      dup1\n      0x313ce567\n      gt\n      tag_39\n      jumpi\n      dup1\n      0x3bd5d173\n      gt\n      tag_40\n      jumpi\n      dup1\n      0x3bd5d173\n      eq\n      tag_15\n      jumpi\n      dup1\n      0x4549b039\n      eq\n      tag_16\n      jumpi\n      dup1\n      0x5880b873\n      eq\n      tag_17\n      jumpi\n      dup1\n      0x6a39d32c\n      eq\n      tag_18\n      jumpi\n      jump(tag_2)\n    tag_40:\n      dup1\n      0x313ce567\n      eq\n      tag_11\n      jumpi\n      dup1\n      0x39509351\n      eq\n      tag_12\n      jumpi\n      dup1\n      0x3b124fe7\n      eq\n      tag_13\n      jumpi\n      dup1\n      0x3b6b1961\n      eq\n      tag_14\n      jumpi\n      jump(tag_2)\n    tag_39:\n      dup1\n      0x18160ddd\n      gt\n      tag_41\n      jumpi\n      dup1\n      0x18160ddd\n      eq\n      tag_7\n      jumpi\n      dup1\n      0x23b872dd\n      eq\n      tag_8\n      jumpi\n      dup1\n      0x2d838119\n      eq\n      tag_9\n      jumpi\n      dup1\n      0x2fbff030\n      eq\n      tag_10\n      jumpi\n      jump(tag_2)\n    tag_41:\n      dup1\n      0x01378f46\n      eq\n      tag_3\n      jumpi\n      dup1\n      0x06fdde03\n      eq\n      tag_4\n      jumpi\n      dup1\n      0x095ea7b3\n      eq\n      tag_5\n      jumpi\n      dup1\n      0x13114a9d\n      eq\n      tag_6\n      jumpi\n    tag_2:\n      0x00\n      dup1\n      revert\n        /* \"contracts/04_Aguacate_token.sol\":1936:2003  address public burnAdd = 0x000000000000000000000000000000000000dEaD */\n    tag_3:\n      tag_42\n      tag_43\n      jump\t// in\n    tag_42:\n      mload(0x40)\n      tag_44\n      swap2\n      swap1\n      tag_45\n      jump\t// in\n    tag_44:\n      mload(0x40)\n      dup1\n      swap2\n      sub\n      swap1\n      return\n        /* \"contracts/04_Aguacate_token.sol\":2253:2336  function name() public view returns (string memory) {\r... */\n    tag_4:\n      tag_46\n      tag_47\n      jump\t// in\n    tag_46:\n      mload(0x40)\n      tag_48\n      swap2\n      swap1\n      tag_49\n      jump\t// in\n    tag_48:\n      mload(0x40)\n      dup1\n      swap2\n      sub\n      swap1\n      return\n        /* \"contracts/04_Aguacate_token.sol\":3239:3400  function approve(address spender, uint256 amount) public override returns (bool) {\r... */\n    tag_5:\n      tag_50\n      0x04\n      dup1\n      calldatasize\n      sub\n      dup2\n      add\n      swap1\n      tag_51\n      swap2\n      swap1\n      tag_52\n      jump\t// in\n    tag_51:\n      tag_53\n      jump\t// in\n    tag_50:\n      mload(0x40)\n      tag_54\n      swap2\n      swap1\n      tag_55\n      jump\t// in\n    tag_54:\n      mload(0x40)\n      dup1\n      swap2\n      sub\n      swap1\n      return\n        /* \"contracts/04_Aguacate_token.sol\":4439:4526  function totalFees() public view returns (uint256) {\r... */\n    tag_6:\n      tag_56\n      tag_57\n      jump\t// in\n    tag_56:\n      mload(0x40)\n      tag_58\n      swap2\n      swap1\n      tag_59\n      jump\t// in\n    tag_58:\n      mload(0x40)\n      dup1\n      swap2\n      sub\n      swap1\n      return\n        /* \"contracts/04_Aguacate_token.sol\":2546:2641  function totalSupply() public view override returns (uint256) {\r... */\n    tag_7:\n      tag_60\n      tag_61\n      jump\t// in\n    tag_60:\n      mload(0x40)\n      tag_62\n      swap2\n      swap1\n      tag_59\n      jump\t// in\n    tag_62:\n      mload(0x40)\n      dup1\n      swap2\n      sub\n      swap1\n      return\n        /* \"contracts/04_Aguacate_token.sol\":3424:3737  function transferFrom(address sender, address recipient, uint256 amount) public override returns (bool) {\r... */\n    tag_8:\n      tag_63\n      0x04\n      dup1\n      calldatasize\n      sub\n      dup2\n      add\n      swap1\n      tag_64\n      swap2\n      swap1\n      tag_65\n      jump\t// in\n    tag_64:\n      tag_66\n      jump\t// in\n    tag_63:\n      mload(0x40)\n      tag_67\n      swap2\n      swap1\n      tag_55\n      jump\t// in\n    tag_67:\n      mload(0x40)\n      dup1\n      swap2\n      sub\n      swap1\n      return\n        /* \"contracts/04_Aguacate_token.sol\":5687:5940  function tokenFromReflection(uint256 rAmount) public view returns(uint256) {\r... */\n    tag_9:\n      tag_68\n      0x04\n      dup1\n      calldatasize\n      sub\n      dup2\n      add\n      swap1\n      tag_69\n      swap2\n      swap1\n      tag_70\n      jump\t// in\n    tag_69:\n      tag_71\n      jump\t// in\n    tag_68:\n      mload(0x40)\n      tag_72\n      swap2\n      swap1\n      tag_59\n      jump\t// in\n    tag_72:\n      mload(0x40)\n      dup1\n      swap2\n      sub\n      swap1\n      return\n        /* \"contracts/04_Aguacate_token.sol\":13926:14010  function _getTaxFee() public view returns(uint256) {\r... */\n    tag_10:\n      tag_73\n      tag_74\n      jump\t// in\n    tag_73:\n      mload(0x40)\n      tag_75\n      swap2\n      swap1\n      tag_59\n      jump\t// in\n    tag_75:\n      mload(0x40)\n      dup1\n      swap2\n      sub\n      swap1\n      return\n        /* \"contracts/04_Aguacate_token.sol\":2439:2522  function decimals() public view returns (uint8) {\r... */\n    tag_11:\n      tag_76\n      tag_77\n      jump\t// in\n    tag_76:\n      mload(0x40)\n      tag_78\n      swap2\n      swap1\n      tag_79\n      jump\t// in\n    tag_78:\n      mload(0x40)\n      dup1\n      swap2\n      sub\n      swap1\n      return\n        /* \"contracts/04_Aguacate_token.sol\":3763:3981  function increaseAllowance(address spender, uint256 addedValue) public virtual returns (bool) {\r... */\n    tag_12:\n      tag_80\n      0x04\n      dup1\n      calldatasize\n      sub\n      dup2\n      add\n      swap1\n      tag_81\n      swap2\n      swap1\n      tag_52\n      jump\t// in\n    tag_81:\n      tag_82\n      jump\t// in\n    tag_80:\n      mload(0x40)\n      tag_83\n      swap2\n      swap1\n      tag_55\n      jump\t// in\n    tag_83:\n      mload(0x40)\n      dup1\n      swap2\n      sub\n      swap1\n      return\n        /* \"contracts/04_Aguacate_token.sol\":1696:1723  uint256  public _taxFee = 2 */\n    tag_13:\n      tag_84\n      tag_85\n      jump\t// in\n    tag_84:\n      mload(0x40)\n      tag_86\n      swap2\n      swap1\n      tag_59\n      jump\t// in\n    tag_86:\n      mload(0x40)\n      dup1\n      swap2\n      sub\n      swap1\n      return\n        /* \"contracts/04_Aguacate_token.sol\":14313:14409  function _setBurnFee(uint256 burnFee) external onlyOwner() {\r... */\n    tag_14:\n      tag_87\n      0x04\n      dup1\n      calldatasize\n      sub\n      dup2\n      add\n      swap1\n      tag_88\n      swap2\n      swap1\n      tag_70\n      jump\t// in\n    tag_88:\n      tag_89\n      jump\t// in\n    tag_87:\n      stop\n        /* \"contracts/04_Aguacate_token.sol\":4567:5140  function deliver(uint256 tAmount) public {\r... */\n    tag_15:\n      tag_90\n      0x04\n      dup1\n      calldatasize\n      sub\n      dup2\n      add\n      swap1\n      tag_91\n      swap2\n      swap1\n      tag_70\n      jump\t// in\n    tag_91:\n      tag_92\n      jump\t// in\n    tag_90:\n      stop\n        /* \"contracts/04_Aguacate_token.sol\":5219:5655  function reflectionFromToken(uint256 tAmount, bool deductTransferFee) public view returns(uint256) {\r... */\n    tag_16:\n      tag_93\n      0x04\n      dup1\n      calldatasize\n      sub\n      dup2\n      add\n      swap1\n      tag_94\n      swap2\n      swap1\n      tag_95\n      jump\t// in\n    tag_94:\n      tag_96\n      jump\t// in\n    tag_93:\n      mload(0x40)\n      tag_97\n      swap2\n      swap1\n      tag_59\n      jump\t// in\n    tag_97:\n      mload(0x40)\n      dup1\n      swap2\n      sub\n      swap1\n      return\n        /* \"contracts/04_Aguacate_token.sol\":14213:14305  function _setTaxFee(uint256 taxFee) external onlyOwner() {\r... */\n    tag_17:\n      tag_98\n      0x04\n      dup1\n      calldatasize\n      sub\n      dup2\n      add\n      swap1\n      tag_99\n      swap2\n      swap1\n      tag_70\n      jump\t// in\n    tag_99:\n      tag_100\n      jump\t// in\n    tag_98:\n      stop\n        /* \"contracts/04_Aguacate_token.sol\":14018:14104  function _getBurnFee() public view returns(uint256) {\r... */\n    tag_18:\n      tag_101\n      tag_102\n      jump\t// in\n    tag_101:\n      mload(0x40)\n      tag_103\n      swap2\n      swap1\n      tag_59\n      jump\t// in\n    tag_103:\n      mload(0x40)\n      dup1\n      swap2\n      sub\n      swap1\n      return\n        /* \"contracts/04_Aguacate_token.sol\":2664:2862  function balanceOf(address account) public view override returns (uint256) {\r... */\n    tag_19:\n      tag_104\n      0x04\n      dup1\n      calldatasize\n      sub\n      dup2\n      add\n      swap1\n      tag_105\n      swap2\n      swap1\n      tag_106\n      jump\t// in\n    tag_105:\n      tag_107\n      jump\t// in\n    tag_104:\n      mload(0x40)\n      tag_108\n      swap2\n      swap1\n      tag_59\n      jump\t// in\n    tag_108:\n      mload(0x40)\n      dup1\n      swap2\n      sub\n      swap1\n      return\n        /* \"contracts/abstracts/Ownable.sol\":1977:2080  function renounceOwnership() public virtual onlyOwner {\r... */\n    tag_20:\n      tag_109\n      tag_110\n      jump\t// in\n    tag_109:\n      stop\n        /* \"contracts/abstracts/Ownable.sol\":1329:1416  function owner() public view virtual returns (address) {\r... */\n    tag_21:\n      tag_111\n      tag_112\n      jump\t// in\n    tag_111:\n      mload(0x40)\n      tag_113\n      swap2\n      swap1\n      tag_45\n      jump\t// in\n    tag_113:\n      mload(0x40)\n      dup1\n      swap2\n      sub\n      swap1\n      return\n        /* \"contracts/04_Aguacate_token.sol\":2344:2431  function symbol() public view returns (string memory) {\r... */\n    tag_22:\n      tag_114\n      tag_115\n      jump\t// in\n    tag_114:\n      mload(0x40)\n      tag_116\n      swap2\n      swap1\n      tag_49\n      jump\t// in\n    tag_116:\n      mload(0x40)\n      dup1\n      swap2\n      sub\n      swap1\n      return\n        /* \"contracts/04_Aguacate_token.sol\":4004:4273  function decreaseAllowance(address spender, uint256 subtractedValue) public virtual returns (bool) {\r... */\n    tag_23:\n      tag_117\n      0x04\n      dup1\n      calldatasize\n      sub\n      dup2\n      add\n      swap1\n      tag_118\n      swap2\n      swap1\n      tag_52\n      jump\t// in\n    tag_118:\n      tag_119\n      jump\t// in\n    tag_117:\n      mload(0x40)\n      tag_120\n      swap2\n      swap1\n      tag_55\n      jump\t// in\n    tag_120:\n      mload(0x40)\n      dup1\n      swap2\n      sub\n      swap1\n      return\n        /* \"contracts/abstracts/Ownable.sol\":3356:3793  function unlock() public virtual {\r... */\n    tag_24:\n      tag_121\n      tag_122\n      jump\t// in\n    tag_121:\n      stop\n        /* \"contracts/04_Aguacate_token.sol\":2881:3048  function transfer(address recipient, uint256 amount) public override returns (bool) {\r... */\n    tag_25:\n      tag_123\n      0x04\n      dup1\n      calldatasize\n      sub\n      dup2\n      add\n      swap1\n      tag_124\n      swap2\n      swap1\n      tag_52\n      jump\t// in\n    tag_124:\n      tag_125\n      jump\t// in\n    tag_123:\n      mload(0x40)\n      tag_126\n      swap2\n      swap1\n      tag_55\n      jump\t// in\n    tag_126:\n      mload(0x40)\n      dup1\n      swap2\n      sub\n      swap1\n      return\n        /* \"contracts/abstracts/Ownable.sol\":2795:2884  function geUnlockTime() public view returns (uint256) {\r... */\n    tag_26:\n      tag_127\n      tag_128\n      jump\t// in\n    tag_127:\n      mload(0x40)\n      tag_129\n      swap2\n      swap1\n      tag_59\n      jump\t// in\n    tag_129:\n      mload(0x40)\n      dup1\n      swap2\n      sub\n      swap1\n      return\n        /* \"contracts/04_Aguacate_token.sol\":1826:1853  uint256 public _burnFee = 6 */\n    tag_27:\n      tag_130\n      tag_131\n      jump\t// in\n    tag_130:\n      mload(0x40)\n      tag_132\n      swap2\n      swap1\n      tag_59\n      jump\t// in\n    tag_132:\n      mload(0x40)\n      dup1\n      swap2\n      sub\n      swap1\n      return\n        /* \"contracts/04_Aguacate_token.sol\":4300:4410  function isExcluded(address account) public view returns (bool) {\r... */\n    tag_28:\n      tag_133\n      0x04\n      dup1\n      calldatasize\n      sub\n      dup2\n      add\n      swap1\n      tag_134\n      swap2\n      swap1\n      tag_106\n      jump\t// in\n    tag_134:\n      tag_135\n      jump\t// in\n    tag_133:\n      mload(0x40)\n      tag_136\n      swap2\n      swap1\n      tag_55\n      jump\t// in\n    tag_136:\n      mload(0x40)\n      dup1\n      swap2\n      sub\n      swap1\n      return\n        /* \"contracts/abstracts/Ownable.sol\":2960:3280  function lock(uint256 time) public virtual onlyOwner {\r... */\n    tag_29:\n      tag_137\n      0x04\n      dup1\n      calldatasize\n      sub\n      dup2\n      add\n      swap1\n      tag_138\n      swap2\n      swap1\n      tag_70\n      jump\t// in\n    tag_138:\n      tag_139\n      jump\t// in\n    tag_137:\n      stop\n        /* \"contracts/04_Aguacate_token.sol\":3071:3214  function allowance(address owner, address spender) public view override returns (uint256) {\r... */\n    tag_30:\n      tag_140\n      0x04\n      dup1\n      calldatasize\n      sub\n      dup2\n      add\n      swap1\n      tag_141\n      swap2\n      swap1\n      tag_142\n      jump\t// in\n    tag_141:\n      tag_143\n      jump\t// in\n    tag_140:\n      mload(0x40)\n      tag_144\n      swap2\n      swap1\n      tag_59\n      jump\t// in\n    tag_144:\n      mload(0x40)\n      dup1\n      swap2\n      sub\n      swap1\n      return\n        /* \"contracts/04_Aguacate_token.sol\":5987:6432  function excludeAccount(address account) external onlyOwner() {\r... */\n    tag_31:\n      tag_145\n      0x04\n      dup1\n      calldatasize\n      sub\n      dup2\n      add\n      swap1\n      tag_146\n      swap2\n      swap1\n      tag_106\n      jump\t// in\n    tag_146:\n      tag_147\n      jump\t// in\n    tag_145:\n      stop\n        /* \"contracts/abstracts/Ownable.sol\":2235:2436  function transferOwnership(address newOwner) public virtual onlyOwner {\r... */\n    tag_32:\n      tag_148\n      0x04\n      dup1\n      calldatasize\n      sub\n      dup2\n      add\n      swap1\n      tag_149\n      swap2\n      swap1\n      tag_106\n      jump\t// in\n    tag_149:\n      tag_150\n      jump\t// in\n    tag_148:\n      stop\n        /* \"contracts/04_Aguacate_token.sol\":14112:14205  function _getMaxTxAmount() public view returns(uint256){\r... */\n    tag_33:\n      tag_151\n      tag_152\n      jump\t// in\n    tag_151:\n      mload(0x40)\n      tag_153\n      swap2\n      swap1\n      tag_59\n      jump\t// in\n    tag_153:\n      mload(0x40)\n      dup1\n      swap2\n      sub\n      swap1\n      return\n        /* \"contracts/04_Aguacate_token.sol\":6485:6963  function includeAccount(address account) external onlyOwner() {\r... */\n    tag_34:\n      tag_154\n      0x04\n      dup1\n      calldatasize\n      sub\n      dup2\n      add\n      swap1\n      tag_155\n      swap2\n      swap1\n      tag_106\n      jump\t// in\n    tag_155:\n      tag_156\n      jump\t// in\n    tag_154:\n      stop\n        /* \"contracts/04_Aguacate_token.sol\":1936:2003  address public burnAdd = 0x000000000000000000000000000000000000dEaD */\n    tag_43:\n      0x12\n      0x00\n      swap1\n      sload\n      swap1\n      0x0100\n      exp\n      swap1\n      div\n      0xffffffffffffffffffffffffffffffffffffffff\n      and\n      dup2\n      jump\t// out\n        /* \"contracts/04_Aguacate_token.sol\":2253:2336  function name() public view returns (string memory) {\r... */\n    tag_47:\n        /* \"contracts/04_Aguacate_token.sol\":2290:2303  string memory */\n      0x60\n        /* \"contracts/04_Aguacate_token.sol\":2323:2328  _name */\n      0x0b\n        /* \"contracts/04_Aguacate_token.sol\":2316:2328  return _name */\n      dup1\n      sload\n      tag_158\n      swap1\n      tag_159\n      jump\t// in\n    tag_158:\n      dup1\n      0x1f\n      add\n      0x20\n      dup1\n      swap2\n      div\n      mul\n      0x20\n      add\n      mload(0x40)\n      swap1\n      dup2\n      add\n      0x40\n      mstore\n      dup1\n      swap3\n      swap2\n      swap1\n      dup2\n      dup2\n      mstore\n      0x20\n      add\n      dup3\n      dup1\n      sload\n      tag_160\n      swap1\n      tag_159\n      jump\t// in\n    tag_160:\n      dup1\n      iszero\n      tag_161\n      jumpi\n      dup1\n      0x1f\n      lt\n      tag_162\n      jumpi\n      0x0100\n      dup1\n      dup4\n      sload\n      div\n      mul\n      dup4\n      mstore\n      swap2\n      0x20\n      add\n      swap2\n      jump(tag_161)\n    tag_162:\n      dup3\n      add\n      swap2\n      swap1\n      0x00\n      mstore\n      keccak256(0x00, 0x20)\n      swap1\n    tag_163:\n      dup2\n      sload\n      dup2\n      mstore\n      swap1\n      0x01\n      add\n      swap1\n      0x20\n      add\n      dup1\n      dup4\n      gt\n      tag_163\n      jumpi\n      dup3\n      swap1\n      sub\n      0x1f\n      and\n      dup3\n      add\n      swap2\n    tag_161:\n      pop\n      pop\n      pop\n      pop\n      pop\n      swap1\n      pop\n        /* \"contracts/04_Aguacate_token.sol\":2253:2336  function name() public view returns (string memory) {\r... */\n      swap1\n      jump\t// out\n        /* \"contracts/04_Aguacate_token.sol\":3239:3400  function approve(address spender, uint256 amount) public override returns (bool) {\r... */\n    tag_53:\n        /* \"contracts/04_Aguacate_token.sol\":3314:3318  bool */\n      0x00\n        /* \"contracts/04_Aguacate_token.sol\":3331:3370  _approve(_msgSender(), spender, amount) */\n      tag_165\n        /* \"contracts/04_Aguacate_token.sol\":3340:3352  _msgSender() */\n      tag_166\n        /* \"contracts/04_Aguacate_token.sol\":3340:3350  _msgSender */\n      tag_167\n        /* \"contracts/04_Aguacate_token.sol\":3340:3352  _msgSender() */\n      jump\t// in\n    tag_166:\n        /* \"contracts/04_Aguacate_token.sol\":3354:3361  spender */\n      dup5\n        /* \"contracts/04_Aguacate_token.sol\":3363:3369  amount */\n      dup5\n        /* \"contracts/04_Aguacate_token.sol\":3331:3339  _approve */\n      tag_168\n        /* \"contracts/04_Aguacate_token.sol\":3331:3370  _approve(_msgSender(), spender, amount) */\n      jump\t// in\n    tag_165:\n        /* \"contracts/04_Aguacate_token.sol\":3388:3392  true */\n      0x01\n        /* \"contracts/04_Aguacate_token.sol\":3381:3392  return true */\n      swap1\n      pop\n        /* \"contracts/04_Aguacate_token.sol\":3239:3400  function approve(address spender, uint256 amount) public override returns (bool) {\r... */\n      swap3\n      swap2\n      pop\n      pop\n      jump\t// out\n        /* \"contracts/04_Aguacate_token.sol\":4439:4526  function totalFees() public view returns (uint256) {\r... */\n    tag_57:\n        /* \"contracts/04_Aguacate_token.sol\":4481:4488  uint256 */\n      0x00\n        /* \"contracts/04_Aguacate_token.sol\":4508:4518  _tFeeTotal */\n      sload(0x0a)\n        /* \"contracts/04_Aguacate_token.sol\":4501:4518  return _tFeeTotal */\n      swap1\n      pop\n        /* \"contracts/04_Aguacate_token.sol\":4439:4526  function totalFees() public view returns (uint256) {\r... */\n      swap1\n      jump\t// out\n        /* \"contracts/04_Aguacate_token.sol\":2546:2641  function totalSupply() public view override returns (uint256) {\r... */\n    tag_61:\n        /* \"contracts/04_Aguacate_token.sol\":2599:2606  uint256 */\n      0x00\n        /* \"contracts/04_Aguacate_token.sol\":2626:2633  _tTotal */\n      sload(0x08)\n        /* \"contracts/04_Aguacate_token.sol\":2619:2633  return _tTotal */\n      swap1\n      pop\n        /* \"contracts/04_Aguacate_token.sol\":2546:2641  function totalSupply() public view override returns (uint256) {\r... */\n      swap1\n      jump\t// out\n        /* \"contracts/04_Aguacate_token.sol\":3424:3737  function transferFrom(address sender, address recipient, uint256 amount) public override returns (bool) {\r... */\n    tag_66:\n        /* \"contracts/04_Aguacate_token.sol\":3522:3526  bool */\n      0x00\n        /* \"contracts/04_Aguacate_token.sol\":3539:3575  _transfer(sender, recipient, amount) */\n      tag_172\n        /* \"contracts/04_Aguacate_token.sol\":3549:3555  sender */\n      dup5\n        /* \"contracts/04_Aguacate_token.sol\":3557:3566  recipient */\n      dup5\n        /* \"contracts/04_Aguacate_token.sol\":3568:3574  amount */\n      dup5\n        /* \"contracts/04_Aguacate_token.sol\":3539:3548  _transfer */\n      tag_173\n        /* \"contracts/04_Aguacate_token.sol\":3539:3575  _transfer(sender, recipient, amount) */\n      jump\t// in\n    tag_172:\n        /* \"contracts/04_Aguacate_token.sol\":3586:3707  _approve(sender, _msgSender(), _allowances[sender][_msgSender()].sub(amount, \"ERC20: transfer amount exceeds allowance\")) */\n      tag_174\n        /* \"contracts/04_Aguacate_token.sol\":3595:3601  sender */\n      dup5\n        /* \"contracts/04_Aguacate_token.sol\":3603:3615  _msgSender() */\n      tag_175\n        /* \"contracts/04_Aguacate_token.sol\":3603:3613  _msgSender */\n      tag_167\n        /* \"contracts/04_Aguacate_token.sol\":3603:3615  _msgSender() */\n      jump\t// in\n    tag_175:\n        /* \"contracts/04_Aguacate_token.sol\":3617:3706  _allowances[sender][_msgSender()].sub(amount, \"ERC20: transfer amount exceeds allowance\") */\n      tag_176\n        /* \"contracts/04_Aguacate_token.sol\":3655:3661  amount */\n      dup6\n        /* \"contracts/04_Aguacate_token.sol\":3617:3706  _allowances[sender][_msgSender()].sub(amount, \"ERC20: transfer amount exceeds allowance\") */\n      mload(0x40)\n      dup1\n      0x60\n      add\n      0x40\n      mstore\n      dup1\n      0x28\n      dup2\n      mstore\n      0x20\n      add\n      data_974d1b4421da69cc60b481194f0dad36a5bb4e23da810da7a7fb30cdba178330\n      0x28\n      swap2\n      codecopy\n        /* \"contracts/04_Aguacate_token.sol\":3617:3628  _allowances */\n      0x05\n        /* \"contracts/04_Aguacate_token.sol\":3617:3636  _allowances[sender] */\n      0x00\n        /* \"contracts/04_Aguacate_token.sol\":3629:3635  sender */\n      dup12\n        /* \"contracts/04_Aguacate_token.sol\":3617:3636  _allowances[sender] */\n      0xffffffffffffffffffffffffffffffffffffffff\n      and\n      0xffffffffffffffffffffffffffffffffffffffff\n      and\n      dup2\n      mstore\n      0x20\n      add\n      swap1\n      dup2\n      mstore\n      0x20\n      add\n      0x00\n      keccak256\n        /* \"contracts/04_Aguacate_token.sol\":3617:3650  _allowances[sender][_msgSender()] */\n      0x00\n        /* \"contracts/04_Aguacate_token.sol\":3637:3649  _msgSender() */\n      tag_177\n        /* \"contracts/04_Aguacate_token.sol\":3637:3647  _msgSender */\n      tag_167\n        /* \"contracts/04_Aguacate_token.sol\":3637:3649  _msgSender() */\n      jump\t// in\n    tag_177:\n        /* \"contracts/04_Aguacate_token.sol\":3617:3650  _allowances[sender][_msgSender()] */\n      0xffffffffffffffffffffffffffffffffffffffff\n      and\n      0xffffffffffffffffffffffffffffffffffffffff\n      and\n      dup2\n      mstore\n      0x20\n      add\n      swap1\n      dup2\n      mstore\n      0x20\n      add\n      0x00\n      keccak256\n      sload\n        /* \"contracts/04_Aguacate_token.sol\":3617:3654  _allowances[sender][_msgSender()].sub */\n      tag_178\n      swap1\n        /* \"contracts/04_Aguacate_token.sol\":3617:3706  _allowances[sender][_msgSender()].sub(amount, \"ERC20: transfer amount exceeds allowance\") */\n      swap3\n      swap2\n      swap1\n      0xffffffff\n      and\n      jump\t// in\n    tag_176:\n        /* \"contracts/04_Aguacate_token.sol\":3586:3594  _approve */\n      tag_168\n        /* \"contracts/04_Aguacate_token.sol\":3586:3707  _approve(sender, _msgSender(), _allowances[sender][_msgSender()].sub(amount, \"ERC20: transfer amount exceeds allowance\")) */\n      jump\t// in\n    tag_174:\n        /* \"contracts/04_Aguacate_token.sol\":3725:3729  true */\n      0x01\n        /* \"contracts/04_Aguacate_token.sol\":3718:3729  return true */\n      swap1\n      pop\n        /* \"contracts/04_Aguacate_token.sol\":3424:3737  function transferFrom(address sender, address recipient, uint256 amount) public override returns (bool) {\r... */\n      swap4\n      swap3\n      pop\n      pop\n      pop\n      jump\t// out\n        /* \"contracts/04_Aguacate_token.sol\":5687:5940  function tokenFromReflection(uint256 rAmount) public view returns(uint256) {\r... */\n    tag_71:\n        /* \"contracts/04_Aguacate_token.sol\":5753:5760  uint256 */\n      0x00\n        /* \"contracts/04_Aguacate_token.sol\":5792:5799  _rTotal */\n      sload(0x09)\n        /* \"contracts/04_Aguacate_token.sol\":5781:5788  rAmount */\n      dup3\n        /* \"contracts/04_Aguacate_token.sol\":5781:5799  rAmount <= _rTotal */\n      gt\n      iszero\n        /* \"contracts/04_Aguacate_token.sol\":5773:5846  require(rAmount <= _rTotal, \"Amount must be less than total reflections\") */\n      tag_180\n      jumpi\n      mload(0x40)\n      0x08c379a000000000000000000000000000000000000000000000000000000000\n      dup2\n      mstore\n      0x04\n      add\n      tag_181\n      swap1\n      tag_182\n      jump\t// in\n    tag_181:\n      mload(0x40)\n      dup1\n      swap2\n      sub\n      swap1\n      revert\n    tag_180:\n        /* \"contracts/04_Aguacate_token.sol\":5857:5876  uint256 currentRate */\n      0x00\n        /* \"contracts/04_Aguacate_token.sol\":5880:5890  _getRate() */\n      tag_183\n        /* \"contracts/04_Aguacate_token.sol\":5880:5888  _getRate */\n      tag_184\n        /* \"contracts/04_Aguacate_token.sol\":5880:5890  _getRate() */\n      jump\t// in\n    tag_183:\n        /* \"contracts/04_Aguacate_token.sol\":5857:5890  uint256 currentRate =  _getRate() */\n      swap1\n      pop\n        /* \"contracts/04_Aguacate_token.sol\":5908:5932  rAmount.div(currentRate) */\n      tag_185\n        /* \"contracts/04_Aguacate_token.sol\":5920:5931  currentRate */\n      dup2\n        /* \"contracts/04_Aguacate_token.sol\":5908:5915  rAmount */\n      dup5\n        /* \"contracts/04_Aguacate_token.sol\":5908:5919  rAmount.div */\n      tag_186\n      swap1\n        /* \"contracts/04_Aguacate_token.sol\":5908:5932  rAmount.div(currentRate) */\n      swap2\n      swap1\n      0xffffffff\n      and\n      jump\t// in\n    tag_185:\n        /* \"contracts/04_Aguacate_token.sol\":5901:5932  return rAmount.div(currentRate) */\n      swap2\n      pop\n      pop\n        /* \"contracts/04_Aguacate_token.sol\":5687:5940  function tokenFromReflection(uint256 rAmount) public view returns(uint256) {\r... */\n      swap2\n      swap1\n      pop\n      jump\t// out\n        /* \"contracts/04_Aguacate_token.sol\":13926:14010  function _getTaxFee() public view returns(uint256) {\r... */\n    tag_74:\n        /* \"contracts/04_Aguacate_token.sol\":13968:13975  uint256 */\n      0x00\n        /* \"contracts/04_Aguacate_token.sol\":13995:14002  _taxFee */\n      sload(0x0e)\n        /* \"contracts/04_Aguacate_token.sol\":13988:14002  return _taxFee */\n      swap1\n      pop\n        /* \"contracts/04_Aguacate_token.sol\":13926:14010  function _getTaxFee() public view returns(uint256) {\r... */\n      swap1\n      jump\t// out\n        /* \"contracts/04_Aguacate_token.sol\":2439:2522  function decimals() public view returns (uint8) {\r... */\n    tag_77:\n        /* \"contracts/04_Aguacate_token.sol\":2480:2485  uint8 */\n      0x00\n        /* \"contracts/04_Aguacate_token.sol\":2505:2514  _decimals */\n      0x0d\n      0x00\n      swap1\n      sload\n      swap1\n      0x0100\n      exp\n      swap1\n      div\n      0xff\n      and\n        /* \"contracts/04_Aguacate_token.sol\":2498:2514  return _decimals */\n      swap1\n      pop\n        /* \"contracts/04_Aguacate_token.sol\":2439:2522  function decimals() public view returns (uint8) {\r... */\n      swap1\n      jump\t// out\n        /* \"contracts/04_Aguacate_token.sol\":3763:3981  function increaseAllowance(address spender, uint256 addedValue) public virtual returns (bool) {\r... */\n    tag_82:\n        /* \"contracts/04_Aguacate_token.sol\":3851:3855  bool */\n      0x00\n        /* \"contracts/04_Aguacate_token.sol\":3868:3951  _approve(_msgSender(), spender, _allowances[_msgSender()][spender].add(addedValue)) */\n      tag_190\n        /* \"contracts/04_Aguacate_token.sol\":3877:3889  _msgSender() */\n      tag_191\n        /* \"contracts/04_Aguacate_token.sol\":3877:3887  _msgSender */\n      tag_167\n        /* \"contracts/04_Aguacate_token.sol\":3877:3889  _msgSender() */\n      jump\t// in\n    tag_191:\n        /* \"contracts/04_Aguacate_token.sol\":3891:3898  spender */\n      dup5\n        /* \"contracts/04_Aguacate_token.sol\":3900:3950  _allowances[_msgSender()][spender].add(addedValue) */\n      tag_192\n        /* \"contracts/04_Aguacate_token.sol\":3939:3949  addedValue */\n      dup6\n        /* \"contracts/04_Aguacate_token.sol\":3900:3911  _allowances */\n      0x05\n        /* \"contracts/04_Aguacate_token.sol\":3900:3925  _allowances[_msgSender()] */\n      0x00\n        /* \"contracts/04_Aguacate_token.sol\":3912:3924  _msgSender() */\n      tag_193\n        /* \"contracts/04_Aguacate_token.sol\":3912:3922  _msgSender */\n      tag_167\n        /* \"contracts/04_Aguacate_token.sol\":3912:3924  _msgSender() */\n      jump\t// in\n    tag_193:\n        /* \"contracts/04_Aguacate_token.sol\":3900:3925  _allowances[_msgSender()] */\n      0xffffffffffffffffffffffffffffffffffffffff\n      and\n      0xffffffffffffffffffffffffffffffffffffffff\n      and\n      dup2\n      mstore\n      0x20\n      add\n      swap1\n      dup2\n      mstore\n      0x20\n      add\n      0x00\n      keccak256\n        /* \"contracts/04_Aguacate_token.sol\":3900:3934  _allowances[_msgSender()][spender] */\n      0x00\n        /* \"contracts/04_Aguacate_token.sol\":3926:3933  spender */\n      dup10\n        /* \"contracts/04_Aguacate_token.sol\":3900:3934  _allowances[_msgSender()][spender] */\n      0xffffffffffffffffffffffffffffffffffffffff\n      and\n      0xffffffffffffffffffffffffffffffffffffffff\n      and\n      dup2\n      mstore\n      0x20\n      add\n      swap1\n      dup2\n      mstore\n      0x20\n      add\n      0x00\n      keccak256\n      sload\n        /* \"contracts/04_Aguacate_token.sol\":3900:3938  _allowances[_msgSender()][spender].add */\n      tag_194\n      swap1\n        /* \"contracts/04_Aguacate_token.sol\":3900:3950  _allowances[_msgSender()][spender].add(addedValue) */\n      swap2\n      swap1\n      0xffffffff\n      and\n      jump\t// in\n    tag_192:\n        /* \"contracts/04_Aguacate_token.sol\":3868:3876  _approve */\n      tag_168\n        /* \"contracts/04_Aguacate_token.sol\":3868:3951  _approve(_msgSender(), spender, _allowances[_msgSender()][spender].add(addedValue)) */\n      jump\t// in\n    tag_190:\n        /* \"contracts/04_Aguacate_token.sol\":3969:3973  true */\n      0x01\n        /* \"contracts/04_Aguacate_token.sol\":3962:3973  return true */\n      swap1\n      pop\n        /* \"contracts/04_Aguacate_token.sol\":3763:3981  function increaseAllowance(address spender, uint256 addedValue) public virtual returns (bool) {\r... */\n      swap3\n      swap2\n      pop\n      pop\n      jump\t// out\n        /* \"contracts/04_Aguacate_token.sol\":1696:1723  uint256  public _taxFee = 2 */\n    tag_85:\n      sload(0x0e)\n      dup2\n      jump\t// out\n        /* \"contracts/04_Aguacate_token.sol\":14313:14409  function _setBurnFee(uint256 burnFee) external onlyOwner() {\r... */\n    tag_89:\n        /* \"contracts/abstracts/Ownable.sol\":1215:1228  _checkOwner() */\n      tag_196\n        /* \"contracts/abstracts/Ownable.sol\":1215:1226  _checkOwner */\n      tag_197\n        /* \"contracts/abstracts/Ownable.sol\":1215:1228  _checkOwner() */\n      jump\t// in\n    tag_196:\n        /* \"contracts/04_Aguacate_token.sol\":14394:14401  burnFee */\n      dup1\n        /* \"contracts/04_Aguacate_token.sol\":14383:14391  _burnFee */\n      0x10\n        /* \"contracts/04_Aguacate_token.sol\":14383:14401  _burnFee = burnFee */\n      dup2\n      swap1\n      sstore\n      pop\n        /* \"contracts/04_Aguacate_token.sol\":14313:14409  function _setBurnFee(uint256 burnFee) external onlyOwner() {\r... */\n      pop\n      jump\t// out\n        /* \"contracts/04_Aguacate_token.sol\":4567:5140  function deliver(uint256 tAmount) public {\r... */\n    tag_92:\n        /* \"contracts/04_Aguacate_token.sol\":4640:4654  address sender */\n      0x00\n        /* \"contracts/04_Aguacate_token.sol\":4657:4669  _msgSender() */\n      tag_200\n        /* \"contracts/04_Aguacate_token.sol\":4657:4667  _msgSender */\n      tag_167\n        /* \"contracts/04_Aguacate_token.sol\":4657:4669  _msgSender() */\n      jump\t// in\n    tag_200:\n        /* \"contracts/04_Aguacate_token.sol\":4640:4669  address sender = _msgSender() */\n      swap1\n      pop\n        /* \"contracts/04_Aguacate_token.sol\":4734:4745  _isExcluded */\n      0x06\n        /* \"contracts/04_Aguacate_token.sol\":4734:4753  _isExcluded[sender] */\n      0x00\n        /* \"contracts/04_Aguacate_token.sol\":4746:4752  sender */\n      dup3\n        /* \"contracts/04_Aguacate_token.sol\":4734:4753  _isExcluded[sender] */\n      0xffffffffffffffffffffffffffffffffffffffff\n      and\n      0xffffffffffffffffffffffffffffffffffffffff\n      and\n      dup2\n      mstore\n      0x20\n      add\n      swap1\n      dup2\n      mstore\n      0x20\n      add\n      0x00\n      keccak256\n      0x00\n      swap1\n      sload\n      swap1\n      0x0100\n      exp\n      swap1\n      div\n      0xff\n      and\n        /* \"contracts/04_Aguacate_token.sol\":4733:4753  !_isExcluded[sender] */\n      iszero\n        /* \"contracts/04_Aguacate_token.sol\":4725:4802  require(!_isExcluded[sender], \"Excluded addresses cannot call this function\") */\n      tag_201\n      jumpi\n      mload(0x40)\n      0x08c379a000000000000000000000000000000000000000000000000000000000\n      dup2\n      mstore\n      0x04\n      add\n      tag_202\n      swap1\n      tag_203\n      jump\t// in\n    tag_202:\n      mload(0x40)\n      dup1\n      swap2\n      sub\n      swap1\n      revert\n    tag_201:\n        /* \"contracts/04_Aguacate_token.sol\":4858:4873  uint256 rAmount */\n      0x00\n        /* \"contracts/04_Aguacate_token.sol\":4882:4901  _getValues(tAmount) */\n      tag_204\n        /* \"contracts/04_Aguacate_token.sol\":4893:4900  tAmount */\n      dup4\n        /* \"contracts/04_Aguacate_token.sol\":4882:4892  _getValues */\n      tag_205\n        /* \"contracts/04_Aguacate_token.sol\":4882:4901  _getValues(tAmount) */\n      jump\t// in\n    tag_204:\n        /* \"contracts/04_Aguacate_token.sol\":4857:4901  (uint256 rAmount,,,,,) = _getValues(tAmount) */\n      pop\n      pop\n      pop\n      pop\n      pop\n      swap1\n      pop\n        /* \"contracts/04_Aguacate_token.sol\":4954:4982  _rOwned[sender].sub(rAmount) */\n      tag_206\n        /* \"contracts/04_Aguacate_token.sol\":4974:4981  rAmount */\n      dup2\n        /* \"contracts/04_Aguacate_token.sol\":4954:4961  _rOwned */\n      0x03\n        /* \"contracts/04_Aguacate_token.sol\":4954:4969  _rOwned[sender] */\n      0x00\n        /* \"contracts/04_Aguacate_token.sol\":4962:4968  sender */\n      dup6\n        /* \"contracts/04_Aguacate_token.sol\":4954:4969  _rOwned[sender] */\n      0xffffffffffffffffffffffffffffffffffffffff\n      and\n      0xffffffffffffffffffffffffffffffffffffffff\n      and\n      dup2\n      mstore\n      0x20\n      add\n      swap1\n      dup2\n      mstore\n      0x20\n      add\n      0x00\n      keccak256\n      sload\n        /* \"contracts/04_Aguacate_token.sol\":4954:4973  _rOwned[sender].sub */\n      tag_207\n      swap1\n        /* \"contracts/04_Aguacate_token.sol\":4954:4982  _rOwned[sender].sub(rAmount) */\n      swap2\n      swap1\n      0xffffffff\n      and\n      jump\t// in\n    tag_206:\n        /* \"contracts/04_Aguacate_token.sol\":4936:4943  _rOwned */\n      0x03\n        /* \"contracts/04_Aguacate_token.sol\":4936:4951  _rOwned[sender] */\n      0x00\n        /* \"contracts/04_Aguacate_token.sol\":4944:4950  sender */\n      dup5\n        /* \"contracts/04_Aguacate_token.sol\":4936:4951  _rOwned[sender] */\n      0xffffffffffffffffffffffffffffffffffffffff\n      and\n      0xffffffffffffffffffffffffffffffffffffffff\n      and\n      dup2\n      mstore\n      0x20\n      add\n      swap1\n      dup2\n      mstore\n      0x20\n      add\n      0x00\n      keccak256\n        /* \"contracts/04_Aguacate_token.sol\":4936:4982  _rOwned[sender] = _rOwned[sender].sub(rAmount) */\n      dup2\n      swap1\n      sstore\n      pop\n        /* \"contracts/04_Aguacate_token.sol\":5031:5051  _rTotal.sub(rAmount) */\n      tag_208\n        /* \"contracts/04_Aguacate_token.sol\":5043:5050  rAmount */\n      dup2\n        /* \"contracts/04_Aguacate_token.sol\":5031:5038  _rTotal */\n      sload(0x09)\n        /* \"contracts/04_Aguacate_token.sol\":5031:5042  _rTotal.sub */\n      tag_207\n      swap1\n        /* \"contracts/04_Aguacate_token.sol\":5031:5051  _rTotal.sub(rAmount) */\n      swap2\n      swap1\n      0xffffffff\n      and\n      jump\t// in\n    tag_208:\n        /* \"contracts/04_Aguacate_token.sol\":5021:5028  _rTotal */\n      0x09\n        /* \"contracts/04_Aguacate_token.sol\":5021:5051  _rTotal = _rTotal.sub(rAmount) */\n      dup2\n      swap1\n      sstore\n      pop\n        /* \"contracts/04_Aguacate_token.sol\":5109:5132  _tFeeTotal.add(tAmount) */\n      tag_209\n        /* \"contracts/04_Aguacate_token.sol\":5124:5131  tAmount */\n      dup4\n        /* \"contracts/04_Aguacate_token.sol\":5109:5119  _tFeeTotal */\n      sload(0x0a)\n        /* \"contracts/04_Aguacate_token.sol\":5109:5123  _tFeeTotal.add */\n      tag_194\n      swap1\n        /* \"contracts/04_Aguacate_token.sol\":5109:5132  _tFeeTotal.add(tAmount) */\n      swap2\n      swap1\n      0xffffffff\n      and\n      jump\t// in\n    tag_209:\n        /* \"contracts/04_Aguacate_token.sol\":5096:5106  _tFeeTotal */\n      0x0a\n        /* \"contracts/04_Aguacate_token.sol\":5096:5132  _tFeeTotal = _tFeeTotal.add(tAmount) */\n      dup2\n      swap1\n      sstore\n      pop\n        /* \"contracts/04_Aguacate_token.sol\":4608:5140  {\r... */\n      pop\n      pop\n        /* \"contracts/04_Aguacate_token.sol\":4567:5140  function deliver(uint256 tAmount) public {\r... */\n      pop\n      jump\t// out\n        /* \"contracts/04_Aguacate_token.sol\":5219:5655  function reflectionFromToken(uint256 tAmount, bool deductTransferFee) public view returns(uint256) {\r... */\n    tag_96:\n        /* \"contracts/04_Aguacate_token.sol\":5309:5316  uint256 */\n      0x00\n        /* \"contracts/04_Aguacate_token.sol\":5348:5355  _tTotal */\n      sload(0x08)\n        /* \"contracts/04_Aguacate_token.sol\":5337:5344  tAmount */\n      dup4\n        /* \"contracts/04_Aguacate_token.sol\":5337:5355  tAmount <= _tTotal */\n      gt\n      iszero\n        /* \"contracts/04_Aguacate_token.sol\":5329:5391  require(tAmount <= _tTotal, \"Amount must be less than supply\") */\n      tag_211\n      jumpi\n      mload(0x40)\n      0x08c379a000000000000000000000000000000000000000000000000000000000\n      dup2\n      mstore\n      0x04\n      add\n      tag_212\n      swap1\n      tag_213\n      jump\t// in\n    tag_212:\n      mload(0x40)\n      dup1\n      swap2\n      sub\n      swap1\n      revert\n    tag_211:\n        /* \"contracts/04_Aguacate_token.sol\":5407:5424  deductTransferFee */\n      dup2\n        /* \"contracts/04_Aguacate_token.sol\":5402:5648  if (!deductTransferFee) {\r... */\n      tag_214\n      jumpi\n        /* \"contracts/04_Aguacate_token.sol\":5442:5457  uint256 rAmount */\n      0x00\n        /* \"contracts/04_Aguacate_token.sol\":5466:5485  _getValues(tAmount) */\n      tag_215\n        /* \"contracts/04_Aguacate_token.sol\":5477:5484  tAmount */\n      dup5\n        /* \"contracts/04_Aguacate_token.sol\":5466:5476  _getValues */\n      tag_205\n        /* \"contracts/04_Aguacate_token.sol\":5466:5485  _getValues(tAmount) */\n      jump\t// in\n    tag_215:\n        /* \"contracts/04_Aguacate_token.sol\":5441:5485  (uint256 rAmount,,,,,) = _getValues(tAmount) */\n      pop\n      pop\n      pop\n      pop\n      pop\n      swap1\n      pop\n        /* \"contracts/04_Aguacate_token.sol\":5507:5514  rAmount */\n      dup1\n        /* \"contracts/04_Aguacate_token.sol\":5500:5514  return rAmount */\n      swap2\n      pop\n      pop\n      jump(tag_210)\n        /* \"contracts/04_Aguacate_token.sol\":5402:5648  if (!deductTransferFee) {\r... */\n    tag_214:\n        /* \"contracts/04_Aguacate_token.sol\":5549:5572  uint256 rTransferAmount */\n      0x00\n        /* \"contracts/04_Aguacate_token.sol\":5580:5599  _getValues(tAmount) */\n      tag_217\n        /* \"contracts/04_Aguacate_token.sol\":5591:5598  tAmount */\n      dup5\n        /* \"contracts/04_Aguacate_token.sol\":5580:5590  _getValues */\n      tag_205\n        /* \"contracts/04_Aguacate_token.sol\":5580:5599  _getValues(tAmount) */\n      jump\t// in\n    tag_217:\n        /* \"contracts/04_Aguacate_token.sol\":5547:5599  (,uint256 rTransferAmount,,,,) = _getValues(tAmount) */\n      pop\n      pop\n      pop\n      pop\n      swap2\n      pop\n      pop\n        /* \"contracts/04_Aguacate_token.sol\":5621:5636  rTransferAmount */\n      dup1\n        /* \"contracts/04_Aguacate_token.sol\":5614:5636  return rTransferAmount */\n      swap2\n      pop\n      pop\n        /* \"contracts/04_Aguacate_token.sol\":5219:5655  function reflectionFromToken(uint256 tAmount, bool deductTransferFee) public view returns(uint256) {\r... */\n    tag_210:\n      swap3\n      swap2\n      pop\n      pop\n      jump\t// out\n        /* \"contracts/04_Aguacate_token.sol\":14213:14305  function _setTaxFee(uint256 taxFee) external onlyOwner() {\r... */\n    tag_100:\n        /* \"contracts/abstracts/Ownable.sol\":1215:1228  _checkOwner() */\n      tag_219\n        /* \"contracts/abstracts/Ownable.sol\":1215:1226  _checkOwner */\n      tag_197\n        /* \"contracts/abstracts/Ownable.sol\":1215:1228  _checkOwner() */\n      jump\t// in\n    tag_219:\n        /* \"contracts/04_Aguacate_token.sol\":14291:14297  taxFee */\n      dup1\n        /* \"contracts/04_Aguacate_token.sol\":14281:14288  _taxFee */\n      0x0e\n        /* \"contracts/04_Aguacate_token.sol\":14281:14297  _taxFee = taxFee */\n      dup2\n      swap1\n      sstore\n      pop\n        /* \"contracts/04_Aguacate_token.sol\":14213:14305  function _setTaxFee(uint256 taxFee) external onlyOwner() {\r... */\n      pop\n      jump\t// out\n        /* \"contracts/04_Aguacate_token.sol\":14018:14104  function _getBurnFee() public view returns(uint256) {\r... */\n    tag_102:\n        /* \"contracts/04_Aguacate_token.sol\":14061:14068  uint256 */\n      0x00\n        /* \"contracts/04_Aguacate_token.sol\":14088:14096  _burnFee */\n      sload(0x10)\n        /* \"contracts/04_Aguacate_token.sol\":14081:14096  return _burnFee */\n      swap1\n      pop\n        /* \"contracts/04_Aguacate_token.sol\":14018:14104  function _getBurnFee() public view returns(uint256) {\r... */\n      swap1\n      jump\t// out\n        /* \"contracts/04_Aguacate_token.sol\":2664:2862  function balanceOf(address account) public view override returns (uint256) {\r... */\n    tag_107:\n        /* \"contracts/04_Aguacate_token.sol\":2730:2737  uint256 */\n      0x00\n        /* \"contracts/04_Aguacate_token.sol\":2754:2765  _isExcluded */\n      0x06\n        /* \"contracts/04_Aguacate_token.sol\":2754:2774  _isExcluded[account] */\n      0x00\n        /* \"contracts/04_Aguacate_token.sol\":2766:2773  account */\n      dup4\n        /* \"contracts/04_Aguacate_token.sol\":2754:2774  _isExcluded[account] */\n      0xffffffffffffffffffffffffffffffffffffffff\n      and\n      0xffffffffffffffffffffffffffffffffffffffff\n      and\n      dup2\n      mstore\n      0x20\n      add\n      swap1\n      dup2\n      mstore\n      0x20\n      add\n      0x00\n      keccak256\n      0x00\n      swap1\n      sload\n      swap1\n      0x0100\n      exp\n      swap1\n      div\n      0xff\n      and\n        /* \"contracts/04_Aguacate_token.sol\":2750:2799  if (_isExcluded[account]) return _tOwned[account] */\n      iszero\n      tag_223\n      jumpi\n        /* \"contracts/04_Aguacate_token.sol\":2783:2790  _tOwned */\n      0x04\n        /* \"contracts/04_Aguacate_token.sol\":2783:2799  _tOwned[account] */\n      0x00\n        /* \"contracts/04_Aguacate_token.sol\":2791:2798  account */\n      dup4\n        /* \"contracts/04_Aguacate_token.sol\":2783:2799  _tOwned[account] */\n      0xffffffffffffffffffffffffffffffffffffffff\n      and\n      0xffffffffffffffffffffffffffffffffffffffff\n      and\n      dup2\n      mstore\n      0x20\n      add\n      swap1\n      dup2\n      mstore\n      0x20\n      add\n      0x00\n      keccak256\n      sload\n        /* \"contracts/04_Aguacate_token.sol\":2776:2799  return _tOwned[account] */\n      swap1\n      pop\n      jump(tag_222)\n        /* \"contracts/04_Aguacate_token.sol\":2750:2799  if (_isExcluded[account]) return _tOwned[account] */\n    tag_223:\n        /* \"contracts/04_Aguacate_token.sol\":2817:2854  tokenFromReflection(_rOwned[account]) */\n      tag_224\n        /* \"contracts/04_Aguacate_token.sol\":2837:2844  _rOwned */\n      0x03\n        /* \"contracts/04_Aguacate_token.sol\":2837:2853  _rOwned[account] */\n      0x00\n        /* \"contracts/04_Aguacate_token.sol\":2845:2852  account */\n      dup5\n        /* \"contracts/04_Aguacate_token.sol\":2837:2853  _rOwned[account] */\n      0xffffffffffffffffffffffffffffffffffffffff\n      and\n      0xffffffffffffffffffffffffffffffffffffffff\n      and\n      dup2\n      mstore\n      0x20\n      add\n      swap1\n      dup2\n      mstore\n      0x20\n      add\n      0x00\n      keccak256\n      sload\n        /* \"contracts/04_Aguacate_token.sol\":2817:2836  tokenFromReflection */\n      tag_71\n        /* \"contracts/04_Aguacate_token.sol\":2817:2854  tokenFromReflection(_rOwned[account]) */\n      jump\t// in\n    tag_224:\n        /* \"contracts/04_Aguacate_token.sol\":2810:2854  return tokenFromReflection(_rOwned[account]) */\n      swap1\n      pop\n        /* \"contracts/04_Aguacate_token.sol\":2664:2862  function balanceOf(address account) public view override returns (uint256) {\r... */\n    tag_222:\n      swap2\n      swap1\n      pop\n      jump\t// out\n        /* \"contracts/abstracts/Ownable.sol\":1977:2080  function renounceOwnership() public virtual onlyOwner {\r... */\n    tag_110:\n        /* \"contracts/abstracts/Ownable.sol\":1215:1228  _checkOwner() */\n      tag_226\n        /* \"contracts/abstracts/Ownable.sol\":1215:1226  _checkOwner */\n      tag_197\n        /* \"contracts/abstracts/Ownable.sol\":1215:1228  _checkOwner() */\n      jump\t// in\n    tag_226:\n        /* \"contracts/abstracts/Ownable.sol\":2042:2072  _transferOwnership(address(0)) */\n      tag_228\n        /* \"contracts/abstracts/Ownable.sol\":2069:2070  0 */\n      0x00\n        /* \"contracts/abstracts/Ownable.sol\":2042:2060  _transferOwnership */\n      tag_229\n        /* \"contracts/abstracts/Ownable.sol\":2042:2072  _transferOwnership(address(0)) */\n      jump\t// in\n    tag_228:\n        /* \"contracts/abstracts/Ownable.sol\":1977:2080  function renounceOwnership() public virtual onlyOwner {\r... */\n      jump\t// out\n        /* \"contracts/abstracts/Ownable.sol\":1329:1416  function owner() public view virtual returns (address) {\r... */\n    tag_112:\n        /* \"contracts/abstracts/Ownable.sol\":1375:1382  address */\n      0x00\n        /* \"contracts/abstracts/Ownable.sol\":1402:1408  _owner */\n      dup1\n      0x00\n      swap1\n      sload\n      swap1\n      0x0100\n      exp\n      swap1\n      div\n      0xffffffffffffffffffffffffffffffffffffffff\n      and\n        /* \"contracts/abstracts/Ownable.sol\":1395:1408  return _owner */\n      swap1\n      pop\n        /* \"contracts/abstracts/Ownable.sol\":1329:1416  function owner() public view virtual returns (address) {\r... */\n      swap1\n      jump\t// out\n        /* \"contracts/04_Aguacate_token.sol\":2344:2431  function symbol() public view returns (string memory) {\r... */\n    tag_115:\n        /* \"contracts/04_Aguacate_token.sol\":2383:2396  string memory */\n      0x60\n        /* \"contracts/04_Aguacate_token.sol\":2416:2423  _symbol */\n      0x0c\n        /* \"contracts/04_Aguacate_token.sol\":2409:2423  return _symbol */\n      dup1\n      sload\n      tag_232\n      swap1\n      tag_159\n      jump\t// in\n    tag_232:\n      dup1\n      0x1f\n      add\n      0x20\n      dup1\n      swap2\n      div\n      mul\n      0x20\n      add\n      mload(0x40)\n      swap1\n      dup2\n      add\n      0x40\n      mstore\n      dup1\n      swap3\n      swap2\n      swap1\n      dup2\n      dup2\n      mstore\n      0x20\n      add\n      dup3\n      dup1\n      sload\n      tag_233\n      swap1\n      tag_159\n      jump\t// in\n    tag_233:\n      dup1\n      iszero\n      tag_234\n      jumpi\n      dup1\n      0x1f\n      lt\n      tag_235\n      jumpi\n      0x0100\n      dup1\n      dup4\n      sload\n      div\n      mul\n      dup4\n      mstore\n      swap2\n      0x20\n      add\n      swap2\n      jump(tag_234)\n    tag_235:\n      dup3\n      add\n      swap2\n      swap1\n      0x00\n      mstore\n      keccak256(0x00, 0x20)\n      swap1\n    tag_236:\n      dup2\n      sload\n      dup2\n      mstore\n      swap1\n      0x01\n      add\n      swap1\n      0x20\n      add\n      dup1\n      dup4\n      gt\n      tag_236\n      jumpi\n      dup3\n      swap1\n      sub\n      0x1f\n      and\n      dup3\n      add\n      swap2\n    tag_234:\n      pop\n      pop\n      pop\n      pop\n      pop\n      swap1\n      pop\n        /* \"contracts/04_Aguacate_token.sol\":2344:2431  function symbol() public view returns (string memory) {\r... */\n      swap1\n      jump\t// out\n        /* \"contracts/04_Aguacate_token.sol\":4004:4273  function decreaseAllowance(address spender, uint256 subtractedValue) public virtual returns (bool) {\r... */\n    tag_119:\n        /* \"contracts/04_Aguacate_token.sol\":4097:4101  bool */\n      0x00\n        /* \"contracts/04_Aguacate_token.sol\":4114:4243  _approve(_msgSender(), spender, _allowances[_msgSender()][spender].sub(subtractedValue, \"ERC20: decreased allowance below zero\")) */\n      tag_238\n        /* \"contracts/04_Aguacate_token.sol\":4123:4135  _msgSender() */\n      tag_239\n        /* \"contracts/04_Aguacate_token.sol\":4123:4133  _msgSender */\n      tag_167\n        /* \"contracts/04_Aguacate_token.sol\":4123:4135  _msgSender() */\n      jump\t// in\n    tag_239:\n        /* \"contracts/04_Aguacate_token.sol\":4137:4144  spender */\n      dup5\n        /* \"contracts/04_Aguacate_token.sol\":4146:4242  _allowances[_msgSender()][spender].sub(subtractedValue, \"ERC20: decreased allowance below zero\") */\n      tag_240\n        /* \"contracts/04_Aguacate_token.sol\":4185:4200  subtractedValue */\n      dup6\n        /* \"contracts/04_Aguacate_token.sol\":4146:4242  _allowances[_msgSender()][spender].sub(subtractedValue, \"ERC20: decreased allowance below zero\") */\n      mload(0x40)\n      dup1\n      0x60\n      add\n      0x40\n      mstore\n      dup1\n      0x25\n      dup2\n      mstore\n      0x20\n      add\n      data_f8b476f7d28209d77d4a4ac1fe36b9f8259aa1bb6bddfa6e89de7e51615cf8a8\n      0x25\n      swap2\n      codecopy\n        /* \"contracts/04_Aguacate_token.sol\":4146:4157  _allowances */\n      0x05\n        /* \"contracts/04_Aguacate_token.sol\":4146:4171  _allowances[_msgSender()] */\n      0x00\n        /* \"contracts/04_Aguacate_token.sol\":4158:4170  _msgSender() */\n      tag_241\n        /* \"contracts/04_Aguacate_token.sol\":4158:4168  _msgSender */\n      tag_167\n        /* \"contracts/04_Aguacate_token.sol\":4158:4170  _msgSender() */\n      jump\t// in\n    tag_241:\n        /* \"contracts/04_Aguacate_token.sol\":4146:4171  _allowances[_msgSender()] */\n      0xffffffffffffffffffffffffffffffffffffffff\n      and\n      0xffffffffffffffffffffffffffffffffffffffff\n      and\n      dup2\n      mstore\n      0x20\n      add\n      swap1\n      dup2\n      mstore\n      0x20\n      add\n      0x00\n      keccak256\n        /* \"contracts/04_Aguacate_token.sol\":4146:4180  _allowances[_msgSender()][spender] */\n      0x00\n        /* \"contracts/04_Aguacate_token.sol\":4172:4179  spender */\n      dup11\n        /* \"contracts/04_Aguacate_token.sol\":4146:4180  _allowances[_msgSender()][spender] */\n      0xffffffffffffffffffffffffffffffffffffffff\n      and\n      0xffffffffffffffffffffffffffffffffffffffff\n      and\n      dup2\n      mstore\n      0x20\n      add\n      swap1\n      dup2\n      mstore\n      0x20\n      add\n      0x00\n      keccak256\n      sload\n        /* \"contracts/04_Aguacate_token.sol\":4146:4184  _allowances[_msgSender()][spender].sub */\n      tag_178\n      swap1\n        /* \"contracts/04_Aguacate_token.sol\":4146:4242  _allowances[_msgSender()][spender].sub(subtractedValue, \"ERC20: decreased allowance below zero\") */\n      swap3\n      swap2\n      swap1\n      0xffffffff\n      and\n      jump\t// in\n    tag_240:\n        /* \"contracts/04_Aguacate_token.sol\":4114:4122  _approve */\n      tag_168\n        /* \"contracts/04_Aguacate_token.sol\":4114:4243  _approve(_msgSender(), spender, _allowances[_msgSender()][spender].sub(subtractedValue, \"ERC20: decreased allowance below zero\")) */\n      jump\t// in\n    tag_238:\n        /* \"contracts/04_Aguacate_token.sol\":4261:4265  true */\n      0x01\n        /* \"contracts/04_Aguacate_token.sol\":4254:4265  return true */\n      swap1\n      pop\n        /* \"contracts/04_Aguacate_token.sol\":4004:4273  function decreaseAllowance(address spender, uint256 subtractedValue) public virtual returns (bool) {\r... */\n      swap3\n      swap2\n      pop\n      pop\n      jump\t// out\n        /* \"contracts/abstracts/Ownable.sol\":3356:3793  function unlock() public virtual {\r... */\n    tag_122:\n        /* \"contracts/abstracts/Ownable.sol\":3426:3436  msg.sender */\n      caller\n        /* \"contracts/abstracts/Ownable.sol\":3408:3436  _previousOwner == msg.sender */\n      0xffffffffffffffffffffffffffffffffffffffff\n      and\n        /* \"contracts/abstracts/Ownable.sol\":3408:3422  _previousOwner */\n      0x01\n      0x00\n      swap1\n      sload\n      swap1\n      0x0100\n      exp\n      swap1\n      div\n      0xffffffffffffffffffffffffffffffffffffffff\n      and\n        /* \"contracts/abstracts/Ownable.sol\":3408:3436  _previousOwner == msg.sender */\n      0xffffffffffffffffffffffffffffffffffffffff\n      and\n      eq\n        /* \"contracts/abstracts/Ownable.sol\":3400:3476  require(_previousOwner == msg.sender, \"You don't have permission to unlock\") */\n      tag_243\n      jumpi\n      mload(0x40)\n      0x08c379a000000000000000000000000000000000000000000000000000000000\n      dup2\n      mstore\n      0x04\n      add\n      tag_244\n      swap1\n      tag_245\n      jump\t// in\n    tag_244:\n      mload(0x40)\n      dup1\n      swap2\n      sub\n      swap1\n      revert\n    tag_243:\n        /* \"contracts/abstracts/Ownable.sol\":3513:3522  _lockTime */\n      sload(0x02)\n        /* \"contracts/abstracts/Ownable.sol\":3495:3510  block.timestamp */\n      timestamp\n        /* \"contracts/abstracts/Ownable.sol\":3495:3522  block.timestamp > _lockTime */\n      gt\n        /* \"contracts/abstracts/Ownable.sol\":3487:3559  require(block.timestamp > _lockTime , \"Contract is locked until 7 days\") */\n      tag_246\n      jumpi\n      mload(0x40)\n      0x08c379a000000000000000000000000000000000000000000000000000000000\n      dup2\n      mstore\n      0x04\n      add\n      tag_247\n      swap1\n      tag_248\n      jump\t// in\n    tag_247:\n      mload(0x40)\n      dup1\n      swap2\n      sub\n      swap1\n      revert\n    tag_246:\n        /* \"contracts/abstracts/Ownable.sol\":3736:3750  _previousOwner */\n      0x01\n      0x00\n      swap1\n      sload\n      swap1\n      0x0100\n      exp\n      swap1\n      div\n      0xffffffffffffffffffffffffffffffffffffffff\n      and\n        /* \"contracts/abstracts/Ownable.sol\":3707:3751  OwnershipTransferred(_owner, _previousOwner) */\n      0xffffffffffffffffffffffffffffffffffffffff\n      and\n        /* \"contracts/abstracts/Ownable.sol\":3728:3734  _owner */\n      0x00\n      dup1\n      sload\n      swap1\n      0x0100\n      exp\n      swap1\n      div\n      0xffffffffffffffffffffffffffffffffffffffff\n      and\n        /* \"contracts/abstracts/Ownable.sol\":3707:3751  OwnershipTransferred(_owner, _previousOwner) */\n      0xffffffffffffffffffffffffffffffffffffffff\n      and\n      0x8be0079c531659141344cd1fd0a4f28419497f9722a3daafe3b4186f6b6457e0\n      mload(0x40)\n      mload(0x40)\n      dup1\n      swap2\n      sub\n      swap1\n      log3\n        /* \"contracts/abstracts/Ownable.sol\":3771:3785  _previousOwner */\n      0x01\n      0x00\n      swap1\n      sload\n      swap1\n      0x0100\n      exp\n      swap1\n      div\n      0xffffffffffffffffffffffffffffffffffffffff\n      and\n        /* \"contracts/abstracts/Ownable.sol\":3762:3768  _owner */\n      0x00\n      dup1\n        /* \"contracts/abstracts/Ownable.sol\":3762:3785  _owner = _previousOwner */\n      0x0100\n      exp\n      dup2\n      sload\n      dup2\n      0xffffffffffffffffffffffffffffffffffffffff\n      mul\n      not\n      and\n      swap1\n      dup4\n      0xffffffffffffffffffffffffffffffffffffffff\n      and\n      mul\n      or\n      swap1\n      sstore\n      pop\n        /* \"contracts/abstracts/Ownable.sol\":3356:3793  function unlock() public virtual {\r... */\n      jump\t// out\n        /* \"contracts/04_Aguacate_token.sol\":2881:3048  function transfer(address recipient, uint256 amount) public override returns (bool) {\r... */\n    tag_125:\n        /* \"contracts/04_Aguacate_token.sol\":2959:2963  bool */\n      0x00\n        /* \"contracts/04_Aguacate_token.sol\":2976:3018  _transfer(_msgSender(), recipient, amount) */\n      tag_250\n        /* \"contracts/04_Aguacate_token.sol\":2986:2998  _msgSender() */\n      tag_251\n        /* \"contracts/04_Aguacate_token.sol\":2986:2996  _msgSender */\n      tag_167\n        /* \"contracts/04_Aguacate_token.sol\":2986:2998  _msgSender() */\n      jump\t// in\n    tag_251:\n        /* \"contracts/04_Aguacate_token.sol\":3000:3009  recipient */\n      dup5\n        /* \"contracts/04_Aguacate_token.sol\":3011:3017  amount */\n      dup5\n        /* \"contracts/04_Aguacate_token.sol\":2976:2985  _transfer */\n      tag_173\n        /* \"contracts/04_Aguacate_token.sol\":2976:3018  _transfer(_msgSender(), recipient, amount) */\n      jump\t// in\n    tag_250:\n        /* \"contracts/04_Aguacate_token.sol\":3036:3040  true */\n      0x01\n        /* \"contracts/04_Aguacate_token.sol\":3029:3040  return true */\n      swap1\n      pop\n        /* \"contracts/04_Aguacate_token.sol\":2881:3048  function transfer(address recipient, uint256 amount) public override returns (bool) {\r... */\n      swap3\n      swap2\n      pop\n      pop\n      jump\t// out\n        /* \"contracts/abstracts/Ownable.sol\":2795:2884  function geUnlockTime() public view returns (uint256) {\r... */\n    tag_128:\n        /* \"contracts/abstracts/Ownable.sol\":2840:2847  uint256 */\n      0x00\n        /* \"contracts/abstracts/Ownable.sol\":2867:2876  _lockTime */\n      sload(0x02)\n        /* \"contracts/abstracts/Ownable.sol\":2860:2876  return _lockTime */\n      swap1\n      pop\n        /* \"contracts/abstracts/Ownable.sol\":2795:2884  function geUnlockTime() public view returns (uint256) {\r... */\n      swap1\n      jump\t// out\n        /* \"contracts/04_Aguacate_token.sol\":1826:1853  uint256 public _burnFee = 6 */\n    tag_131:\n      sload(0x10)\n      dup2\n      jump\t// out\n        /* \"contracts/04_Aguacate_token.sol\":4300:4410  function isExcluded(address account) public view returns (bool) {\r... */\n    tag_135:\n        /* \"contracts/04_Aguacate_token.sol\":4358:4362  bool */\n      0x00\n        /* \"contracts/04_Aguacate_token.sol\":4382:4393  _isExcluded */\n      0x06\n        /* \"contracts/04_Aguacate_token.sol\":4382:4402  _isExcluded[account] */\n      0x00\n        /* \"contracts/04_Aguacate_token.sol\":4394:4401  account */\n      dup4\n        /* \"contracts/04_Aguacate_token.sol\":4382:4402  _isExcluded[account] */\n      0xffffffffffffffffffffffffffffffffffffffff\n      and\n      0xffffffffffffffffffffffffffffffffffffffff\n      and\n      dup2\n      mstore\n      0x20\n      add\n      swap1\n      dup2\n      mstore\n      0x20\n      add\n      0x00\n      keccak256\n      0x00\n      swap1\n      sload\n      swap1\n      0x0100\n      exp\n      swap1\n      div\n      0xff\n      and\n        /* \"contracts/04_Aguacate_token.sol\":4375:4402  return _isExcluded[account] */\n      swap1\n      pop\n        /* \"contracts/04_Aguacate_token.sol\":4300:4410  function isExcluded(address account) public view returns (bool) {\r... */\n      swap2\n      swap1\n      pop\n      jump\t// out\n        /* \"contracts/abstracts/Ownable.sol\":2960:3280  function lock(uint256 time) public virtual onlyOwner {\r... */\n    tag_139:\n        /* \"contracts/abstracts/Ownable.sol\":1215:1228  _checkOwner() */\n      tag_255\n        /* \"contracts/abstracts/Ownable.sol\":1215:1226  _checkOwner */\n      tag_197\n        /* \"contracts/abstracts/Ownable.sol\":1215:1228  _checkOwner() */\n      jump\t// in\n    tag_255:\n        /* \"contracts/abstracts/Ownable.sol\":3041:3047  _owner */\n      0x00\n      dup1\n      sload\n      swap1\n      0x0100\n      exp\n      swap1\n      div\n      0xffffffffffffffffffffffffffffffffffffffff\n      and\n        /* \"contracts/abstracts/Ownable.sol\":3024:3038  _previousOwner */\n      0x01\n      0x00\n        /* \"contracts/abstracts/Ownable.sol\":3024:3047  _previousOwner = _owner */\n      0x0100\n      exp\n      dup2\n      sload\n      dup2\n      0xffffffffffffffffffffffffffffffffffffffff\n      mul\n      not\n      and\n      swap1\n      dup4\n      0xffffffffffffffffffffffffffffffffffffffff\n      and\n      mul\n      or\n      swap1\n      sstore\n      pop\n        /* \"contracts/abstracts/Ownable.sol\":3075:3076  0 */\n      0x00\n        /* \"contracts/abstracts/Ownable.sol\":3058:3064  _owner */\n      dup1\n      0x00\n        /* \"contracts/abstracts/Ownable.sol\":3058:3077  _owner = address(0) */\n      0x0100\n      exp\n      dup2\n      sload\n      dup2\n      0xffffffffffffffffffffffffffffffffffffffff\n      mul\n      not\n      and\n      swap1\n      dup4\n      0xffffffffffffffffffffffffffffffffffffffff\n      and\n      mul\n      or\n      swap1\n      sstore\n      pop\n        /* \"contracts/abstracts/Ownable.sol\":3118:3122  time */\n      dup1\n        /* \"contracts/abstracts/Ownable.sol\":3100:3115  block.timestamp */\n      timestamp\n        /* \"contracts/abstracts/Ownable.sol\":3100:3122  block.timestamp + time */\n      tag_257\n      swap2\n      swap1\n      tag_258\n      jump\t// in\n    tag_257:\n        /* \"contracts/abstracts/Ownable.sol\":3088:3097  _lockTime */\n      0x02\n        /* \"contracts/abstracts/Ownable.sol\":3088:3122  _lockTime = block.timestamp + time */\n      dup2\n      swap1\n      sstore\n      pop\n        /* \"contracts/abstracts/Ownable.sol\":3269:3270  0 */\n      0x00\n        /* \"contracts/abstracts/Ownable.sol\":3232:3272  OwnershipTransferred(_owner, address(0)) */\n      0xffffffffffffffffffffffffffffffffffffffff\n      and\n        /* \"contracts/abstracts/Ownable.sol\":3253:3259  _owner */\n      0x00\n      dup1\n      sload\n      swap1\n      0x0100\n      exp\n      swap1\n      div\n      0xffffffffffffffffffffffffffffffffffffffff\n      and\n        /* \"contracts/abstracts/Ownable.sol\":3232:3272  OwnershipTransferred(_owner, address(0)) */\n      0xffffffffffffffffffffffffffffffffffffffff\n      and\n      0x8be0079c531659141344cd1fd0a4f28419497f9722a3daafe3b4186f6b6457e0\n      mload(0x40)\n      mload(0x40)\n      dup1\n      swap2\n      sub\n      swap1\n      log3\n        /* \"contracts/abstracts/Ownable.sol\":2960:3280  function lock(uint256 time) public virtual onlyOwner {\r... */\n      pop\n      jump\t// out\n        /* \"contracts/04_Aguacate_token.sol\":3071:3214  function allowance(address owner, address spender) public view override returns (uint256) {\r... */\n    tag_143:\n        /* \"contracts/04_Aguacate_token.sol\":3152:3159  uint256 */\n      0x00\n        /* \"contracts/04_Aguacate_token.sol\":3179:3190  _allowances */\n      0x05\n        /* \"contracts/04_Aguacate_token.sol\":3179:3197  _allowances[owner] */\n      0x00\n        /* \"contracts/04_Aguacate_token.sol\":3191:3196  owner */\n      dup5\n        /* \"contracts/04_Aguacate_token.sol\":3179:3197  _allowances[owner] */\n      0xffffffffffffffffffffffffffffffffffffffff\n      and\n      0xffffffffffffffffffffffffffffffffffffffff\n      and\n      dup2\n      mstore\n      0x20\n      add\n      swap1\n      dup2\n      mstore\n      0x20\n      add\n      0x00\n      keccak256\n        /* \"contracts/04_Aguacate_token.sol\":3179:3206  _allowances[owner][spender] */\n      0x00\n        /* \"contracts/04_Aguacate_token.sol\":3198:3205  spender */\n      dup4\n        /* \"contracts/04_Aguacate_token.sol\":3179:3206  _allowances[owner][spender] */\n      0xffffffffffffffffffffffffffffffffffffffff\n      and\n      0xffffffffffffffffffffffffffffffffffffffff\n      and\n      dup2\n      mstore\n      0x20\n      add\n      swap1\n      dup2\n      mstore\n      0x20\n      add\n      0x00\n      keccak256\n      sload\n        /* \"contracts/04_Aguacate_token.sol\":3172:3206  return _allowances[owner][spender] */\n      swap1\n      pop\n        /* \"contracts/04_Aguacate_token.sol\":3071:3214  function allowance(address owner, address spender) public view override returns (uint256) {\r... */\n      swap3\n      swap2\n      pop\n      pop\n      jump\t// out\n        /* \"contracts/04_Aguacate_token.sol\":5987:6432  function excludeAccount(address account) external onlyOwner() {\r... */\n    tag_147:\n        /* \"contracts/abstracts/Ownable.sol\":1215:1228  _checkOwner() */\n      tag_261\n        /* \"contracts/abstracts/Ownable.sol\":1215:1226  _checkOwner */\n      tag_197\n        /* \"contracts/abstracts/Ownable.sol\":1215:1228  _checkOwner() */\n      jump\t// in\n    tag_261:\n        /* \"contracts/04_Aguacate_token.sol\":6182:6193  _isExcluded */\n      0x06\n        /* \"contracts/04_Aguacate_token.sol\":6182:6202  _isExcluded[account] */\n      0x00\n        /* \"contracts/04_Aguacate_token.sol\":6194:6201  account */\n      dup3\n        /* \"contracts/04_Aguacate_token.sol\":6182:6202  _isExcluded[account] */\n      0xffffffffffffffffffffffffffffffffffffffff\n      and\n      0xffffffffffffffffffffffffffffffffffffffff\n      and\n      dup2\n      mstore\n      0x20\n      add\n      swap1\n      dup2\n      mstore\n      0x20\n      add\n      0x00\n      keccak256\n      0x00\n      swap1\n      sload\n      swap1\n      0x0100\n      exp\n      swap1\n      div\n      0xff\n      and\n        /* \"contracts/04_Aguacate_token.sol\":6181:6202  !_isExcluded[account] */\n      iszero\n        /* \"contracts/04_Aguacate_token.sol\":6173:6234  require(!_isExcluded[account], \"Account is already excluded\") */\n      tag_263\n      jumpi\n      mload(0x40)\n      0x08c379a000000000000000000000000000000000000000000000000000000000\n      dup2\n      mstore\n      0x04\n      add\n      tag_264\n      swap1\n      tag_265\n      jump\t// in\n    tag_264:\n      mload(0x40)\n      dup1\n      swap2\n      sub\n      swap1\n      revert\n    tag_263:\n        /* \"contracts/04_Aguacate_token.sol\":6267:6268  0 */\n      0x00\n        /* \"contracts/04_Aguacate_token.sol\":6248:6255  _rOwned */\n      0x03\n        /* \"contracts/04_Aguacate_token.sol\":6248:6264  _rOwned[account] */\n      0x00\n        /* \"contracts/04_Aguacate_token.sol\":6256:6263  account */\n      dup4\n        /* \"contracts/04_Aguacate_token.sol\":6248:6264  _rOwned[account] */\n      0xffffffffffffffffffffffffffffffffffffffff\n      and\n      0xffffffffffffffffffffffffffffffffffffffff\n      and\n      dup2\n      mstore\n      0x20\n      add\n      swap1\n      dup2\n      mstore\n      0x20\n      add\n      0x00\n      keccak256\n      sload\n        /* \"contracts/04_Aguacate_token.sol\":6248:6268  _rOwned[account] > 0 */\n      gt\n        /* \"contracts/04_Aguacate_token.sol\":6245:6353  if(_rOwned[account] > 0) {\r... */\n      iszero\n      tag_266\n      jumpi\n        /* \"contracts/04_Aguacate_token.sol\":6304:6341  tokenFromReflection(_rOwned[account]) */\n      tag_267\n        /* \"contracts/04_Aguacate_token.sol\":6324:6331  _rOwned */\n      0x03\n        /* \"contracts/04_Aguacate_token.sol\":6324:6340  _rOwned[account] */\n      0x00\n        /* \"contracts/04_Aguacate_token.sol\":6332:6339  account */\n      dup4\n        /* \"contracts/04_Aguacate_token.sol\":6324:6340  _rOwned[account] */\n      0xffffffffffffffffffffffffffffffffffffffff\n      and\n      0xffffffffffffffffffffffffffffffffffffffff\n      and\n      dup2\n      mstore\n      0x20\n      add\n      swap1\n      dup2\n      mstore\n      0x20\n      add\n      0x00\n      keccak256\n      sload\n        /* \"contracts/04_Aguacate_token.sol\":6304:6323  tokenFromReflection */\n      tag_71\n        /* \"contracts/04_Aguacate_token.sol\":6304:6341  tokenFromReflection(_rOwned[account]) */\n      jump\t// in\n    tag_267:\n        /* \"contracts/04_Aguacate_token.sol\":6285:6292  _tOwned */\n      0x04\n        /* \"contracts/04_Aguacate_token.sol\":6285:6301  _tOwned[account] */\n      0x00\n        /* \"contracts/04_Aguacate_token.sol\":6293:6300  account */\n      dup4\n        /* \"contracts/04_Aguacate_token.sol\":6285:6301  _tOwned[account] */\n      0xffffffffffffffffffffffffffffffffffffffff\n      and\n      0xffffffffffffffffffffffffffffffffffffffff\n      and\n      dup2\n      mstore\n      0x20\n      add\n      swap1\n      dup2\n      mstore\n      0x20\n      add\n      0x00\n      keccak256\n        /* \"contracts/04_Aguacate_token.sol\":6285:6341  _tOwned[account] = tokenFromReflection(_rOwned[account]) */\n      dup2\n      swap1\n      sstore\n      pop\n        /* \"contracts/04_Aguacate_token.sol\":6245:6353  if(_rOwned[account] > 0) {\r... */\n    tag_266:\n        /* \"contracts/04_Aguacate_token.sol\":6386:6390  true */\n      0x01\n        /* \"contracts/04_Aguacate_token.sol\":6363:6374  _isExcluded */\n      0x06\n        /* \"contracts/04_Aguacate_token.sol\":6363:6383  _isExcluded[account] */\n      0x00\n        /* \"contracts/04_Aguacate_token.sol\":6375:6382  account */\n      dup4\n        /* \"contracts/04_Aguacate_token.sol\":6363:6383  _isExcluded[account] */\n      0xffffffffffffffffffffffffffffffffffffffff\n      and\n      0xffffffffffffffffffffffffffffffffffffffff\n      and\n      dup2\n      mstore\n      0x20\n      add\n      swap1\n      dup2\n      mstore\n      0x20\n      add\n      0x00\n      keccak256\n      0x00\n        /* \"contracts/04_Aguacate_token.sol\":6363:6390  _isExcluded[account] = true */\n      0x0100\n      exp\n      dup2\n      sload\n      dup2\n      0xff\n      mul\n      not\n      and\n      swap1\n      dup4\n      iszero\n      iszero\n      mul\n      or\n      swap1\n      sstore\n      pop\n        /* \"contracts/04_Aguacate_token.sol\":6401:6410  _excluded */\n      0x07\n        /* \"contracts/04_Aguacate_token.sol\":6416:6423  account */\n      dup2\n        /* \"contracts/04_Aguacate_token.sol\":6401:6424  _excluded.push(account) */\n      swap1\n      dup1\n      0x01\n      dup2\n      sload\n      add\n      dup1\n      dup3\n      sstore\n      dup1\n      swap2\n      pop\n      pop\n      0x01\n      swap1\n      sub\n      swap1\n      0x00\n      mstore\n      keccak256(0x00, 0x20)\n      add\n      0x00\n      swap1\n      swap2\n      swap1\n      swap2\n      swap1\n      swap2\n      0x0100\n      exp\n      dup2\n      sload\n      dup2\n      0xffffffffffffffffffffffffffffffffffffffff\n      mul\n      not\n      and\n      swap1\n      dup4\n      0xffffffffffffffffffffffffffffffffffffffff\n      and\n      mul\n      or\n      swap1\n      sstore\n      pop\n        /* \"contracts/04_Aguacate_token.sol\":5987:6432  function excludeAccount(address account) external onlyOwner() {\r... */\n      pop\n      jump\t// out\n        /* \"contracts/abstracts/Ownable.sol\":2235:2436  function transferOwnership(address newOwner) public virtual onlyOwner {\r... */\n    tag_150:\n        /* \"contracts/abstracts/Ownable.sol\":1215:1228  _checkOwner() */\n      tag_270\n        /* \"contracts/abstracts/Ownable.sol\":1215:1226  _checkOwner */\n      tag_197\n        /* \"contracts/abstracts/Ownable.sol\":1215:1228  _checkOwner() */\n      jump\t// in\n    tag_270:\n        /* \"contracts/abstracts/Ownable.sol\":2344:2345  0 */\n      0x00\n        /* \"contracts/abstracts/Ownable.sol\":2324:2346  newOwner != address(0) */\n      0xffffffffffffffffffffffffffffffffffffffff\n      and\n        /* \"contracts/abstracts/Ownable.sol\":2324:2332  newOwner */\n      dup2\n        /* \"contracts/abstracts/Ownable.sol\":2324:2346  newOwner != address(0) */\n      0xffffffffffffffffffffffffffffffffffffffff\n      and\n      eq\n      iszero\n        /* \"contracts/abstracts/Ownable.sol\":2316:2389  require(newOwner != address(0), \"Ownable: new owner is the zero address\") */\n      tag_272\n      jumpi\n      mload(0x40)\n      0x08c379a000000000000000000000000000000000000000000000000000000000\n      dup2\n      mstore\n      0x04\n      add\n      tag_273\n      swap1\n      tag_274\n      jump\t// in\n    tag_273:\n      mload(0x40)\n      dup1\n      swap2\n      sub\n      swap1\n      revert\n    tag_272:\n        /* \"contracts/abstracts/Ownable.sol\":2400:2428  _transferOwnership(newOwner) */\n      tag_275\n        /* \"contracts/abstracts/Ownable.sol\":2419:2427  newOwner */\n      dup2\n        /* \"contracts/abstracts/Ownable.sol\":2400:2418  _transferOwnership */\n      tag_229\n        /* \"contracts/abstracts/Ownable.sol\":2400:2428  _transferOwnership(newOwner) */\n      jump\t// in\n    tag_275:\n        /* \"contracts/abstracts/Ownable.sol\":2235:2436  function transferOwnership(address newOwner) public virtual onlyOwner {\r... */\n      pop\n      jump\t// out\n        /* \"contracts/04_Aguacate_token.sol\":14112:14205  function _getMaxTxAmount() public view returns(uint256){\r... */\n    tag_152:\n        /* \"contracts/04_Aguacate_token.sol\":14159:14166  uint256 */\n      0x00\n        /* \"contracts/04_Aguacate_token.sol\":14185:14197  _max_tx_size */\n      sload(0x13)\n        /* \"contracts/04_Aguacate_token.sol\":14178:14197  return _max_tx_size */\n      swap1\n      pop\n        /* \"contracts/04_Aguacate_token.sol\":14112:14205  function _getMaxTxAmount() public view returns(uint256){\r... */\n      swap1\n      jump\t// out\n        /* \"contracts/04_Aguacate_token.sol\":6485:6963  function includeAccount(address account) external onlyOwner() {\r... */\n    tag_156:\n        /* \"contracts/abstracts/Ownable.sol\":1215:1228  _checkOwner() */\n      tag_278\n        /* \"contracts/abstracts/Ownable.sol\":1215:1226  _checkOwner */\n      tag_197\n        /* \"contracts/abstracts/Ownable.sol\":1215:1228  _checkOwner() */\n      jump\t// in\n    tag_278:\n        /* \"contracts/04_Aguacate_token.sol\":6566:6577  _isExcluded */\n      0x06\n        /* \"contracts/04_Aguacate_token.sol\":6566:6586  _isExcluded[account] */\n      0x00\n        /* \"contracts/04_Aguacate_token.sol\":6578:6585  account */\n      dup3\n        /* \"contracts/04_Aguacate_token.sol\":6566:6586  _isExcluded[account] */\n      0xffffffffffffffffffffffffffffffffffffffff\n      and\n      0xffffffffffffffffffffffffffffffffffffffff\n      and\n      dup2\n      mstore\n      0x20\n      add\n      swap1\n      dup2\n      mstore\n      0x20\n      add\n      0x00\n      keccak256\n      0x00\n      swap1\n      sload\n      swap1\n      0x0100\n      exp\n      swap1\n      div\n      0xff\n      and\n        /* \"contracts/04_Aguacate_token.sol\":6558:6618  require(_isExcluded[account], \"Account is already excluded\") */\n      tag_280\n      jumpi\n      mload(0x40)\n      0x08c379a000000000000000000000000000000000000000000000000000000000\n      dup2\n      mstore\n      0x04\n      add\n      tag_281\n      swap1\n      tag_265\n      jump\t// in\n    tag_281:\n      mload(0x40)\n      dup1\n      swap2\n      sub\n      swap1\n      revert\n    tag_280:\n        /* \"contracts/04_Aguacate_token.sol\":6634:6643  uint256 i */\n      0x00\n        /* \"contracts/04_Aguacate_token.sol\":6629:6956  for (uint256 i = 0; i < _excluded.length; i++) {\r... */\n    tag_282:\n        /* \"contracts/04_Aguacate_token.sol\":6653:6662  _excluded */\n      0x07\n        /* \"contracts/04_Aguacate_token.sol\":6653:6669  _excluded.length */\n      dup1\n      sload\n      swap1\n      pop\n        /* \"contracts/04_Aguacate_token.sol\":6649:6650  i */\n      dup2\n        /* \"contracts/04_Aguacate_token.sol\":6649:6669  i < _excluded.length */\n      lt\n        /* \"contracts/04_Aguacate_token.sol\":6629:6956  for (uint256 i = 0; i < _excluded.length; i++) {\r... */\n      iszero\n      tag_283\n      jumpi\n        /* \"contracts/04_Aguacate_token.sol\":6711:6718  account */\n      dup2\n        /* \"contracts/04_Aguacate_token.sol\":6695:6718  _excluded[i] == account */\n      0xffffffffffffffffffffffffffffffffffffffff\n      and\n        /* \"contracts/04_Aguacate_token.sol\":6695:6704  _excluded */\n      0x07\n        /* \"contracts/04_Aguacate_token.sol\":6705:6706  i */\n      dup3\n        /* \"contracts/04_Aguacate_token.sol\":6695:6707  _excluded[i] */\n      dup2\n      sload\n      dup2\n      lt\n      tag_285\n      jumpi\n      tag_286\n      tag_287\n      jump\t// in\n    tag_286:\n    tag_285:\n      swap1\n      0x00\n      mstore\n      keccak256(0x00, 0x20)\n      add\n      0x00\n      swap1\n      sload\n      swap1\n      0x0100\n      exp\n      swap1\n      div\n      0xffffffffffffffffffffffffffffffffffffffff\n      and\n        /* \"contracts/04_Aguacate_token.sol\":6695:6718  _excluded[i] == account */\n      0xffffffffffffffffffffffffffffffffffffffff\n      and\n      eq\n        /* \"contracts/04_Aguacate_token.sol\":6691:6945  if (_excluded[i] == account) {\r... */\n      iszero\n      tag_289\n      jumpi\n        /* \"contracts/04_Aguacate_token.sol\":6754:6763  _excluded */\n      0x07\n        /* \"contracts/04_Aguacate_token.sol\":6783:6784  1 */\n      0x01\n        /* \"contracts/04_Aguacate_token.sol\":6764:6773  _excluded */\n      0x07\n        /* \"contracts/04_Aguacate_token.sol\":6764:6780  _excluded.length */\n      dup1\n      sload\n      swap1\n      pop\n        /* \"contracts/04_Aguacate_token.sol\":6764:6784  _excluded.length - 1 */\n      tag_290\n      swap2\n      swap1\n      tag_291\n      jump\t// in\n    tag_290:\n        /* \"contracts/04_Aguacate_token.sol\":6754:6785  _excluded[_excluded.length - 1] */\n      dup2\n      sload\n      dup2\n      lt\n      tag_292\n      jumpi\n      tag_293\n      tag_287\n      jump\t// in\n    tag_293:\n    tag_292:\n      swap1\n      0x00\n      mstore\n      keccak256(0x00, 0x20)\n      add\n      0x00\n      swap1\n      sload\n      swap1\n      0x0100\n      exp\n      swap1\n      div\n      0xffffffffffffffffffffffffffffffffffffffff\n      and\n        /* \"contracts/04_Aguacate_token.sol\":6739:6748  _excluded */\n      0x07\n        /* \"contracts/04_Aguacate_token.sol\":6749:6750  i */\n      dup3\n        /* \"contracts/04_Aguacate_token.sol\":6739:6751  _excluded[i] */\n      dup2\n      sload\n      dup2\n      lt\n      tag_295\n      jumpi\n      tag_296\n      tag_287\n      jump\t// in\n    tag_296:\n    tag_295:\n      swap1\n      0x00\n      mstore\n      keccak256(0x00, 0x20)\n      add\n      0x00\n        /* \"contracts/04_Aguacate_token.sol\":6739:6785  _excluded[i] = _excluded[_excluded.length - 1] */\n      0x0100\n      exp\n      dup2\n      sload\n      dup2\n      0xffffffffffffffffffffffffffffffffffffffff\n      mul\n      not\n      and\n      swap1\n      dup4\n      0xffffffffffffffffffffffffffffffffffffffff\n      and\n      mul\n      or\n      swap1\n      sstore\n      pop\n        /* \"contracts/04_Aguacate_token.sol\":6823:6824  0 */\n      0x00\n        /* \"contracts/04_Aguacate_token.sol\":6804:6811  _tOwned */\n      0x04\n        /* \"contracts/04_Aguacate_token.sol\":6804:6820  _tOwned[account] */\n      0x00\n        /* \"contracts/04_Aguacate_token.sol\":6812:6819  account */\n      dup5\n        /* \"contracts/04_Aguacate_token.sol\":6804:6820  _tOwned[account] */\n      0xffffffffffffffffffffffffffffffffffffffff\n      and\n      0xffffffffffffffffffffffffffffffffffffffff\n      and\n      dup2\n      mstore\n      0x20\n      add\n      swap1\n      dup2\n      mstore\n      0x20\n      add\n      0x00\n      keccak256\n        /* \"contracts/04_Aguacate_token.sol\":6804:6824  _tOwned[account] = 0 */\n      dup2\n      swap1\n      sstore\n      pop\n        /* \"contracts/04_Aguacate_token.sol\":6866:6871  false */\n      0x00\n        /* \"contracts/04_Aguacate_token.sol\":6843:6854  _isExcluded */\n      0x06\n        /* \"contracts/04_Aguacate_token.sol\":6843:6863  _isExcluded[account] */\n      0x00\n        /* \"contracts/04_Aguacate_token.sol\":6855:6862  account */\n      dup5\n        /* \"contracts/04_Aguacate_token.sol\":6843:6863  _isExcluded[account] */\n      0xffffffffffffffffffffffffffffffffffffffff\n      and\n      0xffffffffffffffffffffffffffffffffffffffff\n      and\n      dup2\n      mstore\n      0x20\n      add\n      swap1\n      dup2\n      mstore\n      0x20\n      add\n      0x00\n      keccak256\n      0x00\n        /* \"contracts/04_Aguacate_token.sol\":6843:6871  _isExcluded[account] = false */\n      0x0100\n      exp\n      dup2\n      sload\n      dup2\n      0xff\n      mul\n      not\n      and\n      swap1\n      dup4\n      iszero\n      iszero\n      mul\n      or\n      swap1\n      sstore\n      pop\n        /* \"contracts/04_Aguacate_token.sol\":6890:6899  _excluded */\n      0x07\n        /* \"contracts/04_Aguacate_token.sol\":6890:6905  _excluded.pop() */\n      dup1\n      sload\n      dup1\n      tag_298\n      jumpi\n      tag_299\n      tag_300\n      jump\t// in\n    tag_299:\n    tag_298:\n      0x01\n      swap1\n      sub\n      dup2\n      dup2\n      swap1\n      0x00\n      mstore\n      keccak256(0x00, 0x20)\n      add\n      exp(0x0100, 0x00)\n      dup2\n      sload\n      swap1\n      0xffffffffffffffffffffffffffffffffffffffff\n      mul\n      not\n      and\n      swap1\n      sstore\n      swap1\n      sstore\n        /* \"contracts/04_Aguacate_token.sol\":6924:6929  break */\n      jump(tag_283)\n        /* \"contracts/04_Aguacate_token.sol\":6691:6945  if (_excluded[i] == account) {\r... */\n    tag_289:\n        /* \"contracts/04_Aguacate_token.sol\":6671:6674  i++ */\n      dup1\n      dup1\n      tag_302\n      swap1\n      tag_303\n      jump\t// in\n    tag_302:\n      swap2\n      pop\n      pop\n        /* \"contracts/04_Aguacate_token.sol\":6629:6956  for (uint256 i = 0; i < _excluded.length; i++) {\r... */\n      jump(tag_282)\n    tag_283:\n      pop\n        /* \"contracts/04_Aguacate_token.sol\":6485:6963  function includeAccount(address account) external onlyOwner() {\r... */\n      pop\n      jump\t// out\n        /* \"contracts/abstracts/Context.sol\":480:578  function _msgSender() internal view virtual returns (address) {\r... */\n    tag_167:\n        /* \"contracts/abstracts/Context.sol\":533:540  address */\n      0x00\n        /* \"contracts/abstracts/Context.sol\":560:570  msg.sender */\n      caller\n        /* \"contracts/abstracts/Context.sol\":553:570  return msg.sender */\n      swap1\n      pop\n        /* \"contracts/abstracts/Context.sol\":480:578  function _msgSender() internal view virtual returns (address) {\r... */\n      swap1\n      jump\t// out\n        /* \"contracts/04_Aguacate_token.sol\":6997:7334  function _approve(address owner, address spender, uint256 amount) private {\r... */\n    tag_168:\n        /* \"contracts/04_Aguacate_token.sol\":7107:7108  0 */\n      0x00\n        /* \"contracts/04_Aguacate_token.sol\":7090:7109  owner != address(0) */\n      0xffffffffffffffffffffffffffffffffffffffff\n      and\n        /* \"contracts/04_Aguacate_token.sol\":7090:7095  owner */\n      dup4\n        /* \"contracts/04_Aguacate_token.sol\":7090:7109  owner != address(0) */\n      0xffffffffffffffffffffffffffffffffffffffff\n      and\n      eq\n      iszero\n        /* \"contracts/04_Aguacate_token.sol\":7082:7150  require(owner != address(0), \"ERC20: approve from the zero address\") */\n      tag_306\n      jumpi\n      mload(0x40)\n      0x08c379a000000000000000000000000000000000000000000000000000000000\n      dup2\n      mstore\n      0x04\n      add\n      tag_307\n      swap1\n      tag_308\n      jump\t// in\n    tag_307:\n      mload(0x40)\n      dup1\n      swap2\n      sub\n      swap1\n      revert\n    tag_306:\n        /* \"contracts/04_Aguacate_token.sol\":7188:7189  0 */\n      0x00\n        /* \"contracts/04_Aguacate_token.sol\":7169:7190  spender != address(0) */\n      0xffffffffffffffffffffffffffffffffffffffff\n      and\n        /* \"contracts/04_Aguacate_token.sol\":7169:7176  spender */\n      dup3\n        /* \"contracts/04_Aguacate_token.sol\":7169:7190  spender != address(0) */\n      0xffffffffffffffffffffffffffffffffffffffff\n      and\n      eq\n      iszero\n        /* \"contracts/04_Aguacate_token.sol\":7161:7229  require(spender != address(0), \"ERC20: approve to the zero address\") */\n      tag_309\n      jumpi\n      mload(0x40)\n      0x08c379a000000000000000000000000000000000000000000000000000000000\n      dup2\n      mstore\n      0x04\n      add\n      tag_310\n      swap1\n      tag_311\n      jump\t// in\n    tag_310:\n      mload(0x40)\n      dup1\n      swap2\n      sub\n      swap1\n      revert\n    tag_309:\n        /* \"contracts/04_Aguacate_token.sol\":7272:7278  amount */\n      dup1\n        /* \"contracts/04_Aguacate_token.sol\":7242:7253  _allowances */\n      0x05\n        /* \"contracts/04_Aguacate_token.sol\":7242:7260  _allowances[owner] */\n      0x00\n        /* \"contracts/04_Aguacate_token.sol\":7254:7259  owner */\n      dup6\n        /* \"contracts/04_Aguacate_token.sol\":7242:7260  _allowances[owner] */\n      0xffffffffffffffffffffffffffffffffffffffff\n      and\n      0xffffffffffffffffffffffffffffffffffffffff\n      and\n      dup2\n      mstore\n      0x20\n      add\n      swap1\n      dup2\n      mstore\n      0x20\n      add\n      0x00\n      keccak256\n        /* \"contracts/04_Aguacate_token.sol\":7242:7269  _allowances[owner][spender] */\n      0x00\n        /* \"contracts/04_Aguacate_token.sol\":7261:7268  spender */\n      dup5\n        /* \"contracts/04_Aguacate_token.sol\":7242:7269  _allowances[owner][spender] */\n      0xffffffffffffffffffffffffffffffffffffffff\n      and\n      0xffffffffffffffffffffffffffffffffffffffff\n      and\n      dup2\n      mstore\n      0x20\n      add\n      swap1\n      dup2\n      mstore\n      0x20\n      add\n      0x00\n      keccak256\n        /* \"contracts/04_Aguacate_token.sol\":7242:7278  _allowances[owner][spender] = amount */\n      dup2\n      swap1\n      sstore\n      pop\n        /* \"contracts/04_Aguacate_token.sol\":7310:7317  spender */\n      dup2\n        /* \"contracts/04_Aguacate_token.sol\":7294:7326  Approval(owner, spender, amount) */\n      0xffffffffffffffffffffffffffffffffffffffff\n      and\n        /* \"contracts/04_Aguacate_token.sol\":7303:7308  owner */\n      dup4\n        /* \"contracts/04_Aguacate_token.sol\":7294:7326  Approval(owner, spender, amount) */\n      0xffffffffffffffffffffffffffffffffffffffff\n      and\n      0x8c5be1e5ebec7d5bd14f71427d1e84f3dd0314c0f7b2291e5b200ac8c7c3b925\n        /* \"contracts/04_Aguacate_token.sol\":7319:7325  amount */\n      dup4\n        /* \"contracts/04_Aguacate_token.sol\":7294:7326  Approval(owner, spender, amount) */\n      mload(0x40)\n      tag_312\n      swap2\n      swap1\n      tag_59\n      jump\t// in\n    tag_312:\n      mload(0x40)\n      dup1\n      swap2\n      sub\n      swap1\n      log3\n        /* \"contracts/04_Aguacate_token.sol\":6997:7334  function _approve(address owner, address spender, uint256 amount) private {\r... */\n      pop\n      pop\n      pop\n      jump\t// out\n        /* \"contracts/04_Aguacate_token.sol\":7342:8422  function _transfer(address sender, address recipient, uint256 amount) private {\r... */\n    tag_173:\n        /* \"contracts/04_Aguacate_token.sol\":7457:7458  0 */\n      0x00\n        /* \"contracts/04_Aguacate_token.sol\":7439:7459  sender != address(0) */\n      0xffffffffffffffffffffffffffffffffffffffff\n      and\n        /* \"contracts/04_Aguacate_token.sol\":7439:7445  sender */\n      dup4\n        /* \"contracts/04_Aguacate_token.sol\":7439:7459  sender != address(0) */\n      0xffffffffffffffffffffffffffffffffffffffff\n      and\n      eq\n      iszero\n        /* \"contracts/04_Aguacate_token.sol\":7431:7501  require(sender != address(0), \"ERC20: transfer from the zero address\") */\n      tag_314\n      jumpi\n      mload(0x40)\n      0x08c379a000000000000000000000000000000000000000000000000000000000\n      dup2\n      mstore\n      0x04\n      add\n      tag_315\n      swap1\n      tag_316\n      jump\t// in\n    tag_315:\n      mload(0x40)\n      dup1\n      swap2\n      sub\n      swap1\n      revert\n    tag_314:\n        /* \"contracts/04_Aguacate_token.sol\":7541:7542  0 */\n      0x00\n        /* \"contracts/04_Aguacate_token.sol\":7520:7543  recipient != address(0) */\n      0xffffffffffffffffffffffffffffffffffffffff\n      and\n        /* \"contracts/04_Aguacate_token.sol\":7520:7529  recipient */\n      dup3\n        /* \"contracts/04_Aguacate_token.sol\":7520:7543  recipient != address(0) */\n      0xffffffffffffffffffffffffffffffffffffffff\n      and\n      eq\n      iszero\n        /* \"contracts/04_Aguacate_token.sol\":7512:7583  require(recipient != address(0), \"ERC20: transfer to the zero address\") */\n      tag_317\n      jumpi\n      mload(0x40)\n      0x08c379a000000000000000000000000000000000000000000000000000000000\n      dup2\n      mstore\n      0x04\n      add\n      tag_318\n      swap1\n      tag_319\n      jump\t// in\n    tag_318:\n      mload(0x40)\n      dup1\n      swap2\n      sub\n      swap1\n      revert\n    tag_317:\n        /* \"contracts/04_Aguacate_token.sol\":7611:7612  0 */\n      0x00\n        /* \"contracts/04_Aguacate_token.sol\":7602:7608  amount */\n      dup2\n        /* \"contracts/04_Aguacate_token.sol\":7602:7612  amount > 0 */\n      gt\n        /* \"contracts/04_Aguacate_token.sol\":7594:7658  require(amount > 0, \"Transfer amount must be greater than zero\") */\n      tag_320\n      jumpi\n      mload(0x40)\n      0x08c379a000000000000000000000000000000000000000000000000000000000\n      dup2\n      mstore\n      0x04\n      add\n      tag_321\n      swap1\n      tag_322\n      jump\t// in\n    tag_321:\n      mload(0x40)\n      dup1\n      swap2\n      sub\n      swap1\n      revert\n    tag_320:\n        /* \"contracts/04_Aguacate_token.sol\":7684:7691  owner() */\n      tag_323\n        /* \"contracts/04_Aguacate_token.sol\":7684:7689  owner */\n      tag_112\n        /* \"contracts/04_Aguacate_token.sol\":7684:7691  owner() */\n      jump\t// in\n    tag_323:\n        /* \"contracts/04_Aguacate_token.sol\":7674:7691  sender != owner() */\n      0xffffffffffffffffffffffffffffffffffffffff\n      and\n        /* \"contracts/04_Aguacate_token.sol\":7674:7680  sender */\n      dup4\n        /* \"contracts/04_Aguacate_token.sol\":7674:7691  sender != owner() */\n      0xffffffffffffffffffffffffffffffffffffffff\n      and\n      eq\n      iszero\n        /* \"contracts/04_Aguacate_token.sol\":7674:7715  sender != owner() && recipient != owner() */\n      dup1\n      iszero\n      tag_324\n      jumpi\n      pop\n        /* \"contracts/04_Aguacate_token.sol\":7708:7715  owner() */\n      tag_325\n        /* \"contracts/04_Aguacate_token.sol\":7708:7713  owner */\n      tag_112\n        /* \"contracts/04_Aguacate_token.sol\":7708:7715  owner() */\n      jump\t// in\n    tag_325:\n        /* \"contracts/04_Aguacate_token.sol\":7695:7715  recipient != owner() */\n      0xffffffffffffffffffffffffffffffffffffffff\n      and\n        /* \"contracts/04_Aguacate_token.sol\":7695:7704  recipient */\n      dup3\n        /* \"contracts/04_Aguacate_token.sol\":7695:7715  recipient != owner() */\n      0xffffffffffffffffffffffffffffffffffffffff\n      and\n      eq\n      iszero\n        /* \"contracts/04_Aguacate_token.sol\":7674:7715  sender != owner() && recipient != owner() */\n    tag_324:\n        /* \"contracts/04_Aguacate_token.sol\":7671:7805  if(sender != owner() && recipient != owner())\r... */\n      iszero\n      tag_326\n      jumpi\n        /* \"contracts/04_Aguacate_token.sol\":7748:7760  _max_tx_size */\n      sload(0x13)\n        /* \"contracts/04_Aguacate_token.sol\":7738:7744  amount */\n      dup2\n        /* \"contracts/04_Aguacate_token.sol\":7738:7760  amount <= _max_tx_size */\n      gt\n      iszero\n        /* \"contracts/04_Aguacate_token.sol\":7730:7805  require(amount <= _max_tx_size, \"Transfer amount exceeds the maxTxAmount.\") */\n      tag_327\n      jumpi\n      mload(0x40)\n      0x08c379a000000000000000000000000000000000000000000000000000000000\n      dup2\n      mstore\n      0x04\n      add\n      tag_328\n      swap1\n      tag_329\n      jump\t// in\n    tag_328:\n      mload(0x40)\n      dup1\n      swap2\n      sub\n      swap1\n      revert\n    tag_327:\n        /* \"contracts/04_Aguacate_token.sol\":7671:7805  if(sender != owner() && recipient != owner())\r... */\n    tag_326:\n        /* \"contracts/04_Aguacate_token.sol\":7822:7833  _isExcluded */\n      0x06\n        /* \"contracts/04_Aguacate_token.sol\":7822:7841  _isExcluded[sender] */\n      0x00\n        /* \"contracts/04_Aguacate_token.sol\":7834:7840  sender */\n      dup5\n        /* \"contracts/04_Aguacate_token.sol\":7822:7841  _isExcluded[sender] */\n      0xffffffffffffffffffffffffffffffffffffffff\n      and\n      0xffffffffffffffffffffffffffffffffffffffff\n      and\n      dup2\n      mstore\n      0x20\n      add\n      swap1\n      dup2\n      mstore\n      0x20\n      add\n      0x00\n      keccak256\n      0x00\n      swap1\n      sload\n      swap1\n      0x0100\n      exp\n      swap1\n      div\n      0xff\n      and\n        /* \"contracts/04_Aguacate_token.sol\":7822:7868  _isExcluded[sender] && !_isExcluded[recipient] */\n      dup1\n      iszero\n      tag_330\n      jumpi\n      pop\n        /* \"contracts/04_Aguacate_token.sol\":7846:7857  _isExcluded */\n      0x06\n        /* \"contracts/04_Aguacate_token.sol\":7846:7868  _isExcluded[recipient] */\n      0x00\n        /* \"contracts/04_Aguacate_token.sol\":7858:7867  recipient */\n      dup4\n        /* \"contracts/04_Aguacate_token.sol\":7846:7868  _isExcluded[recipient] */\n      0xffffffffffffffffffffffffffffffffffffffff\n      and\n      0xffffffffffffffffffffffffffffffffffffffff\n      and\n      dup2\n      mstore\n      0x20\n      add\n      swap1\n      dup2\n      mstore\n      0x20\n      add\n      0x00\n      keccak256\n      0x00\n      swap1\n      sload\n      swap1\n      0x0100\n      exp\n      swap1\n      div\n      0xff\n      and\n        /* \"contracts/04_Aguacate_token.sol\":7845:7868  !_isExcluded[recipient] */\n      iszero\n        /* \"contracts/04_Aguacate_token.sol\":7822:7868  _isExcluded[sender] && !_isExcluded[recipient] */\n    tag_330:\n        /* \"contracts/04_Aguacate_token.sol\":7818:8415  if (_isExcluded[sender] && !_isExcluded[recipient]) {\r... */\n      iszero\n      tag_331\n      jumpi\n        /* \"contracts/04_Aguacate_token.sol\":7885:7933  _transferFromExcluded(sender, recipient, amount) */\n      tag_332\n        /* \"contracts/04_Aguacate_token.sol\":7907:7913  sender */\n      dup4\n        /* \"contracts/04_Aguacate_token.sol\":7915:7924  recipient */\n      dup4\n        /* \"contracts/04_Aguacate_token.sol\":7926:7932  amount */\n      dup4\n        /* \"contracts/04_Aguacate_token.sol\":7885:7906  _transferFromExcluded */\n      tag_333\n        /* \"contracts/04_Aguacate_token.sol\":7885:7933  _transferFromExcluded(sender, recipient, amount) */\n      jump\t// in\n    tag_332:\n        /* \"contracts/04_Aguacate_token.sol\":7818:8415  if (_isExcluded[sender] && !_isExcluded[recipient]) {\r... */\n      jump(tag_334)\n    tag_331:\n        /* \"contracts/04_Aguacate_token.sol\":7956:7967  _isExcluded */\n      0x06\n        /* \"contracts/04_Aguacate_token.sol\":7956:7975  _isExcluded[sender] */\n      0x00\n        /* \"contracts/04_Aguacate_token.sol\":7968:7974  sender */\n      dup5\n        /* \"contracts/04_Aguacate_token.sol\":7956:7975  _isExcluded[sender] */\n      0xffffffffffffffffffffffffffffffffffffffff\n      and\n      0xffffffffffffffffffffffffffffffffffffffff\n      and\n      dup2\n      mstore\n      0x20\n      add\n      swap1\n      dup2\n      mstore\n      0x20\n      add\n      0x00\n      keccak256\n      0x00\n      swap1\n      sload\n      swap1\n      0x0100\n      exp\n      swap1\n      div\n      0xff\n      and\n        /* \"contracts/04_Aguacate_token.sol\":7955:7975  !_isExcluded[sender] */\n      iszero\n        /* \"contracts/04_Aguacate_token.sol\":7955:8001  !_isExcluded[sender] && _isExcluded[recipient] */\n      dup1\n      iszero\n      tag_335\n      jumpi\n      pop\n        /* \"contracts/04_Aguacate_token.sol\":7979:7990  _isExcluded */\n      0x06\n        /* \"contracts/04_Aguacate_token.sol\":7979:8001  _isExcluded[recipient] */\n      0x00\n        /* \"contracts/04_Aguacate_token.sol\":7991:8000  recipient */\n      dup4\n        /* \"contracts/04_Aguacate_token.sol\":7979:8001  _isExcluded[recipient] */\n      0xffffffffffffffffffffffffffffffffffffffff\n      and\n      0xffffffffffffffffffffffffffffffffffffffff\n      and\n      dup2\n      mstore\n      0x20\n      add\n      swap1\n      dup2\n      mstore\n      0x20\n      add\n      0x00\n      keccak256\n      0x00\n      swap1\n      sload\n      swap1\n      0x0100\n      exp\n      swap1\n      div\n      0xff\n      and\n        /* \"contracts/04_Aguacate_token.sol\":7955:8001  !_isExcluded[sender] && _isExcluded[recipient] */\n    tag_335:\n        /* \"contracts/04_Aguacate_token.sol\":7951:8415  if (!_isExcluded[sender] && _isExcluded[recipient]) {\r... */\n      iszero\n      tag_336\n      jumpi\n        /* \"contracts/04_Aguacate_token.sol\":8018:8064  _transferToExcluded(sender, recipient, amount) */\n      tag_337\n        /* \"contracts/04_Aguacate_token.sol\":8038:8044  sender */\n      dup4\n        /* \"contracts/04_Aguacate_token.sol\":8046:8055  recipient */\n      dup4\n        /* \"contracts/04_Aguacate_token.sol\":8057:8063  amount */\n      dup4\n        /* \"contracts/04_Aguacate_token.sol\":8018:8037  _transferToExcluded */\n      tag_338\n        /* \"contracts/04_Aguacate_token.sol\":8018:8064  _transferToExcluded(sender, recipient, amount) */\n      jump\t// in\n    tag_337:\n        /* \"contracts/04_Aguacate_token.sol\":7951:8415  if (!_isExcluded[sender] && _isExcluded[recipient]) {\r... */\n      jump(tag_339)\n    tag_336:\n        /* \"contracts/04_Aguacate_token.sol\":8087:8098  _isExcluded */\n      0x06\n        /* \"contracts/04_Aguacate_token.sol\":8087:8106  _isExcluded[sender] */\n      0x00\n        /* \"contracts/04_Aguacate_token.sol\":8099:8105  sender */\n      dup5\n        /* \"contracts/04_Aguacate_token.sol\":8087:8106  _isExcluded[sender] */\n      0xffffffffffffffffffffffffffffffffffffffff\n      and\n      0xffffffffffffffffffffffffffffffffffffffff\n      and\n      dup2\n      mstore\n      0x20\n      add\n      swap1\n      dup2\n      mstore\n      0x20\n      add\n      0x00\n      keccak256\n      0x00\n      swap1\n      sload\n      swap1\n      0x0100\n      exp\n      swap1\n      div\n      0xff\n      and\n        /* \"contracts/04_Aguacate_token.sol\":8086:8106  !_isExcluded[sender] */\n      iszero\n        /* \"contracts/04_Aguacate_token.sol\":8086:8133  !_isExcluded[sender] && !_isExcluded[recipient] */\n      dup1\n      iszero\n      tag_340\n      jumpi\n      pop\n        /* \"contracts/04_Aguacate_token.sol\":8111:8122  _isExcluded */\n      0x06\n        /* \"contracts/04_Aguacate_token.sol\":8111:8133  _isExcluded[recipient] */\n      0x00\n        /* \"contracts/04_Aguacate_token.sol\":8123:8132  recipient */\n      dup4\n        /* \"contracts/04_Aguacate_token.sol\":8111:8133  _isExcluded[recipient] */\n      0xffffffffffffffffffffffffffffffffffffffff\n      and\n      0xffffffffffffffffffffffffffffffffffffffff\n      and\n      dup2\n      mstore\n      0x20\n      add\n      swap1\n      dup2\n      mstore\n      0x20\n      add\n      0x00\n      keccak256\n      0x00\n      swap1\n      sload\n      swap1\n      0x0100\n      exp\n      swap1\n      div\n      0xff\n      and\n        /* \"contracts/04_Aguacate_token.sol\":8110:8133  !_isExcluded[recipient] */\n      iszero\n        /* \"contracts/04_Aguacate_token.sol\":8086:8133  !_isExcluded[sender] && !_isExcluded[recipient] */\n    tag_340:\n        /* \"contracts/04_Aguacate_token.sol\":8082:8415  if (!_isExcluded[sender] && !_isExcluded[recipient]) {\r... */\n      iszero\n      tag_341\n      jumpi\n        /* \"contracts/04_Aguacate_token.sol\":8150:8194  _transferStandard(sender, recipient, amount) */\n      tag_342\n        /* \"contracts/04_Aguacate_token.sol\":8168:8174  sender */\n      dup4\n        /* \"contracts/04_Aguacate_token.sol\":8176:8185  recipient */\n      dup4\n        /* \"contracts/04_Aguacate_token.sol\":8187:8193  amount */\n      dup4\n        /* \"contracts/04_Aguacate_token.sol\":8150:8167  _transferStandard */\n      tag_343\n        /* \"contracts/04_Aguacate_token.sol\":8150:8194  _transferStandard(sender, recipient, amount) */\n      jump\t// in\n    tag_342:\n        /* \"contracts/04_Aguacate_token.sol\":8082:8415  if (!_isExcluded[sender] && !_isExcluded[recipient]) {\r... */\n      jump(tag_344)\n    tag_341:\n        /* \"contracts/04_Aguacate_token.sol\":8216:8227  _isExcluded */\n      0x06\n        /* \"contracts/04_Aguacate_token.sol\":8216:8235  _isExcluded[sender] */\n      0x00\n        /* \"contracts/04_Aguacate_token.sol\":8228:8234  sender */\n      dup5\n        /* \"contracts/04_Aguacate_token.sol\":8216:8235  _isExcluded[sender] */\n      0xffffffffffffffffffffffffffffffffffffffff\n      and\n      0xffffffffffffffffffffffffffffffffffffffff\n      and\n      dup2\n      mstore\n      0x20\n      add\n      swap1\n      dup2\n      mstore\n      0x20\n      add\n      0x00\n      keccak256\n      0x00\n      swap1\n      sload\n      swap1\n      0x0100\n      exp\n      swap1\n      div\n      0xff\n      and\n        /* \"contracts/04_Aguacate_token.sol\":8216:8261  _isExcluded[sender] && _isExcluded[recipient] */\n      dup1\n      iszero\n      tag_345\n      jumpi\n      pop\n        /* \"contracts/04_Aguacate_token.sol\":8239:8250  _isExcluded */\n      0x06\n        /* \"contracts/04_Aguacate_token.sol\":8239:8261  _isExcluded[recipient] */\n      0x00\n        /* \"contracts/04_Aguacate_token.sol\":8251:8260  recipient */\n      dup4\n        /* \"contracts/04_Aguacate_token.sol\":8239:8261  _isExcluded[recipient] */\n      0xffffffffffffffffffffffffffffffffffffffff\n      and\n      0xffffffffffffffffffffffffffffffffffffffff\n      and\n      dup2\n      mstore\n      0x20\n      add\n      swap1\n      dup2\n      mstore\n      0x20\n      add\n      0x00\n      keccak256\n      0x00\n      swap1\n      sload\n      swap1\n      0x0100\n      exp\n      swap1\n      div\n      0xff\n      and\n        /* \"contracts/04_Aguacate_token.sol\":8216:8261  _isExcluded[sender] && _isExcluded[recipient] */\n    tag_345:\n        /* \"contracts/04_Aguacate_token.sol\":8212:8415  if (_isExcluded[sender] && _isExcluded[recipient]) {\r... */\n      iszero\n      tag_346\n      jumpi\n        /* \"contracts/04_Aguacate_token.sol\":8278:8326  _transferBothExcluded(sender, recipient, amount) */\n      tag_347\n        /* \"contracts/04_Aguacate_token.sol\":8300:8306  sender */\n      dup4\n        /* \"contracts/04_Aguacate_token.sol\":8308:8317  recipient */\n      dup4\n        /* \"contracts/04_Aguacate_token.sol\":8319:8325  amount */\n      dup4\n        /* \"contracts/04_Aguacate_token.sol\":8278:8299  _transferBothExcluded */\n      tag_348\n        /* \"contracts/04_Aguacate_token.sol\":8278:8326  _transferBothExcluded(sender, recipient, amount) */\n      jump\t// in\n    tag_347:\n        /* \"contracts/04_Aguacate_token.sol\":8212:8415  if (_isExcluded[sender] && _isExcluded[recipient]) {\r... */\n      jump(tag_349)\n    tag_346:\n        /* \"contracts/04_Aguacate_token.sol\":8359:8403  _transferStandard(sender, recipient, amount) */\n      tag_350\n        /* \"contracts/04_Aguacate_token.sol\":8377:8383  sender */\n      dup4\n        /* \"contracts/04_Aguacate_token.sol\":8385:8394  recipient */\n      dup4\n        /* \"contracts/04_Aguacate_token.sol\":8396:8402  amount */\n      dup4\n        /* \"contracts/04_Aguacate_token.sol\":8359:8376  _transferStandard */\n      tag_343\n        /* \"contracts/04_Aguacate_token.sol\":8359:8403  _transferStandard(sender, recipient, amount) */\n      jump\t// in\n    tag_350:\n        /* \"contracts/04_Aguacate_token.sol\":8212:8415  if (_isExcluded[sender] && _isExcluded[recipient]) {\r... */\n    tag_349:\n        /* \"contracts/04_Aguacate_token.sol\":8082:8415  if (!_isExcluded[sender] && !_isExcluded[recipient]) {\r... */\n    tag_344:\n        /* \"contracts/04_Aguacate_token.sol\":7951:8415  if (!_isExcluded[sender] && _isExcluded[recipient]) {\r... */\n    tag_339:\n        /* \"contracts/04_Aguacate_token.sol\":7818:8415  if (_isExcluded[sender] && !_isExcluded[recipient]) {\r... */\n    tag_334:\n        /* \"contracts/04_Aguacate_token.sol\":7342:8422  function _transfer(address sender, address recipient, uint256 amount) private {\r... */\n      pop\n      pop\n      pop\n      jump\t// out\n        /* \"contracts/libraries/SafeMath.sol\":2203:2395  function sub(uint256 a, uint256 b, string memory errorMessage) internal pure returns (uint256) {\r... */\n    tag_178:\n        /* \"contracts/libraries/SafeMath.sol\":2289:2296  uint256 */\n      0x00\n        /* \"contracts/libraries/SafeMath.sol\":2322:2323  a */\n      dup4\n        /* \"contracts/libraries/SafeMath.sol\":2317:2318  b */\n      dup4\n        /* \"contracts/libraries/SafeMath.sol\":2317:2323  b <= a */\n      gt\n      iszero\n        /* \"contracts/libraries/SafeMath.sol\":2325:2337  errorMessage */\n      dup3\n        /* \"contracts/libraries/SafeMath.sol\":2309:2338  require(b <= a, errorMessage) */\n      swap1\n      tag_352\n      jumpi\n      mload(0x40)\n      0x08c379a000000000000000000000000000000000000000000000000000000000\n      dup2\n      mstore\n      0x04\n      add\n      tag_353\n      swap2\n      swap1\n      tag_49\n      jump\t// in\n    tag_353:\n      mload(0x40)\n      dup1\n      swap2\n      sub\n      swap1\n      revert\n    tag_352:\n      pop\n        /* \"contracts/libraries/SafeMath.sol\":2349:2358  uint256 c */\n      0x00\n        /* \"contracts/libraries/SafeMath.sol\":2365:2366  b */\n      dup4\n        /* \"contracts/libraries/SafeMath.sol\":2361:2362  a */\n      dup6\n        /* \"contracts/libraries/SafeMath.sol\":2361:2366  a - b */\n      tag_354\n      swap2\n      swap1\n      tag_291\n      jump\t// in\n    tag_354:\n        /* \"contracts/libraries/SafeMath.sol\":2349:2366  uint256 c = a - b */\n      swap1\n      pop\n        /* \"contracts/libraries/SafeMath.sol\":2386:2387  c */\n      dup1\n        /* \"contracts/libraries/SafeMath.sol\":2379:2387  return c */\n      swap2\n      pop\n      pop\n        /* \"contracts/libraries/SafeMath.sol\":2203:2395  function sub(uint256 a, uint256 b, string memory errorMessage) internal pure returns (uint256) {\r... */\n      swap4\n      swap3\n      pop\n      pop\n      pop\n      jump\t// out\n        /* \"contracts/04_Aguacate_token.sol\":12284:12447  function _getRate() private view returns(uint256) {\r... */\n    tag_184:\n        /* \"contracts/04_Aguacate_token.sol\":12325:12332  uint256 */\n      0x00\n        /* \"contracts/04_Aguacate_token.sol\":12346:12361  uint256 rSupply */\n      dup1\n        /* \"contracts/04_Aguacate_token.sol\":12363:12378  uint256 tSupply */\n      0x00\n        /* \"contracts/04_Aguacate_token.sol\":12382:12401  _getCurrentSupply() */\n      tag_356\n        /* \"contracts/04_Aguacate_token.sol\":12382:12399  _getCurrentSupply */\n      tag_357\n        /* \"contracts/04_Aguacate_token.sol\":12382:12401  _getCurrentSupply() */\n      jump\t// in\n    tag_356:\n        /* \"contracts/04_Aguacate_token.sol\":12345:12401  (uint256 rSupply, uint256 tSupply) = _getCurrentSupply() */\n      swap2\n      pop\n      swap2\n      pop\n        /* \"contracts/04_Aguacate_token.sol\":12419:12439  rSupply.div(tSupply) */\n      tag_358\n        /* \"contracts/04_Aguacate_token.sol\":12431:12438  tSupply */\n      dup2\n        /* \"contracts/04_Aguacate_token.sol\":12419:12426  rSupply */\n      dup4\n        /* \"contracts/04_Aguacate_token.sol\":12419:12430  rSupply.div */\n      tag_186\n      swap1\n        /* \"contracts/04_Aguacate_token.sol\":12419:12439  rSupply.div(tSupply) */\n      swap2\n      swap1\n      0xffffffff\n      and\n      jump\t// in\n    tag_358:\n        /* \"contracts/04_Aguacate_token.sol\":12412:12439  return rSupply.div(tSupply) */\n      swap3\n      pop\n      pop\n      pop\n        /* \"contracts/04_Aguacate_token.sol\":12284:12447  function _getRate() private view returns(uint256) {\r... */\n      swap1\n      jump\t// out\n        /* \"contracts/libraries/SafeMath.sol\":4296:4428  function div(uint256 a, uint256 b) internal pure returns (uint256) {\r... */\n    tag_186:\n        /* \"contracts/libraries/SafeMath.sol\":4354:4361  uint256 */\n      0x00\n        /* \"contracts/libraries/SafeMath.sol\":4381:4420  div(a, b, \"SafeMath: division by zero\") */\n      tag_360\n        /* \"contracts/libraries/SafeMath.sol\":4385:4386  a */\n      dup4\n        /* \"contracts/libraries/SafeMath.sol\":4388:4389  b */\n      dup4\n        /* \"contracts/libraries/SafeMath.sol\":4381:4420  div(a, b, \"SafeMath: division by zero\") */\n      mload(0x40)\n      dup1\n      0x40\n      add\n      0x40\n      mstore\n      dup1\n      0x1a\n      dup2\n      mstore\n      0x20\n      add\n      0x536166654d6174683a206469766973696f6e206279207a65726f000000000000\n      dup2\n      mstore\n      pop\n        /* \"contracts/libraries/SafeMath.sol\":4381:4384  div */\n      tag_361\n        /* \"contracts/libraries/SafeMath.sol\":4381:4420  div(a, b, \"SafeMath: division by zero\") */\n      jump\t// in\n    tag_360:\n        /* \"contracts/libraries/SafeMath.sol\":4374:4420  return div(a, b, \"SafeMath: division by zero\") */\n      swap1\n      pop\n        /* \"contracts/libraries/SafeMath.sol\":4296:4428  function div(uint256 a, uint256 b) internal pure returns (uint256) {\r... */\n      swap3\n      swap2\n      pop\n      pop\n      jump\t// out\n        /* \"contracts/libraries/SafeMath.sol\":884:1065  function add(uint256 a, uint256 b) internal pure returns (uint256) {\r... */\n    tag_194:\n        /* \"contracts/libraries/SafeMath.sol\":942:949  uint256 */\n      0x00\n        /* \"contracts/libraries/SafeMath.sol\":962:971  uint256 c */\n      dup1\n        /* \"contracts/libraries/SafeMath.sol\":978:979  b */\n      dup3\n        /* \"contracts/libraries/SafeMath.sol\":974:975  a */\n      dup5\n        /* \"contracts/libraries/SafeMath.sol\":974:979  a + b */\n      tag_363\n      swap2\n      swap1\n      tag_258\n      jump\t// in\n    tag_363:\n        /* \"contracts/libraries/SafeMath.sol\":962:979  uint256 c = a + b */\n      swap1\n      pop\n        /* \"contracts/libraries/SafeMath.sol\":1003:1004  a */\n      dup4\n        /* \"contracts/libraries/SafeMath.sol\":998:999  c */\n      dup2\n        /* \"contracts/libraries/SafeMath.sol\":998:1004  c >= a */\n      lt\n      iszero\n        /* \"contracts/libraries/SafeMath.sol\":990:1036  require(c >= a, \"SafeMath: addition overflow\") */\n      tag_364\n      jumpi\n      mload(0x40)\n      0x08c379a000000000000000000000000000000000000000000000000000000000\n      dup2\n      mstore\n      0x04\n      add\n      tag_365\n      swap1\n      tag_366\n      jump\t// in\n    tag_365:\n      mload(0x40)\n      dup1\n      swap2\n      sub\n      swap1\n      revert\n    tag_364:\n        /* \"contracts/libraries/SafeMath.sol\":1056:1057  c */\n      dup1\n        /* \"contracts/libraries/SafeMath.sol\":1049:1057  return c */\n      swap2\n      pop\n      pop\n        /* \"contracts/libraries/SafeMath.sol\":884:1065  function add(uint256 a, uint256 b) internal pure returns (uint256) {\r... */\n      swap3\n      swap2\n      pop\n      pop\n      jump\t// out\n        /* \"contracts/abstracts/Ownable.sol\":1494:1626  function _checkOwner() internal view virtual {\r... */\n    tag_197:\n        /* \"contracts/abstracts/Ownable.sol\":1569:1581  _msgSender() */\n      tag_368\n        /* \"contracts/abstracts/Ownable.sol\":1569:1579  _msgSender */\n      tag_167\n        /* \"contracts/abstracts/Ownable.sol\":1569:1581  _msgSender() */\n      jump\t// in\n    tag_368:\n        /* \"contracts/abstracts/Ownable.sol\":1558:1581  owner() == _msgSender() */\n      0xffffffffffffffffffffffffffffffffffffffff\n      and\n        /* \"contracts/abstracts/Ownable.sol\":1558:1565  owner() */\n      tag_369\n        /* \"contracts/abstracts/Ownable.sol\":1558:1563  owner */\n      tag_112\n        /* \"contracts/abstracts/Ownable.sol\":1558:1565  owner() */\n      jump\t// in\n    tag_369:\n        /* \"contracts/abstracts/Ownable.sol\":1558:1581  owner() == _msgSender() */\n      0xffffffffffffffffffffffffffffffffffffffff\n      and\n      eq\n        /* \"contracts/abstracts/Ownable.sol\":1550:1618  require(owner() == _msgSender(), \"Ownable: caller is not the owner\") */\n      tag_370\n      jumpi\n      mload(0x40)\n      0x08c379a000000000000000000000000000000000000000000000000000000000\n      dup2\n      mstore\n      0x04\n      add\n      tag_371\n      swap1\n      tag_372\n      jump\t// in\n    tag_371:\n      mload(0x40)\n      dup1\n      swap2\n      sub\n      swap1\n      revert\n    tag_370:\n        /* \"contracts/abstracts/Ownable.sol\":1494:1626  function _checkOwner() internal view virtual {\r... */\n      jump\t// out\n        /* \"contracts/04_Aguacate_token.sol\":11037:11486  function _getValues(uint256 tAmount) private view returns (uint256, uint256, uint256, uint256, uint256, uint256) {\r... */\n    tag_205:\n        /* \"contracts/04_Aguacate_token.sol\":11096:11103  uint256 */\n      0x00\n        /* \"contracts/04_Aguacate_token.sol\":11105:11112  uint256 */\n      dup1\n        /* \"contracts/04_Aguacate_token.sol\":11114:11121  uint256 */\n      0x00\n        /* \"contracts/04_Aguacate_token.sol\":11123:11130  uint256 */\n      dup1\n        /* \"contracts/04_Aguacate_token.sol\":11132:11139  uint256 */\n      0x00\n        /* \"contracts/04_Aguacate_token.sol\":11141:11148  uint256 */\n      dup1\n        /* \"contracts/04_Aguacate_token.sol\":11162:11185  uint256 tTransferAmount */\n      0x00\n        /* \"contracts/04_Aguacate_token.sol\":11187:11199  uint256 tFee */\n      dup1\n        /* \"contracts/04_Aguacate_token.sol\":11201:11214  uint256 tBurn */\n      0x00\n        /* \"contracts/04_Aguacate_token.sol\":11218:11238  _getTValues(tAmount) */\n      tag_374\n        /* \"contracts/04_Aguacate_token.sol\":11230:11237  tAmount */\n      dup11\n        /* \"contracts/04_Aguacate_token.sol\":11218:11229  _getTValues */\n      tag_375\n        /* \"contracts/04_Aguacate_token.sol\":11218:11238  _getTValues(tAmount) */\n      jump\t// in\n    tag_374:\n        /* \"contracts/04_Aguacate_token.sol\":11161:11238  (uint256 tTransferAmount, uint256 tFee, uint256 tBurn) = _getTValues(tAmount) */\n      swap3\n      pop\n      swap3\n      pop\n      swap3\n      pop\n        /* \"contracts/04_Aguacate_token.sol\":11249:11268  uint256 currentRate */\n      0x00\n        /* \"contracts/04_Aguacate_token.sol\":11272:11282  _getRate() */\n      tag_376\n        /* \"contracts/04_Aguacate_token.sol\":11272:11280  _getRate */\n      tag_184\n        /* \"contracts/04_Aguacate_token.sol\":11272:11282  _getRate() */\n      jump\t// in\n    tag_376:\n        /* \"contracts/04_Aguacate_token.sol\":11249:11282  uint256 currentRate =  _getRate() */\n      swap1\n      pop\n        /* \"contracts/04_Aguacate_token.sol\":11294:11309  uint256 rAmount */\n      0x00\n        /* \"contracts/04_Aguacate_token.sol\":11311:11334  uint256 rTransferAmount */\n      dup1\n        /* \"contracts/04_Aguacate_token.sol\":11336:11348  uint256 rFee */\n      0x00\n        /* \"contracts/04_Aguacate_token.sol\":11352:11398  _getRValues(tAmount, tFee, tBurn, currentRate) */\n      tag_377\n        /* \"contracts/04_Aguacate_token.sol\":11364:11371  tAmount */\n      dup15\n        /* \"contracts/04_Aguacate_token.sol\":11373:11377  tFee */\n      dup8\n        /* \"contracts/04_Aguacate_token.sol\":11379:11384  tBurn */\n      dup8\n        /* \"contracts/04_Aguacate_token.sol\":11386:11397  currentRate */\n      dup8\n        /* \"contracts/04_Aguacate_token.sol\":11352:11363  _getRValues */\n      tag_378\n        /* \"contracts/04_Aguacate_token.sol\":11352:11398  _getRValues(tAmount, tFee, tBurn, currentRate) */\n      jump\t// in\n    tag_377:\n        /* \"contracts/04_Aguacate_token.sol\":11293:11398  (uint256 rAmount, uint256 rTransferAmount, uint256 rFee) = _getRValues(tAmount, tFee, tBurn, currentRate) */\n      swap3\n      pop\n      swap3\n      pop\n      swap3\n      pop\n        /* \"contracts/04_Aguacate_token.sol\":11417:11424  rAmount */\n      dup3\n        /* \"contracts/04_Aguacate_token.sol\":11426:11441  rTransferAmount */\n      dup3\n        /* \"contracts/04_Aguacate_token.sol\":11443:11447  rFee */\n      dup3\n        /* \"contracts/04_Aguacate_token.sol\":11449:11464  tTransferAmount */\n      dup10\n        /* \"contracts/04_Aguacate_token.sol\":11466:11470  tFee */\n      dup10\n        /* \"contracts/04_Aguacate_token.sol\":11472:11477  tBurn */\n      dup10\n        /* \"contracts/04_Aguacate_token.sol\":11409:11478  return (rAmount, rTransferAmount, rFee, tTransferAmount, tFee, tBurn) */\n      swap13\n      pop\n      swap13\n      pop\n      swap13\n      pop\n      swap13\n      pop\n      swap13\n      pop\n      swap13\n      pop\n      pop\n      pop\n      pop\n      pop\n      pop\n      pop\n      pop\n        /* \"contracts/04_Aguacate_token.sol\":11037:11486  function _getValues(uint256 tAmount) private view returns (uint256, uint256, uint256, uint256, uint256, uint256) {\r... */\n      swap2\n      swap4\n      swap6\n      pop\n      swap2\n      swap4\n      swap6\n      jump\t// out\n        /* \"contracts/libraries/SafeMath.sol\":1777:1914  function sub(uint256 a, uint256 b) internal pure returns (uint256) {\r... */\n    tag_207:\n        /* \"contracts/libraries/SafeMath.sol\":1835:1842  uint256 */\n      0x00\n        /* \"contracts/libraries/SafeMath.sol\":1862:1906  sub(a, b, \"SafeMath: subtraction underflow\") */\n      tag_380\n        /* \"contracts/libraries/SafeMath.sol\":1866:1867  a */\n      dup4\n        /* \"contracts/libraries/SafeMath.sol\":1869:1870  b */\n      dup4\n        /* \"contracts/libraries/SafeMath.sol\":1862:1906  sub(a, b, \"SafeMath: subtraction underflow\") */\n      mload(0x40)\n      dup1\n      0x40\n      add\n      0x40\n      mstore\n      dup1\n      0x1f\n      dup2\n      mstore\n      0x20\n      add\n      0x536166654d6174683a207375627472616374696f6e20756e646572666c6f7700\n      dup2\n      mstore\n      pop\n        /* \"contracts/libraries/SafeMath.sol\":1862:1865  sub */\n      tag_178\n        /* \"contracts/libraries/SafeMath.sol\":1862:1906  sub(a, b, \"SafeMath: subtraction underflow\") */\n      jump\t// in\n    tag_380:\n        /* \"contracts/libraries/SafeMath.sol\":1855:1906  return sub(a, b, \"SafeMath: subtraction underflow\") */\n      swap1\n      pop\n        /* \"contracts/libraries/SafeMath.sol\":1777:1914  function sub(uint256 a, uint256 b) internal pure returns (uint256) {\r... */\n      swap3\n      swap2\n      pop\n      pop\n      jump\t// out\n        /* \"contracts/abstracts/Ownable.sol\":2596:2787  function _transferOwnership(address newOwner) internal virtual {\r... */\n    tag_229:\n        /* \"contracts/abstracts/Ownable.sol\":2670:2686  address oldOwner */\n      0x00\n        /* \"contracts/abstracts/Ownable.sol\":2689:2695  _owner */\n      dup1\n      0x00\n      swap1\n      sload\n      swap1\n      0x0100\n      exp\n      swap1\n      div\n      0xffffffffffffffffffffffffffffffffffffffff\n      and\n        /* \"contracts/abstracts/Ownable.sol\":2670:2695  address oldOwner = _owner */\n      swap1\n      pop\n        /* \"contracts/abstracts/Ownable.sol\":2715:2723  newOwner */\n      dup2\n        /* \"contracts/abstracts/Ownable.sol\":2706:2712  _owner */\n      0x00\n      dup1\n        /* \"contracts/abstracts/Ownable.sol\":2706:2723  _owner = newOwner */\n      0x0100\n      exp\n      dup2\n      sload\n      dup2\n      0xffffffffffffffffffffffffffffffffffffffff\n      mul\n      not\n      and\n      swap1\n      dup4\n      0xffffffffffffffffffffffffffffffffffffffff\n      and\n      mul\n      or\n      swap1\n      sstore\n      pop\n        /* \"contracts/abstracts/Ownable.sol\":2770:2778  newOwner */\n      dup2\n        /* \"contracts/abstracts/Ownable.sol\":2739:2779  OwnershipTransferred(oldOwner, newOwner) */\n      0xffffffffffffffffffffffffffffffffffffffff\n      and\n        /* \"contracts/abstracts/Ownable.sol\":2760:2768  oldOwner */\n      dup2\n        /* \"contracts/abstracts/Ownable.sol\":2739:2779  OwnershipTransferred(oldOwner, newOwner) */\n      0xffffffffffffffffffffffffffffffffffffffff\n      and\n      0x8be0079c531659141344cd1fd0a4f28419497f9722a3daafe3b4186f6b6457e0\n      mload(0x40)\n      mload(0x40)\n      dup1\n      swap2\n      sub\n      swap1\n      log3\n        /* \"contracts/abstracts/Ownable.sol\":2659:2787  {\r... */\n      pop\n        /* \"contracts/abstracts/Ownable.sol\":2596:2787  function _transferOwnership(address newOwner) internal virtual {\r... */\n      pop\n      jump\t// out\n        /* \"contracts/04_Aguacate_token.sol\":9581:10173  function _transferFromExcluded(address sender, address recipient, uint256 tAmount) private {\r... */\n    tag_333:\n        /* \"contracts/04_Aguacate_token.sol\":9684:9699  uint256 rAmount */\n      0x00\n        /* \"contracts/04_Aguacate_token.sol\":9701:9724  uint256 rTransferAmount */\n      dup1\n        /* \"contracts/04_Aguacate_token.sol\":9726:9738  uint256 rFee */\n      0x00\n        /* \"contracts/04_Aguacate_token.sol\":9740:9763  uint256 tTransferAmount */\n      dup1\n        /* \"contracts/04_Aguacate_token.sol\":9765:9777  uint256 tFee */\n      0x00\n        /* \"contracts/04_Aguacate_token.sol\":9779:9792  uint256 tBurn */\n      dup1\n        /* \"contracts/04_Aguacate_token.sol\":9796:9815  _getValues(tAmount) */\n      tag_383\n        /* \"contracts/04_Aguacate_token.sol\":9807:9814  tAmount */\n      dup8\n        /* \"contracts/04_Aguacate_token.sol\":9796:9806  _getValues */\n      tag_205\n        /* \"contracts/04_Aguacate_token.sol\":9796:9815  _getValues(tAmount) */\n      jump\t// in\n    tag_383:\n        /* \"contracts/04_Aguacate_token.sol\":9683:9815  (uint256 rAmount, uint256 rTransferAmount, uint256 rFee, uint256 tTransferAmount, uint256 tFee, uint256 tBurn) = _getValues(tAmount) */\n      swap6\n      pop\n      swap6\n      pop\n      swap6\n      pop\n      swap6\n      pop\n      swap6\n      pop\n      swap6\n      pop\n        /* \"contracts/04_Aguacate_token.sol\":9844:9872  _tOwned[sender].sub(tAmount) */\n      tag_384\n        /* \"contracts/04_Aguacate_token.sol\":9864:9871  tAmount */\n      dup8\n        /* \"contracts/04_Aguacate_token.sol\":9844:9851  _tOwned */\n      0x04\n        /* \"contracts/04_Aguacate_token.sol\":9844:9859  _tOwned[sender] */\n      0x00\n        /* \"contracts/04_Aguacate_token.sol\":9852:9858  sender */\n      dup13\n        /* \"contracts/04_Aguacate_token.sol\":9844:9859  _tOwned[sender] */\n      0xffffffffffffffffffffffffffffffffffffffff\n      and\n      0xffffffffffffffffffffffffffffffffffffffff\n      and\n      dup2\n      mstore\n      0x20\n      add\n      swap1\n      dup2\n      mstore\n      0x20\n      add\n      0x00\n      keccak256\n      sload\n        /* \"contracts/04_Aguacate_token.sol\":9844:9863  _tOwned[sender].sub */\n      tag_207\n      swap1\n        /* \"contracts/04_Aguacate_token.sol\":9844:9872  _tOwned[sender].sub(tAmount) */\n      swap2\n      swap1\n      0xffffffff\n      and\n      jump\t// in\n    tag_384:\n        /* \"contracts/04_Aguacate_token.sol\":9826:9833  _tOwned */\n      0x04\n        /* \"contracts/04_Aguacate_token.sol\":9826:9841  _tOwned[sender] */\n      0x00\n        /* \"contracts/04_Aguacate_token.sol\":9834:9840  sender */\n      dup12\n        /* \"contracts/04_Aguacate_token.sol\":9826:9841  _tOwned[sender] */\n      0xffffffffffffffffffffffffffffffffffffffff\n      and\n      0xffffffffffffffffffffffffffffffffffffffff\n      and\n      dup2\n      mstore\n      0x20\n      add\n      swap1\n      dup2\n      mstore\n      0x20\n      add\n      0x00\n      keccak256\n        /* \"contracts/04_Aguacate_token.sol\":9826:9872  _tOwned[sender] = _tOwned[sender].sub(tAmount) */\n      dup2\n      swap1\n      sstore\n      pop\n        /* \"contracts/04_Aguacate_token.sol\":9901:9929  _rOwned[sender].sub(rAmount) */\n      tag_385\n        /* \"contracts/04_Aguacate_token.sol\":9921:9928  rAmount */\n      dup7\n        /* \"contracts/04_Aguacate_token.sol\":9901:9908  _rOwned */\n      0x03\n        /* \"contracts/04_Aguacate_token.sol\":9901:9916  _rOwned[sender] */\n      0x00\n        /* \"contracts/04_Aguacate_token.sol\":9909:9915  sender */\n      dup13\n        /* \"contracts/04_Aguacate_token.sol\":9901:9916  _rOwned[sender] */\n      0xffffffffffffffffffffffffffffffffffffffff\n      and\n      0xffffffffffffffffffffffffffffffffffffffff\n      and\n      dup2\n      mstore\n      0x20\n      add\n      swap1\n      dup2\n      mstore\n      0x20\n      add\n      0x00\n      keccak256\n      sload\n        /* \"contracts/04_Aguacate_token.sol\":9901:9920  _rOwned[sender].sub */\n      tag_207\n      swap1\n        /* \"contracts/04_Aguacate_token.sol\":9901:9929  _rOwned[sender].sub(rAmount) */\n      swap2\n      swap1\n      0xffffffff\n      and\n      jump\t// in\n    tag_385:\n        /* \"contracts/04_Aguacate_token.sol\":9883:9890  _rOwned */\n      0x03\n        /* \"contracts/04_Aguacate_token.sol\":9883:9898  _rOwned[sender] */\n      0x00\n        /* \"contracts/04_Aguacate_token.sol\":9891:9897  sender */\n      dup12\n        /* \"contracts/04_Aguacate_token.sol\":9883:9898  _rOwned[sender] */\n      0xffffffffffffffffffffffffffffffffffffffff\n      and\n      0xffffffffffffffffffffffffffffffffffffffff\n      and\n      dup2\n      mstore\n      0x20\n      add\n      swap1\n      dup2\n      mstore\n      0x20\n      add\n      0x00\n      keccak256\n        /* \"contracts/04_Aguacate_token.sol\":9883:9929  _rOwned[sender] = _rOwned[sender].sub(rAmount) */\n      dup2\n      swap1\n      sstore\n      pop\n        /* \"contracts/04_Aguacate_token.sol\":9961:10000  _rOwned[recipient].add(rTransferAmount) */\n      tag_386\n        /* \"contracts/04_Aguacate_token.sol\":9984:9999  rTransferAmount */\n      dup6\n        /* \"contracts/04_Aguacate_token.sol\":9961:9968  _rOwned */\n      0x03\n        /* \"contracts/04_Aguacate_token.sol\":9961:9979  _rOwned[recipient] */\n      0x00\n        /* \"contracts/04_Aguacate_token.sol\":9969:9978  recipient */\n      dup12\n        /* \"contracts/04_Aguacate_token.sol\":9961:9979  _rOwned[recipient] */\n      0xffffffffffffffffffffffffffffffffffffffff\n      and\n      0xffffffffffffffffffffffffffffffffffffffff\n      and\n      dup2\n      mstore\n      0x20\n      add\n      swap1\n      dup2\n      mstore\n      0x20\n      add\n      0x00\n      keccak256\n      sload\n        /* \"contracts/04_Aguacate_token.sol\":9961:9983  _rOwned[recipient].add */\n      tag_194\n      swap1\n        /* \"contracts/04_Aguacate_token.sol\":9961:10000  _rOwned[recipient].add(rTransferAmount) */\n      swap2\n      swap1\n      0xffffffff\n      and\n      jump\t// in\n    tag_386:\n        /* \"contracts/04_Aguacate_token.sol\":9940:9947  _rOwned */\n      0x03\n        /* \"contracts/04_Aguacate_token.sol\":9940:9958  _rOwned[recipient] */\n      0x00\n        /* \"contracts/04_Aguacate_token.sol\":9948:9957  recipient */\n      dup11\n        /* \"contracts/04_Aguacate_token.sol\":9940:9958  _rOwned[recipient] */\n      0xffffffffffffffffffffffffffffffffffffffff\n      and\n      0xffffffffffffffffffffffffffffffffffffffff\n      and\n      dup2\n      mstore\n      0x20\n      add\n      swap1\n      dup2\n      mstore\n      0x20\n      add\n      0x00\n      keccak256\n        /* \"contracts/04_Aguacate_token.sol\":9940:10000  _rOwned[recipient] = _rOwned[recipient].add(rTransferAmount) */\n      dup2\n      swap1\n      sstore\n      pop\n        /* \"contracts/04_Aguacate_token.sol\":10011:10023  _burn(tBurn) */\n      tag_387\n        /* \"contracts/04_Aguacate_token.sol\":10017:10022  tBurn */\n      dup2\n        /* \"contracts/04_Aguacate_token.sol\":10011:10016  _burn */\n      tag_388\n        /* \"contracts/04_Aguacate_token.sol\":10011:10023  _burn(tBurn) */\n      jump\t// in\n    tag_387:\n        /* \"contracts/04_Aguacate_token.sol\":10034:10057  _reflectFee(rFee, tFee) */\n      tag_389\n        /* \"contracts/04_Aguacate_token.sol\":10046:10050  rFee */\n      dup5\n        /* \"contracts/04_Aguacate_token.sol\":10052:10056  tFee */\n      dup4\n        /* \"contracts/04_Aguacate_token.sol\":10034:10045  _reflectFee */\n      tag_390\n        /* \"contracts/04_Aguacate_token.sol\":10034:10057  _reflectFee(rFee, tFee) */\n      jump\t// in\n    tag_389:\n        /* \"contracts/04_Aguacate_token.sol\":10090:10097  burnAdd */\n      0x12\n      0x00\n      swap1\n      sload\n      swap1\n      0x0100\n      exp\n      swap1\n      div\n      0xffffffffffffffffffffffffffffffffffffffff\n      and\n        /* \"contracts/04_Aguacate_token.sol\":10073:10105  Transfer(sender, burnAdd, tBurn) */\n      0xffffffffffffffffffffffffffffffffffffffff\n      and\n        /* \"contracts/04_Aguacate_token.sol\":10082:10088  sender */\n      dup10\n        /* \"contracts/04_Aguacate_token.sol\":10073:10105  Transfer(sender, burnAdd, tBurn) */\n      0xffffffffffffffffffffffffffffffffffffffff\n      and\n      0xddf252ad1be2c89b69c2b068fc378daa952ba7f163c4a11628f55a4df523b3ef\n        /* \"contracts/04_Aguacate_token.sol\":10099:10104  tBurn */\n      dup4\n        /* \"contracts/04_Aguacate_token.sol\":10073:10105  Transfer(sender, burnAdd, tBurn) */\n      mload(0x40)\n      tag_391\n      swap2\n      swap1\n      tag_59\n      jump\t// in\n    tag_391:\n      mload(0x40)\n      dup1\n      swap2\n      sub\n      swap1\n      log3\n        /* \"contracts/04_Aguacate_token.sol\":10138:10147  recipient */\n      dup8\n        /* \"contracts/04_Aguacate_token.sol\":10121:10165  Transfer(sender, recipient, tTransferAmount) */\n      0xffffffffffffffffffffffffffffffffffffffff\n      and\n        /* \"contracts/04_Aguacate_token.sol\":10130:10136  sender */\n      dup10\n        /* \"contracts/04_Aguacate_token.sol\":10121:10165  Transfer(sender, recipient, tTransferAmount) */\n      0xffffffffffffffffffffffffffffffffffffffff\n      and\n      0xddf252ad1be2c89b69c2b068fc378daa952ba7f163c4a11628f55a4df523b3ef\n        /* \"contracts/04_Aguacate_token.sol\":10149:10164  tTransferAmount */\n      dup6\n        /* \"contracts/04_Aguacate_token.sol\":10121:10165  Transfer(sender, recipient, tTransferAmount) */\n      mload(0x40)\n      tag_392\n      swap2\n      swap1\n      tag_59\n      jump\t// in\n    tag_392:\n      mload(0x40)\n      dup1\n      swap2\n      sub\n      swap1\n      log3\n        /* \"contracts/04_Aguacate_token.sol\":9672:10173  {\r... */\n      pop\n      pop\n      pop\n      pop\n      pop\n      pop\n        /* \"contracts/04_Aguacate_token.sol\":9581:10173  function _transferFromExcluded(address sender, address recipient, uint256 tAmount) private {\r... */\n      pop\n      pop\n      pop\n      jump\t// out\n        /* \"contracts/04_Aguacate_token.sol\":8969:9573  function _transferToExcluded(address sender, address recipient, uint256 tAmount) private {\r... */\n    tag_338:\n        /* \"contracts/04_Aguacate_token.sol\":9070:9085  uint256 rAmount */\n      0x00\n        /* \"contracts/04_Aguacate_token.sol\":9087:9110  uint256 rTransferAmount */\n      dup1\n        /* \"contracts/04_Aguacate_token.sol\":9112:9124  uint256 rFee */\n      0x00\n        /* \"contracts/04_Aguacate_token.sol\":9126:9149  uint256 tTransferAmount */\n      dup1\n        /* \"contracts/04_Aguacate_token.sol\":9151:9163  uint256 tFee */\n      0x00\n        /* \"contracts/04_Aguacate_token.sol\":9165:9178  uint256 tBurn */\n      dup1\n        /* \"contracts/04_Aguacate_token.sol\":9182:9201  _getValues(tAmount) */\n      tag_394\n        /* \"contracts/04_Aguacate_token.sol\":9193:9200  tAmount */\n      dup8\n        /* \"contracts/04_Aguacate_token.sol\":9182:9192  _getValues */\n      tag_205\n        /* \"contracts/04_Aguacate_token.sol\":9182:9201  _getValues(tAmount) */\n      jump\t// in\n    tag_394:\n        /* \"contracts/04_Aguacate_token.sol\":9069:9201  (uint256 rAmount, uint256 rTransferAmount, uint256 rFee, uint256 tTransferAmount, uint256 tFee, uint256 tBurn) = _getValues(tAmount) */\n      swap6\n      pop\n      swap6\n      pop\n      swap6\n      pop\n      swap6\n      pop\n      swap6\n      pop\n      swap6\n      pop\n        /* \"contracts/04_Aguacate_token.sol\":9230:9258  _rOwned[sender].sub(rAmount) */\n      tag_395\n        /* \"contracts/04_Aguacate_token.sol\":9250:9257  rAmount */\n      dup7\n        /* \"contracts/04_Aguacate_token.sol\":9230:9237  _rOwned */\n      0x03\n        /* \"contracts/04_Aguacate_token.sol\":9230:9245  _rOwned[sender] */\n      0x00\n        /* \"contracts/04_Aguacate_token.sol\":9238:9244  sender */\n      dup13\n        /* \"contracts/04_Aguacate_token.sol\":9230:9245  _rOwned[sender] */\n      0xffffffffffffffffffffffffffffffffffffffff\n      and\n      0xffffffffffffffffffffffffffffffffffffffff\n      and\n      dup2\n      mstore\n      0x20\n      add\n      swap1\n      dup2\n      mstore\n      0x20\n      add\n      0x00\n      keccak256\n      sload\n        /* \"contracts/04_Aguacate_token.sol\":9230:9249  _rOwned[sender].sub */\n      tag_207\n      swap1\n        /* \"contracts/04_Aguacate_token.sol\":9230:9258  _rOwned[sender].sub(rAmount) */\n      swap2\n      swap1\n      0xffffffff\n      and\n      jump\t// in\n    tag_395:\n        /* \"contracts/04_Aguacate_token.sol\":9212:9219  _rOwned */\n      0x03\n        /* \"contracts/04_Aguacate_token.sol\":9212:9227  _rOwned[sender] */\n      0x00\n        /* \"contracts/04_Aguacate_token.sol\":9220:9226  sender */\n      dup12\n        /* \"contracts/04_Aguacate_token.sol\":9212:9227  _rOwned[sender] */\n      0xffffffffffffffffffffffffffffffffffffffff\n      and\n      0xffffffffffffffffffffffffffffffffffffffff\n      and\n      dup2\n      mstore\n      0x20\n      add\n      swap1\n      dup2\n      mstore\n      0x20\n      add\n      0x00\n      keccak256\n        /* \"contracts/04_Aguacate_token.sol\":9212:9258  _rOwned[sender] = _rOwned[sender].sub(rAmount) */\n      dup2\n      swap1\n      sstore\n      pop\n        /* \"contracts/04_Aguacate_token.sol\":9290:9329  _tOwned[recipient].add(tTransferAmount) */\n      tag_396\n        /* \"contracts/04_Aguacate_token.sol\":9313:9328  tTransferAmount */\n      dup4\n        /* \"contracts/04_Aguacate_token.sol\":9290:9297  _tOwned */\n      0x04\n        /* \"contracts/04_Aguacate_token.sol\":9290:9308  _tOwned[recipient] */\n      0x00\n        /* \"contracts/04_Aguacate_token.sol\":9298:9307  recipient */\n      dup12\n        /* \"contracts/04_Aguacate_token.sol\":9290:9308  _tOwned[recipient] */\n      0xffffffffffffffffffffffffffffffffffffffff\n      and\n      0xffffffffffffffffffffffffffffffffffffffff\n      and\n      dup2\n      mstore\n      0x20\n      add\n      swap1\n      dup2\n      mstore\n      0x20\n      add\n      0x00\n      keccak256\n      sload\n        /* \"contracts/04_Aguacate_token.sol\":9290:9312  _tOwned[recipient].add */\n      tag_194\n      swap1\n        /* \"contracts/04_Aguacate_token.sol\":9290:9329  _tOwned[recipient].add(tTransferAmount) */\n      swap2\n      swap1\n      0xffffffff\n      and\n      jump\t// in\n    tag_396:\n        /* \"contracts/04_Aguacate_token.sol\":9269:9276  _tOwned */\n      0x04\n        /* \"contracts/04_Aguacate_token.sol\":9269:9287  _tOwned[recipient] */\n      0x00\n        /* \"contracts/04_Aguacate_token.sol\":9277:9286  recipient */\n      dup11\n        /* \"contracts/04_Aguacate_token.sol\":9269:9287  _tOwned[recipient] */\n      0xffffffffffffffffffffffffffffffffffffffff\n      and\n      0xffffffffffffffffffffffffffffffffffffffff\n      and\n      dup2\n      mstore\n      0x20\n      add\n      swap1\n      dup2\n      mstore\n      0x20\n      add\n      0x00\n      keccak256\n        /* \"contracts/04_Aguacate_token.sol\":9269:9329  _tOwned[recipient] = _tOwned[recipient].add(tTransferAmount) */\n      dup2\n      swap1\n      sstore\n      pop\n        /* \"contracts/04_Aguacate_token.sol\":9361:9400  _rOwned[recipient].add(rTransferAmount) */\n      tag_397\n        /* \"contracts/04_Aguacate_token.sol\":9384:9399  rTransferAmount */\n      dup6\n        /* \"contracts/04_Aguacate_token.sol\":9361:9368  _rOwned */\n      0x03\n        /* \"contracts/04_Aguacate_token.sol\":9361:9379  _rOwned[recipient] */\n      0x00\n        /* \"contracts/04_Aguacate_token.sol\":9369:9378  recipient */\n      dup12\n        /* \"contracts/04_Aguacate_token.sol\":9361:9379  _rOwned[recipient] */\n      0xffffffffffffffffffffffffffffffffffffffff\n      and\n      0xffffffffffffffffffffffffffffffffffffffff\n      and\n      dup2\n      mstore\n      0x20\n      add\n      swap1\n      dup2\n      mstore\n      0x20\n      add\n      0x00\n      keccak256\n      sload\n        /* \"contracts/04_Aguacate_token.sol\":9361:9383  _rOwned[recipient].add */\n      tag_194\n      swap1\n        /* \"contracts/04_Aguacate_token.sol\":9361:9400  _rOwned[recipient].add(rTransferAmount) */\n      swap2\n      swap1\n      0xffffffff\n      and\n      jump\t// in\n    tag_397:\n        /* \"contracts/04_Aguacate_token.sol\":9340:9347  _rOwned */\n      0x03\n        /* \"contracts/04_Aguacate_token.sol\":9340:9358  _rOwned[recipient] */\n      0x00\n        /* \"contracts/04_Aguacate_token.sol\":9348:9357  recipient */\n      dup11\n        /* \"contracts/04_Aguacate_token.sol\":9340:9358  _rOwned[recipient] */\n      0xffffffffffffffffffffffffffffffffffffffff\n      and\n      0xffffffffffffffffffffffffffffffffffffffff\n      and\n      dup2\n      mstore\n      0x20\n      add\n      swap1\n      dup2\n      mstore\n      0x20\n      add\n      0x00\n      keccak256\n        /* \"contracts/04_Aguacate_token.sol\":9340:9400  _rOwned[recipient] = _rOwned[recipient].add(rTransferAmount) */\n      dup2\n      swap1\n      sstore\n      pop\n        /* \"contracts/04_Aguacate_token.sol\":9411:9423  _burn(tBurn) */\n      tag_398\n        /* \"contracts/04_Aguacate_token.sol\":9417:9422  tBurn */\n      dup2\n        /* \"contracts/04_Aguacate_token.sol\":9411:9416  _burn */\n      tag_388\n        /* \"contracts/04_Aguacate_token.sol\":9411:9423  _burn(tBurn) */\n      jump\t// in\n    tag_398:\n        /* \"contracts/04_Aguacate_token.sol\":9434:9457  _reflectFee(rFee, tFee) */\n      tag_399\n        /* \"contracts/04_Aguacate_token.sol\":9446:9450  rFee */\n      dup5\n        /* \"contracts/04_Aguacate_token.sol\":9452:9456  tFee */\n      dup4\n        /* \"contracts/04_Aguacate_token.sol\":9434:9445  _reflectFee */\n      tag_390\n        /* \"contracts/04_Aguacate_token.sol\":9434:9457  _reflectFee(rFee, tFee) */\n      jump\t// in\n    tag_399:\n        /* \"contracts/04_Aguacate_token.sol\":9490:9497  burnAdd */\n      0x12\n      0x00\n      swap1\n      sload\n      swap1\n      0x0100\n      exp\n      swap1\n      div\n      0xffffffffffffffffffffffffffffffffffffffff\n      and\n        /* \"contracts/04_Aguacate_token.sol\":9473:9505  Transfer(sender, burnAdd, tBurn) */\n      0xffffffffffffffffffffffffffffffffffffffff\n      and\n        /* \"contracts/04_Aguacate_token.sol\":9482:9488  sender */\n      dup10\n        /* \"contracts/04_Aguacate_token.sol\":9473:9505  Transfer(sender, burnAdd, tBurn) */\n      0xffffffffffffffffffffffffffffffffffffffff\n      and\n      0xddf252ad1be2c89b69c2b068fc378daa952ba7f163c4a11628f55a4df523b3ef\n        /* \"contracts/04_Aguacate_token.sol\":9499:9504  tBurn */\n      dup4\n        /* \"contracts/04_Aguacate_token.sol\":9473:9505  Transfer(sender, burnAdd, tBurn) */\n      mload(0x40)\n      tag_400\n      swap2\n      swap1\n      tag_59\n      jump\t// in\n    tag_400:\n      mload(0x40)\n      dup1\n      swap2\n      sub\n      swap1\n      log3\n        /* \"contracts/04_Aguacate_token.sol\":9538:9547  recipient */\n      dup8\n        /* \"contracts/04_Aguacate_token.sol\":9521:9565  Transfer(sender, recipient, tTransferAmount) */\n      0xffffffffffffffffffffffffffffffffffffffff\n      and\n        /* \"contracts/04_Aguacate_token.sol\":9530:9536  sender */\n      dup10\n        /* \"contracts/04_Aguacate_token.sol\":9521:9565  Transfer(sender, recipient, tTransferAmount) */\n      0xffffffffffffffffffffffffffffffffffffffff\n      and\n      0xddf252ad1be2c89b69c2b068fc378daa952ba7f163c4a11628f55a4df523b3ef\n        /* \"contracts/04_Aguacate_token.sol\":9549:9564  tTransferAmount */\n      dup6\n        /* \"contracts/04_Aguacate_token.sol\":9521:9565  Transfer(sender, recipient, tTransferAmount) */\n      mload(0x40)\n      tag_401\n      swap2\n      swap1\n      tag_59\n      jump\t// in\n    tag_401:\n      mload(0x40)\n      dup1\n      swap2\n      sub\n      swap1\n      log3\n        /* \"contracts/04_Aguacate_token.sol\":9058:9573  {\r... */\n      pop\n      pop\n      pop\n      pop\n      pop\n      pop\n        /* \"contracts/04_Aguacate_token.sol\":8969:9573  function _transferToExcluded(address sender, address recipient, uint256 tAmount) private {\r... */\n      pop\n      pop\n      pop\n      jump\t// out\n        /* \"contracts/04_Aguacate_token.sol\":8430:8961  function _transferStandard(address sender, address recipient, uint256 tAmount) private {\r... */\n    tag_343:\n        /* \"contracts/04_Aguacate_token.sol\":8529:8544  uint256 rAmount */\n      0x00\n        /* \"contracts/04_Aguacate_token.sol\":8546:8569  uint256 rTransferAmount */\n      dup1\n        /* \"contracts/04_Aguacate_token.sol\":8571:8583  uint256 rFee */\n      0x00\n        /* \"contracts/04_Aguacate_token.sol\":8585:8608  uint256 tTransferAmount */\n      dup1\n        /* \"contracts/04_Aguacate_token.sol\":8610:8622  uint256 tFee */\n      0x00\n        /* \"contracts/04_Aguacate_token.sol\":8624:8637  uint256 tBurn */\n      dup1\n        /* \"contracts/04_Aguacate_token.sol\":8641:8660  _getValues(tAmount) */\n      tag_403\n        /* \"contracts/04_Aguacate_token.sol\":8652:8659  tAmount */\n      dup8\n        /* \"contracts/04_Aguacate_token.sol\":8641:8651  _getValues */\n      tag_205\n        /* \"contracts/04_Aguacate_token.sol\":8641:8660  _getValues(tAmount) */\n      jump\t// in\n    tag_403:\n        /* \"contracts/04_Aguacate_token.sol\":8528:8660  (uint256 rAmount, uint256 rTransferAmount, uint256 rFee, uint256 tTransferAmount, uint256 tFee, uint256 tBurn) = _getValues(tAmount) */\n      swap6\n      pop\n      swap6\n      pop\n      swap6\n      pop\n      swap6\n      pop\n      swap6\n      pop\n      swap6\n      pop\n        /* \"contracts/04_Aguacate_token.sol\":8689:8717  _rOwned[sender].sub(rAmount) */\n      tag_404\n        /* \"contracts/04_Aguacate_token.sol\":8709:8716  rAmount */\n      dup7\n        /* \"contracts/04_Aguacate_token.sol\":8689:8696  _rOwned */\n      0x03\n        /* \"contracts/04_Aguacate_token.sol\":8689:8704  _rOwned[sender] */\n      0x00\n        /* \"contracts/04_Aguacate_token.sol\":8697:8703  sender */\n      dup13\n        /* \"contracts/04_Aguacate_token.sol\":8689:8704  _rOwned[sender] */\n      0xffffffffffffffffffffffffffffffffffffffff\n      and\n      0xffffffffffffffffffffffffffffffffffffffff\n      and\n      dup2\n      mstore\n      0x20\n      add\n      swap1\n      dup2\n      mstore\n      0x20\n      add\n      0x00\n      keccak256\n      sload\n        /* \"contracts/04_Aguacate_token.sol\":8689:8708  _rOwned[sender].sub */\n      tag_207\n      swap1\n        /* \"contracts/04_Aguacate_token.sol\":8689:8717  _rOwned[sender].sub(rAmount) */\n      swap2\n      swap1\n      0xffffffff\n      and\n      jump\t// in\n    tag_404:\n        /* \"contracts/04_Aguacate_token.sol\":8671:8678  _rOwned */\n      0x03\n        /* \"contracts/04_Aguacate_token.sol\":8671:8686  _rOwned[sender] */\n      0x00\n        /* \"contracts/04_Aguacate_token.sol\":8679:8685  sender */\n      dup12\n        /* \"contracts/04_Aguacate_token.sol\":8671:8686  _rOwned[sender] */\n      0xffffffffffffffffffffffffffffffffffffffff\n      and\n      0xffffffffffffffffffffffffffffffffffffffff\n      and\n      dup2\n      mstore\n      0x20\n      add\n      swap1\n      dup2\n      mstore\n      0x20\n      add\n      0x00\n      keccak256\n        /* \"contracts/04_Aguacate_token.sol\":8671:8717  _rOwned[sender] = _rOwned[sender].sub(rAmount) */\n      dup2\n      swap1\n      sstore\n      pop\n        /* \"contracts/04_Aguacate_token.sol\":8749:8788  _rOwned[recipient].add(rTransferAmount) */\n      tag_405\n        /* \"contracts/04_Aguacate_token.sol\":8772:8787  rTransferAmount */\n      dup6\n        /* \"contracts/04_Aguacate_token.sol\":8749:8756  _rOwned */\n      0x03\n        /* \"contracts/04_Aguacate_token.sol\":8749:8767  _rOwned[recipient] */\n      0x00\n        /* \"contracts/04_Aguacate_token.sol\":8757:8766  recipient */\n      dup12\n        /* \"contracts/04_Aguacate_token.sol\":8749:8767  _rOwned[recipient] */\n      0xffffffffffffffffffffffffffffffffffffffff\n      and\n      0xffffffffffffffffffffffffffffffffffffffff\n      and\n      dup2\n      mstore\n      0x20\n      add\n      swap1\n      dup2\n      mstore\n      0x20\n      add\n      0x00\n      keccak256\n      sload\n        /* \"contracts/04_Aguacate_token.sol\":8749:8771  _rOwned[recipient].add */\n      tag_194\n      swap1\n        /* \"contracts/04_Aguacate_token.sol\":8749:8788  _rOwned[recipient].add(rTransferAmount) */\n      swap2\n      swap1\n      0xffffffff\n      and\n      jump\t// in\n    tag_405:\n        /* \"contracts/04_Aguacate_token.sol\":8728:8735  _rOwned */\n      0x03\n        /* \"contracts/04_Aguacate_token.sol\":8728:8746  _rOwned[recipient] */\n      0x00\n        /* \"contracts/04_Aguacate_token.sol\":8736:8745  recipient */\n      dup11\n        /* \"contracts/04_Aguacate_token.sol\":8728:8746  _rOwned[recipient] */\n      0xffffffffffffffffffffffffffffffffffffffff\n      and\n      0xffffffffffffffffffffffffffffffffffffffff\n      and\n      dup2\n      mstore\n      0x20\n      add\n      swap1\n      dup2\n      mstore\n      0x20\n      add\n      0x00\n      keccak256\n        /* \"contracts/04_Aguacate_token.sol\":8728:8788  _rOwned[recipient] = _rOwned[recipient].add(rTransferAmount) */\n      dup2\n      swap1\n      sstore\n      pop\n        /* \"contracts/04_Aguacate_token.sol\":8799:8811  _burn(tBurn) */\n      tag_406\n        /* \"contracts/04_Aguacate_token.sol\":8805:8810  tBurn */\n      dup2\n        /* \"contracts/04_Aguacate_token.sol\":8799:8804  _burn */\n      tag_388\n        /* \"contracts/04_Aguacate_token.sol\":8799:8811  _burn(tBurn) */\n      jump\t// in\n    tag_406:\n        /* \"contracts/04_Aguacate_token.sol\":8822:8845  _reflectFee(rFee, tFee) */\n      tag_407\n        /* \"contracts/04_Aguacate_token.sol\":8834:8838  rFee */\n      dup5\n        /* \"contracts/04_Aguacate_token.sol\":8840:8844  tFee */\n      dup4\n        /* \"contracts/04_Aguacate_token.sol\":8822:8833  _reflectFee */\n      tag_390\n        /* \"contracts/04_Aguacate_token.sol\":8822:8845  _reflectFee(rFee, tFee) */\n      jump\t// in\n    tag_407:\n        /* \"contracts/04_Aguacate_token.sol\":8878:8885  burnAdd */\n      0x12\n      0x00\n      swap1\n      sload\n      swap1\n      0x0100\n      exp\n      swap1\n      div\n      0xffffffffffffffffffffffffffffffffffffffff\n      and\n        /* \"contracts/04_Aguacate_token.sol\":8861:8893  Transfer(sender, burnAdd, tBurn) */\n      0xffffffffffffffffffffffffffffffffffffffff\n      and\n        /* \"contracts/04_Aguacate_token.sol\":8870:8876  sender */\n      dup10\n        /* \"contracts/04_Aguacate_token.sol\":8861:8893  Transfer(sender, burnAdd, tBurn) */\n      0xffffffffffffffffffffffffffffffffffffffff\n      and\n      0xddf252ad1be2c89b69c2b068fc378daa952ba7f163c4a11628f55a4df523b3ef\n        /* \"contracts/04_Aguacate_token.sol\":8887:8892  tBurn */\n      dup4\n        /* \"contracts/04_Aguacate_token.sol\":8861:8893  Transfer(sender, burnAdd, tBurn) */\n      mload(0x40)\n      tag_408\n      swap2\n      swap1\n      tag_59\n      jump\t// in\n    tag_408:\n      mload(0x40)\n      dup1\n      swap2\n      sub\n      swap1\n      log3\n        /* \"contracts/04_Aguacate_token.sol\":8926:8935  recipient */\n      dup8\n        /* \"contracts/04_Aguacate_token.sol\":8909:8953  Transfer(sender, recipient, tTransferAmount) */\n      0xffffffffffffffffffffffffffffffffffffffff\n      and\n        /* \"contracts/04_Aguacate_token.sol\":8918:8924  sender */\n      dup10\n        /* \"contracts/04_Aguacate_token.sol\":8909:8953  Transfer(sender, recipient, tTransferAmount) */\n      0xffffffffffffffffffffffffffffffffffffffff\n      and\n      0xddf252ad1be2c89b69c2b068fc378daa952ba7f163c4a11628f55a4df523b3ef\n        /* \"contracts/04_Aguacate_token.sol\":8937:8952  tTransferAmount */\n      dup6\n        /* \"contracts/04_Aguacate_token.sol\":8909:8953  Transfer(sender, recipient, tTransferAmount) */\n      mload(0x40)\n      tag_409\n      swap2\n      swap1\n      tag_59\n      jump\t// in\n    tag_409:\n      mload(0x40)\n      dup1\n      swap2\n      sub\n      swap1\n      log3\n        /* \"contracts/04_Aguacate_token.sol\":8517:8961  {\r... */\n      pop\n      pop\n      pop\n      pop\n      pop\n      pop\n        /* \"contracts/04_Aguacate_token.sol\":8430:8961  function _transferStandard(address sender, address recipient, uint256 tAmount) private {\r... */\n      pop\n      pop\n      pop\n      jump\t// out\n        /* \"contracts/04_Aguacate_token.sol\":10181:10844  function _transferBothExcluded(address sender, address recipient, uint256 tAmount) private {\r... */\n    tag_348:\n        /* \"contracts/04_Aguacate_token.sol\":10284:10299  uint256 rAmount */\n      0x00\n        /* \"contracts/04_Aguacate_token.sol\":10301:10324  uint256 rTransferAmount */\n      dup1\n        /* \"contracts/04_Aguacate_token.sol\":10326:10338  uint256 rFee */\n      0x00\n        /* \"contracts/04_Aguacate_token.sol\":10340:10363  uint256 tTransferAmount */\n      dup1\n        /* \"contracts/04_Aguacate_token.sol\":10365:10377  uint256 tFee */\n      0x00\n        /* \"contracts/04_Aguacate_token.sol\":10379:10392  uint256 tBurn */\n      dup1\n        /* \"contracts/04_Aguacate_token.sol\":10396:10415  _getValues(tAmount) */\n      tag_411\n        /* \"contracts/04_Aguacate_token.sol\":10407:10414  tAmount */\n      dup8\n        /* \"contracts/04_Aguacate_token.sol\":10396:10406  _getValues */\n      tag_205\n        /* \"contracts/04_Aguacate_token.sol\":10396:10415  _getValues(tAmount) */\n      jump\t// in\n    tag_411:\n        /* \"contracts/04_Aguacate_token.sol\":10283:10415  (uint256 rAmount, uint256 rTransferAmount, uint256 rFee, uint256 tTransferAmount, uint256 tFee, uint256 tBurn) = _getValues(tAmount) */\n      swap6\n      pop\n      swap6\n      pop\n      swap6\n      pop\n      swap6\n      pop\n      swap6\n      pop\n      swap6\n      pop\n        /* \"contracts/04_Aguacate_token.sol\":10444:10472  _tOwned[sender].sub(tAmount) */\n      tag_412\n        /* \"contracts/04_Aguacate_token.sol\":10464:10471  tAmount */\n      dup8\n        /* \"contracts/04_Aguacate_token.sol\":10444:10451  _tOwned */\n      0x04\n        /* \"contracts/04_Aguacate_token.sol\":10444:10459  _tOwned[sender] */\n      0x00\n        /* \"contracts/04_Aguacate_token.sol\":10452:10458  sender */\n      dup13\n        /* \"contracts/04_Aguacate_token.sol\":10444:10459  _tOwned[sender] */\n      0xffffffffffffffffffffffffffffffffffffffff\n      and\n      0xffffffffffffffffffffffffffffffffffffffff\n      and\n      dup2\n      mstore\n      0x20\n      add\n      swap1\n      dup2\n      mstore\n      0x20\n      add\n      0x00\n      keccak256\n      sload\n        /* \"contracts/04_Aguacate_token.sol\":10444:10463  _tOwned[sender].sub */\n      tag_207\n      swap1\n        /* \"contracts/04_Aguacate_token.sol\":10444:10472  _tOwned[sender].sub(tAmount) */\n      swap2\n      swap1\n      0xffffffff\n      and\n      jump\t// in\n    tag_412:\n        /* \"contracts/04_Aguacate_token.sol\":10426:10433  _tOwned */\n      0x04\n        /* \"contracts/04_Aguacate_token.sol\":10426:10441  _tOwned[sender] */\n      0x00\n        /* \"contracts/04_Aguacate_token.sol\":10434:10440  sender */\n      dup12\n        /* \"contracts/04_Aguacate_token.sol\":10426:10441  _tOwned[sender] */\n      0xffffffffffffffffffffffffffffffffffffffff\n      and\n      0xffffffffffffffffffffffffffffffffffffffff\n      and\n      dup2\n      mstore\n      0x20\n      add\n      swap1\n      dup2\n      mstore\n      0x20\n      add\n      0x00\n      keccak256\n        /* \"contracts/04_Aguacate_token.sol\":10426:10472  _tOwned[sender] = _tOwned[sender].sub(tAmount) */\n      dup2\n      swap1\n      sstore\n      pop\n        /* \"contracts/04_Aguacate_token.sol\":10501:10529  _rOwned[sender].sub(rAmount) */\n      tag_413\n        /* \"contracts/04_Aguacate_token.sol\":10521:10528  rAmount */\n      dup7\n        /* \"contracts/04_Aguacate_token.sol\":10501:10508  _rOwned */\n      0x03\n        /* \"contracts/04_Aguacate_token.sol\":10501:10516  _rOwned[sender] */\n      0x00\n        /* \"contracts/04_Aguacate_token.sol\":10509:10515  sender */\n      dup13\n        /* \"contracts/04_Aguacate_token.sol\":10501:10516  _rOwned[sender] */\n      0xffffffffffffffffffffffffffffffffffffffff\n      and\n      0xffffffffffffffffffffffffffffffffffffffff\n      and\n      dup2\n      mstore\n      0x20\n      add\n      swap1\n      dup2\n      mstore\n      0x20\n      add\n      0x00\n      keccak256\n      sload\n        /* \"contracts/04_Aguacate_token.sol\":10501:10520  _rOwned[sender].sub */\n      tag_207\n      swap1\n        /* \"contracts/04_Aguacate_token.sol\":10501:10529  _rOwned[sender].sub(rAmount) */\n      swap2\n      swap1\n      0xffffffff\n      and\n      jump\t// in\n    tag_413:\n        /* \"contracts/04_Aguacate_token.sol\":10483:10490  _rOwned */\n      0x03\n        /* \"contracts/04_Aguacate_token.sol\":10483:10498  _rOwned[sender] */\n      0x00\n        /* \"contracts/04_Aguacate_token.sol\":10491:10497  sender */\n      dup12\n        /* \"contracts/04_Aguacate_token.sol\":10483:10498  _rOwned[sender] */\n      0xffffffffffffffffffffffffffffffffffffffff\n      and\n      0xffffffffffffffffffffffffffffffffffffffff\n      and\n      dup2\n      mstore\n      0x20\n      add\n      swap1\n      dup2\n      mstore\n      0x20\n      add\n      0x00\n      keccak256\n        /* \"contracts/04_Aguacate_token.sol\":10483:10529  _rOwned[sender] = _rOwned[sender].sub(rAmount) */\n      dup2\n      swap1\n      sstore\n      pop\n        /* \"contracts/04_Aguacate_token.sol\":10561:10600  _tOwned[recipient].add(tTransferAmount) */\n      tag_414\n        /* \"contracts/04_Aguacate_token.sol\":10584:10599  tTransferAmount */\n      dup4\n        /* \"contracts/04_Aguacate_token.sol\":10561:10568  _tOwned */\n      0x04\n        /* \"contracts/04_Aguacate_token.sol\":10561:10579  _tOwned[recipient] */\n      0x00\n        /* \"contracts/04_Aguacate_token.sol\":10569:10578  recipient */\n      dup12\n        /* \"contracts/04_Aguacate_token.sol\":10561:10579  _tOwned[recipient] */\n      0xffffffffffffffffffffffffffffffffffffffff\n      and\n      0xffffffffffffffffffffffffffffffffffffffff\n      and\n      dup2\n      mstore\n      0x20\n      add\n      swap1\n      dup2\n      mstore\n      0x20\n      add\n      0x00\n      keccak256\n      sload\n        /* \"contracts/04_Aguacate_token.sol\":10561:10583  _tOwned[recipient].add */\n      tag_194\n      swap1\n        /* \"contracts/04_Aguacate_token.sol\":10561:10600  _tOwned[recipient].add(tTransferAmount) */\n      swap2\n      swap1\n      0xffffffff\n      and\n      jump\t// in\n    tag_414:\n        /* \"contracts/04_Aguacate_token.sol\":10540:10547  _tOwned */\n      0x04\n        /* \"contracts/04_Aguacate_token.sol\":10540:10558  _tOwned[recipient] */\n      0x00\n        /* \"contracts/04_Aguacate_token.sol\":10548:10557  recipient */\n      dup11\n        /* \"contracts/04_Aguacate_token.sol\":10540:10558  _tOwned[recipient] */\n      0xffffffffffffffffffffffffffffffffffffffff\n      and\n      0xffffffffffffffffffffffffffffffffffffffff\n      and\n      dup2\n      mstore\n      0x20\n      add\n      swap1\n      dup2\n      mstore\n      0x20\n      add\n      0x00\n      keccak256\n        /* \"contracts/04_Aguacate_token.sol\":10540:10600  _tOwned[recipient] = _tOwned[recipient].add(tTransferAmount) */\n      dup2\n      swap1\n      sstore\n      pop\n        /* \"contracts/04_Aguacate_token.sol\":10632:10671  _rOwned[recipient].add(rTransferAmount) */\n      tag_415\n        /* \"contracts/04_Aguacate_token.sol\":10655:10670  rTransferAmount */\n      dup6\n        /* \"contracts/04_Aguacate_token.sol\":10632:10639  _rOwned */\n      0x03\n        /* \"contracts/04_Aguacate_token.sol\":10632:10650  _rOwned[recipient] */\n      0x00\n        /* \"contracts/04_Aguacate_token.sol\":10640:10649  recipient */\n      dup12\n        /* \"contracts/04_Aguacate_token.sol\":10632:10650  _rOwned[recipient] */\n      0xffffffffffffffffffffffffffffffffffffffff\n      and\n      0xffffffffffffffffffffffffffffffffffffffff\n      and\n      dup2\n      mstore\n      0x20\n      add\n      swap1\n      dup2\n      mstore\n      0x20\n      add\n      0x00\n      keccak256\n      sload\n        /* \"contracts/04_Aguacate_token.sol\":10632:10654  _rOwned[recipient].add */\n      tag_194\n      swap1\n        /* \"contracts/04_Aguacate_token.sol\":10632:10671  _rOwned[recipient].add(rTransferAmount) */\n      swap2\n      swap1\n      0xffffffff\n      and\n      jump\t// in\n    tag_415:\n        /* \"contracts/04_Aguacate_token.sol\":10611:10618  _rOwned */\n      0x03\n        /* \"contracts/04_Aguacate_token.sol\":10611:10629  _rOwned[recipient] */\n      0x00\n        /* \"contracts/04_Aguacate_token.sol\":10619:10628  recipient */\n      dup11\n        /* \"contracts/04_Aguacate_token.sol\":10611:10629  _rOwned[recipient] */\n      0xffffffffffffffffffffffffffffffffffffffff\n      and\n      0xffffffffffffffffffffffffffffffffffffffff\n      and\n      dup2\n      mstore\n      0x20\n      add\n      swap1\n      dup2\n      mstore\n      0x20\n      add\n      0x00\n      keccak256\n        /* \"contracts/04_Aguacate_token.sol\":10611:10671  _rOwned[recipient] = _rOwned[recipient].add(rTransferAmount) */\n      dup2\n      swap1\n      sstore\n      pop\n        /* \"contracts/04_Aguacate_token.sol\":10682:10694  _burn(tBurn) */\n      tag_416\n        /* \"contracts/04_Aguacate_token.sol\":10688:10693  tBurn */\n      dup2\n        /* \"contracts/04_Aguacate_token.sol\":10682:10687  _burn */\n      tag_388\n        /* \"contracts/04_Aguacate_token.sol\":10682:10694  _burn(tBurn) */\n      jump\t// in\n    tag_416:\n        /* \"contracts/04_Aguacate_token.sol\":10705:10728  _reflectFee(rFee, tFee) */\n      tag_417\n        /* \"contracts/04_Aguacate_token.sol\":10717:10721  rFee */\n      dup5\n        /* \"contracts/04_Aguacate_token.sol\":10723:10727  tFee */\n      dup4\n        /* \"contracts/04_Aguacate_token.sol\":10705:10716  _reflectFee */\n      tag_390\n        /* \"contracts/04_Aguacate_token.sol\":10705:10728  _reflectFee(rFee, tFee) */\n      jump\t// in\n    tag_417:\n        /* \"contracts/04_Aguacate_token.sol\":10761:10768  burnAdd */\n      0x12\n      0x00\n      swap1\n      sload\n      swap1\n      0x0100\n      exp\n      swap1\n      div\n      0xffffffffffffffffffffffffffffffffffffffff\n      and\n        /* \"contracts/04_Aguacate_token.sol\":10744:10776  Transfer(sender, burnAdd, tBurn) */\n      0xffffffffffffffffffffffffffffffffffffffff\n      and\n        /* \"contracts/04_Aguacate_token.sol\":10753:10759  sender */\n      dup10\n        /* \"contracts/04_Aguacate_token.sol\":10744:10776  Transfer(sender, burnAdd, tBurn) */\n      0xffffffffffffffffffffffffffffffffffffffff\n      and\n      0xddf252ad1be2c89b69c2b068fc378daa952ba7f163c4a11628f55a4df523b3ef\n        /* \"contracts/04_Aguacate_token.sol\":10770:10775  tBurn */\n      dup4\n        /* \"contracts/04_Aguacate_token.sol\":10744:10776  Transfer(sender, burnAdd, tBurn) */\n      mload(0x40)\n      tag_418\n      swap2\n      swap1\n      tag_59\n      jump\t// in\n    tag_418:\n      mload(0x40)\n      dup1\n      swap2\n      sub\n      swap1\n      log3\n        /* \"contracts/04_Aguacate_token.sol\":10809:10818  recipient */\n      dup8\n        /* \"contracts/04_Aguacate_token.sol\":10792:10836  Transfer(sender, recipient, tTransferAmount) */\n      0xffffffffffffffffffffffffffffffffffffffff\n      and\n        /* \"contracts/04_Aguacate_token.sol\":10801:10807  sender */\n      dup10\n        /* \"contracts/04_Aguacate_token.sol\":10792:10836  Transfer(sender, recipient, tTransferAmount) */\n      0xffffffffffffffffffffffffffffffffffffffff\n      and\n      0xddf252ad1be2c89b69c2b068fc378daa952ba7f163c4a11628f55a4df523b3ef\n        /* \"contracts/04_Aguacate_token.sol\":10820:10835  tTransferAmount */\n      dup6\n        /* \"contracts/04_Aguacate_token.sol\":10792:10836  Transfer(sender, recipient, tTransferAmount) */\n      mload(0x40)\n      tag_419\n      swap2\n      swap1\n      tag_59\n      jump\t// in\n    tag_419:\n      mload(0x40)\n      dup1\n      swap2\n      sub\n      swap1\n      log3\n        /* \"contracts/04_Aguacate_token.sol\":10272:10844  {\r... */\n      pop\n      pop\n      pop\n      pop\n      pop\n      pop\n        /* \"contracts/04_Aguacate_token.sol\":10181:10844  function _transferBothExcluded(address sender, address recipient, uint256 tAmount) private {\r... */\n      pop\n      pop\n      pop\n      jump\t// out\n        /* \"contracts/04_Aguacate_token.sol\":12455:13010  function _getCurrentSupply() private view returns(uint256, uint256) {\r... */\n    tag_357:\n        /* \"contracts/04_Aguacate_token.sol\":12505:12512  uint256 */\n      0x00\n        /* \"contracts/04_Aguacate_token.sol\":12514:12521  uint256 */\n      dup1\n        /* \"contracts/04_Aguacate_token.sol\":12534:12549  uint256 rSupply */\n      0x00\n        /* \"contracts/04_Aguacate_token.sol\":12552:12559  _rTotal */\n      sload(0x09)\n        /* \"contracts/04_Aguacate_token.sol\":12534:12559  uint256 rSupply = _rTotal */\n      swap1\n      pop\n        /* \"contracts/04_Aguacate_token.sol\":12570:12585  uint256 tSupply */\n      0x00\n        /* \"contracts/04_Aguacate_token.sol\":12588:12595  _tTotal */\n      sload(0x08)\n        /* \"contracts/04_Aguacate_token.sol\":12570:12595  uint256 tSupply = _tTotal */\n      swap1\n      pop\n        /* \"contracts/04_Aguacate_token.sol\":12611:12620  uint256 i */\n      0x00\n        /* \"contracts/04_Aguacate_token.sol\":12606:12895  for (uint256 i = 0; i < _excluded.length; i++) {\r... */\n    tag_421:\n        /* \"contracts/04_Aguacate_token.sol\":12630:12639  _excluded */\n      0x07\n        /* \"contracts/04_Aguacate_token.sol\":12630:12646  _excluded.length */\n      dup1\n      sload\n      swap1\n      pop\n        /* \"contracts/04_Aguacate_token.sol\":12626:12627  i */\n      dup2\n        /* \"contracts/04_Aguacate_token.sol\":12626:12646  i < _excluded.length */\n      lt\n        /* \"contracts/04_Aguacate_token.sol\":12606:12895  for (uint256 i = 0; i < _excluded.length; i++) {\r... */\n      iszero\n      tag_422\n      jumpi\n        /* \"contracts/04_Aguacate_token.sol\":12696:12703  rSupply */\n      dup3\n        /* \"contracts/04_Aguacate_token.sol\":12672:12679  _rOwned */\n      0x03\n        /* \"contracts/04_Aguacate_token.sol\":12672:12693  _rOwned[_excluded[i]] */\n      0x00\n        /* \"contracts/04_Aguacate_token.sol\":12680:12689  _excluded */\n      0x07\n        /* \"contracts/04_Aguacate_token.sol\":12690:12691  i */\n      dup5\n        /* \"contracts/04_Aguacate_token.sol\":12680:12692  _excluded[i] */\n      dup2\n      sload\n      dup2\n      lt\n      tag_424\n      jumpi\n      tag_425\n      tag_287\n      jump\t// in\n    tag_425:\n    tag_424:\n      swap1\n      0x00\n      mstore\n      keccak256(0x00, 0x20)\n      add\n      0x00\n      swap1\n      sload\n      swap1\n      0x0100\n      exp\n      swap1\n      div\n      0xffffffffffffffffffffffffffffffffffffffff\n      and\n        /* \"contracts/04_Aguacate_token.sol\":12672:12693  _rOwned[_excluded[i]] */\n      0xffffffffffffffffffffffffffffffffffffffff\n      and\n      0xffffffffffffffffffffffffffffffffffffffff\n      and\n      dup2\n      mstore\n      0x20\n      add\n      swap1\n      dup2\n      mstore\n      0x20\n      add\n      0x00\n      keccak256\n      sload\n        /* \"contracts/04_Aguacate_token.sol\":12672:12703  _rOwned[_excluded[i]] > rSupply */\n      gt\n        /* \"contracts/04_Aguacate_token.sol\":12672:12738  _rOwned[_excluded[i]] > rSupply || _tOwned[_excluded[i]] > tSupply */\n      dup1\n      tag_427\n      jumpi\n      pop\n        /* \"contracts/04_Aguacate_token.sol\":12731:12738  tSupply */\n      dup2\n        /* \"contracts/04_Aguacate_token.sol\":12707:12714  _tOwned */\n      0x04\n        /* \"contracts/04_Aguacate_token.sol\":12707:12728  _tOwned[_excluded[i]] */\n      0x00\n        /* \"contracts/04_Aguacate_token.sol\":12715:12724  _excluded */\n      0x07\n        /* \"contracts/04_Aguacate_token.sol\":12725:12726  i */\n      dup5\n        /* \"contracts/04_Aguacate_token.sol\":12715:12727  _excluded[i] */\n      dup2\n      sload\n      dup2\n      lt\n      tag_428\n      jumpi\n      tag_429\n      tag_287\n      jump\t// in\n    tag_429:\n    tag_428:\n      swap1\n      0x00\n      mstore\n      keccak256(0x00, 0x20)\n      add\n      0x00\n      swap1\n      sload\n      swap1\n      0x0100\n      exp\n      swap1\n      div\n      0xffffffffffffffffffffffffffffffffffffffff\n      and\n        /* \"contracts/04_Aguacate_token.sol\":12707:12728  _tOwned[_excluded[i]] */\n      0xffffffffffffffffffffffffffffffffffffffff\n      and\n      0xffffffffffffffffffffffffffffffffffffffff\n      and\n      dup2\n      mstore\n      0x20\n      add\n      swap1\n      dup2\n      mstore\n      0x20\n      add\n      0x00\n      keccak256\n      sload\n        /* \"contracts/04_Aguacate_token.sol\":12707:12738  _tOwned[_excluded[i]] > tSupply */\n      gt\n        /* \"contracts/04_Aguacate_token.sol\":12672:12738  _rOwned[_excluded[i]] > rSupply || _tOwned[_excluded[i]] > tSupply */\n    tag_427:\n        /* \"contracts/04_Aguacate_token.sol\":12668:12765  if (_rOwned[_excluded[i]] > rSupply || _tOwned[_excluded[i]] > tSupply) return (_rTotal, _tTotal) */\n      iszero\n      tag_431\n      jumpi\n        /* \"contracts/04_Aguacate_token.sol\":12748:12755  _rTotal */\n      sload(0x09)\n        /* \"contracts/04_Aguacate_token.sol\":12757:12764  _tTotal */\n      sload(0x08)\n        /* \"contracts/04_Aguacate_token.sol\":12740:12765  return (_rTotal, _tTotal) */\n      swap5\n      pop\n      swap5\n      pop\n      pop\n      pop\n      pop\n      jump(tag_420)\n        /* \"contracts/04_Aguacate_token.sol\":12668:12765  if (_rOwned[_excluded[i]] > rSupply || _tOwned[_excluded[i]] > tSupply) return (_rTotal, _tTotal) */\n    tag_431:\n        /* \"contracts/04_Aguacate_token.sol\":12790:12824  rSupply.sub(_rOwned[_excluded[i]]) */\n      tag_432\n        /* \"contracts/04_Aguacate_token.sol\":12802:12809  _rOwned */\n      0x03\n        /* \"contracts/04_Aguacate_token.sol\":12802:12823  _rOwned[_excluded[i]] */\n      0x00\n        /* \"contracts/04_Aguacate_token.sol\":12810:12819  _excluded */\n      0x07\n        /* \"contracts/04_Aguacate_token.sol\":12820:12821  i */\n      dup5\n        /* \"contracts/04_Aguacate_token.sol\":12810:12822  _excluded[i] */\n      dup2\n      sload\n      dup2\n      lt\n      tag_433\n      jumpi\n      tag_434\n      tag_287\n      jump\t// in\n    tag_434:\n    tag_433:\n      swap1\n      0x00\n      mstore\n      keccak256(0x00, 0x20)\n      add\n      0x00\n      swap1\n      sload\n      swap1\n      0x0100\n      exp\n      swap1\n      div\n      0xffffffffffffffffffffffffffffffffffffffff\n      and\n        /* \"contracts/04_Aguacate_token.sol\":12802:12823  _rOwned[_excluded[i]] */\n      0xffffffffffffffffffffffffffffffffffffffff\n      and\n      0xffffffffffffffffffffffffffffffffffffffff\n      and\n      dup2\n      mstore\n      0x20\n      add\n      swap1\n      dup2\n      mstore\n      0x20\n      add\n      0x00\n      keccak256\n      sload\n        /* \"contracts/04_Aguacate_token.sol\":12790:12797  rSupply */\n      dup5\n        /* \"contracts/04_Aguacate_token.sol\":12790:12801  rSupply.sub */\n      tag_207\n      swap1\n        /* \"contracts/04_Aguacate_token.sol\":12790:12824  rSupply.sub(_rOwned[_excluded[i]]) */\n      swap2\n      swap1\n      0xffffffff\n      and\n      jump\t// in\n    tag_432:\n        /* \"contracts/04_Aguacate_token.sol\":12780:12824  rSupply = rSupply.sub(_rOwned[_excluded[i]]) */\n      swap3\n      pop\n        /* \"contracts/04_Aguacate_token.sol\":12849:12883  tSupply.sub(_tOwned[_excluded[i]]) */\n      tag_436\n        /* \"contracts/04_Aguacate_token.sol\":12861:12868  _tOwned */\n      0x04\n        /* \"contracts/04_Aguacate_token.sol\":12861:12882  _tOwned[_excluded[i]] */\n      0x00\n        /* \"contracts/04_Aguacate_token.sol\":12869:12878  _excluded */\n      0x07\n        /* \"contracts/04_Aguacate_token.sol\":12879:12880  i */\n      dup5\n        /* \"contracts/04_Aguacate_token.sol\":12869:12881  _excluded[i] */\n      dup2\n      sload\n      dup2\n      lt\n      tag_437\n      jumpi\n      tag_438\n      tag_287\n      jump\t// in\n    tag_438:\n    tag_437:\n      swap1\n      0x00\n      mstore\n      keccak256(0x00, 0x20)\n      add\n      0x00\n      swap1\n      sload\n      swap1\n      0x0100\n      exp\n      swap1\n      div\n      0xffffffffffffffffffffffffffffffffffffffff\n      and\n        /* \"contracts/04_Aguacate_token.sol\":12861:12882  _tOwned[_excluded[i]] */\n      0xffffffffffffffffffffffffffffffffffffffff\n      and\n      0xffffffffffffffffffffffffffffffffffffffff\n      and\n      dup2\n      mstore\n      0x20\n      add\n      swap1\n      dup2\n      mstore\n      0x20\n      add\n      0x00\n      keccak256\n      sload\n        /* \"contracts/04_Aguacate_token.sol\":12849:12856  tSupply */\n      dup4\n        /* \"contracts/04_Aguacate_token.sol\":12849:12860  tSupply.sub */\n      tag_207\n      swap1\n        /* \"contracts/04_Aguacate_token.sol\":12849:12883  tSupply.sub(_tOwned[_excluded[i]]) */\n      swap2\n      swap1\n      0xffffffff\n      and\n      jump\t// in\n    tag_436:\n        /* \"contracts/04_Aguacate_token.sol\":12839:12883  tSupply = tSupply.sub(_tOwned[_excluded[i]]) */\n      swap2\n      pop\n        /* \"contracts/04_Aguacate_token.sol\":12648:12651  i++ */\n      dup1\n      dup1\n      tag_440\n      swap1\n      tag_303\n      jump\t// in\n    tag_440:\n      swap2\n      pop\n      pop\n        /* \"contracts/04_Aguacate_token.sol\":12606:12895  for (uint256 i = 0; i < _excluded.length; i++) {\r... */\n      jump(tag_421)\n    tag_422:\n      pop\n        /* \"contracts/04_Aguacate_token.sol\":12919:12939  _rTotal.div(_tTotal) */\n      tag_441\n        /* \"contracts/04_Aguacate_token.sol\":12931:12938  _tTotal */\n      sload(0x08)\n        /* \"contracts/04_Aguacate_token.sol\":12919:12926  _rTotal */\n      sload(0x09)\n        /* \"contracts/04_Aguacate_token.sol\":12919:12930  _rTotal.div */\n      tag_186\n      swap1\n        /* \"contracts/04_Aguacate_token.sol\":12919:12939  _rTotal.div(_tTotal) */\n      swap2\n      swap1\n      0xffffffff\n      and\n      jump\t// in\n    tag_441:\n        /* \"contracts/04_Aguacate_token.sol\":12909:12916  rSupply */\n      dup3\n        /* \"contracts/04_Aguacate_token.sol\":12909:12939  rSupply < _rTotal.div(_tTotal) */\n      lt\n        /* \"contracts/04_Aguacate_token.sol\":12905:12966  if (rSupply < _rTotal.div(_tTotal)) return (_rTotal, _tTotal) */\n      iszero\n      tag_442\n      jumpi\n        /* \"contracts/04_Aguacate_token.sol\":12949:12956  _rTotal */\n      sload(0x09)\n        /* \"contracts/04_Aguacate_token.sol\":12958:12965  _tTotal */\n      sload(0x08)\n        /* \"contracts/04_Aguacate_token.sol\":12941:12966  return (_rTotal, _tTotal) */\n      swap4\n      pop\n      swap4\n      pop\n      pop\n      pop\n      jump(tag_420)\n        /* \"contracts/04_Aguacate_token.sol\":12905:12966  if (rSupply < _rTotal.div(_tTotal)) return (_rTotal, _tTotal) */\n    tag_442:\n        /* \"contracts/04_Aguacate_token.sol\":12985:12992  rSupply */\n      dup2\n        /* \"contracts/04_Aguacate_token.sol\":12994:13001  tSupply */\n      dup2\n        /* \"contracts/04_Aguacate_token.sol\":12977:13002  return (rSupply, tSupply) */\n      swap4\n      pop\n      swap4\n      pop\n      pop\n      pop\n        /* \"contracts/04_Aguacate_token.sol\":12455:13010  function _getCurrentSupply() private view returns(uint256, uint256) {\r... */\n    tag_420:\n      swap1\n      swap2\n      jump\t// out\n        /* \"contracts/libraries/SafeMath.sol\":4916:5261  function div(uint256 a, uint256 b, string memory errorMessage) internal pure returns (uint256) {\r... */\n    tag_361:\n        /* \"contracts/libraries/SafeMath.sol\":5002:5009  uint256 */\n      0x00\n        /* \"contracts/libraries/SafeMath.sol\":5101:5102  0 */\n      dup1\n        /* \"contracts/libraries/SafeMath.sol\":5097:5098  b */\n      dup4\n        /* \"contracts/libraries/SafeMath.sol\":5097:5102  b > 0 */\n      gt\n        /* \"contracts/libraries/SafeMath.sol\":5104:5116  errorMessage */\n      dup3\n        /* \"contracts/libraries/SafeMath.sol\":5089:5117  require(b > 0, errorMessage) */\n      swap1\n      tag_444\n      jumpi\n      mload(0x40)\n      0x08c379a000000000000000000000000000000000000000000000000000000000\n      dup2\n      mstore\n      0x04\n      add\n      tag_445\n      swap2\n      swap1\n      tag_49\n      jump\t// in\n    tag_445:\n      mload(0x40)\n      dup1\n      swap2\n      sub\n      swap1\n      revert\n    tag_444:\n      pop\n        /* \"contracts/libraries/SafeMath.sol\":5128:5137  uint256 c */\n      0x00\n        /* \"contracts/libraries/SafeMath.sol\":5144:5145  b */\n      dup4\n        /* \"contracts/libraries/SafeMath.sol\":5140:5141  a */\n      dup6\n        /* \"contracts/libraries/SafeMath.sol\":5140:5145  a / b */\n      tag_446\n      swap2\n      swap1\n      tag_447\n      jump\t// in\n    tag_446:\n        /* \"contracts/libraries/SafeMath.sol\":5128:5145  uint256 c = a / b */\n      swap1\n      pop\n        /* \"contracts/libraries/SafeMath.sol\":5252:5253  c */\n      dup1\n        /* \"contracts/libraries/SafeMath.sol\":5245:5253  return c */\n      swap2\n      pop\n      pop\n        /* \"contracts/libraries/SafeMath.sol\":4916:5261  function div(uint256 a, uint256 b, string memory errorMessage) internal pure returns (uint256) {\r... */\n      swap4\n      swap3\n      pop\n      pop\n      pop\n      jump\t// out\n        /* \"contracts/04_Aguacate_token.sol\":11494:11804  function _getTValues(uint256 tAmount) private view returns (uint256, uint256, uint256) {\r... */\n    tag_375:\n        /* \"contracts/04_Aguacate_token.sol\":11554:11561  uint256 */\n      0x00\n        /* \"contracts/04_Aguacate_token.sol\":11563:11570  uint256 */\n      dup1\n        /* \"contracts/04_Aguacate_token.sol\":11572:11579  uint256 */\n      0x00\n        /* \"contracts/04_Aguacate_token.sol\":11592:11604  uint256 tFee */\n      dup1\n        /* \"contracts/04_Aguacate_token.sol\":11607:11631  calculateTaxFee(tAmount) */\n      tag_449\n        /* \"contracts/04_Aguacate_token.sol\":11623:11630  tAmount */\n      dup6\n        /* \"contracts/04_Aguacate_token.sol\":11607:11622  calculateTaxFee */\n      tag_450\n        /* \"contracts/04_Aguacate_token.sol\":11607:11631  calculateTaxFee(tAmount) */\n      jump\t// in\n    tag_449:\n        /* \"contracts/04_Aguacate_token.sol\":11592:11631  uint256 tFee = calculateTaxFee(tAmount) */\n      swap1\n      pop\n        /* \"contracts/04_Aguacate_token.sol\":11642:11655  uint256 tBurn */\n      0x00\n        /* \"contracts/04_Aguacate_token.sol\":11658:11683  calculateBurnFee(tAmount) */\n      tag_451\n        /* \"contracts/04_Aguacate_token.sol\":11675:11682  tAmount */\n      dup7\n        /* \"contracts/04_Aguacate_token.sol\":11658:11674  calculateBurnFee */\n      tag_452\n        /* \"contracts/04_Aguacate_token.sol\":11658:11683  calculateBurnFee(tAmount) */\n      jump\t// in\n    tag_451:\n        /* \"contracts/04_Aguacate_token.sol\":11642:11683  uint256 tBurn = calculateBurnFee(tAmount) */\n      swap1\n      pop\n        /* \"contracts/04_Aguacate_token.sol\":11694:11717  uint256 tTransferAmount */\n      0x00\n        /* \"contracts/04_Aguacate_token.sol\":11720:11748  tAmount.sub(tFee).sub(tBurn) */\n      tag_453\n        /* \"contracts/04_Aguacate_token.sol\":11742:11747  tBurn */\n      dup3\n        /* \"contracts/04_Aguacate_token.sol\":11720:11737  tAmount.sub(tFee) */\n      tag_454\n        /* \"contracts/04_Aguacate_token.sol\":11732:11736  tFee */\n      dup6\n        /* \"contracts/04_Aguacate_token.sol\":11720:11727  tAmount */\n      dup11\n        /* \"contracts/04_Aguacate_token.sol\":11720:11731  tAmount.sub */\n      tag_207\n      swap1\n        /* \"contracts/04_Aguacate_token.sol\":11720:11737  tAmount.sub(tFee) */\n      swap2\n      swap1\n      0xffffffff\n      and\n      jump\t// in\n    tag_454:\n        /* \"contracts/04_Aguacate_token.sol\":11720:11741  tAmount.sub(tFee).sub */\n      tag_207\n      swap1\n        /* \"contracts/04_Aguacate_token.sol\":11720:11748  tAmount.sub(tFee).sub(tBurn) */\n      swap2\n      swap1\n      0xffffffff\n      and\n      jump\t// in\n    tag_453:\n        /* \"contracts/04_Aguacate_token.sol\":11694:11748  uint256 tTransferAmount = tAmount.sub(tFee).sub(tBurn) */\n      swap1\n      pop\n        /* \"contracts/04_Aguacate_token.sol\":11767:11782  tTransferAmount */\n      dup1\n        /* \"contracts/04_Aguacate_token.sol\":11784:11788  tFee */\n      dup4\n        /* \"contracts/04_Aguacate_token.sol\":11790:11795  tBurn */\n      dup4\n        /* \"contracts/04_Aguacate_token.sol\":11759:11796  return (tTransferAmount, tFee, tBurn) */\n      swap6\n      pop\n      swap6\n      pop\n      swap6\n      pop\n      pop\n      pop\n      pop\n        /* \"contracts/04_Aguacate_token.sol\":11494:11804  function _getTValues(uint256 tAmount) private view returns (uint256, uint256, uint256) {\r... */\n      swap2\n      swap4\n      swap1\n      swap3\n      pop\n      jump\t// out\n        /* \"contracts/04_Aguacate_token.sol\":11812:12221  function _getRValues(uint256 tAmount, uint256 tFee, uint256 tBurn, uint256 currentRate) private pure returns (uint256, uint256, uint256) {\r... */\n    tag_378:\n        /* \"contracts/04_Aguacate_token.sol\":11922:11929  uint256 */\n      0x00\n        /* \"contracts/04_Aguacate_token.sol\":11931:11938  uint256 */\n      dup1\n        /* \"contracts/04_Aguacate_token.sol\":11940:11947  uint256 */\n      0x00\n        /* \"contracts/04_Aguacate_token.sol\":11960:11975  uint256 rAmount */\n      dup1\n        /* \"contracts/04_Aguacate_token.sol\":11978:12002  tAmount.mul(currentRate) */\n      tag_456\n        /* \"contracts/04_Aguacate_token.sol\":11990:12001  currentRate */\n      dup6\n        /* \"contracts/04_Aguacate_token.sol\":11978:11985  tAmount */\n      dup10\n        /* \"contracts/04_Aguacate_token.sol\":11978:11989  tAmount.mul */\n      tag_457\n      swap1\n        /* \"contracts/04_Aguacate_token.sol\":11978:12002  tAmount.mul(currentRate) */\n      swap2\n      swap1\n      0xffffffff\n      and\n      jump\t// in\n    tag_456:\n        /* \"contracts/04_Aguacate_token.sol\":11960:12002  uint256 rAmount = tAmount.mul(currentRate) */\n      swap1\n      pop\n        /* \"contracts/04_Aguacate_token.sol\":12013:12025  uint256 rFee */\n      0x00\n        /* \"contracts/04_Aguacate_token.sol\":12028:12049  tFee.mul(currentRate) */\n      tag_458\n        /* \"contracts/04_Aguacate_token.sol\":12037:12048  currentRate */\n      dup7\n        /* \"contracts/04_Aguacate_token.sol\":12028:12032  tFee */\n      dup10\n        /* \"contracts/04_Aguacate_token.sol\":12028:12036  tFee.mul */\n      tag_457\n      swap1\n        /* \"contracts/04_Aguacate_token.sol\":12028:12049  tFee.mul(currentRate) */\n      swap2\n      swap1\n      0xffffffff\n      and\n      jump\t// in\n    tag_458:\n        /* \"contracts/04_Aguacate_token.sol\":12013:12049  uint256 rFee = tFee.mul(currentRate) */\n      swap1\n      pop\n        /* \"contracts/04_Aguacate_token.sol\":12060:12073  uint256 rBurn */\n      0x00\n        /* \"contracts/04_Aguacate_token.sol\":12076:12098  tBurn.mul(currentRate) */\n      tag_459\n        /* \"contracts/04_Aguacate_token.sol\":12086:12097  currentRate */\n      dup8\n        /* \"contracts/04_Aguacate_token.sol\":12076:12081  tBurn */\n      dup10\n        /* \"contracts/04_Aguacate_token.sol\":12076:12085  tBurn.mul */\n      tag_457\n      swap1\n        /* \"contracts/04_Aguacate_token.sol\":12076:12098  tBurn.mul(currentRate) */\n      swap2\n      swap1\n      0xffffffff\n      and\n      jump\t// in\n    tag_459:\n        /* \"contracts/04_Aguacate_token.sol\":12060:12098  uint256 rBurn = tBurn.mul(currentRate) */\n      swap1\n      pop\n        /* \"contracts/04_Aguacate_token.sol\":12109:12132  uint256 rTransferAmount */\n      0x00\n        /* \"contracts/04_Aguacate_token.sol\":12135:12163  rAmount.sub(rFee).sub(rBurn) */\n      tag_460\n        /* \"contracts/04_Aguacate_token.sol\":12157:12162  rBurn */\n      dup3\n        /* \"contracts/04_Aguacate_token.sol\":12135:12152  rAmount.sub(rFee) */\n      tag_461\n        /* \"contracts/04_Aguacate_token.sol\":12147:12151  rFee */\n      dup6\n        /* \"contracts/04_Aguacate_token.sol\":12135:12142  rAmount */\n      dup8\n        /* \"contracts/04_Aguacate_token.sol\":12135:12146  rAmount.sub */\n      tag_207\n      swap1\n        /* \"contracts/04_Aguacate_token.sol\":12135:12152  rAmount.sub(rFee) */\n      swap2\n      swap1\n      0xffffffff\n      and\n      jump\t// in\n    tag_461:\n        /* \"contracts/04_Aguacate_token.sol\":12135:12156  rAmount.sub(rFee).sub */\n      tag_207\n      swap1\n        /* \"contracts/04_Aguacate_token.sol\":12135:12163  rAmount.sub(rFee).sub(rBurn) */\n      swap2\n      swap1\n      0xffffffff\n      and\n      jump\t// in\n    tag_460:\n        /* \"contracts/04_Aguacate_token.sol\":12109:12163  uint256 rTransferAmount = rAmount.sub(rFee).sub(rBurn) */\n      swap1\n      pop\n        /* \"contracts/04_Aguacate_token.sol\":12182:12189  rAmount */\n      dup4\n        /* \"contracts/04_Aguacate_token.sol\":12191:12206  rTransferAmount */\n      dup2\n        /* \"contracts/04_Aguacate_token.sol\":12208:12212  rFee */\n      dup5\n        /* \"contracts/04_Aguacate_token.sol\":12174:12213  return (rAmount, rTransferAmount, rFee) */\n      swap7\n      pop\n      swap7\n      pop\n      swap7\n      pop\n      pop\n      pop\n      pop\n      pop\n        /* \"contracts/04_Aguacate_token.sol\":11812:12221  function _getRValues(uint256 tAmount, uint256 tFee, uint256 tBurn, uint256 currentRate) private pure returns (uint256, uint256, uint256) {\r... */\n      swap5\n      pop\n      swap5\n      pop\n      swap5\n      swap2\n      pop\n      pop\n      jump\t// out\n        /* \"contracts/04_Aguacate_token.sol\":13022:13216  function _burn(uint256 burn) private {\r... */\n    tag_388:\n        /* \"contracts/04_Aguacate_token.sol\":13070:13089  uint256 currentRate */\n      0x00\n        /* \"contracts/04_Aguacate_token.sol\":13093:13103  _getRate() */\n      tag_463\n        /* \"contracts/04_Aguacate_token.sol\":13093:13101  _getRate */\n      tag_184\n        /* \"contracts/04_Aguacate_token.sol\":13093:13103  _getRate() */\n      jump\t// in\n    tag_463:\n        /* \"contracts/04_Aguacate_token.sol\":13070:13103  uint256 currentRate =  _getRate() */\n      swap1\n      pop\n        /* \"contracts/04_Aguacate_token.sol\":13114:13127  uint256 rBurn */\n      0x00\n        /* \"contracts/04_Aguacate_token.sol\":13130:13151  burn.mul(currentRate) */\n      tag_464\n        /* \"contracts/04_Aguacate_token.sol\":13139:13150  currentRate */\n      dup3\n        /* \"contracts/04_Aguacate_token.sol\":13130:13134  burn */\n      dup5\n        /* \"contracts/04_Aguacate_token.sol\":13130:13138  burn.mul */\n      tag_457\n      swap1\n        /* \"contracts/04_Aguacate_token.sol\":13130:13151  burn.mul(currentRate) */\n      swap2\n      swap1\n      0xffffffff\n      and\n      jump\t// in\n    tag_464:\n        /* \"contracts/04_Aguacate_token.sol\":13114:13151  uint256 rBurn = burn.mul(currentRate) */\n      swap1\n      pop\n        /* \"contracts/04_Aguacate_token.sol\":13181:13208  _rOwned[burnAdd].add(rBurn) */\n      tag_465\n        /* \"contracts/04_Aguacate_token.sol\":13202:13207  rBurn */\n      dup2\n        /* \"contracts/04_Aguacate_token.sol\":13181:13188  _rOwned */\n      0x03\n        /* \"contracts/04_Aguacate_token.sol\":13181:13197  _rOwned[burnAdd] */\n      0x00\n        /* \"contracts/04_Aguacate_token.sol\":13189:13196  burnAdd */\n      0x12\n      0x00\n      swap1\n      sload\n      swap1\n      0x0100\n      exp\n      swap1\n      div\n      0xffffffffffffffffffffffffffffffffffffffff\n      and\n        /* \"contracts/04_Aguacate_token.sol\":13181:13197  _rOwned[burnAdd] */\n      0xffffffffffffffffffffffffffffffffffffffff\n      and\n      0xffffffffffffffffffffffffffffffffffffffff\n      and\n      dup2\n      mstore\n      0x20\n      add\n      swap1\n      dup2\n      mstore\n      0x20\n      add\n      0x00\n      keccak256\n      sload\n        /* \"contracts/04_Aguacate_token.sol\":13181:13201  _rOwned[burnAdd].add */\n      tag_194\n      swap1\n        /* \"contracts/04_Aguacate_token.sol\":13181:13208  _rOwned[burnAdd].add(rBurn) */\n      swap2\n      swap1\n      0xffffffff\n      and\n      jump\t// in\n    tag_465:\n        /* \"contracts/04_Aguacate_token.sol\":13162:13169  _rOwned */\n      0x03\n        /* \"contracts/04_Aguacate_token.sol\":13162:13178  _rOwned[burnAdd] */\n      0x00\n        /* \"contracts/04_Aguacate_token.sol\":13170:13177  burnAdd */\n      0x12\n      0x00\n      swap1\n      sload\n      swap1\n      0x0100\n      exp\n      swap1\n      div\n      0xffffffffffffffffffffffffffffffffffffffff\n      and\n        /* \"contracts/04_Aguacate_token.sol\":13162:13178  _rOwned[burnAdd] */\n      0xffffffffffffffffffffffffffffffffffffffff\n      and\n      0xffffffffffffffffffffffffffffffffffffffff\n      and\n      dup2\n      mstore\n      0x20\n      add\n      swap1\n      dup2\n      mstore\n      0x20\n      add\n      0x00\n      keccak256\n        /* \"contracts/04_Aguacate_token.sol\":13162:13208  _rOwned[burnAdd] = _rOwned[burnAdd].add(rBurn) */\n      dup2\n      swap1\n      sstore\n      pop\n        /* \"contracts/04_Aguacate_token.sol\":13059:13216  {\r... */\n      pop\n      pop\n        /* \"contracts/04_Aguacate_token.sol\":13022:13216  function _burn(uint256 burn) private {\r... */\n      pop\n      jump\t// out\n        /* \"contracts/04_Aguacate_token.sol\":10882:11029  function _reflectFee(uint256 rFee, uint256 tFee) private {\r... */\n    tag_390:\n        /* \"contracts/04_Aguacate_token.sol\":10960:10977  _rTotal.sub(rFee) */\n      tag_467\n        /* \"contracts/04_Aguacate_token.sol\":10972:10976  rFee */\n      dup3\n        /* \"contracts/04_Aguacate_token.sol\":10960:10967  _rTotal */\n      sload(0x09)\n        /* \"contracts/04_Aguacate_token.sol\":10960:10971  _rTotal.sub */\n      tag_207\n      swap1\n        /* \"contracts/04_Aguacate_token.sol\":10960:10977  _rTotal.sub(rFee) */\n      swap2\n      swap1\n      0xffffffff\n      and\n      jump\t// in\n    tag_467:\n        /* \"contracts/04_Aguacate_token.sol\":10950:10957  _rTotal */\n      0x09\n        /* \"contracts/04_Aguacate_token.sol\":10950:10977  _rTotal = _rTotal.sub(rFee) */\n      dup2\n      swap1\n      sstore\n      pop\n        /* \"contracts/04_Aguacate_token.sol\":11001:11021  _tFeeTotal.add(tFee) */\n      tag_468\n        /* \"contracts/04_Aguacate_token.sol\":11016:11020  tFee */\n      dup2\n        /* \"contracts/04_Aguacate_token.sol\":11001:11011  _tFeeTotal */\n      sload(0x0a)\n        /* \"contracts/04_Aguacate_token.sol\":11001:11015  _tFeeTotal.add */\n      tag_194\n      swap1\n        /* \"contracts/04_Aguacate_token.sol\":11001:11021  _tFeeTotal.add(tFee) */\n      swap2\n      swap1\n      0xffffffff\n      and\n      jump\t// in\n    tag_468:\n        /* \"contracts/04_Aguacate_token.sol\":10988:10998  _tFeeTotal */\n      0x0a\n        /* \"contracts/04_Aguacate_token.sol\":10988:11021  _tFeeTotal = _tFeeTotal.add(tFee) */\n      dup2\n      swap1\n      sstore\n      pop\n        /* \"contracts/04_Aguacate_token.sol\":10882:11029  function _reflectFee(uint256 rFee, uint256 tFee) private {\r... */\n      pop\n      pop\n      jump\t// out\n        /* \"contracts/04_Aguacate_token.sol\":13222:13376  function calculateTaxFee(uint256 _amount) private view returns (uint256) {\r... */\n    tag_450:\n        /* \"contracts/04_Aguacate_token.sol\":13286:13293  uint256 */\n      0x00\n        /* \"contracts/04_Aguacate_token.sol\":13313:13368  _amount.mul(_taxFee).div(\r... */\n      tag_470\n        /* \"contracts/04_Aguacate_token.sol\":13352:13357  10**2 */\n      0x64\n        /* \"contracts/04_Aguacate_token.sol\":13313:13333  _amount.mul(_taxFee) */\n      tag_471\n        /* \"contracts/04_Aguacate_token.sol\":13325:13332  _taxFee */\n      sload(0x0e)\n        /* \"contracts/04_Aguacate_token.sol\":13313:13320  _amount */\n      dup6\n        /* \"contracts/04_Aguacate_token.sol\":13313:13324  _amount.mul */\n      tag_457\n      swap1\n        /* \"contracts/04_Aguacate_token.sol\":13313:13333  _amount.mul(_taxFee) */\n      swap2\n      swap1\n      0xffffffff\n      and\n      jump\t// in\n    tag_471:\n        /* \"contracts/04_Aguacate_token.sol\":13313:13337  _amount.mul(_taxFee).div */\n      tag_186\n      swap1\n        /* \"contracts/04_Aguacate_token.sol\":13313:13368  _amount.mul(_taxFee).div(\r... */\n      swap2\n      swap1\n      0xffffffff\n      and\n      jump\t// in\n    tag_470:\n        /* \"contracts/04_Aguacate_token.sol\":13306:13368  return _amount.mul(_taxFee).div(\r... */\n      swap1\n      pop\n        /* \"contracts/04_Aguacate_token.sol\":13222:13376  function calculateTaxFee(uint256 _amount) private view returns (uint256) {\r... */\n      swap2\n      swap1\n      pop\n      jump\t// out\n        /* \"contracts/04_Aguacate_token.sol\":13384:13540  function calculateBurnFee(uint256 _amount) private view returns (uint256) {\r... */\n    tag_452:\n        /* \"contracts/04_Aguacate_token.sol\":13449:13456  uint256 */\n      0x00\n        /* \"contracts/04_Aguacate_token.sol\":13476:13532  _amount.mul(_burnFee).div(\r... */\n      tag_473\n        /* \"contracts/04_Aguacate_token.sol\":13516:13521  10**2 */\n      0x64\n        /* \"contracts/04_Aguacate_token.sol\":13476:13497  _amount.mul(_burnFee) */\n      tag_474\n        /* \"contracts/04_Aguacate_token.sol\":13488:13496  _burnFee */\n      sload(0x10)\n        /* \"contracts/04_Aguacate_token.sol\":13476:13483  _amount */\n      dup6\n        /* \"contracts/04_Aguacate_token.sol\":13476:13487  _amount.mul */\n      tag_457\n      swap1\n        /* \"contracts/04_Aguacate_token.sol\":13476:13497  _amount.mul(_burnFee) */\n      swap2\n      swap1\n      0xffffffff\n      and\n      jump\t// in\n    tag_474:\n        /* \"contracts/04_Aguacate_token.sol\":13476:13501  _amount.mul(_burnFee).div */\n      tag_186\n      swap1\n        /* \"contracts/04_Aguacate_token.sol\":13476:13532  _amount.mul(_burnFee).div(\r... */\n      swap2\n      swap1\n      0xffffffff\n      and\n      jump\t// in\n    tag_473:\n        /* \"contracts/04_Aguacate_token.sol\":13469:13532  return _amount.mul(_burnFee).div(\r... */\n      swap1\n      pop\n        /* \"contracts/04_Aguacate_token.sol\":13384:13540  function calculateBurnFee(uint256 _amount) private view returns (uint256) {\r... */\n      swap2\n      swap1\n      pop\n      jump\t// out\n        /* \"contracts/libraries/SafeMath.sol\":2638:3109  function mul(uint256 a, uint256 b) internal pure returns (uint256) {\r... */\n    tag_457:\n        /* \"contracts/libraries/SafeMath.sol\":2696:2703  uint256 */\n      0x00\n        /* \"contracts/libraries/SafeMath.sol\":2946:2947  0 */\n      dup1\n        /* \"contracts/libraries/SafeMath.sol\":2941:2942  a */\n      dup4\n        /* \"contracts/libraries/SafeMath.sol\":2941:2947  a == 0 */\n      eq\n        /* \"contracts/libraries/SafeMath.sol\":2937:2984  if (a == 0) {\r... */\n      iszero\n      tag_476\n      jumpi\n        /* \"contracts/libraries/SafeMath.sol\":2971:2972  0 */\n      0x00\n        /* \"contracts/libraries/SafeMath.sol\":2964:2972  return 0 */\n      swap1\n      pop\n      jump(tag_475)\n        /* \"contracts/libraries/SafeMath.sol\":2937:2984  if (a == 0) {\r... */\n    tag_476:\n        /* \"contracts/libraries/SafeMath.sol\":2996:3005  uint256 c */\n      0x00\n        /* \"contracts/libraries/SafeMath.sol\":3012:3013  b */\n      dup3\n        /* \"contracts/libraries/SafeMath.sol\":3008:3009  a */\n      dup5\n        /* \"contracts/libraries/SafeMath.sol\":3008:3013  a * b */\n      tag_477\n      swap2\n      swap1\n      tag_478\n      jump\t// in\n    tag_477:\n        /* \"contracts/libraries/SafeMath.sol\":2996:3013  uint256 c = a * b */\n      swap1\n      pop\n        /* \"contracts/libraries/SafeMath.sol\":3041:3042  b */\n      dup3\n        /* \"contracts/libraries/SafeMath.sol\":3036:3037  a */\n      dup5\n        /* \"contracts/libraries/SafeMath.sol\":3032:3033  c */\n      dup3\n        /* \"contracts/libraries/SafeMath.sol\":3032:3037  c / a */\n      tag_479\n      swap2\n      swap1\n      tag_447\n      jump\t// in\n    tag_479:\n        /* \"contracts/libraries/SafeMath.sol\":3032:3042  c / a == b */\n      eq\n        /* \"contracts/libraries/SafeMath.sol\":3024:3080  require(c / a == b, \"SafeMath: multiplication overflow\") */\n      tag_480\n      jumpi\n      mload(0x40)\n      0x08c379a000000000000000000000000000000000000000000000000000000000\n      dup2\n      mstore\n      0x04\n      add\n      tag_481\n      swap1\n      tag_482\n      jump\t// in\n    tag_481:\n      mload(0x40)\n      dup1\n      swap2\n      sub\n      swap1\n      revert\n    tag_480:\n        /* \"contracts/libraries/SafeMath.sol\":3100:3101  c */\n      dup1\n        /* \"contracts/libraries/SafeMath.sol\":3093:3101  return c */\n      swap2\n      pop\n      pop\n        /* \"contracts/libraries/SafeMath.sol\":2638:3109  function mul(uint256 a, uint256 b) internal pure returns (uint256) {\r... */\n    tag_475:\n      swap3\n      swap2\n      pop\n      pop\n      jump\t// out\n        /* \"#utility.yul\":7:146   */\n    tag_484:\n        /* \"#utility.yul\":53:58   */\n      0x00\n        /* \"#utility.yul\":91:97   */\n      dup2\n        /* \"#utility.yul\":78:98   */\n      calldataload\n        /* \"#utility.yul\":69:98   */\n      swap1\n      pop\n        /* \"#utility.yul\":107:140   */\n      tag_486\n        /* \"#utility.yul\":134:139   */\n      dup2\n        /* \"#utility.yul\":107:140   */\n      tag_487\n      jump\t// in\n    tag_486:\n        /* \"#utility.yul\":7:146   */\n      swap3\n      swap2\n      pop\n      pop\n      jump\t// out\n        /* \"#utility.yul\":152:285   */\n    tag_488:\n        /* \"#utility.yul\":195:200   */\n      0x00\n        /* \"#utility.yul\":233:239   */\n      dup2\n        /* \"#utility.yul\":220:240   */\n      calldataload\n        /* \"#utility.yul\":211:240   */\n      swap1\n      pop\n        /* \"#utility.yul\":249:279   */\n      tag_490\n        /* \"#utility.yul\":273:278   */\n      dup2\n        /* \"#utility.yul\":249:279   */\n      tag_491\n      jump\t// in\n    tag_490:\n        /* \"#utility.yul\":152:285   */\n      swap3\n      swap2\n      pop\n      pop\n      jump\t// out\n        /* \"#utility.yul\":291:430   */\n    tag_492:\n        /* \"#utility.yul\":337:342   */\n      0x00\n        /* \"#utility.yul\":375:381   */\n      dup2\n        /* \"#utility.yul\":362:382   */\n      calldataload\n        /* \"#utility.yul\":353:382   */\n      swap1\n      pop\n        /* \"#utility.yul\":391:424   */\n      tag_494\n        /* \"#utility.yul\":418:423   */\n      dup2\n        /* \"#utility.yul\":391:424   */\n      tag_495\n      jump\t// in\n    tag_494:\n        /* \"#utility.yul\":291:430   */\n      swap3\n      swap2\n      pop\n      pop\n      jump\t// out\n        /* \"#utility.yul\":436:765   */\n    tag_106:\n        /* \"#utility.yul\":495:501   */\n      0x00\n        /* \"#utility.yul\":544:546   */\n      0x20\n        /* \"#utility.yul\":532:541   */\n      dup3\n        /* \"#utility.yul\":523:530   */\n      dup5\n        /* \"#utility.yul\":519:542   */\n      sub\n        /* \"#utility.yul\":515:547   */\n      slt\n        /* \"#utility.yul\":512:631   */\n      iszero\n      tag_497\n      jumpi\n        /* \"#utility.yul\":550:629   */\n      tag_498\n      tag_499\n      jump\t// in\n    tag_498:\n        /* \"#utility.yul\":512:631   */\n    tag_497:\n        /* \"#utility.yul\":670:671   */\n      0x00\n        /* \"#utility.yul\":695:748   */\n      tag_500\n        /* \"#utility.yul\":740:747   */\n      dup5\n        /* \"#utility.yul\":731:737   */\n      dup3\n        /* \"#utility.yul\":720:729   */\n      dup6\n        /* \"#utility.yul\":716:738   */\n      add\n        /* \"#utility.yul\":695:748   */\n      tag_484\n      jump\t// in\n    tag_500:\n        /* \"#utility.yul\":685:748   */\n      swap2\n      pop\n        /* \"#utility.yul\":641:758   */\n      pop\n        /* \"#utility.yul\":436:765   */\n      swap3\n      swap2\n      pop\n      pop\n      jump\t// out\n        /* \"#utility.yul\":771:1245   */\n    tag_142:\n        /* \"#utility.yul\":839:845   */\n      0x00\n        /* \"#utility.yul\":847:853   */\n      dup1\n        /* \"#utility.yul\":896:898   */\n      0x40\n        /* \"#utility.yul\":884:893   */\n      dup4\n        /* \"#utility.yul\":875:882   */\n      dup6\n        /* \"#utility.yul\":871:894   */\n      sub\n        /* \"#utility.yul\":867:899   */\n      slt\n        /* \"#utility.yul\":864:983   */\n      iszero\n      tag_502\n      jumpi\n        /* \"#utility.yul\":902:981   */\n      tag_503\n      tag_499\n      jump\t// in\n    tag_503:\n        /* \"#utility.yul\":864:983   */\n    tag_502:\n        /* \"#utility.yul\":1022:1023   */\n      0x00\n        /* \"#utility.yul\":1047:1100   */\n      tag_504\n        /* \"#utility.yul\":1092:1099   */\n      dup6\n        /* \"#utility.yul\":1083:1089   */\n      dup3\n        /* \"#utility.yul\":1072:1081   */\n      dup7\n        /* \"#utility.yul\":1068:1090   */\n      add\n        /* \"#utility.yul\":1047:1100   */\n      tag_484\n      jump\t// in\n    tag_504:\n        /* \"#utility.yul\":1037:1100   */\n      swap3\n      pop\n        /* \"#utility.yul\":993:1110   */\n      pop\n        /* \"#utility.yul\":1149:1151   */\n      0x20\n        /* \"#utility.yul\":1175:1228   */\n      tag_505\n        /* \"#utility.yul\":1220:1227   */\n      dup6\n        /* \"#utility.yul\":1211:1217   */\n      dup3\n        /* \"#utility.yul\":1200:1209   */\n      dup7\n        /* \"#utility.yul\":1196:1218   */\n      add\n        /* \"#utility.yul\":1175:1228   */\n      tag_484\n      jump\t// in\n    tag_505:\n        /* \"#utility.yul\":1165:1228   */\n      swap2\n      pop\n        /* \"#utility.yul\":1120:1238   */\n      pop\n        /* \"#utility.yul\":771:1245   */\n      swap3\n      pop\n      swap3\n      swap1\n      pop\n      jump\t// out\n        /* \"#utility.yul\":1251:1870   */\n    tag_65:\n        /* \"#utility.yul\":1328:1334   */\n      0x00\n        /* \"#utility.yul\":1336:1342   */\n      dup1\n        /* \"#utility.yul\":1344:1350   */\n      0x00\n        /* \"#utility.yul\":1393:1395   */\n      0x60\n        /* \"#utility.yul\":1381:1390   */\n      dup5\n        /* \"#utility.yul\":1372:1379   */\n      dup7\n        /* \"#utility.yul\":1368:1391   */\n      sub\n        /* \"#utility.yul\":1364:1396   */\n      slt\n        /* \"#utility.yul\":1361:1480   */\n      iszero\n      tag_507\n      jumpi\n        /* \"#utility.yul\":1399:1478   */\n      tag_508\n      tag_499\n      jump\t// in\n    tag_508:\n        /* \"#utility.yul\":1361:1480   */\n    tag_507:\n        /* \"#utility.yul\":1519:1520   */\n      0x00\n        /* \"#utility.yul\":1544:1597   */\n      tag_509\n        /* \"#utility.yul\":1589:1596   */\n      dup7\n        /* \"#utility.yul\":1580:1586   */\n      dup3\n        /* \"#utility.yul\":1569:1578   */\n      dup8\n        /* \"#utility.yul\":1565:1587   */\n      add\n        /* \"#utility.yul\":1544:1597   */\n      tag_484\n      jump\t// in\n    tag_509:\n        /* \"#utility.yul\":1534:1597   */\n      swap4\n      pop\n        /* \"#utility.yul\":1490:1607   */\n      pop\n        /* \"#utility.yul\":1646:1648   */\n      0x20\n        /* \"#utility.yul\":1672:1725   */\n      tag_510\n        /* \"#utility.yul\":1717:1724   */\n      dup7\n        /* \"#utility.yul\":1708:1714   */\n      dup3\n        /* \"#utility.yul\":1697:1706   */\n      dup8\n        /* \"#utility.yul\":1693:1715   */\n      add\n        /* \"#utility.yul\":1672:1725   */\n      tag_484\n      jump\t// in\n    tag_510:\n        /* \"#utility.yul\":1662:1725   */\n      swap3\n      pop\n        /* \"#utility.yul\":1617:1735   */\n      pop\n        /* \"#utility.yul\":1774:1776   */\n      0x40\n        /* \"#utility.yul\":1800:1853   */\n      tag_511\n        /* \"#utility.yul\":1845:1852   */\n      dup7\n        /* \"#utility.yul\":1836:1842   */\n      dup3\n        /* \"#utility.yul\":1825:1834   */\n      dup8\n        /* \"#utility.yul\":1821:1843   */\n      add\n        /* \"#utility.yul\":1800:1853   */\n      tag_492\n      jump\t// in\n    tag_511:\n        /* \"#utility.yul\":1790:1853   */\n      swap2\n      pop\n        /* \"#utility.yul\":1745:1863   */\n      pop\n        /* \"#utility.yul\":1251:1870   */\n      swap3\n      pop\n      swap3\n      pop\n      swap3\n      jump\t// out\n        /* \"#utility.yul\":1876:2350   */\n    tag_52:\n        /* \"#utility.yul\":1944:1950   */\n      0x00\n        /* \"#utility.yul\":1952:1958   */\n      dup1\n        /* \"#utility.yul\":2001:2003   */\n      0x40\n        /* \"#utility.yul\":1989:1998   */\n      dup4\n        /* \"#utility.yul\":1980:1987   */\n      dup6\n        /* \"#utility.yul\":1976:1999   */\n      sub\n        /* \"#utility.yul\":1972:2004   */\n      slt\n        /* \"#utility.yul\":1969:2088   */\n      iszero\n      tag_513\n      jumpi\n        /* \"#utility.yul\":2007:2086   */\n      tag_514\n      tag_499\n      jump\t// in\n    tag_514:\n        /* \"#utility.yul\":1969:2088   */\n    tag_513:\n        /* \"#utility.yul\":2127:2128   */\n      0x00\n        /* \"#utility.yul\":2152:2205   */\n      tag_515\n        /* \"#utility.yul\":2197:2204   */\n      dup6\n        /* \"#utility.yul\":2188:2194   */\n      dup3\n        /* \"#utility.yul\":2177:2186   */\n      dup7\n        /* \"#utility.yul\":2173:2195   */\n      add\n        /* \"#utility.yul\":2152:2205   */\n      tag_484\n      jump\t// in\n    tag_515:\n        /* \"#utility.yul\":2142:2205   */\n      swap3\n      pop\n        /* \"#utility.yul\":2098:2215   */\n      pop\n        /* \"#utility.yul\":2254:2256   */\n      0x20\n        /* \"#utility.yul\":2280:2333   */\n      tag_516\n        /* \"#utility.yul\":2325:2332   */\n      dup6\n        /* \"#utility.yul\":2316:2322   */\n      dup3\n        /* \"#utility.yul\":2305:2314   */\n      dup7\n        /* \"#utility.yul\":2301:2323   */\n      add\n        /* \"#utility.yul\":2280:2333   */\n      tag_492\n      jump\t// in\n    tag_516:\n        /* \"#utility.yul\":2270:2333   */\n      swap2\n      pop\n        /* \"#utility.yul\":2225:2343   */\n      pop\n        /* \"#utility.yul\":1876:2350   */\n      swap3\n      pop\n      swap3\n      swap1\n      pop\n      jump\t// out\n        /* \"#utility.yul\":2356:2685   */\n    tag_70:\n        /* \"#utility.yul\":2415:2421   */\n      0x00\n        /* \"#utility.yul\":2464:2466   */\n      0x20\n        /* \"#utility.yul\":2452:2461   */\n      dup3\n        /* \"#utility.yul\":2443:2450   */\n      dup5\n        /* \"#utility.yul\":2439:2462   */\n      sub\n        /* \"#utility.yul\":2435:2467   */\n      slt\n        /* \"#utility.yul\":2432:2551   */\n      iszero\n      tag_518\n      jumpi\n        /* \"#utility.yul\":2470:2549   */\n      tag_519\n      tag_499\n      jump\t// in\n    tag_519:\n        /* \"#utility.yul\":2432:2551   */\n    tag_518:\n        /* \"#utility.yul\":2590:2591   */\n      0x00\n        /* \"#utility.yul\":2615:2668   */\n      tag_520\n        /* \"#utility.yul\":2660:2667   */\n      dup5\n        /* \"#utility.yul\":2651:2657   */\n      dup3\n        /* \"#utility.yul\":2640:2649   */\n      dup6\n        /* \"#utility.yul\":2636:2658   */\n      add\n        /* \"#utility.yul\":2615:2668   */\n      tag_492\n      jump\t// in\n    tag_520:\n        /* \"#utility.yul\":2605:2668   */\n      swap2\n      pop\n        /* \"#utility.yul\":2561:2678   */\n      pop\n        /* \"#utility.yul\":2356:2685   */\n      swap3\n      swap2\n      pop\n      pop\n      jump\t// out\n        /* \"#utility.yul\":2691:3159   */\n    tag_95:\n        /* \"#utility.yul\":2756:2762   */\n      0x00\n        /* \"#utility.yul\":2764:2770   */\n      dup1\n        /* \"#utility.yul\":2813:2815   */\n      0x40\n        /* \"#utility.yul\":2801:2810   */\n      dup4\n        /* \"#utility.yul\":2792:2799   */\n      dup6\n        /* \"#utility.yul\":2788:2811   */\n      sub\n        /* \"#utility.yul\":2784:2816   */\n      slt\n        /* \"#utility.yul\":2781:2900   */\n      iszero\n      tag_522\n      jumpi\n        /* \"#utility.yul\":2819:2898   */\n      tag_523\n      tag_499\n      jump\t// in\n    tag_523:\n        /* \"#utility.yul\":2781:2900   */\n    tag_522:\n        /* \"#utility.yul\":2939:2940   */\n      0x00\n        /* \"#utility.yul\":2964:3017   */\n      tag_524\n        /* \"#utility.yul\":3009:3016   */\n      dup6\n        /* \"#utility.yul\":3000:3006   */\n      dup3\n        /* \"#utility.yul\":2989:2998   */\n      dup7\n        /* \"#utility.yul\":2985:3007   */\n      add\n        /* \"#utility.yul\":2964:3017   */\n      tag_492\n      jump\t// in\n    tag_524:\n        /* \"#utility.yul\":2954:3017   */\n      swap3\n      pop\n        /* \"#utility.yul\":2910:3027   */\n      pop\n        /* \"#utility.yul\":3066:3068   */\n      0x20\n        /* \"#utility.yul\":3092:3142   */\n      tag_525\n        /* \"#utility.yul\":3134:3141   */\n      dup6\n        /* \"#utility.yul\":3125:3131   */\n      dup3\n        /* \"#utility.yul\":3114:3123   */\n      dup7\n        /* \"#utility.yul\":3110:3132   */\n      add\n        /* \"#utility.yul\":3092:3142   */\n      tag_488\n      jump\t// in\n    tag_525:\n        /* \"#utility.yul\":3082:3142   */\n      swap2\n      pop\n        /* \"#utility.yul\":3037:3152   */\n      pop\n        /* \"#utility.yul\":2691:3159   */\n      swap3\n      pop\n      swap3\n      swap1\n      pop\n      jump\t// out\n        /* \"#utility.yul\":3165:3283   */\n    tag_526:\n        /* \"#utility.yul\":3252:3276   */\n      tag_528\n        /* \"#utility.yul\":3270:3275   */\n      dup2\n        /* \"#utility.yul\":3252:3276   */\n      tag_529\n      jump\t// in\n    tag_528:\n        /* \"#utility.yul\":3247:3250   */\n      dup3\n        /* \"#utility.yul\":3240:3277   */\n      mstore\n        /* \"#utility.yul\":3165:3283   */\n      pop\n      pop\n      jump\t// out\n        /* \"#utility.yul\":3289:3398   */\n    tag_530:\n        /* \"#utility.yul\":3370:3391   */\n      tag_532\n        /* \"#utility.yul\":3385:3390   */\n      dup2\n        /* \"#utility.yul\":3370:3391   */\n      tag_533\n      jump\t// in\n    tag_532:\n        /* \"#utility.yul\":3365:3368   */\n      dup3\n        /* \"#utility.yul\":3358:3392   */\n      mstore\n        /* \"#utility.yul\":3289:3398   */\n      pop\n      pop\n      jump\t// out\n        /* \"#utility.yul\":3404:3768   */\n    tag_534:\n        /* \"#utility.yul\":3492:3495   */\n      0x00\n        /* \"#utility.yul\":3520:3559   */\n      tag_536\n        /* \"#utility.yul\":3553:3558   */\n      dup3\n        /* \"#utility.yul\":3520:3559   */\n      tag_537\n      jump\t// in\n    tag_536:\n        /* \"#utility.yul\":3575:3646   */\n      tag_538\n        /* \"#utility.yul\":3639:3645   */\n      dup2\n        /* \"#utility.yul\":3634:3637   */\n      dup6\n        /* \"#utility.yul\":3575:3646   */\n      tag_539\n      jump\t// in\n    tag_538:\n        /* \"#utility.yul\":3568:3646   */\n      swap4\n      pop\n        /* \"#utility.yul\":3655:3707   */\n      tag_540\n        /* \"#utility.yul\":3700:3706   */\n      dup2\n        /* \"#utility.yul\":3695:3698   */\n      dup6\n        /* \"#utility.yul\":3688:3692   */\n      0x20\n        /* \"#utility.yul\":3681:3686   */\n      dup7\n        /* \"#utility.yul\":3677:3693   */\n      add\n        /* \"#utility.yul\":3655:3707   */\n      tag_541\n      jump\t// in\n    tag_540:\n        /* \"#utility.yul\":3732:3761   */\n      tag_542\n        /* \"#utility.yul\":3754:3760   */\n      dup2\n        /* \"#utility.yul\":3732:3761   */\n      tag_543\n      jump\t// in\n    tag_542:\n        /* \"#utility.yul\":3727:3730   */\n      dup5\n        /* \"#utility.yul\":3723:3762   */\n      add\n        /* \"#utility.yul\":3716:3762   */\n      swap2\n      pop\n        /* \"#utility.yul\":3496:3768   */\n      pop\n        /* \"#utility.yul\":3404:3768   */\n      swap3\n      swap2\n      pop\n      pop\n      jump\t// out\n        /* \"#utility.yul\":3774:4140   */\n    tag_544:\n        /* \"#utility.yul\":3916:3919   */\n      0x00\n        /* \"#utility.yul\":3937:4004   */\n      tag_546\n        /* \"#utility.yul\":4001:4003   */\n      0x23\n        /* \"#utility.yul\":3996:3999   */\n      dup4\n        /* \"#utility.yul\":3937:4004   */\n      tag_539\n      jump\t// in\n    tag_546:\n        /* \"#utility.yul\":3930:4004   */\n      swap2\n      pop\n        /* \"#utility.yul\":4013:4106   */\n      tag_547\n        /* \"#utility.yul\":4102:4105   */\n      dup3\n        /* \"#utility.yul\":4013:4106   */\n      tag_548\n      jump\t// in\n    tag_547:\n        /* \"#utility.yul\":4131:4133   */\n      0x40\n        /* \"#utility.yul\":4126:4129   */\n      dup3\n        /* \"#utility.yul\":4122:4134   */\n      add\n        /* \"#utility.yul\":4115:4134   */\n      swap1\n      pop\n        /* \"#utility.yul\":3774:4140   */\n      swap2\n      swap1\n      pop\n      jump\t// out\n        /* \"#utility.yul\":4146:4512   */\n    tag_549:\n        /* \"#utility.yul\":4288:4291   */\n      0x00\n        /* \"#utility.yul\":4309:4376   */\n      tag_551\n        /* \"#utility.yul\":4373:4375   */\n      0x2a\n        /* \"#utility.yul\":4368:4371   */\n      dup4\n        /* \"#utility.yul\":4309:4376   */\n      tag_539\n      jump\t// in\n    tag_551:\n        /* \"#utility.yul\":4302:4376   */\n      swap2\n      pop\n        /* \"#utility.yul\":4385:4478   */\n      tag_552\n        /* \"#utility.yul\":4474:4477   */\n      dup3\n        /* \"#utility.yul\":4385:4478   */\n      tag_553\n      jump\t// in\n    tag_552:\n        /* \"#utility.yul\":4503:4505   */\n      0x40\n        /* \"#utility.yul\":4498:4501   */\n      dup3\n        /* \"#utility.yul\":4494:4506   */\n      add\n        /* \"#utility.yul\":4487:4506   */\n      swap1\n      pop\n        /* \"#utility.yul\":4146:4512   */\n      swap2\n      swap1\n      pop\n      jump\t// out\n        /* \"#utility.yul\":4518:4884   */\n    tag_554:\n        /* \"#utility.yul\":4660:4663   */\n      0x00\n        /* \"#utility.yul\":4681:4748   */\n      tag_556\n        /* \"#utility.yul\":4745:4747   */\n      0x26\n        /* \"#utility.yul\":4740:4743   */\n      dup4\n        /* \"#utility.yul\":4681:4748   */\n      tag_539\n      jump\t// in\n    tag_556:\n        /* \"#utility.yul\":4674:4748   */\n      swap2\n      pop\n        /* \"#utility.yul\":4757:4850   */\n      tag_557\n        /* \"#utility.yul\":4846:4849   */\n      dup3\n        /* \"#utility.yul\":4757:4850   */\n      tag_558\n      jump\t// in\n    tag_557:\n        /* \"#utility.yul\":4875:4877   */\n      0x40\n        /* \"#utility.yul\":4870:4873   */\n      dup3\n        /* \"#utility.yul\":4866:4878   */\n      add\n        /* \"#utility.yul\":4859:4878   */\n      swap1\n      pop\n        /* \"#utility.yul\":4518:4884   */\n      swap2\n      swap1\n      pop\n      jump\t// out\n        /* \"#utility.yul\":4890:5256   */\n    tag_559:\n        /* \"#utility.yul\":5032:5035   */\n      0x00\n        /* \"#utility.yul\":5053:5120   */\n      tag_561\n        /* \"#utility.yul\":5117:5119   */\n      0x22\n        /* \"#utility.yul\":5112:5115   */\n      dup4\n        /* \"#utility.yul\":5053:5120   */\n      tag_539\n      jump\t// in\n    tag_561:\n        /* \"#utility.yul\":5046:5120   */\n      swap2\n      pop\n        /* \"#utility.yul\":5129:5222   */\n      tag_562\n        /* \"#utility.yul\":5218:5221   */\n      dup3\n        /* \"#utility.yul\":5129:5222   */\n      tag_563\n      jump\t// in\n    tag_562:\n        /* \"#utility.yul\":5247:5249   */\n      0x40\n        /* \"#utility.yul\":5242:5245   */\n      dup3\n        /* \"#utility.yul\":5238:5250   */\n      add\n        /* \"#utility.yul\":5231:5250   */\n      swap1\n      pop\n        /* \"#utility.yul\":4890:5256   */\n      swap2\n      swap1\n      pop\n      jump\t// out\n        /* \"#utility.yul\":5262:5628   */\n    tag_564:\n        /* \"#utility.yul\":5404:5407   */\n      0x00\n        /* \"#utility.yul\":5425:5492   */\n      tag_566\n        /* \"#utility.yul\":5489:5491   */\n      0x1b\n        /* \"#utility.yul\":5484:5487   */\n      dup4\n        /* \"#utility.yul\":5425:5492   */\n      tag_539\n      jump\t// in\n    tag_566:\n        /* \"#utility.yul\":5418:5492   */\n      swap2\n      pop\n        /* \"#utility.yul\":5501:5594   */\n      tag_567\n        /* \"#utility.yul\":5590:5593   */\n      dup3\n        /* \"#utility.yul\":5501:5594   */\n      tag_568\n      jump\t// in\n    tag_567:\n        /* \"#utility.yul\":5619:5621   */\n      0x20\n        /* \"#utility.yul\":5614:5617   */\n      dup3\n        /* \"#utility.yul\":5610:5622   */\n      add\n        /* \"#utility.yul\":5603:5622   */\n      swap1\n      pop\n        /* \"#utility.yul\":5262:5628   */\n      swap2\n      swap1\n      pop\n      jump\t// out\n        /* \"#utility.yul\":5634:6000   */\n    tag_569:\n        /* \"#utility.yul\":5776:5779   */\n      0x00\n        /* \"#utility.yul\":5797:5864   */\n      tag_571\n        /* \"#utility.yul\":5861:5863   */\n      0x1b\n        /* \"#utility.yul\":5856:5859   */\n      dup4\n        /* \"#utility.yul\":5797:5864   */\n      tag_539\n      jump\t// in\n    tag_571:\n        /* \"#utility.yul\":5790:5864   */\n      swap2\n      pop\n        /* \"#utility.yul\":5873:5966   */\n      tag_572\n        /* \"#utility.yul\":5962:5965   */\n      dup3\n        /* \"#utility.yul\":5873:5966   */\n      tag_573\n      jump\t// in\n    tag_572:\n        /* \"#utility.yul\":5991:5993   */\n      0x20\n        /* \"#utility.yul\":5986:5989   */\n      dup3\n        /* \"#utility.yul\":5982:5994   */\n      add\n        /* \"#utility.yul\":5975:5994   */\n      swap1\n      pop\n        /* \"#utility.yul\":5634:6000   */\n      swap2\n      swap1\n      pop\n      jump\t// out\n        /* \"#utility.yul\":6006:6372   */\n    tag_574:\n        /* \"#utility.yul\":6148:6151   */\n      0x00\n        /* \"#utility.yul\":6169:6236   */\n      tag_576\n        /* \"#utility.yul\":6233:6235   */\n      0x1f\n        /* \"#utility.yul\":6228:6231   */\n      dup4\n        /* \"#utility.yul\":6169:6236   */\n      tag_539\n      jump\t// in\n    tag_576:\n        /* \"#utility.yul\":6162:6236   */\n      swap2\n      pop\n        /* \"#utility.yul\":6245:6338   */\n      tag_577\n        /* \"#utility.yul\":6334:6337   */\n      dup3\n        /* \"#utility.yul\":6245:6338   */\n      tag_578\n      jump\t// in\n    tag_577:\n        /* \"#utility.yul\":6363:6365   */\n      0x20\n        /* \"#utility.yul\":6358:6361   */\n      dup3\n        /* \"#utility.yul\":6354:6366   */\n      add\n        /* \"#utility.yul\":6347:6366   */\n      swap1\n      pop\n        /* \"#utility.yul\":6006:6372   */\n      swap2\n      swap1\n      pop\n      jump\t// out\n        /* \"#utility.yul\":6378:6744   */\n    tag_579:\n        /* \"#utility.yul\":6520:6523   */\n      0x00\n        /* \"#utility.yul\":6541:6608   */\n      tag_581\n        /* \"#utility.yul\":6605:6607   */\n      0x28\n        /* \"#utility.yul\":6600:6603   */\n      dup4\n        /* \"#utility.yul\":6541:6608   */\n      tag_539\n      jump\t// in\n    tag_581:\n        /* \"#utility.yul\":6534:6608   */\n      swap2\n      pop\n        /* \"#utility.yul\":6617:6710   */\n      tag_582\n        /* \"#utility.yul\":6706:6709   */\n      dup3\n        /* \"#utility.yul\":6617:6710   */\n      tag_583\n      jump\t// in\n    tag_582:\n        /* \"#utility.yul\":6735:6737   */\n      0x40\n        /* \"#utility.yul\":6730:6733   */\n      dup3\n        /* \"#utility.yul\":6726:6738   */\n      add\n        /* \"#utility.yul\":6719:6738   */\n      swap1\n      pop\n        /* \"#utility.yul\":6378:6744   */\n      swap2\n      swap1\n      pop\n      jump\t// out\n        /* \"#utility.yul\":6750:7116   */\n    tag_584:\n        /* \"#utility.yul\":6892:6895   */\n      0x00\n        /* \"#utility.yul\":6913:6980   */\n      tag_586\n        /* \"#utility.yul\":6977:6979   */\n      0x21\n        /* \"#utility.yul\":6972:6975   */\n      dup4\n        /* \"#utility.yul\":6913:6980   */\n      tag_539\n      jump\t// in\n    tag_586:\n        /* \"#utility.yul\":6906:6980   */\n      swap2\n      pop\n        /* \"#utility.yul\":6989:7082   */\n      tag_587\n        /* \"#utility.yul\":7078:7081   */\n      dup3\n        /* \"#utility.yul\":6989:7082   */\n      tag_588\n      jump\t// in\n    tag_587:\n        /* \"#utility.yul\":7107:7109   */\n      0x40\n        /* \"#utility.yul\":7102:7105   */\n      dup3\n        /* \"#utility.yul\":7098:7110   */\n      add\n        /* \"#utility.yul\":7091:7110   */\n      swap1\n      pop\n        /* \"#utility.yul\":6750:7116   */\n      swap2\n      swap1\n      pop\n      jump\t// out\n        /* \"#utility.yul\":7122:7488   */\n    tag_589:\n        /* \"#utility.yul\":7264:7267   */\n      0x00\n        /* \"#utility.yul\":7285:7352   */\n      tag_591\n        /* \"#utility.yul\":7349:7351   */\n      0x20\n        /* \"#utility.yul\":7344:7347   */\n      dup4\n        /* \"#utility.yul\":7285:7352   */\n      tag_539\n      jump\t// in\n    tag_591:\n        /* \"#utility.yul\":7278:7352   */\n      swap2\n      pop\n        /* \"#utility.yul\":7361:7454   */\n      tag_592\n        /* \"#utility.yul\":7450:7453   */\n      dup3\n        /* \"#utility.yul\":7361:7454   */\n      tag_593\n      jump\t// in\n    tag_592:\n        /* \"#utility.yul\":7479:7481   */\n      0x20\n        /* \"#utility.yul\":7474:7477   */\n      dup3\n        /* \"#utility.yul\":7470:7482   */\n      add\n        /* \"#utility.yul\":7463:7482   */\n      swap1\n      pop\n        /* \"#utility.yul\":7122:7488   */\n      swap2\n      swap1\n      pop\n      jump\t// out\n        /* \"#utility.yul\":7494:7860   */\n    tag_594:\n        /* \"#utility.yul\":7636:7639   */\n      0x00\n        /* \"#utility.yul\":7657:7724   */\n      tag_596\n        /* \"#utility.yul\":7721:7723   */\n      0x29\n        /* \"#utility.yul\":7716:7719   */\n      dup4\n        /* \"#utility.yul\":7657:7724   */\n      tag_539\n      jump\t// in\n    tag_596:\n        /* \"#utility.yul\":7650:7724   */\n      swap2\n      pop\n        /* \"#utility.yul\":7733:7826   */\n      tag_597\n        /* \"#utility.yul\":7822:7825   */\n      dup3\n        /* \"#utility.yul\":7733:7826   */\n      tag_598\n      jump\t// in\n    tag_597:\n        /* \"#utility.yul\":7851:7853   */\n      0x40\n        /* \"#utility.yul\":7846:7849   */\n      dup3\n        /* \"#utility.yul\":7842:7854   */\n      add\n        /* \"#utility.yul\":7835:7854   */\n      swap1\n      pop\n        /* \"#utility.yul\":7494:7860   */\n      swap2\n      swap1\n      pop\n      jump\t// out\n        /* \"#utility.yul\":7866:8232   */\n    tag_599:\n        /* \"#utility.yul\":8008:8011   */\n      0x00\n        /* \"#utility.yul\":8029:8096   */\n      tag_601\n        /* \"#utility.yul\":8093:8095   */\n      0x25\n        /* \"#utility.yul\":8088:8091   */\n      dup4\n        /* \"#utility.yul\":8029:8096   */\n      tag_539\n      jump\t// in\n    tag_601:\n        /* \"#utility.yul\":8022:8096   */\n      swap2\n      pop\n        /* \"#utility.yul\":8105:8198   */\n      tag_602\n        /* \"#utility.yul\":8194:8197   */\n      dup3\n        /* \"#utility.yul\":8105:8198   */\n      tag_603\n      jump\t// in\n    tag_602:\n        /* \"#utility.yul\":8223:8225   */\n      0x40\n        /* \"#utility.yul\":8218:8221   */\n      dup3\n        /* \"#utility.yul\":8214:8226   */\n      add\n        /* \"#utility.yul\":8207:8226   */\n      swap1\n      pop\n        /* \"#utility.yul\":7866:8232   */\n      swap2\n      swap1\n      pop\n      jump\t// out\n        /* \"#utility.yul\":8238:8604   */\n    tag_604:\n        /* \"#utility.yul\":8380:8383   */\n      0x00\n        /* \"#utility.yul\":8401:8468   */\n      tag_606\n        /* \"#utility.yul\":8465:8467   */\n      0x24\n        /* \"#utility.yul\":8460:8463   */\n      dup4\n        /* \"#utility.yul\":8401:8468   */\n      tag_539\n      jump\t// in\n    tag_606:\n        /* \"#utility.yul\":8394:8468   */\n      swap2\n      pop\n        /* \"#utility.yul\":8477:8570   */\n      tag_607\n        /* \"#utility.yul\":8566:8569   */\n      dup3\n        /* \"#utility.yul\":8477:8570   */\n      tag_608\n      jump\t// in\n    tag_607:\n        /* \"#utility.yul\":8595:8597   */\n      0x40\n        /* \"#utility.yul\":8590:8593   */\n      dup3\n        /* \"#utility.yul\":8586:8598   */\n      add\n        /* \"#utility.yul\":8579:8598   */\n      swap1\n      pop\n        /* \"#utility.yul\":8238:8604   */\n      swap2\n      swap1\n      pop\n      jump\t// out\n        /* \"#utility.yul\":8610:8976   */\n    tag_609:\n        /* \"#utility.yul\":8752:8755   */\n      0x00\n        /* \"#utility.yul\":8773:8840   */\n      tag_611\n        /* \"#utility.yul\":8837:8839   */\n      0x1f\n        /* \"#utility.yul\":8832:8835   */\n      dup4\n        /* \"#utility.yul\":8773:8840   */\n      tag_539\n      jump\t// in\n    tag_611:\n        /* \"#utility.yul\":8766:8840   */\n      swap2\n      pop\n        /* \"#utility.yul\":8849:8942   */\n      tag_612\n        /* \"#utility.yul\":8938:8941   */\n      dup3\n        /* \"#utility.yul\":8849:8942   */\n      tag_613\n      jump\t// in\n    tag_612:\n        /* \"#utility.yul\":8967:8969   */\n      0x20\n        /* \"#utility.yul\":8962:8965   */\n      dup3\n        /* \"#utility.yul\":8958:8970   */\n      add\n        /* \"#utility.yul\":8951:8970   */\n      swap1\n      pop\n        /* \"#utility.yul\":8610:8976   */\n      swap2\n      swap1\n      pop\n      jump\t// out\n        /* \"#utility.yul\":8982:9348   */\n    tag_614:\n        /* \"#utility.yul\":9124:9127   */\n      0x00\n        /* \"#utility.yul\":9145:9212   */\n      tag_616\n        /* \"#utility.yul\":9209:9211   */\n      0x2c\n        /* \"#utility.yul\":9204:9207   */\n      dup4\n        /* \"#utility.yul\":9145:9212   */\n      tag_539\n      jump\t// in\n    tag_616:\n        /* \"#utility.yul\":9138:9212   */\n      swap2\n      pop\n        /* \"#utility.yul\":9221:9314   */\n      tag_617\n        /* \"#utility.yul\":9310:9313   */\n      dup3\n        /* \"#utility.yul\":9221:9314   */\n      tag_618\n      jump\t// in\n    tag_617:\n        /* \"#utility.yul\":9339:9341   */\n      0x40\n        /* \"#utility.yul\":9334:9337   */\n      dup3\n        /* \"#utility.yul\":9330:9342   */\n      add\n        /* \"#utility.yul\":9323:9342   */\n      swap1\n      pop\n        /* \"#utility.yul\":8982:9348   */\n      swap2\n      swap1\n      pop\n      jump\t// out\n        /* \"#utility.yul\":9354:9720   */\n    tag_619:\n        /* \"#utility.yul\":9496:9499   */\n      0x00\n        /* \"#utility.yul\":9517:9584   */\n      tag_621\n        /* \"#utility.yul\":9581:9583   */\n      0x23\n        /* \"#utility.yul\":9576:9579   */\n      dup4\n        /* \"#utility.yul\":9517:9584   */\n      tag_539\n      jump\t// in\n    tag_621:\n        /* \"#utility.yul\":9510:9584   */\n      swap2\n      pop\n        /* \"#utility.yul\":9593:9686   */\n      tag_622\n        /* \"#utility.yul\":9682:9685   */\n      dup3\n        /* \"#utility.yul\":9593:9686   */\n      tag_623\n      jump\t// in\n    tag_622:\n        /* \"#utility.yul\":9711:9713   */\n      0x40\n        /* \"#utility.yul\":9706:9709   */\n      dup3\n        /* \"#utility.yul\":9702:9714   */\n      add\n        /* \"#utility.yul\":9695:9714   */\n      swap1\n      pop\n        /* \"#utility.yul\":9354:9720   */\n      swap2\n      swap1\n      pop\n      jump\t// out\n        /* \"#utility.yul\":9726:9844   */\n    tag_624:\n        /* \"#utility.yul\":9813:9837   */\n      tag_626\n        /* \"#utility.yul\":9831:9836   */\n      dup2\n        /* \"#utility.yul\":9813:9837   */\n      tag_627\n      jump\t// in\n    tag_626:\n        /* \"#utility.yul\":9808:9811   */\n      dup3\n        /* \"#utility.yul\":9801:9838   */\n      mstore\n        /* \"#utility.yul\":9726:9844   */\n      pop\n      pop\n      jump\t// out\n        /* \"#utility.yul\":9850:9962   */\n    tag_628:\n        /* \"#utility.yul\":9933:9955   */\n      tag_630\n        /* \"#utility.yul\":9949:9954   */\n      dup2\n        /* \"#utility.yul\":9933:9955   */\n      tag_631\n      jump\t// in\n    tag_630:\n        /* \"#utility.yul\":9928:9931   */\n      dup3\n        /* \"#utility.yul\":9921:9956   */\n      mstore\n        /* \"#utility.yul\":9850:9962   */\n      pop\n      pop\n      jump\t// out\n        /* \"#utility.yul\":9968:10190   */\n    tag_45:\n        /* \"#utility.yul\":10061:10065   */\n      0x00\n        /* \"#utility.yul\":10099:10101   */\n      0x20\n        /* \"#utility.yul\":10088:10097   */\n      dup3\n        /* \"#utility.yul\":10084:10102   */\n      add\n        /* \"#utility.yul\":10076:10102   */\n      swap1\n      pop\n        /* \"#utility.yul\":10112:10183   */\n      tag_633\n        /* \"#utility.yul\":10180:10181   */\n      0x00\n        /* \"#utility.yul\":10169:10178   */\n      dup4\n        /* \"#utility.yul\":10165:10182   */\n      add\n        /* \"#utility.yul\":10156:10162   */\n      dup5\n        /* \"#utility.yul\":10112:10183   */\n      tag_526\n      jump\t// in\n    tag_633:\n        /* \"#utility.yul\":9968:10190   */\n      swap3\n      swap2\n      pop\n      pop\n      jump\t// out\n        /* \"#utility.yul\":10196:10406   */\n    tag_55:\n        /* \"#utility.yul\":10283:10287   */\n      0x00\n        /* \"#utility.yul\":10321:10323   */\n      0x20\n        /* \"#utility.yul\":10310:10319   */\n      dup3\n        /* \"#utility.yul\":10306:10324   */\n      add\n        /* \"#utility.yul\":10298:10324   */\n      swap1\n      pop\n        /* \"#utility.yul\":10334:10399   */\n      tag_635\n        /* \"#utility.yul\":10396:10397   */\n      0x00\n        /* \"#utility.yul\":10385:10394   */\n      dup4\n        /* \"#utility.yul\":10381:10398   */\n      add\n        /* \"#utility.yul\":10372:10378   */\n      dup5\n        /* \"#utility.yul\":10334:10399   */\n      tag_530\n      jump\t// in\n    tag_635:\n        /* \"#utility.yul\":10196:10406   */\n      swap3\n      swap2\n      pop\n      pop\n      jump\t// out\n        /* \"#utility.yul\":10412:10725   */\n    tag_49:\n        /* \"#utility.yul\":10525:10529   */\n      0x00\n        /* \"#utility.yul\":10563:10565   */\n      0x20\n        /* \"#utility.yul\":10552:10561   */\n      dup3\n        /* \"#utility.yul\":10548:10566   */\n      add\n        /* \"#utility.yul\":10540:10566   */\n      swap1\n      pop\n        /* \"#utility.yul\":10612:10621   */\n      dup2\n        /* \"#utility.yul\":10606:10610   */\n      dup2\n        /* \"#utility.yul\":10602:10622   */\n      sub\n        /* \"#utility.yul\":10598:10599   */\n      0x00\n        /* \"#utility.yul\":10587:10596   */\n      dup4\n        /* \"#utility.yul\":10583:10600   */\n      add\n        /* \"#utility.yul\":10576:10623   */\n      mstore\n        /* \"#utility.yul\":10640:10718   */\n      tag_637\n        /* \"#utility.yul\":10713:10717   */\n      dup2\n        /* \"#utility.yul\":10704:10710   */\n      dup5\n        /* \"#utility.yul\":10640:10718   */\n      tag_534\n      jump\t// in\n    tag_637:\n        /* \"#utility.yul\":10632:10718   */\n      swap1\n      pop\n        /* \"#utility.yul\":10412:10725   */\n      swap3\n      swap2\n      pop\n      pop\n      jump\t// out\n        /* \"#utility.yul\":10731:11150   */\n    tag_319:\n        /* \"#utility.yul\":10897:10901   */\n      0x00\n        /* \"#utility.yul\":10935:10937   */\n      0x20\n        /* \"#utility.yul\":10924:10933   */\n      dup3\n        /* \"#utility.yul\":10920:10938   */\n      add\n        /* \"#utility.yul\":10912:10938   */\n      swap1\n      pop\n        /* \"#utility.yul\":10984:10993   */\n      dup2\n        /* \"#utility.yul\":10978:10982   */\n      dup2\n        /* \"#utility.yul\":10974:10994   */\n      sub\n        /* \"#utility.yul\":10970:10971   */\n      0x00\n        /* \"#utility.yul\":10959:10968   */\n      dup4\n        /* \"#utility.yul\":10955:10972   */\n      add\n        /* \"#utility.yul\":10948:10995   */\n      mstore\n        /* \"#utility.yul\":11012:11143   */\n      tag_639\n        /* \"#utility.yul\":11138:11142   */\n      dup2\n        /* \"#utility.yul\":11012:11143   */\n      tag_544\n      jump\t// in\n    tag_639:\n        /* \"#utility.yul\":11004:11143   */\n      swap1\n      pop\n        /* \"#utility.yul\":10731:11150   */\n      swap2\n      swap1\n      pop\n      jump\t// out\n        /* \"#utility.yul\":11156:11575   */\n    tag_182:\n        /* \"#utility.yul\":11322:11326   */\n      0x00\n        /* \"#utility.yul\":11360:11362   */\n      0x20\n        /* \"#utility.yul\":11349:11358   */\n      dup3\n        /* \"#utility.yul\":11345:11363   */\n      add\n        /* \"#utility.yul\":11337:11363   */\n      swap1\n      pop\n        /* \"#utility.yul\":11409:11418   */\n      dup2\n        /* \"#utility.yul\":11403:11407   */\n      dup2\n        /* \"#utility.yul\":11399:11419   */\n      sub\n        /* \"#utility.yul\":11395:11396   */\n      0x00\n        /* \"#utility.yul\":11384:11393   */\n      dup4\n        /* \"#utility.yul\":11380:11397   */\n      add\n        /* \"#utility.yul\":11373:11420   */\n      mstore\n        /* \"#utility.yul\":11437:11568   */\n      tag_641\n        /* \"#utility.yul\":11563:11567   */\n      dup2\n        /* \"#utility.yul\":11437:11568   */\n      tag_549\n      jump\t// in\n    tag_641:\n        /* \"#utility.yul\":11429:11568   */\n      swap1\n      pop\n        /* \"#utility.yul\":11156:11575   */\n      swap2\n      swap1\n      pop\n      jump\t// out\n        /* \"#utility.yul\":11581:12000   */\n    tag_274:\n        /* \"#utility.yul\":11747:11751   */\n      0x00\n        /* \"#utility.yul\":11785:11787   */\n      0x20\n        /* \"#utility.yul\":11774:11783   */\n      dup3\n        /* \"#utility.yul\":11770:11788   */\n      add\n        /* \"#utility.yul\":11762:11788   */\n      swap1\n      pop\n        /* \"#utility.yul\":11834:11843   */\n      dup2\n        /* \"#utility.yul\":11828:11832   */\n      dup2\n        /* \"#utility.yul\":11824:11844   */\n      sub\n        /* \"#utility.yul\":11820:11821   */\n      0x00\n        /* \"#utility.yul\":11809:11818   */\n      dup4\n        /* \"#utility.yul\":11805:11822   */\n      add\n        /* \"#utility.yul\":11798:11845   */\n      mstore\n        /* \"#utility.yul\":11862:11993   */\n      tag_643\n        /* \"#utility.yul\":11988:11992   */\n      dup2\n        /* \"#utility.yul\":11862:11993   */\n      tag_554\n      jump\t// in\n    tag_643:\n        /* \"#utility.yul\":11854:11993   */\n      swap1\n      pop\n        /* \"#utility.yul\":11581:12000   */\n      swap2\n      swap1\n      pop\n      jump\t// out\n        /* \"#utility.yul\":12006:12425   */\n    tag_311:\n        /* \"#utility.yul\":12172:12176   */\n      0x00\n        /* \"#utility.yul\":12210:12212   */\n      0x20\n        /* \"#utility.yul\":12199:12208   */\n      dup3\n        /* \"#utility.yul\":12195:12213   */\n      add\n        /* \"#utility.yul\":12187:12213   */\n      swap1\n      pop\n        /* \"#utility.yul\":12259:12268   */\n      dup2\n        /* \"#utility.yul\":12253:12257   */\n      dup2\n        /* \"#utility.yul\":12249:12269   */\n      sub\n        /* \"#utility.yul\":12245:12246   */\n      0x00\n        /* \"#utility.yul\":12234:12243   */\n      dup4\n        /* \"#utility.yul\":12230:12247   */\n      add\n        /* \"#utility.yul\":12223:12270   */\n      mstore\n        /* \"#utility.yul\":12287:12418   */\n      tag_645\n        /* \"#utility.yul\":12413:12417   */\n      dup2\n        /* \"#utility.yul\":12287:12418   */\n      tag_559\n      jump\t// in\n    tag_645:\n        /* \"#utility.yul\":12279:12418   */\n      swap1\n      pop\n        /* \"#utility.yul\":12006:12425   */\n      swap2\n      swap1\n      pop\n      jump\t// out\n        /* \"#utility.yul\":12431:12850   */\n    tag_366:\n        /* \"#utility.yul\":12597:12601   */\n      0x00\n        /* \"#utility.yul\":12635:12637   */\n      0x20\n        /* \"#utility.yul\":12624:12633   */\n      dup3\n        /* \"#utility.yul\":12620:12638   */\n      add\n        /* \"#utility.yul\":12612:12638   */\n      swap1\n      pop\n        /* \"#utility.yul\":12684:12693   */\n      dup2\n        /* \"#utility.yul\":12678:12682   */\n      dup2\n        /* \"#utility.yul\":12674:12694   */\n      sub\n        /* \"#utility.yul\":12670:12671   */\n      0x00\n        /* \"#utility.yul\":12659:12668   */\n      dup4\n        /* \"#utility.yul\":12655:12672   */\n      add\n        /* \"#utility.yul\":12648:12695   */\n      mstore\n        /* \"#utility.yul\":12712:12843   */\n      tag_647\n        /* \"#utility.yul\":12838:12842   */\n      dup2\n        /* \"#utility.yul\":12712:12843   */\n      tag_564\n      jump\t// in\n    tag_647:\n        /* \"#utility.yul\":12704:12843   */\n      swap1\n      pop\n        /* \"#utility.yul\":12431:12850   */\n      swap2\n      swap1\n      pop\n      jump\t// out\n        /* \"#utility.yul\":12856:13275   */\n    tag_265:\n        /* \"#utility.yul\":13022:13026   */\n      0x00\n        /* \"#utility.yul\":13060:13062   */\n      0x20\n        /* \"#utility.yul\":13049:13058   */\n      dup3\n        /* \"#utility.yul\":13045:13063   */\n      add\n        /* \"#utility.yul\":13037:13063   */\n      swap1\n      pop\n        /* \"#utility.yul\":13109:13118   */\n      dup2\n        /* \"#utility.yul\":13103:13107   */\n      dup2\n        /* \"#utility.yul\":13099:13119   */\n      sub\n        /* \"#utility.yul\":13095:13096   */\n      0x00\n        /* \"#utility.yul\":13084:13093   */\n      dup4\n        /* \"#utility.yul\":13080:13097   */\n      add\n        /* \"#utility.yul\":13073:13120   */\n      mstore\n        /* \"#utility.yul\":13137:13268   */\n      tag_649\n        /* \"#utility.yul\":13263:13267   */\n      dup2\n        /* \"#utility.yul\":13137:13268   */\n      tag_569\n      jump\t// in\n    tag_649:\n        /* \"#utility.yul\":13129:13268   */\n      swap1\n      pop\n        /* \"#utility.yul\":12856:13275   */\n      swap2\n      swap1\n      pop\n      jump\t// out\n        /* \"#utility.yul\":13281:13700   */\n    tag_213:\n        /* \"#utility.yul\":13447:13451   */\n      0x00\n        /* \"#utility.yul\":13485:13487   */\n      0x20\n        /* \"#utility.yul\":13474:13483   */\n      dup3\n        /* \"#utility.yul\":13470:13488   */\n      add\n        /* \"#utility.yul\":13462:13488   */\n      swap1\n      pop\n        /* \"#utility.yul\":13534:13543   */\n      dup2\n        /* \"#utility.yul\":13528:13532   */\n      dup2\n        /* \"#utility.yul\":13524:13544   */\n      sub\n        /* \"#utility.yul\":13520:13521   */\n      0x00\n        /* \"#utility.yul\":13509:13518   */\n      dup4\n        /* \"#utility.yul\":13505:13522   */\n      add\n        /* \"#utility.yul\":13498:13545   */\n      mstore\n        /* \"#utility.yul\":13562:13693   */\n      tag_651\n        /* \"#utility.yul\":13688:13692   */\n      dup2\n        /* \"#utility.yul\":13562:13693   */\n      tag_574\n      jump\t// in\n    tag_651:\n        /* \"#utility.yul\":13554:13693   */\n      swap1\n      pop\n        /* \"#utility.yul\":13281:13700   */\n      swap2\n      swap1\n      pop\n      jump\t// out\n        /* \"#utility.yul\":13706:14125   */\n    tag_329:\n        /* \"#utility.yul\":13872:13876   */\n      0x00\n        /* \"#utility.yul\":13910:13912   */\n      0x20\n        /* \"#utility.yul\":13899:13908   */\n      dup3\n        /* \"#utility.yul\":13895:13913   */\n      add\n        /* \"#utility.yul\":13887:13913   */\n      swap1\n      pop\n        /* \"#utility.yul\":13959:13968   */\n      dup2\n        /* \"#utility.yul\":13953:13957   */\n      dup2\n        /* \"#utility.yul\":13949:13969   */\n      sub\n        /* \"#utility.yul\":13945:13946   */\n      0x00\n        /* \"#utility.yul\":13934:13943   */\n      dup4\n        /* \"#utility.yul\":13930:13947   */\n      add\n        /* \"#utility.yul\":13923:13970   */\n      mstore\n        /* \"#utility.yul\":13987:14118   */\n      tag_653\n        /* \"#utility.yul\":14113:14117   */\n      dup2\n        /* \"#utility.yul\":13987:14118   */\n      tag_579\n      jump\t// in\n    tag_653:\n        /* \"#utility.yul\":13979:14118   */\n      swap1\n      pop\n        /* \"#utility.yul\":13706:14125   */\n      swap2\n      swap1\n      pop\n      jump\t// out\n        /* \"#utility.yul\":14131:14550   */\n    tag_482:\n        /* \"#utility.yul\":14297:14301   */\n      0x00\n        /* \"#utility.yul\":14335:14337   */\n      0x20\n        /* \"#utility.yul\":14324:14333   */\n      dup3\n        /* \"#utility.yul\":14320:14338   */\n      add\n        /* \"#utility.yul\":14312:14338   */\n      swap1\n      pop\n        /* \"#utility.yul\":14384:14393   */\n      dup2\n        /* \"#utility.yul\":14378:14382   */\n      dup2\n        /* \"#utility.yul\":14374:14394   */\n      sub\n        /* \"#utility.yul\":14370:14371   */\n      0x00\n        /* \"#utility.yul\":14359:14368   */\n      dup4\n        /* \"#utility.yul\":14355:14372   */\n      add\n        /* \"#utility.yul\":14348:14395   */\n      mstore\n        /* \"#utility.yul\":14412:14543   */\n      tag_655\n        /* \"#utility.yul\":14538:14542   */\n      dup2\n        /* \"#utility.yul\":14412:14543   */\n      tag_584\n      jump\t// in\n    tag_655:\n        /* \"#utility.yul\":14404:14543   */\n      swap1\n      pop\n        /* \"#utility.yul\":14131:14550   */\n      swap2\n      swap1\n      pop\n      jump\t// out\n        /* \"#utility.yul\":14556:14975   */\n    tag_372:\n        /* \"#utility.yul\":14722:14726   */\n      0x00\n        /* \"#utility.yul\":14760:14762   */\n      0x20\n        /* \"#utility.yul\":14749:14758   */\n      dup3\n        /* \"#utility.yul\":14745:14763   */\n      add\n        /* \"#utility.yul\":14737:14763   */\n      swap1\n      pop\n        /* \"#utility.yul\":14809:14818   */\n      dup2\n        /* \"#utility.yul\":14803:14807   */\n      dup2\n        /* \"#utility.yul\":14799:14819   */\n      sub\n        /* \"#utility.yul\":14795:14796   */\n      0x00\n        /* \"#utility.yul\":14784:14793   */\n      dup4\n        /* \"#utility.yul\":14780:14797   */\n      add\n        /* \"#utility.yul\":14773:14820   */\n      mstore\n        /* \"#utility.yul\":14837:14968   */\n      tag_657\n        /* \"#utility.yul\":14963:14967   */\n      dup2\n        /* \"#utility.yul\":14837:14968   */\n      tag_589\n      jump\t// in\n    tag_657:\n        /* \"#utility.yul\":14829:14968   */\n      swap1\n      pop\n        /* \"#utility.yul\":14556:14975   */\n      swap2\n      swap1\n      pop\n      jump\t// out\n        /* \"#utility.yul\":14981:15400   */\n    tag_322:\n        /* \"#utility.yul\":15147:15151   */\n      0x00\n        /* \"#utility.yul\":15185:15187   */\n      0x20\n        /* \"#utility.yul\":15174:15183   */\n      dup3\n        /* \"#utility.yul\":15170:15188   */\n      add\n        /* \"#utility.yul\":15162:15188   */\n      swap1\n      pop\n        /* \"#utility.yul\":15234:15243   */\n      dup2\n        /* \"#utility.yul\":15228:15232   */\n      dup2\n        /* \"#utility.yul\":15224:15244   */\n      sub\n        /* \"#utility.yul\":15220:15221   */\n      0x00\n        /* \"#utility.yul\":15209:15218   */\n      dup4\n        /* \"#utility.yul\":15205:15222   */\n      add\n        /* \"#utility.yul\":15198:15245   */\n      mstore\n        /* \"#utility.yul\":15262:15393   */\n      tag_659\n        /* \"#utility.yul\":15388:15392   */\n      dup2\n        /* \"#utility.yul\":15262:15393   */\n      tag_594\n      jump\t// in\n    tag_659:\n        /* \"#utility.yul\":15254:15393   */\n      swap1\n      pop\n        /* \"#utility.yul\":14981:15400   */\n      swap2\n      swap1\n      pop\n      jump\t// out\n        /* \"#utility.yul\":15406:15825   */\n    tag_316:\n        /* \"#utility.yul\":15572:15576   */\n      0x00\n        /* \"#utility.yul\":15610:15612   */\n      0x20\n        /* \"#utility.yul\":15599:15608   */\n      dup3\n        /* \"#utility.yul\":15595:15613   */\n      add\n        /* \"#utility.yul\":15587:15613   */\n      swap1\n      pop\n        /* \"#utility.yul\":15659:15668   */\n      dup2\n        /* \"#utility.yul\":15653:15657   */\n      dup2\n        /* \"#utility.yul\":15649:15669   */\n      sub\n        /* \"#utility.yul\":15645:15646   */\n      0x00\n        /* \"#utility.yul\":15634:15643   */\n      dup4\n        /* \"#utility.yul\":15630:15647   */\n      add\n        /* \"#utility.yul\":15623:15670   */\n      mstore\n        /* \"#utility.yul\":15687:15818   */\n      tag_661\n        /* \"#utility.yul\":15813:15817   */\n      dup2\n        /* \"#utility.yul\":15687:15818   */\n      tag_599\n      jump\t// in\n    tag_661:\n        /* \"#utility.yul\":15679:15818   */\n      swap1\n      pop\n        /* \"#utility.yul\":15406:15825   */\n      swap2\n      swap1\n      pop\n      jump\t// out\n        /* \"#utility.yul\":15831:16250   */\n    tag_308:\n        /* \"#utility.yul\":15997:16001   */\n      0x00\n        /* \"#utility.yul\":16035:16037   */\n      0x20\n        /* \"#utility.yul\":16024:16033   */\n      dup3\n        /* \"#utility.yul\":16020:16038   */\n      add\n        /* \"#utility.yul\":16012:16038   */\n      swap1\n      pop\n        /* \"#utility.yul\":16084:16093   */\n      dup2\n        /* \"#utility.yul\":16078:16082   */\n      dup2\n        /* \"#utility.yul\":16074:16094   */\n      sub\n        /* \"#utility.yul\":16070:16071   */\n      0x00\n        /* \"#utility.yul\":16059:16068   */\n      dup4\n        /* \"#utility.yul\":16055:16072   */\n      add\n        /* \"#utility.yul\":16048:16095   */\n      mstore\n        /* \"#utility.yul\":16112:16243   */\n      tag_663\n        /* \"#utility.yul\":16238:16242   */\n      dup2\n        /* \"#utility.yul\":16112:16243   */\n      tag_604\n      jump\t// in\n    tag_663:\n        /* \"#utility.yul\":16104:16243   */\n      swap1\n      pop\n        /* \"#utility.yul\":15831:16250   */\n      swap2\n      swap1\n      pop\n      jump\t// out\n        /* \"#utility.yul\":16256:16675   */\n    tag_248:\n        /* \"#utility.yul\":16422:16426   */\n      0x00\n        /* \"#utility.yul\":16460:16462   */\n      0x20\n        /* \"#utility.yul\":16449:16458   */\n      dup3\n        /* \"#utility.yul\":16445:16463   */\n      add\n        /* \"#utility.yul\":16437:16463   */\n      swap1\n      pop\n        /* \"#utility.yul\":16509:16518   */\n      dup2\n        /* \"#utility.yul\":16503:16507   */\n      dup2\n        /* \"#utility.yul\":16499:16519   */\n      sub\n        /* \"#utility.yul\":16495:16496   */\n      0x00\n        /* \"#utility.yul\":16484:16493   */\n      dup4\n        /* \"#utility.yul\":16480:16497   */\n      add\n        /* \"#utility.yul\":16473:16520   */\n      mstore\n        /* \"#utility.yul\":16537:16668   */\n      tag_665\n        /* \"#utility.yul\":16663:16667   */\n      dup2\n        /* \"#utility.yul\":16537:16668   */\n      tag_609\n      jump\t// in\n    tag_665:\n        /* \"#utility.yul\":16529:16668   */\n      swap1\n      pop\n        /* \"#utility.yul\":16256:16675   */\n      swap2\n      swap1\n      pop\n      jump\t// out\n        /* \"#utility.yul\":16681:17100   */\n    tag_203:\n        /* \"#utility.yul\":16847:16851   */\n      0x00\n        /* \"#utility.yul\":16885:16887   */\n      0x20\n        /* \"#utility.yul\":16874:16883   */\n      dup3\n        /* \"#utility.yul\":16870:16888   */\n      add\n        /* \"#utility.yul\":16862:16888   */\n      swap1\n      pop\n        /* \"#utility.yul\":16934:16943   */\n      dup2\n        /* \"#utility.yul\":16928:16932   */\n      dup2\n        /* \"#utility.yul\":16924:16944   */\n      sub\n        /* \"#utility.yul\":16920:16921   */\n      0x00\n        /* \"#utility.yul\":16909:16918   */\n      dup4\n        /* \"#utility.yul\":16905:16922   */\n      add\n        /* \"#utility.yul\":16898:16945   */\n      mstore\n        /* \"#utility.yul\":16962:17093   */\n      tag_667\n        /* \"#utility.yul\":17088:17092   */\n      dup2\n        /* \"#utility.yul\":16962:17093   */\n      tag_614\n      jump\t// in\n    tag_667:\n        /* \"#utility.yul\":16954:17093   */\n      swap1\n      pop\n        /* \"#utility.yul\":16681:17100   */\n      swap2\n      swap1\n      pop\n      jump\t// out\n        /* \"#utility.yul\":17106:17525   */\n    tag_245:\n        /* \"#utility.yul\":17272:17276   */\n      0x00\n        /* \"#utility.yul\":17310:17312   */\n      0x20\n        /* \"#utility.yul\":17299:17308   */\n      dup3\n        /* \"#utility.yul\":17295:17313   */\n      add\n        /* \"#utility.yul\":17287:17313   */\n      swap1\n      pop\n        /* \"#utility.yul\":17359:17368   */\n      dup2\n        /* \"#utility.yul\":17353:17357   */\n      dup2\n        /* \"#utility.yul\":17349:17369   */\n      sub\n        /* \"#utility.yul\":17345:17346   */\n      0x00\n        /* \"#utility.yul\":17334:17343   */\n      dup4\n        /* \"#utility.yul\":17330:17347   */\n      add\n        /* \"#utility.yul\":17323:17370   */\n      mstore\n        /* \"#utility.yul\":17387:17518   */\n      tag_669\n        /* \"#utility.yul\":17513:17517   */\n      dup2\n        /* \"#utility.yul\":17387:17518   */\n      tag_619\n      jump\t// in\n    tag_669:\n        /* \"#utility.yul\":17379:17518   */\n      swap1\n      pop\n        /* \"#utility.yul\":17106:17525   */\n      swap2\n      swap1\n      pop\n      jump\t// out\n        /* \"#utility.yul\":17531:17753   */\n    tag_59:\n        /* \"#utility.yul\":17624:17628   */\n      0x00\n        /* \"#utility.yul\":17662:17664   */\n      0x20\n        /* \"#utility.yul\":17651:17660   */\n      dup3\n        /* \"#utility.yul\":17647:17665   */\n      add\n        /* \"#utility.yul\":17639:17665   */\n      swap1\n      pop\n        /* \"#utility.yul\":17675:17746   */\n      tag_671\n        /* \"#utility.yul\":17743:17744   */\n      0x00\n        /* \"#utility.yul\":17732:17741   */\n      dup4\n        /* \"#utility.yul\":17728:17745   */\n      add\n        /* \"#utility.yul\":17719:17725   */\n      dup5\n        /* \"#utility.yul\":17675:17746   */\n      tag_624\n      jump\t// in\n    tag_671:\n        /* \"#utility.yul\":17531:17753   */\n      swap3\n      swap2\n      pop\n      pop\n      jump\t// out\n        /* \"#utility.yul\":17759:17973   */\n    tag_79:\n        /* \"#utility.yul\":17848:17852   */\n      0x00\n        /* \"#utility.yul\":17886:17888   */\n      0x20\n        /* \"#utility.yul\":17875:17884   */\n      dup3\n        /* \"#utility.yul\":17871:17889   */\n      add\n        /* \"#utility.yul\":17863:17889   */\n      swap1\n      pop\n        /* \"#utility.yul\":17899:17966   */\n      tag_673\n        /* \"#utility.yul\":17963:17964   */\n      0x00\n        /* \"#utility.yul\":17952:17961   */\n      dup4\n        /* \"#utility.yul\":17948:17965   */\n      add\n        /* \"#utility.yul\":17939:17945   */\n      dup5\n        /* \"#utility.yul\":17899:17966   */\n      tag_628\n      jump\t// in\n    tag_673:\n        /* \"#utility.yul\":17759:17973   */\n      swap3\n      swap2\n      pop\n      pop\n      jump\t// out\n        /* \"#utility.yul\":18060:18159   */\n    tag_537:\n        /* \"#utility.yul\":18112:18118   */\n      0x00\n        /* \"#utility.yul\":18146:18151   */\n      dup2\n        /* \"#utility.yul\":18140:18152   */\n      mload\n        /* \"#utility.yul\":18130:18152   */\n      swap1\n      pop\n        /* \"#utility.yul\":18060:18159   */\n      swap2\n      swap1\n      pop\n      jump\t// out\n        /* \"#utility.yul\":18165:18334   */\n    tag_539:\n        /* \"#utility.yul\":18249:18260   */\n      0x00\n        /* \"#utility.yul\":18283:18289   */\n      dup3\n        /* \"#utility.yul\":18278:18281   */\n      dup3\n        /* \"#utility.yul\":18271:18290   */\n      mstore\n        /* \"#utility.yul\":18323:18327   */\n      0x20\n        /* \"#utility.yul\":18318:18321   */\n      dup3\n        /* \"#utility.yul\":18314:18328   */\n      add\n        /* \"#utility.yul\":18299:18328   */\n      swap1\n      pop\n        /* \"#utility.yul\":18165:18334   */\n      swap3\n      swap2\n      pop\n      pop\n      jump\t// out\n        /* \"#utility.yul\":18340:18645   */\n    tag_258:\n        /* \"#utility.yul\":18380:18383   */\n      0x00\n        /* \"#utility.yul\":18399:18419   */\n      tag_679\n        /* \"#utility.yul\":18417:18418   */\n      dup3\n        /* \"#utility.yul\":18399:18419   */\n      tag_627\n      jump\t// in\n    tag_679:\n        /* \"#utility.yul\":18394:18419   */\n      swap2\n      pop\n        /* \"#utility.yul\":18433:18453   */\n      tag_680\n        /* \"#utility.yul\":18451:18452   */\n      dup4\n        /* \"#utility.yul\":18433:18453   */\n      tag_627\n      jump\t// in\n    tag_680:\n        /* \"#utility.yul\":18428:18453   */\n      swap3\n      pop\n        /* \"#utility.yul\":18587:18588   */\n      dup3\n        /* \"#utility.yul\":18519:18585   */\n      0xffffffffffffffffffffffffffffffffffffffffffffffffffffffffffffffff\n        /* \"#utility.yul\":18515:18589   */\n      sub\n        /* \"#utility.yul\":18512:18513   */\n      dup3\n        /* \"#utility.yul\":18509:18590   */\n      gt\n        /* \"#utility.yul\":18506:18613   */\n      iszero\n      tag_681\n      jumpi\n        /* \"#utility.yul\":18593:18611   */\n      tag_682\n      tag_683\n      jump\t// in\n    tag_682:\n        /* \"#utility.yul\":18506:18613   */\n    tag_681:\n        /* \"#utility.yul\":18637:18638   */\n      dup3\n        /* \"#utility.yul\":18634:18635   */\n      dup3\n        /* \"#utility.yul\":18630:18639   */\n      add\n        /* \"#utility.yul\":18623:18639   */\n      swap1\n      pop\n        /* \"#utility.yul\":18340:18645   */\n      swap3\n      swap2\n      pop\n      pop\n      jump\t// out\n        /* \"#utility.yul\":18651:18836   */\n    tag_447:\n        /* \"#utility.yul\":18691:18692   */\n      0x00\n        /* \"#utility.yul\":18708:18728   */\n      tag_685\n        /* \"#utility.yul\":18726:18727   */\n      dup3\n        /* \"#utility.yul\":18708:18728   */\n      tag_627\n      jump\t// in\n    tag_685:\n        /* \"#utility.yul\":18703:18728   */\n      swap2\n      pop\n        /* \"#utility.yul\":18742:18762   */\n      tag_686\n        /* \"#utility.yul\":18760:18761   */\n      dup4\n        /* \"#utility.yul\":18742:18762   */\n      tag_627\n      jump\t// in\n    tag_686:\n        /* \"#utility.yul\":18737:18762   */\n      swap3\n      pop\n        /* \"#utility.yul\":18781:18782   */\n      dup3\n        /* \"#utility.yul\":18771:18806   */\n      tag_687\n      jumpi\n        /* \"#utility.yul\":18786:18804   */\n      tag_688\n      tag_689\n      jump\t// in\n    tag_688:\n        /* \"#utility.yul\":18771:18806   */\n    tag_687:\n        /* \"#utility.yul\":18828:18829   */\n      dup3\n        /* \"#utility.yul\":18825:18826   */\n      dup3\n        /* \"#utility.yul\":18821:18830   */\n      div\n        /* \"#utility.yul\":18816:18830   */\n      swap1\n      pop\n        /* \"#utility.yul\":18651:18836   */\n      swap3\n      swap2\n      pop\n      pop\n      jump\t// out\n        /* \"#utility.yul\":18842:19190   */\n    tag_478:\n        /* \"#utility.yul\":18882:18889   */\n      0x00\n        /* \"#utility.yul\":18905:18925   */\n      tag_691\n        /* \"#utility.yul\":18923:18924   */\n      dup3\n        /* \"#utility.yul\":18905:18925   */\n      tag_627\n      jump\t// in\n    tag_691:\n        /* \"#utility.yul\":18900:18925   */\n      swap2\n      pop\n        /* \"#utility.yul\":18939:18959   */\n      tag_692\n        /* \"#utility.yul\":18957:18958   */\n      dup4\n        /* \"#utility.yul\":18939:18959   */\n      tag_627\n      jump\t// in\n    tag_692:\n        /* \"#utility.yul\":18934:18959   */\n      swap3\n      pop\n        /* \"#utility.yul\":19127:19128   */\n      dup2\n        /* \"#utility.yul\":19059:19125   */\n      0xffffffffffffffffffffffffffffffffffffffffffffffffffffffffffffffff\n        /* \"#utility.yul\":19055:19129   */\n      div\n        /* \"#utility.yul\":19052:19053   */\n      dup4\n        /* \"#utility.yul\":19049:19130   */\n      gt\n        /* \"#utility.yul\":19044:19045   */\n      dup3\n        /* \"#utility.yul\":19037:19046   */\n      iszero\n        /* \"#utility.yul\":19030:19047   */\n      iszero\n        /* \"#utility.yul\":19026:19131   */\n      and\n        /* \"#utility.yul\":19023:19154   */\n      iszero\n      tag_693\n      jumpi\n        /* \"#utility.yul\":19134:19152   */\n      tag_694\n      tag_683\n      jump\t// in\n    tag_694:\n        /* \"#utility.yul\":19023:19154   */\n    tag_693:\n        /* \"#utility.yul\":19182:19183   */\n      dup3\n        /* \"#utility.yul\":19179:19180   */\n      dup3\n        /* \"#utility.yul\":19175:19184   */\n      mul\n        /* \"#utility.yul\":19164:19184   */\n      swap1\n      pop\n        /* \"#utility.yul\":18842:19190   */\n      swap3\n      swap2\n      pop\n      pop\n      jump\t// out\n        /* \"#utility.yul\":19196:19387   */\n    tag_291:\n        /* \"#utility.yul\":19236:19240   */\n      0x00\n        /* \"#utility.yul\":19256:19276   */\n      tag_696\n        /* \"#utility.yul\":19274:19275   */\n      dup3\n        /* \"#utility.yul\":19256:19276   */\n      tag_627\n      jump\t// in\n    tag_696:\n        /* \"#utility.yul\":19251:19276   */\n      swap2\n      pop\n        /* \"#utility.yul\":19290:19310   */\n      tag_697\n        /* \"#utility.yul\":19308:19309   */\n      dup4\n        /* \"#utility.yul\":19290:19310   */\n      tag_627\n      jump\t// in\n    tag_697:\n        /* \"#utility.yul\":19285:19310   */\n      swap3\n      pop\n        /* \"#utility.yul\":19329:19330   */\n      dup3\n        /* \"#utility.yul\":19326:19327   */\n      dup3\n        /* \"#utility.yul\":19323:19331   */\n      lt\n        /* \"#utility.yul\":19320:19354   */\n      iszero\n      tag_698\n      jumpi\n        /* \"#utility.yul\":19334:19352   */\n      tag_699\n      tag_683\n      jump\t// in\n    tag_699:\n        /* \"#utility.yul\":19320:19354   */\n    tag_698:\n        /* \"#utility.yul\":19379:19380   */\n      dup3\n        /* \"#utility.yul\":19376:19377   */\n      dup3\n        /* \"#utility.yul\":19372:19381   */\n      sub\n        /* \"#utility.yul\":19364:19381   */\n      swap1\n      pop\n        /* \"#utility.yul\":19196:19387   */\n      swap3\n      swap2\n      pop\n      pop\n      jump\t// out\n        /* \"#utility.yul\":19393:19489   */\n    tag_529:\n        /* \"#utility.yul\":19430:19437   */\n      0x00\n        /* \"#utility.yul\":19459:19483   */\n      tag_701\n        /* \"#utility.yul\":19477:19482   */\n      dup3\n        /* \"#utility.yul\":19459:19483   */\n      tag_702\n      jump\t// in\n    tag_701:\n        /* \"#utility.yul\":19448:19483   */\n      swap1\n      pop\n        /* \"#utility.yul\":19393:19489   */\n      swap2\n      swap1\n      pop\n      jump\t// out\n        /* \"#utility.yul\":19495:19585   */\n    tag_533:\n        /* \"#utility.yul\":19529:19536   */\n      0x00\n        /* \"#utility.yul\":19572:19577   */\n      dup2\n        /* \"#utility.yul\":19565:19578   */\n      iszero\n        /* \"#utility.yul\":19558:19579   */\n      iszero\n        /* \"#utility.yul\":19547:19579   */\n      swap1\n      pop\n        /* \"#utility.yul\":19495:19585   */\n      swap2\n      swap1\n      pop\n      jump\t// out\n        /* \"#utility.yul\":19591:19717   */\n    tag_702:\n        /* \"#utility.yul\":19628:19635   */\n      0x00\n        /* \"#utility.yul\":19668:19710   */\n      0xffffffffffffffffffffffffffffffffffffffff\n        /* \"#utility.yul\":19661:19666   */\n      dup3\n        /* \"#utility.yul\":19657:19711   */\n      and\n        /* \"#utility.yul\":19646:19711   */\n      swap1\n      pop\n        /* \"#utility.yul\":19591:19717   */\n      swap2\n      swap1\n      pop\n      jump\t// out\n        /* \"#utility.yul\":19723:19800   */\n    tag_627:\n        /* \"#utility.yul\":19760:19767   */\n      0x00\n        /* \"#utility.yul\":19789:19794   */\n      dup2\n        /* \"#utility.yul\":19778:19794   */\n      swap1\n      pop\n        /* \"#utility.yul\":19723:19800   */\n      swap2\n      swap1\n      pop\n      jump\t// out\n        /* \"#utility.yul\":19806:19892   */\n    tag_631:\n        /* \"#utility.yul\":19841:19848   */\n      0x00\n        /* \"#utility.yul\":19881:19885   */\n      0xff\n        /* \"#utility.yul\":19874:19879   */\n      dup3\n        /* \"#utility.yul\":19870:19886   */\n      and\n        /* \"#utility.yul\":19859:19886   */\n      swap1\n      pop\n        /* \"#utility.yul\":19806:19892   */\n      swap2\n      swap1\n      pop\n      jump\t// out\n        /* \"#utility.yul\":19898:20205   */\n    tag_541:\n        /* \"#utility.yul\":19966:19967   */\n      0x00\n        /* \"#utility.yul\":19976:20089   */\n    tag_708:\n        /* \"#utility.yul\":19990:19996   */\n      dup4\n        /* \"#utility.yul\":19987:19988   */\n      dup2\n        /* \"#utility.yul\":19984:19997   */\n      lt\n        /* \"#utility.yul\":19976:20089   */\n      iszero\n      tag_710\n      jumpi\n        /* \"#utility.yul\":20075:20076   */\n      dup1\n        /* \"#utility.yul\":20070:20073   */\n      dup3\n        /* \"#utility.yul\":20066:20077   */\n      add\n        /* \"#utility.yul\":20060:20078   */\n      mload\n        /* \"#utility.yul\":20056:20057   */\n      dup2\n        /* \"#utility.yul\":20051:20054   */\n      dup5\n        /* \"#utility.yul\":20047:20058   */\n      add\n        /* \"#utility.yul\":20040:20079   */\n      mstore\n        /* \"#utility.yul\":20012:20014   */\n      0x20\n        /* \"#utility.yul\":20009:20010   */\n      dup2\n        /* \"#utility.yul\":20005:20015   */\n      add\n        /* \"#utility.yul\":20000:20015   */\n      swap1\n      pop\n        /* \"#utility.yul\":19976:20089   */\n      jump(tag_708)\n    tag_710:\n        /* \"#utility.yul\":20107:20113   */\n      dup4\n        /* \"#utility.yul\":20104:20105   */\n      dup2\n        /* \"#utility.yul\":20101:20114   */\n      gt\n        /* \"#utility.yul\":20098:20199   */\n      iszero\n      tag_711\n      jumpi\n        /* \"#utility.yul\":20187:20188   */\n      0x00\n        /* \"#utility.yul\":20178:20184   */\n      dup5\n        /* \"#utility.yul\":20173:20176   */\n      dup5\n        /* \"#utility.yul\":20169:20185   */\n      add\n        /* \"#utility.yul\":20162:20189   */\n      mstore\n        /* \"#utility.yul\":20098:20199   */\n    tag_711:\n        /* \"#utility.yul\":19947:20205   */\n      pop\n        /* \"#utility.yul\":19898:20205   */\n      pop\n      pop\n      pop\n      jump\t// out\n        /* \"#utility.yul\":20211:20531   */\n    tag_159:\n        /* \"#utility.yul\":20255:20261   */\n      0x00\n        /* \"#utility.yul\":20292:20293   */\n      0x02\n        /* \"#utility.yul\":20286:20290   */\n      dup3\n        /* \"#utility.yul\":20282:20294   */\n      div\n        /* \"#utility.yul\":20272:20294   */\n      swap1\n      pop\n        /* \"#utility.yul\":20339:20340   */\n      0x01\n        /* \"#utility.yul\":20333:20337   */\n      dup3\n        /* \"#utility.yul\":20329:20341   */\n      and\n        /* \"#utility.yul\":20360:20378   */\n      dup1\n        /* \"#utility.yul\":20350:20431   */\n      tag_713\n      jumpi\n        /* \"#utility.yul\":20416:20420   */\n      0x7f\n        /* \"#utility.yul\":20408:20414   */\n      dup3\n        /* \"#utility.yul\":20404:20421   */\n      and\n        /* \"#utility.yul\":20394:20421   */\n      swap2\n      pop\n        /* \"#utility.yul\":20350:20431   */\n    tag_713:\n        /* \"#utility.yul\":20478:20480   */\n      0x20\n        /* \"#utility.yul\":20470:20476   */\n      dup3\n        /* \"#utility.yul\":20467:20481   */\n      lt\n        /* \"#utility.yul\":20447:20465   */\n      dup2\n        /* \"#utility.yul\":20444:20482   */\n      eq\n        /* \"#utility.yul\":20441:20525   */\n      iszero\n      tag_714\n      jumpi\n        /* \"#utility.yul\":20497:20515   */\n      tag_715\n      tag_716\n      jump\t// in\n    tag_715:\n        /* \"#utility.yul\":20441:20525   */\n    tag_714:\n        /* \"#utility.yul\":20262:20531   */\n      pop\n        /* \"#utility.yul\":20211:20531   */\n      swap2\n      swap1\n      pop\n      jump\t// out\n        /* \"#utility.yul\":20537:20770   */\n    tag_303:\n        /* \"#utility.yul\":20576:20579   */\n      0x00\n        /* \"#utility.yul\":20599:20623   */\n      tag_718\n        /* \"#utility.yul\":20617:20622   */\n      dup3\n        /* \"#utility.yul\":20599:20623   */\n      tag_627\n      jump\t// in\n    tag_718:\n        /* \"#utility.yul\":20590:20623   */\n      swap2\n      pop\n        /* \"#utility.yul\":20645:20711   */\n      0xffffffffffffffffffffffffffffffffffffffffffffffffffffffffffffffff\n        /* \"#utility.yul\":20638:20643   */\n      dup3\n        /* \"#utility.yul\":20635:20712   */\n      eq\n        /* \"#utility.yul\":20632:20735   */\n      iszero\n      tag_719\n      jumpi\n        /* \"#utility.yul\":20715:20733   */\n      tag_720\n      tag_683\n      jump\t// in\n    tag_720:\n        /* \"#utility.yul\":20632:20735   */\n    tag_719:\n        /* \"#utility.yul\":20762:20763   */\n      0x01\n        /* \"#utility.yul\":20755:20760   */\n      dup3\n        /* \"#utility.yul\":20751:20764   */\n      add\n        /* \"#utility.yul\":20744:20764   */\n      swap1\n      pop\n        /* \"#utility.yul\":20537:20770   */\n      swap2\n      swap1\n      pop\n      jump\t// out\n        /* \"#utility.yul\":20776:20956   */\n    tag_683:\n        /* \"#utility.yul\":20824:20901   */\n      0x4e487b7100000000000000000000000000000000000000000000000000000000\n        /* \"#utility.yul\":20821:20822   */\n      0x00\n        /* \"#utility.yul\":20814:20902   */\n      mstore\n        /* \"#utility.yul\":20921:20925   */\n      0x11\n        /* \"#utility.yul\":20918:20919   */\n      0x04\n        /* \"#utility.yul\":20911:20926   */\n      mstore\n        /* \"#utility.yul\":20945:20949   */\n      0x24\n        /* \"#utility.yul\":20942:20943   */\n      0x00\n        /* \"#utility.yul\":20935:20950   */\n      revert\n        /* \"#utility.yul\":20962:21142   */\n    tag_689:\n        /* \"#utility.yul\":21010:21087   */\n      0x4e487b7100000000000000000000000000000000000000000000000000000000\n        /* \"#utility.yul\":21007:21008   */\n      0x00\n        /* \"#utility.yul\":21000:21088   */\n      mstore\n        /* \"#utility.yul\":21107:21111   */\n      0x12\n        /* \"#utility.yul\":21104:21105   */\n      0x04\n        /* \"#utility.yul\":21097:21112   */\n      mstore\n        /* \"#utility.yul\":21131:21135   */\n      0x24\n        /* \"#utility.yul\":21128:21129   */\n      0x00\n        /* \"#utility.yul\":21121:21136   */\n      revert\n        /* \"#utility.yul\":21148:21328   */\n    tag_716:\n        /* \"#utility.yul\":21196:21273   */\n      0x4e487b7100000000000000000000000000000000000000000000000000000000\n        /* \"#utility.yul\":21193:21194   */\n      0x00\n        /* \"#utility.yul\":21186:21274   */\n      mstore\n        /* \"#utility.yul\":21293:21297   */\n      0x22\n        /* \"#utility.yul\":21290:21291   */\n      0x04\n        /* \"#utility.yul\":21283:21298   */\n      mstore\n        /* \"#utility.yul\":21317:21321   */\n      0x24\n        /* \"#utility.yul\":21314:21315   */\n      0x00\n        /* \"#utility.yul\":21307:21322   */\n      revert\n        /* \"#utility.yul\":21334:21514   */\n    tag_300:\n        /* \"#utility.yul\":21382:21459   */\n      0x4e487b7100000000000000000000000000000000000000000000000000000000\n        /* \"#utility.yul\":21379:21380   */\n      0x00\n        /* \"#utility.yul\":21372:21460   */\n      mstore\n        /* \"#utility.yul\":21479:21483   */\n      0x31\n        /* \"#utility.yul\":21476:21477   */\n      0x04\n        /* \"#utility.yul\":21469:21484   */\n      mstore\n        /* \"#utility.yul\":21503:21507   */\n      0x24\n        /* \"#utility.yul\":21500:21501   */\n      0x00\n        /* \"#utility.yul\":21493:21508   */\n      revert\n        /* \"#utility.yul\":21520:21700   */\n    tag_287:\n        /* \"#utility.yul\":21568:21645   */\n      0x4e487b7100000000000000000000000000000000000000000000000000000000\n        /* \"#utility.yul\":21565:21566   */\n      0x00\n        /* \"#utility.yul\":21558:21646   */\n      mstore\n        /* \"#utility.yul\":21665:21669   */\n      0x32\n        /* \"#utility.yul\":21662:21663   */\n      0x04\n        /* \"#utility.yul\":21655:21670   */\n      mstore\n        /* \"#utility.yul\":21689:21693   */\n      0x24\n        /* \"#utility.yul\":21686:21687   */\n      0x00\n        /* \"#utility.yul\":21679:21694   */\n      revert\n        /* \"#utility.yul\":21829:21946   */\n    tag_499:\n        /* \"#utility.yul\":21938:21939   */\n      0x00\n        /* \"#utility.yul\":21935:21936   */\n      dup1\n        /* \"#utility.yul\":21928:21940   */\n      revert\n        /* \"#utility.yul\":21952:22054   */\n    tag_543:\n        /* \"#utility.yul\":21993:21999   */\n      0x00\n        /* \"#utility.yul\":22044:22046   */\n      0x1f\n        /* \"#utility.yul\":22040:22047   */\n      not\n        /* \"#utility.yul\":22035:22037   */\n      0x1f\n        /* \"#utility.yul\":22028:22033   */\n      dup4\n        /* \"#utility.yul\":22024:22038   */\n      add\n        /* \"#utility.yul\":22020:22048   */\n      and\n        /* \"#utility.yul\":22010:22048   */\n      swap1\n      pop\n        /* \"#utility.yul\":21952:22054   */\n      swap2\n      swap1\n      pop\n      jump\t// out\n        /* \"#utility.yul\":22060:22282   */\n    tag_548:\n        /* \"#utility.yul\":22200:22234   */\n      0x45524332303a207472616e7366657220746f20746865207a65726f2061646472\n        /* \"#utility.yul\":22196:22197   */\n      0x00\n        /* \"#utility.yul\":22188:22194   */\n      dup3\n        /* \"#utility.yul\":22184:22198   */\n      add\n        /* \"#utility.yul\":22177:22235   */\n      mstore\n        /* \"#utility.yul\":22269:22274   */\n      0x6573730000000000000000000000000000000000000000000000000000000000\n        /* \"#utility.yul\":22264:22266   */\n      0x20\n        /* \"#utility.yul\":22256:22262   */\n      dup3\n        /* \"#utility.yul\":22252:22267   */\n      add\n        /* \"#utility.yul\":22245:22275   */\n      mstore\n        /* \"#utility.yul\":22060:22282   */\n      pop\n      jump\t// out\n        /* \"#utility.yul\":22288:22517   */\n    tag_553:\n        /* \"#utility.yul\":22428:22462   */\n      0x416d6f756e74206d757374206265206c657373207468616e20746f74616c2072\n        /* \"#utility.yul\":22424:22425   */\n      0x00\n        /* \"#utility.yul\":22416:22422   */\n      dup3\n        /* \"#utility.yul\":22412:22426   */\n      add\n        /* \"#utility.yul\":22405:22463   */\n      mstore\n        /* \"#utility.yul\":22497:22509   */\n      0x65666c656374696f6e7300000000000000000000000000000000000000000000\n        /* \"#utility.yul\":22492:22494   */\n      0x20\n        /* \"#utility.yul\":22484:22490   */\n      dup3\n        /* \"#utility.yul\":22480:22495   */\n      add\n        /* \"#utility.yul\":22473:22510   */\n      mstore\n        /* \"#utility.yul\":22288:22517   */\n      pop\n      jump\t// out\n        /* \"#utility.yul\":22523:22748   */\n    tag_558:\n        /* \"#utility.yul\":22663:22697   */\n      0x4f776e61626c653a206e6577206f776e657220697320746865207a65726f2061\n        /* \"#utility.yul\":22659:22660   */\n      0x00\n        /* \"#utility.yul\":22651:22657   */\n      dup3\n        /* \"#utility.yul\":22647:22661   */\n      add\n        /* \"#utility.yul\":22640:22698   */\n      mstore\n        /* \"#utility.yul\":22732:22740   */\n      0x6464726573730000000000000000000000000000000000000000000000000000\n        /* \"#utility.yul\":22727:22729   */\n      0x20\n        /* \"#utility.yul\":22719:22725   */\n      dup3\n        /* \"#utility.yul\":22715:22730   */\n      add\n        /* \"#utility.yul\":22708:22741   */\n      mstore\n        /* \"#utility.yul\":22523:22748   */\n      pop\n      jump\t// out\n        /* \"#utility.yul\":22754:22975   */\n    tag_563:\n        /* \"#utility.yul\":22894:22928   */\n      0x45524332303a20617070726f766520746f20746865207a65726f206164647265\n        /* \"#utility.yul\":22890:22891   */\n      0x00\n        /* \"#utility.yul\":22882:22888   */\n      dup3\n        /* \"#utility.yul\":22878:22892   */\n      add\n        /* \"#utility.yul\":22871:22929   */\n      mstore\n        /* \"#utility.yul\":22963:22967   */\n      0x7373000000000000000000000000000000000000000000000000000000000000\n        /* \"#utility.yul\":22958:22960   */\n      0x20\n        /* \"#utility.yul\":22950:22956   */\n      dup3\n        /* \"#utility.yul\":22946:22961   */\n      add\n        /* \"#utility.yul\":22939:22968   */\n      mstore\n        /* \"#utility.yul\":22754:22975   */\n      pop\n      jump\t// out\n        /* \"#utility.yul\":22981:23158   */\n    tag_568:\n        /* \"#utility.yul\":23121:23150   */\n      0x536166654d6174683a206164646974696f6e206f766572666c6f770000000000\n        /* \"#utility.yul\":23117:23118   */\n      0x00\n        /* \"#utility.yul\":23109:23115   */\n      dup3\n        /* \"#utility.yul\":23105:23119   */\n      add\n        /* \"#utility.yul\":23098:23151   */\n      mstore\n        /* \"#utility.yul\":22981:23158   */\n      pop\n      jump\t// out\n        /* \"#utility.yul\":23164:23341   */\n    tag_573:\n        /* \"#utility.yul\":23304:23333   */\n      0x4163636f756e7420697320616c7265616479206578636c756465640000000000\n        /* \"#utility.yul\":23300:23301   */\n      0x00\n        /* \"#utility.yul\":23292:23298   */\n      dup3\n        /* \"#utility.yul\":23288:23302   */\n      add\n        /* \"#utility.yul\":23281:23334   */\n      mstore\n        /* \"#utility.yul\":23164:23341   */\n      pop\n      jump\t// out\n        /* \"#utility.yul\":23347:23528   */\n    tag_578:\n        /* \"#utility.yul\":23487:23520   */\n      0x416d6f756e74206d757374206265206c657373207468616e20737570706c7900\n        /* \"#utility.yul\":23483:23484   */\n      0x00\n        /* \"#utility.yul\":23475:23481   */\n      dup3\n        /* \"#utility.yul\":23471:23485   */\n      add\n        /* \"#utility.yul\":23464:23521   */\n      mstore\n        /* \"#utility.yul\":23347:23528   */\n      pop\n      jump\t// out\n        /* \"#utility.yul\":23534:23761   */\n    tag_583:\n        /* \"#utility.yul\":23674:23708   */\n      0x5472616e7366657220616d6f756e74206578636565647320746865206d617854\n        /* \"#utility.yul\":23670:23671   */\n      0x00\n        /* \"#utility.yul\":23662:23668   */\n      dup3\n        /* \"#utility.yul\":23658:23672   */\n      add\n        /* \"#utility.yul\":23651:23709   */\n      mstore\n        /* \"#utility.yul\":23743:23753   */\n      0x78416d6f756e742e000000000000000000000000000000000000000000000000\n        /* \"#utility.yul\":23738:23740   */\n      0x20\n        /* \"#utility.yul\":23730:23736   */\n      dup3\n        /* \"#utility.yul\":23726:23741   */\n      add\n        /* \"#utility.yul\":23719:23754   */\n      mstore\n        /* \"#utility.yul\":23534:23761   */\n      pop\n      jump\t// out\n        /* \"#utility.yul\":23767:23987   */\n    tag_588:\n        /* \"#utility.yul\":23907:23941   */\n      0x536166654d6174683a206d756c7469706c69636174696f6e206f766572666c6f\n        /* \"#utility.yul\":23903:23904   */\n      0x00\n        /* \"#utility.yul\":23895:23901   */\n      dup3\n        /* \"#utility.yul\":23891:23905   */\n      add\n        /* \"#utility.yul\":23884:23942   */\n      mstore\n        /* \"#utility.yul\":23976:23979   */\n      0x7700000000000000000000000000000000000000000000000000000000000000\n        /* \"#utility.yul\":23971:23973   */\n      0x20\n        /* \"#utility.yul\":23963:23969   */\n      dup3\n        /* \"#utility.yul\":23959:23974   */\n      add\n        /* \"#utility.yul\":23952:23980   */\n      mstore\n        /* \"#utility.yul\":23767:23987   */\n      pop\n      jump\t// out\n        /* \"#utility.yul\":23993:24175   */\n    tag_593:\n        /* \"#utility.yul\":24133:24167   */\n      0x4f776e61626c653a2063616c6c6572206973206e6f7420746865206f776e6572\n        /* \"#utility.yul\":24129:24130   */\n      0x00\n        /* \"#utility.yul\":24121:24127   */\n      dup3\n        /* \"#utility.yul\":24117:24131   */\n      add\n        /* \"#utility.yul\":24110:24168   */\n      mstore\n        /* \"#utility.yul\":23993:24175   */\n      pop\n      jump\t// out\n        /* \"#utility.yul\":24181:24409   */\n    tag_598:\n        /* \"#utility.yul\":24321:24355   */\n      0x5472616e7366657220616d6f756e74206d757374206265206772656174657220\n        /* \"#utility.yul\":24317:24318   */\n      0x00\n        /* \"#utility.yul\":24309:24315   */\n      dup3\n        /* \"#utility.yul\":24305:24319   */\n      add\n        /* \"#utility.yul\":24298:24356   */\n      mstore\n        /* \"#utility.yul\":24390:24401   */\n      0x7468616e207a65726f0000000000000000000000000000000000000000000000\n        /* \"#utility.yul\":24385:24387   */\n      0x20\n        /* \"#utility.yul\":24377:24383   */\n      dup3\n        /* \"#utility.yul\":24373:24388   */\n      add\n        /* \"#utility.yul\":24366:24402   */\n      mstore\n        /* \"#utility.yul\":24181:24409   */\n      pop\n      jump\t// out\n        /* \"#utility.yul\":24415:24639   */\n    tag_603:\n        /* \"#utility.yul\":24555:24589   */\n      0x45524332303a207472616e736665722066726f6d20746865207a65726f206164\n        /* \"#utility.yul\":24551:24552   */\n      0x00\n        /* \"#utility.yul\":24543:24549   */\n      dup3\n        /* \"#utility.yul\":24539:24553   */\n      add\n        /* \"#utility.yul\":24532:24590   */\n      mstore\n        /* \"#utility.yul\":24624:24631   */\n      0x6472657373000000000000000000000000000000000000000000000000000000\n        /* \"#utility.yul\":24619:24621   */\n      0x20\n        /* \"#utility.yul\":24611:24617   */\n      dup3\n        /* \"#utility.yul\":24607:24622   */\n      add\n        /* \"#utility.yul\":24600:24632   */\n      mstore\n        /* \"#utility.yul\":24415:24639   */\n      pop\n      jump\t// out\n        /* \"#utility.yul\":24645:24868   */\n    tag_608:\n        /* \"#utility.yul\":24785:24819   */\n      0x45524332303a20617070726f76652066726f6d20746865207a65726f20616464\n        /* \"#utility.yul\":24781:24782   */\n      0x00\n        /* \"#utility.yul\":24773:24779   */\n      dup3\n        /* \"#utility.yul\":24769:24783   */\n      add\n        /* \"#utility.yul\":24762:24820   */\n      mstore\n        /* \"#utility.yul\":24854:24860   */\n      0x7265737300000000000000000000000000000000000000000000000000000000\n        /* \"#utility.yul\":24849:24851   */\n      0x20\n        /* \"#utility.yul\":24841:24847   */\n      dup3\n        /* \"#utility.yul\":24837:24852   */\n      add\n        /* \"#utility.yul\":24830:24861   */\n      mstore\n        /* \"#utility.yul\":24645:24868   */\n      pop\n      jump\t// out\n        /* \"#utility.yul\":24874:25055   */\n    tag_613:\n        /* \"#utility.yul\":25014:25047   */\n      0x436f6e7472616374206973206c6f636b656420756e74696c2037206461797300\n        /* \"#utility.yul\":25010:25011   */\n      0x00\n        /* \"#utility.yul\":25002:25008   */\n      dup3\n        /* \"#utility.yul\":24998:25012   */\n      add\n        /* \"#utility.yul\":24991:25048   */\n      mstore\n        /* \"#utility.yul\":24874:25055   */\n      pop\n      jump\t// out\n        /* \"#utility.yul\":25061:25292   */\n    tag_618:\n        /* \"#utility.yul\":25201:25235   */\n      0x4578636c75646564206164647265737365732063616e6e6f742063616c6c2074\n        /* \"#utility.yul\":25197:25198   */\n      0x00\n        /* \"#utility.yul\":25189:25195   */\n      dup3\n        /* \"#utility.yul\":25185:25199   */\n      add\n        /* \"#utility.yul\":25178:25236   */\n      mstore\n        /* \"#utility.yul\":25270:25284   */\n      0x6869732066756e6374696f6e0000000000000000000000000000000000000000\n        /* \"#utility.yul\":25265:25267   */\n      0x20\n        /* \"#utility.yul\":25257:25263   */\n      dup3\n        /* \"#utility.yul\":25253:25268   */\n      add\n        /* \"#utility.yul\":25246:25285   */\n      mstore\n        /* \"#utility.yul\":25061:25292   */\n      pop\n      jump\t// out\n        /* \"#utility.yul\":25298:25520   */\n    tag_623:\n        /* \"#utility.yul\":25438:25472   */\n      0x596f7520646f6e27742068617665207065726d697373696f6e20746f20756e6c\n        /* \"#utility.yul\":25434:25435   */\n      0x00\n        /* \"#utility.yul\":25426:25432   */\n      dup3\n        /* \"#utility.yul\":25422:25436   */\n      add\n        /* \"#utility.yul\":25415:25473   */\n      mstore\n        /* \"#utility.yul\":25507:25512   */\n      0x6f636b0000000000000000000000000000000000000000000000000000000000\n        /* \"#utility.yul\":25502:25504   */\n      0x20\n        /* \"#utility.yul\":25494:25500   */\n      dup3\n        /* \"#utility.yul\":25490:25505   */\n      add\n        /* \"#utility.yul\":25483:25513   */\n      mstore\n        /* \"#utility.yul\":25298:25520   */\n      pop\n      jump\t// out\n        /* \"#utility.yul\":25526:25648   */\n    tag_487:\n        /* \"#utility.yul\":25599:25623   */\n      tag_747\n        /* \"#utility.yul\":25617:25622   */\n      dup2\n        /* \"#utility.yul\":25599:25623   */\n      tag_529\n      jump\t// in\n    tag_747:\n        /* \"#utility.yul\":25592:25597   */\n      dup2\n        /* \"#utility.yul\":25589:25624   */\n      eq\n        /* \"#utility.yul\":25579:25642   */\n      tag_748\n      jumpi\n        /* \"#utility.yul\":25638:25639   */\n      0x00\n        /* \"#utility.yul\":25635:25636   */\n      dup1\n        /* \"#utility.yul\":25628:25640   */\n      revert\n        /* \"#utility.yul\":25579:25642   */\n    tag_748:\n        /* \"#utility.yul\":25526:25648   */\n      pop\n      jump\t// out\n        /* \"#utility.yul\":25654:25770   */\n    tag_491:\n        /* \"#utility.yul\":25724:25745   */\n      tag_750\n        /* \"#utility.yul\":25739:25744   */\n      dup2\n        /* \"#utility.yul\":25724:25745   */\n      tag_533\n      jump\t// in\n    tag_750:\n        /* \"#utility.yul\":25717:25722   */\n      dup2\n        /* \"#utility.yul\":25714:25746   */\n      eq\n        /* \"#utility.yul\":25704:25764   */\n      tag_751\n      jumpi\n        /* \"#utility.yul\":25760:25761   */\n      0x00\n        /* \"#utility.yul\":25757:25758   */\n      dup1\n        /* \"#utility.yul\":25750:25762   */\n      revert\n        /* \"#utility.yul\":25704:25764   */\n    tag_751:\n        /* \"#utility.yul\":25654:25770   */\n      pop\n      jump\t// out\n        /* \"#utility.yul\":25776:25898   */\n    tag_495:\n        /* \"#utility.yul\":25849:25873   */\n      tag_753\n        /* \"#utility.yul\":25867:25872   */\n      dup2\n        /* \"#utility.yul\":25849:25873   */\n      tag_627\n      jump\t// in\n    tag_753:\n        /* \"#utility.yul\":25842:25847   */\n      dup2\n        /* \"#utility.yul\":25839:25874   */\n      eq\n        /* \"#utility.yul\":25829:25892   */\n      tag_754\n      jumpi\n        /* \"#utility.yul\":25888:25889   */\n      0x00\n        /* \"#utility.yul\":25885:25886   */\n      dup1\n        /* \"#utility.yul\":25878:25890   */\n      revert\n        /* \"#utility.yul\":25829:25892   */\n    tag_754:\n        /* \"#utility.yul\":25776:25898   */\n      pop\n      jump\t// out\n    stop\n    data_974d1b4421da69cc60b481194f0dad36a5bb4e23da810da7a7fb30cdba178330 45524332303a207472616e7366657220616d6f756e74206578636565647320616c6c6f77616e6365\n    data_f8b476f7d28209d77d4a4ac1fe36b9f8259aa1bb6bddfa6e89de7e51615cf8a8 45524332303a2064656372656173656420616c6c6f77616e63652062656c6f77207a65726f\n\n    auxdata: 0xa2646970667358221220a3a00d6b9650062542daea7f4723ce2fc67ab2b28e8371512ad7a771036f963b64736f6c63430008070033\n}\n",
				"bytecode": {
					"linkReferences": {},
					"object": "60806040526969e10de76676d08000006008556008546000196200002491906200047b565b60001962000033919062000400565b6009556040518060400160405280600381526020017f7465730000000000000000000000000000000000000000000000000000000000815250600b90805190602001906200008392919062000322565b506040518060400160405280600881526020017f4147554143415445000000000000000000000000000000000000000000000000815250600c9080519060200190620000d192919062000322565b506009600d60006101000a81548160ff021916908360ff1602179055506002600e55600e54600f55600660105560105460115561dead601260006101000a81548173ffffffffffffffffffffffffffffffffffffffff021916908373ffffffffffffffffffffffffffffffffffffffff160217905550680ad78ebc5ac62000006013553480156200016157600080fd5b5062000182620001766200025660201b60201c565b6200025e60201b60201c565b60095460036000620001996200025660201b60201c565b73ffffffffffffffffffffffffffffffffffffffff1673ffffffffffffffffffffffffffffffffffffffff16815260200190815260200160002081905550620001e76200025660201b60201c565b73ffffffffffffffffffffffffffffffffffffffff16600073ffffffffffffffffffffffffffffffffffffffff167fddf252ad1be2c89b69c2b068fc378daa952ba7f163c4a11628f55a4df523b3ef600854604051620002489190620003e3565b60405180910390a362000540565b600033905090565b60008060009054906101000a900473ffffffffffffffffffffffffffffffffffffffff169050816000806101000a81548173ffffffffffffffffffffffffffffffffffffffff021916908373ffffffffffffffffffffffffffffffffffffffff1602179055508173ffffffffffffffffffffffffffffffffffffffff168173ffffffffffffffffffffffffffffffffffffffff167f8be0079c531659141344cd1fd0a4f28419497f9722a3daafe3b4186f6b6457e060405160405180910390a35050565b828054620003309062000445565b90600052602060002090601f016020900481019282620003545760008555620003a0565b82601f106200036f57805160ff1916838001178555620003a0565b82800160010185558215620003a0579182015b828111156200039f57825182559160200191906001019062000382565b5b509050620003af9190620003b3565b5090565b5b80821115620003ce576000816000905550600101620003b4565b5090565b620003dd816200043b565b82525050565b6000602082019050620003fa6000830184620003d2565b92915050565b60006200040d826200043b565b91506200041a836200043b565b92508282101562000430576200042f620004b3565b5b828203905092915050565b6000819050919050565b600060028204905060018216806200045e57607f821691505b6020821081141562000475576200047462000511565b5b50919050565b600062000488826200043b565b915062000495836200043b565b925082620004a857620004a7620004e2565b5b828206905092915050565b7f4e487b7100000000000000000000000000000000000000000000000000000000600052601160045260246000fd5b7f4e487b7100000000000000000000000000000000000000000000000000000000600052601260045260246000fd5b7f4e487b7100000000000000000000000000000000000000000000000000000000600052602260045260246000fd5b61420d80620005506000396000f3fe608060405234801561001057600080fd5b50600436106101f05760003560e01c806370a082311161010f578063c0b0fda2116100a2578063f2cc0c1811610071578063f2cc0c18146105c1578063f2fde38b146105dd578063f7a91591146105f9578063f84354f114610617576101f0565b8063c0b0fda214610527578063cba0e99614610545578063dd46706414610575578063dd62ed3e14610591576101f0565b8063a457c2d7116100de578063a457c2d71461049f578063a69df4b5146104cf578063a9059cbb146104d9578063b6c5232414610509576101f0565b806370a0823114610429578063715018a6146104595780638da5cb5b1461046357806395d89b4114610481576101f0565b8063313ce567116101875780633bd5d173116101565780633bd5d173146103a35780634549b039146103bf5780635880b873146103ef5780636a39d32c1461040b576101f0565b8063313ce5671461031b57806339509351146103395780633b124fe7146103695780633b6b196114610387576101f0565b806318160ddd116101c357806318160ddd1461027f57806323b872dd1461029d5780632d838119146102cd5780632fbff030146102fd576101f0565b806301378f46146101f557806306fdde0314610213578063095ea7b31461023157806313114a9d14610261575b600080fd5b6101fd610633565b60405161020a9190613750565b60405180910390f35b61021b610659565b6040516102289190613786565b60405180910390f35b61024b600480360381019061024691906133fe565b6106eb565b604051610258919061376b565b60405180910390f35b610269610709565b60405161027691906139a8565b60405180910390f35b610287610713565b60405161029491906139a8565b60405180910390f35b6102b760048036038101906102b291906133ab565b61071d565b6040516102c4919061376b565b60405180910390f35b6102e760048036038101906102e2919061343e565b6107f6565b6040516102f491906139a8565b60405180910390f35b610305610864565b60405161031291906139a8565b60405180910390f35b61032361086e565b60405161033091906139c3565b60405180910390f35b610353600480360381019061034e91906133fe565b610885565b604051610360919061376b565b60405180910390f35b610371610938565b60405161037e91906139a8565b60405180910390f35b6103a1600480360381019061039c919061343e565b61093e565b005b6103bd60048036038101906103b8919061343e565b610950565b005b6103d960048036038101906103d4919061346b565b610acb565b6040516103e691906139a8565b60405180910390f35b6104096004803603810190610404919061343e565b610b4f565b005b610413610b61565b60405161042091906139a8565b60405180910390f35b610443600480360381019061043e919061333e565b610b6b565b60405161045091906139a8565b60405180910390f35b610461610c56565b005b61046b610c6a565b6040516104789190613750565b60405180910390f35b610489610c93565b6040516104969190613786565b60405180910390f35b6104b960048036038101906104b491906133fe565b610d25565b6040516104c6919061376b565b60405180910390f35b6104d7610df2565b005b6104f360048036038101906104ee91906133fe565b610fc6565b604051610500919061376b565b60405180910390f35b610511610fe4565b60405161051e91906139a8565b60405180910390f35b61052f610fee565b60405161053c91906139a8565b60405180910390f35b61055f600480360381019061055a919061333e565b610ff4565b60405161056c919061376b565b60405180910390f35b61058f600480360381019061058a919061343e565b61104a565b005b6105ab60048036038101906105a6919061336b565b611184565b6040516105b891906139a8565b60405180910390f35b6105db60048036038101906105d6919061333e565b61120b565b005b6105f760048036038101906105f2919061333e565b611432565b005b6106016114b6565b60405161060e91906139a8565b60405180910390f35b610631600480360381019061062c919061333e565b6114c0565b005b601260009054906101000a900473ffffffffffffffffffffffffffffffffffffffff1681565b6060600b805461066890613b97565b80601f016020809104026020016040519081016040528092919081815260200182805461069490613b97565b80156106e15780601f106106b6576101008083540402835291602001916106e1565b820191906000526020600020905b8154815290600101906020018083116106c457829003601f168201915b5050505050905090565b60006106ff6106f8611782565b848461178a565b6001905092915050565b6000600a54905090565b6000600854905090565b600061072a848484611955565b6107eb84610736611782565b6107e68560405180606001604052806028815260200161418b60289139600560008b73ffffffffffffffffffffffffffffffffffffffff1673ffffffffffffffffffffffffffffffffffffffff168152602001908152602001600020600061079c611782565b73ffffffffffffffffffffffffffffffffffffffff1673ffffffffffffffffffffffffffffffffffffffff16815260200190815260200160002054611e2d9092919063ffffffff16565b61178a565b600190509392505050565b600060095482111561083d576040517f08c379a0000000000000000000000000000000000000000000000000000000008152600401610834906137c8565b60405180910390fd5b6000610847611e91565b905061085c8184611ebc90919063ffffffff16565b915050919050565b6000600e54905090565b6000600d60009054906101000a900460ff16905090565b600061092e610892611782565b8461092985600560006108a3611782565b73ffffffffffffffffffffffffffffffffffffffff1673ffffffffffffffffffffffffffffffffffffffff16815260200190815260200160002060008973ffffffffffffffffffffffffffffffffffffffff1673ffffffffffffffffffffffffffffffffffffffff16815260200190815260200160002054611f0690919063ffffffff16565b61178a565b6001905092915050565b600e5481565b610946611f64565b8060108190555050565b600061095a611782565b9050600660008273ffffffffffffffffffffffffffffffffffffffff1673ffffffffffffffffffffffffffffffffffffffff16815260200190815260200160002060009054906101000a900460ff16156109e9576040517f08c379a00000000000000000000000000000000000000000000000000000000081526004016109e090613968565b60405180910390fd5b60006109f483611fe2565b50505050509050610a4d81600360008573ffffffffffffffffffffffffffffffffffffffff1673ffffffffffffffffffffffffffffffffffffffff1681526020019081526020016000205461204490919063ffffffff16565b600360008473ffffffffffffffffffffffffffffffffffffffff1673ffffffffffffffffffffffffffffffffffffffff16815260200190815260200160002081905550610aa58160095461204490919063ffffffff16565b600981905550610ac083600a54611f0690919063ffffffff16565b600a81905550505050565b6000600854831115610b12576040517f08c379a0000000000000000000000000000000000000000000000000000000008152600401610b0990613868565b60405180910390fd5b81610b32576000610b2284611fe2565b5050505050905080915050610b49565b6000610b3d84611fe2565b50505050915050809150505b92915050565b610b57611f64565b80600e8190555050565b6000601054905090565b6000600660008373ffffffffffffffffffffffffffffffffffffffff1673ffffffffffffffffffffffffffffffffffffffff16815260200190815260200160002060009054906101000a900460ff1615610c0657600460008373ffffffffffffffffffffffffffffffffffffffff1673ffffffffffffffffffffffffffffffffffffffff168152602001908152602001600020549050610c51565b610c4e600360008473ffffffffffffffffffffffffffffffffffffffff1673ffffffffffffffffffffffffffffffffffffffff168152602001908152602001600020546107f6565b90505b919050565b610c5e611f64565b610c68600061208e565b565b60008060009054906101000a900473ffffffffffffffffffffffffffffffffffffffff16905090565b6060600c8054610ca290613b97565b80601f0160208091040260200160405190810160405280929190818152602001828054610cce90613b97565b8015610d1b5780601f10610cf057610100808354040283529160200191610d1b565b820191906000526020600020905b815481529060010190602001808311610cfe57829003601f168201915b5050505050905090565b6000610de8610d32611782565b84610de3856040518060600160405280602581526020016141b36025913960056000610d5c611782565b73ffffffffffffffffffffffffffffffffffffffff1673ffffffffffffffffffffffffffffffffffffffff16815260200190815260200160002060008a73ffffffffffffffffffffffffffffffffffffffff1673ffffffffffffffffffffffffffffffffffffffff16815260200190815260200160002054611e2d9092919063ffffffff16565b61178a565b6001905092915050565b3373ffffffffffffffffffffffffffffffffffffffff16600160009054906101000a900473ffffffffffffffffffffffffffffffffffffffff1673ffffffffffffffffffffffffffffffffffffffff1614610e82576040517f08c379a0000000000000000000000000000000000000000000000000000000008152600401610e7990613988565b60405180910390fd5b6002544211610ec6576040517f08c379a0000000000000000000000000000000000000000000000000000000008152600401610ebd90613948565b60405180910390fd5b600160009054906101000a900473ffffffffffffffffffffffffffffffffffffffff1673ffffffffffffffffffffffffffffffffffffffff1660008054906101000a900473ffffffffffffffffffffffffffffffffffffffff1673ffffffffffffffffffffffffffffffffffffffff167f8be0079c531659141344cd1fd0a4f28419497f9722a3daafe3b4186f6b6457e060405160405180910390a3600160009054906101000a900473ffffffffffffffffffffffffffffffffffffffff166000806101000a81548173ffffffffffffffffffffffffffffffffffffffff021916908373ffffffffffffffffffffffffffffffffffffffff160217905550565b6000610fda610fd3611782565b8484611955565b6001905092915050565b6000600254905090565b60105481565b6000600660008373ffffffffffffffffffffffffffffffffffffffff1673ffffffffffffffffffffffffffffffffffffffff16815260200190815260200160002060009054906101000a900460ff169050919050565b611052611f64565b60008054906101000a900473ffffffffffffffffffffffffffffffffffffffff16600160006101000a81548173ffffffffffffffffffffffffffffffffffffffff021916908373ffffffffffffffffffffffffffffffffffffffff16021790555060008060006101000a81548173ffffffffffffffffffffffffffffffffffffffff021916908373ffffffffffffffffffffffffffffffffffffffff160217905550804261110091906139fa565b600281905550600073ffffffffffffffffffffffffffffffffffffffff1660008054906101000a900473ffffffffffffffffffffffffffffffffffffffff1673ffffffffffffffffffffffffffffffffffffffff167f8be0079c531659141344cd1fd0a4f28419497f9722a3daafe3b4186f6b6457e060405160405180910390a350565b6000600560008473ffffffffffffffffffffffffffffffffffffffff1673ffffffffffffffffffffffffffffffffffffffff16815260200190815260200160002060008373ffffffffffffffffffffffffffffffffffffffff1673ffffffffffffffffffffffffffffffffffffffff16815260200190815260200160002054905092915050565b611213611f64565b600660008273ffffffffffffffffffffffffffffffffffffffff1673ffffffffffffffffffffffffffffffffffffffff16815260200190815260200160002060009054906101000a900460ff16156112a0576040517f08c379a000000000000000000000000000000000000000000000000000000000815260040161129790613848565b60405180910390fd5b6000600360008373ffffffffffffffffffffffffffffffffffffffff1673ffffffffffffffffffffffffffffffffffffffff16815260200190815260200160002054111561137457611330600360008373ffffffffffffffffffffffffffffffffffffffff1673ffffffffffffffffffffffffffffffffffffffff168152602001908152602001600020546107f6565b600460008373ffffffffffffffffffffffffffffffffffffffff1673ffffffffffffffffffffffffffffffffffffffff168152602001908152602001600020819055505b6001600660008373ffffffffffffffffffffffffffffffffffffffff1673ffffffffffffffffffffffffffffffffffffffff16815260200190815260200160002060006101000a81548160ff0219169083151502179055506007819080600181540180825580915050600190039060005260206000200160009091909190916101000a81548173ffffffffffffffffffffffffffffffffffffffff021916908373ffffffffffffffffffffffffffffffffffffffff16021790555050565b61143a611f64565b600073ffffffffffffffffffffffffffffffffffffffff168173ffffffffffffffffffffffffffffffffffffffff1614156114aa576040517f08c379a00000000000000000000000000000000000000000000000000000000081526004016114a1906137e8565b60405180910390fd5b6114b38161208e565b50565b6000601354905090565b6114c8611f64565b600660008273ffffffffffffffffffffffffffffffffffffffff1673ffffffffffffffffffffffffffffffffffffffff16815260200190815260200160002060009054906101000a900460ff16611554576040517f08c379a000000000000000000000000000000000000000000000000000000000815260040161154b90613848565b60405180910390fd5b60005b60078054905081101561177e578173ffffffffffffffffffffffffffffffffffffffff166007828154811061158f5761158e613cce565b5b9060005260206000200160009054906101000a900473ffffffffffffffffffffffffffffffffffffffff1673ffffffffffffffffffffffffffffffffffffffff16141561176b57600760016007805490506115ea9190613adb565b815481106115fb576115fa613cce565b5b9060005260206000200160009054906101000a900473ffffffffffffffffffffffffffffffffffffffff166007828154811061163a57611639613cce565b5b9060005260206000200160006101000a81548173ffffffffffffffffffffffffffffffffffffffff021916908373ffffffffffffffffffffffffffffffffffffffff1602179055506000600460008473ffffffffffffffffffffffffffffffffffffffff1673ffffffffffffffffffffffffffffffffffffffff168152602001908152602001600020819055506000600660008473ffffffffffffffffffffffffffffffffffffffff1673ffffffffffffffffffffffffffffffffffffffff16815260200190815260200160002060006101000a81548160ff021916908315150217905550600780548061173157611730613c9f565b5b6001900381819060005260206000200160006101000a81549073ffffffffffffffffffffffffffffffffffffffff0219169055905561177e565b808061177690613bc9565b915050611557565b5050565b600033905090565b600073ffffffffffffffffffffffffffffffffffffffff168373ffffffffffffffffffffffffffffffffffffffff1614156117fa576040517f08c379a00000000000000000000000000000000000000000000000000000000081526004016117f190613928565b60405180910390fd5b600073ffffffffffffffffffffffffffffffffffffffff168273ffffffffffffffffffffffffffffffffffffffff16141561186a576040517f08c379a000000000000000000000000000000000000000000000000000000000815260040161186190613808565b60405180910390fd5b80600560008573ffffffffffffffffffffffffffffffffffffffff1673ffffffffffffffffffffffffffffffffffffffff16815260200190815260200160002060008473ffffffffffffffffffffffffffffffffffffffff1673ffffffffffffffffffffffffffffffffffffffff168152602001908152602001600020819055508173ffffffffffffffffffffffffffffffffffffffff168373ffffffffffffffffffffffffffffffffffffffff167f8c5be1e5ebec7d5bd14f71427d1e84f3dd0314c0f7b2291e5b200ac8c7c3b9258360405161194891906139a8565b60405180910390a3505050565b600073ffffffffffffffffffffffffffffffffffffffff168373ffffffffffffffffffffffffffffffffffffffff1614156119c5576040517f08c379a00000000000000000000000000000000000000000000000000000000081526004016119bc90613908565b60405180910390fd5b600073ffffffffffffffffffffffffffffffffffffffff168273ffffffffffffffffffffffffffffffffffffffff161415611a35576040517f08c379a0000000000000000000000000000000000000000000000000000000008152600401611a2c906137a8565b60405180910390fd5b60008111611a78576040517f08c379a0000000000000000000000000000000000000000000000000000000008152600401611a6f906138e8565b60405180910390fd5b611a80610c6a565b73ffffffffffffffffffffffffffffffffffffffff168373ffffffffffffffffffffffffffffffffffffffff1614158015611aee5750611abe610c6a565b73ffffffffffffffffffffffffffffffffffffffff168273ffffffffffffffffffffffffffffffffffffffff1614155b15611b3957601354811115611b38576040517f08c379a0000000000000000000000000000000000000000000000000000000008152600401611b2f90613888565b60405180910390fd5b5b600660008473ffffffffffffffffffffffffffffffffffffffff1673ffffffffffffffffffffffffffffffffffffffff16815260200190815260200160002060009054906101000a900460ff168015611bdc5750600660008373ffffffffffffffffffffffffffffffffffffffff1673ffffffffffffffffffffffffffffffffffffffff16815260200190815260200160002060009054906101000a900460ff16155b15611bf157611bec838383612152565b611e28565b600660008473ffffffffffffffffffffffffffffffffffffffff1673ffffffffffffffffffffffffffffffffffffffff16815260200190815260200160002060009054906101000a900460ff16158015611c945750600660008373ffffffffffffffffffffffffffffffffffffffff1673ffffffffffffffffffffffffffffffffffffffff16815260200190815260200160002060009054906101000a900460ff165b15611ca957611ca4838383612439565b611e27565b600660008473ffffffffffffffffffffffffffffffffffffffff1673ffffffffffffffffffffffffffffffffffffffff16815260200190815260200160002060009054906101000a900460ff16158015611d4d5750600660008373ffffffffffffffffffffffffffffffffffffffff1673ffffffffffffffffffffffffffffffffffffffff16815260200190815260200160002060009054906101000a900460ff16155b15611d6257611d5d838383612720565b611e26565b600660008473ffffffffffffffffffffffffffffffffffffffff1673ffffffffffffffffffffffffffffffffffffffff16815260200190815260200160002060009054906101000a900460ff168015611e045750600660008373ffffffffffffffffffffffffffffffffffffffff1673ffffffffffffffffffffffffffffffffffffffff16815260200190815260200160002060009054906101000a900460ff165b15611e1957611e14838383612972565b611e25565b611e24838383612720565b5b5b5b5b505050565b6000838311158290611e75576040517f08c379a0000000000000000000000000000000000000000000000000000000008152600401611e6c9190613786565b60405180910390fd5b5060008385611e849190613adb565b9050809150509392505050565b6000806000611e9e612cee565b91509150611eb58183611ebc90919063ffffffff16565b9250505090565b6000611efe83836040518060400160405280601a81526020017f536166654d6174683a206469766973696f6e206279207a65726f000000000000815250612fa1565b905092915050565b6000808284611f1591906139fa565b905083811015611f5a576040517f08c379a0000000000000000000000000000000000000000000000000000000008152600401611f5190613828565b60405180910390fd5b8091505092915050565b611f6c611782565b73ffffffffffffffffffffffffffffffffffffffff16611f8a610c6a565b73ffffffffffffffffffffffffffffffffffffffff1614611fe0576040517f08c379a0000000000000000000000000000000000000000000000000000000008152600401611fd7906138c8565b60405180910390fd5b565b6000806000806000806000806000611ff98a613004565b9250925092506000612009611e91565b9050600080600061201c8e87878761305e565b9250925092508282828989899c509c509c509c509c509c505050505050505091939550919395565b600061208683836040518060400160405280601f81526020017f536166654d6174683a207375627472616374696f6e20756e646572666c6f7700815250611e2d565b905092915050565b60008060009054906101000a900473ffffffffffffffffffffffffffffffffffffffff169050816000806101000a81548173ffffffffffffffffffffffffffffffffffffffff021916908373ffffffffffffffffffffffffffffffffffffffff1602179055508173ffffffffffffffffffffffffffffffffffffffff168173ffffffffffffffffffffffffffffffffffffffff167f8be0079c531659141344cd1fd0a4f28419497f9722a3daafe3b4186f6b6457e060405160405180910390a35050565b60008060008060008061216487611fe2565b9550955095509550955095506121c287600460008c73ffffffffffffffffffffffffffffffffffffffff1673ffffffffffffffffffffffffffffffffffffffff1681526020019081526020016000205461204490919063ffffffff16565b600460008b73ffffffffffffffffffffffffffffffffffffffff1673ffffffffffffffffffffffffffffffffffffffff1681526020019081526020016000208190555061225786600360008c73ffffffffffffffffffffffffffffffffffffffff1673ffffffffffffffffffffffffffffffffffffffff1681526020019081526020016000205461204490919063ffffffff16565b600360008b73ffffffffffffffffffffffffffffffffffffffff1673ffffffffffffffffffffffffffffffffffffffff168152602001908152602001600020819055506122ec85600360008b73ffffffffffffffffffffffffffffffffffffffff1673ffffffffffffffffffffffffffffffffffffffff16815260200190815260200160002054611f0690919063ffffffff16565b600360008a73ffffffffffffffffffffffffffffffffffffffff1673ffffffffffffffffffffffffffffffffffffffff16815260200190815260200160002081905550612338816130e7565b61234284836131e8565b601260009054906101000a900473ffffffffffffffffffffffffffffffffffffffff1673ffffffffffffffffffffffffffffffffffffffff168973ffffffffffffffffffffffffffffffffffffffff167fddf252ad1be2c89b69c2b068fc378daa952ba7f163c4a11628f55a4df523b3ef836040516123c191906139a8565b60405180910390a38773ffffffffffffffffffffffffffffffffffffffff168973ffffffffffffffffffffffffffffffffffffffff167fddf252ad1be2c89b69c2b068fc378daa952ba7f163c4a11628f55a4df523b3ef8560405161242691906139a8565b60405180910390a3505050505050505050565b60008060008060008061244b87611fe2565b9550955095509550955095506124a986600360008c73ffffffffffffffffffffffffffffffffffffffff1673ffffffffffffffffffffffffffffffffffffffff1681526020019081526020016000205461204490919063ffffffff16565b600360008b73ffffffffffffffffffffffffffffffffffffffff1673ffffffffffffffffffffffffffffffffffffffff1681526020019081526020016000208190555061253e83600460008b73ffffffffffffffffffffffffffffffffffffffff1673ffffffffffffffffffffffffffffffffffffffff16815260200190815260200160002054611f0690919063ffffffff16565b600460008a73ffffffffffffffffffffffffffffffffffffffff1673ffffffffffffffffffffffffffffffffffffffff168152602001908152602001600020819055506125d385600360008b73ffffffffffffffffffffffffffffffffffffffff1673ffffffffffffffffffffffffffffffffffffffff16815260200190815260200160002054611f0690919063ffffffff16565b600360008a73ffffffffffffffffffffffffffffffffffffffff1673ffffffffffffffffffffffffffffffffffffffff1681526020019081526020016000208190555061261f816130e7565b61262984836131e8565b601260009054906101000a900473ffffffffffffffffffffffffffffffffffffffff1673ffffffffffffffffffffffffffffffffffffffff168973ffffffffffffffffffffffffffffffffffffffff167fddf252ad1be2c89b69c2b068fc378daa952ba7f163c4a11628f55a4df523b3ef836040516126a891906139a8565b60405180910390a38773ffffffffffffffffffffffffffffffffffffffff168973ffffffffffffffffffffffffffffffffffffffff167fddf252ad1be2c89b69c2b068fc378daa952ba7f163c4a11628f55a4df523b3ef8560405161270d91906139a8565b60405180910390a3505050505050505050565b60008060008060008061273287611fe2565b95509550955095509550955061279086600360008c73ffffffffffffffffffffffffffffffffffffffff1673ffffffffffffffffffffffffffffffffffffffff1681526020019081526020016000205461204490919063ffffffff16565b600360008b73ffffffffffffffffffffffffffffffffffffffff1673ffffffffffffffffffffffffffffffffffffffff1681526020019081526020016000208190555061282585600360008b73ffffffffffffffffffffffffffffffffffffffff1673ffffffffffffffffffffffffffffffffffffffff16815260200190815260200160002054611f0690919063ffffffff16565b600360008a73ffffffffffffffffffffffffffffffffffffffff1673ffffffffffffffffffffffffffffffffffffffff16815260200190815260200160002081905550612871816130e7565b61287b84836131e8565b601260009054906101000a900473ffffffffffffffffffffffffffffffffffffffff1673ffffffffffffffffffffffffffffffffffffffff168973ffffffffffffffffffffffffffffffffffffffff167fddf252ad1be2c89b69c2b068fc378daa952ba7f163c4a11628f55a4df523b3ef836040516128fa91906139a8565b60405180910390a38773ffffffffffffffffffffffffffffffffffffffff168973ffffffffffffffffffffffffffffffffffffffff167fddf252ad1be2c89b69c2b068fc378daa952ba7f163c4a11628f55a4df523b3ef8560405161295f91906139a8565b60405180910390a3505050505050505050565b60008060008060008061298487611fe2565b9550955095509550955095506129e287600460008c73ffffffffffffffffffffffffffffffffffffffff1673ffffffffffffffffffffffffffffffffffffffff1681526020019081526020016000205461204490919063ffffffff16565b600460008b73ffffffffffffffffffffffffffffffffffffffff1673ffffffffffffffffffffffffffffffffffffffff16815260200190815260200160002081905550612a7786600360008c73ffffffffffffffffffffffffffffffffffffffff1673ffffffffffffffffffffffffffffffffffffffff1681526020019081526020016000205461204490919063ffffffff16565b600360008b73ffffffffffffffffffffffffffffffffffffffff1673ffffffffffffffffffffffffffffffffffffffff16815260200190815260200160002081905550612b0c83600460008b73ffffffffffffffffffffffffffffffffffffffff1673ffffffffffffffffffffffffffffffffffffffff16815260200190815260200160002054611f0690919063ffffffff16565b600460008a73ffffffffffffffffffffffffffffffffffffffff1673ffffffffffffffffffffffffffffffffffffffff16815260200190815260200160002081905550612ba185600360008b73ffffffffffffffffffffffffffffffffffffffff1673ffffffffffffffffffffffffffffffffffffffff16815260200190815260200160002054611f0690919063ffffffff16565b600360008a73ffffffffffffffffffffffffffffffffffffffff1673ffffffffffffffffffffffffffffffffffffffff16815260200190815260200160002081905550612bed816130e7565b612bf784836131e8565b601260009054906101000a900473ffffffffffffffffffffffffffffffffffffffff1673ffffffffffffffffffffffffffffffffffffffff168973ffffffffffffffffffffffffffffffffffffffff167fddf252ad1be2c89b69c2b068fc378daa952ba7f163c4a11628f55a4df523b3ef83604051612c7691906139a8565b60405180910390a38773ffffffffffffffffffffffffffffffffffffffff168973ffffffffffffffffffffffffffffffffffffffff167fddf252ad1be2c89b69c2b068fc378daa952ba7f163c4a11628f55a4df523b3ef85604051612cdb91906139a8565b60405180910390a3505050505050505050565b600080600060095490506000600854905060005b600780549050811015612f6457826003600060078481548110612d2857612d27613cce565b5b9060005260206000200160009054906101000a900473ffffffffffffffffffffffffffffffffffffffff1673ffffffffffffffffffffffffffffffffffffffff1673ffffffffffffffffffffffffffffffffffffffff168152602001908152602001600020541180612e165750816004600060078481548110612dae57612dad613cce565b5b9060005260206000200160009054906101000a900473ffffffffffffffffffffffffffffffffffffffff1673ffffffffffffffffffffffffffffffffffffffff1673ffffffffffffffffffffffffffffffffffffffff16815260200190815260200160002054115b15612e2d5760095460085494509450505050612f9d565b612ebd6003600060078481548110612e4857612e47613cce565b5b9060005260206000200160009054906101000a900473ffffffffffffffffffffffffffffffffffffffff1673ffffffffffffffffffffffffffffffffffffffff1673ffffffffffffffffffffffffffffffffffffffff168152602001908152602001600020548461204490919063ffffffff16565b9250612f4f6004600060078481548110612eda57612ed9613cce565b5b9060005260206000200160009054906101000a900473ffffffffffffffffffffffffffffffffffffffff1673ffffffffffffffffffffffffffffffffffffffff1673ffffffffffffffffffffffffffffffffffffffff168152602001908152602001600020548361204490919063ffffffff16565b91508080612f5c90613bc9565b915050612d02565b50612f7c600854600954611ebc90919063ffffffff16565b821015612f9457600954600854935093505050612f9d565b81819350935050505b9091565b60008083118290612fe8576040517f08c379a0000000000000000000000000000000000000000000000000000000008152600401612fdf9190613786565b60405180910390fd5b5060008385612ff79190613a50565b9050809150509392505050565b60008060008061301385613222565b9050600061302086613253565b905060006130498261303b858a61204490919063ffffffff16565b61204490919063ffffffff16565b90508083839550955095505050509193909250565b600080600080613077858961328490919063ffffffff16565b9050600061308e868961328490919063ffffffff16565b905060006130a5878961328490919063ffffffff16565b905060006130ce826130c0858761204490919063ffffffff16565b61204490919063ffffffff16565b9050838184965096509650505050509450945094915050565b60006130f1611e91565b90506000613108828461328490919063ffffffff16565b905061317e8160036000601260009054906101000a900473ffffffffffffffffffffffffffffffffffffffff1673ffffffffffffffffffffffffffffffffffffffff1673ffffffffffffffffffffffffffffffffffffffff16815260200190815260200160002054611f0690919063ffffffff16565b60036000601260009054906101000a900473ffffffffffffffffffffffffffffffffffffffff1673ffffffffffffffffffffffffffffffffffffffff1673ffffffffffffffffffffffffffffffffffffffff16815260200190815260200160002081905550505050565b6131fd8260095461204490919063ffffffff16565b60098190555061321881600a54611f0690919063ffffffff16565b600a819055505050565b600061324c606461323e600e548561328490919063ffffffff16565b611ebc90919063ffffffff16565b9050919050565b600061327d606461326f6010548561328490919063ffffffff16565b611ebc90919063ffffffff16565b9050919050565b60008083141561329757600090506132f9565b600082846132a59190613a81565b90508284826132b49190613a50565b146132f4576040517f08c379a00000000000000000000000000000000000000000000000000000000081526004016132eb906138a8565b60405180910390fd5b809150505b92915050565b60008135905061330e81614145565b92915050565b6000813590506133238161415c565b92915050565b60008135905061333881614173565b92915050565b60006020828403121561335457613353613cfd565b5b6000613362848285016132ff565b91505092915050565b6000806040838503121561338257613381613cfd565b5b6000613390858286016132ff565b92505060206133a1858286016132ff565b9150509250929050565b6000806000606084860312156133c4576133c3613cfd565b5b60006133d2868287016132ff565b93505060206133e3868287016132ff565b92505060406133f486828701613329565b9150509250925092565b6000806040838503121561341557613414613cfd565b5b6000613423858286016132ff565b925050602061343485828601613329565b9150509250929050565b60006020828403121561345457613453613cfd565b5b600061346284828501613329565b91505092915050565b6000806040838503121561348257613481613cfd565b5b600061349085828601613329565b92505060206134a185828601613314565b9150509250929050565b6134b481613b0f565b82525050565b6134c381613b21565b82525050565b60006134d4826139de565b6134de81856139e9565b93506134ee818560208601613b64565b6134f781613d02565b840191505092915050565b600061350f6023836139e9565b915061351a82613d13565b604082019050919050565b6000613532602a836139e9565b915061353d82613d62565b604082019050919050565b60006135556026836139e9565b915061356082613db1565b604082019050919050565b60006135786022836139e9565b915061358382613e00565b604082019050919050565b600061359b601b836139e9565b91506135a682613e4f565b602082019050919050565b60006135be601b836139e9565b91506135c982613e78565b602082019050919050565b60006135e1601f836139e9565b91506135ec82613ea1565b602082019050919050565b60006136046028836139e9565b915061360f82613eca565b604082019050919050565b60006136276021836139e9565b915061363282613f19565b604082019050919050565b600061364a6020836139e9565b915061365582613f68565b602082019050919050565b600061366d6029836139e9565b915061367882613f91565b604082019050919050565b60006136906025836139e9565b915061369b82613fe0565b604082019050919050565b60006136b36024836139e9565b91506136be8261402f565b604082019050919050565b60006136d6601f836139e9565b91506136e18261407e565b602082019050919050565b60006136f9602c836139e9565b9150613704826140a7565b604082019050919050565b600061371c6023836139e9565b9150613727826140f6565b604082019050919050565b61373b81613b4d565b82525050565b61374a81613b57565b82525050565b600060208201905061376560008301846134ab565b92915050565b600060208201905061378060008301846134ba565b92915050565b600060208201905081810360008301526137a081846134c9565b905092915050565b600060208201905081810360008301526137c181613502565b9050919050565b600060208201905081810360008301526137e181613525565b9050919050565b6000602082019050818103600083015261380181613548565b9050919050565b600060208201905081810360008301526138218161356b565b9050919050565b600060208201905081810360008301526138418161358e565b9050919050565b60006020820190508181036000830152613861816135b1565b9050919050565b60006020820190508181036000830152613881816135d4565b9050919050565b600060208201905081810360008301526138a1816135f7565b9050919050565b600060208201905081810360008301526138c18161361a565b9050919050565b600060208201905081810360008301526138e18161363d565b9050919050565b6000602082019050818103600083015261390181613660565b9050919050565b6000602082019050818103600083015261392181613683565b9050919050565b60006020820190508181036000830152613941816136a6565b9050919050565b60006020820190508181036000830152613961816136c9565b9050919050565b60006020820190508181036000830152613981816136ec565b9050919050565b600060208201905081810360008301526139a18161370f565b9050919050565b60006020820190506139bd6000830184613732565b92915050565b60006020820190506139d86000830184613741565b92915050565b600081519050919050565b600082825260208201905092915050565b6000613a0582613b4d565b9150613a1083613b4d565b9250827fffffffffffffffffffffffffffffffffffffffffffffffffffffffffffffffff03821115613a4557613a44613c12565b5b828201905092915050565b6000613a5b82613b4d565b9150613a6683613b4d565b925082613a7657613a75613c41565b5b828204905092915050565b6000613a8c82613b4d565b9150613a9783613b4d565b9250817fffffffffffffffffffffffffffffffffffffffffffffffffffffffffffffffff0483118215151615613ad057613acf613c12565b5b828202905092915050565b6000613ae682613b4d565b9150613af183613b4d565b925082821015613b0457613b03613c12565b5b828203905092915050565b6000613b1a82613b2d565b9050919050565b60008115159050919050565b600073ffffffffffffffffffffffffffffffffffffffff82169050919050565b6000819050919050565b600060ff82169050919050565b60005b83811015613b82578082015181840152602081019050613b67565b83811115613b91576000848401525b50505050565b60006002820490506001821680613baf57607f821691505b60208210811415613bc357613bc2613c70565b5b50919050565b6000613bd482613b4d565b91507fffffffffffffffffffffffffffffffffffffffffffffffffffffffffffffffff821415613c0757613c06613c12565b5b600182019050919050565b7f4e487b7100000000000000000000000000000000000000000000000000000000600052601160045260246000fd5b7f4e487b7100000000000000000000000000000000000000000000000000000000600052601260045260246000fd5b7f4e487b7100000000000000000000000000000000000000000000000000000000600052602260045260246000fd5b7f4e487b7100000000000000000000000000000000000000000000000000000000600052603160045260246000fd5b7f4e487b7100000000000000000000000000000000000000000000000000000000600052603260045260246000fd5b600080fd5b6000601f19601f8301169050919050565b7f45524332303a207472616e7366657220746f20746865207a65726f206164647260008201527f6573730000000000000000000000000000000000000000000000000000000000602082015250565b7f416d6f756e74206d757374206265206c657373207468616e20746f74616c207260008201527f65666c656374696f6e7300000000000000000000000000000000000000000000602082015250565b7f4f776e61626c653a206e6577206f776e657220697320746865207a65726f206160008201527f6464726573730000000000000000000000000000000000000000000000000000602082015250565b7f45524332303a20617070726f766520746f20746865207a65726f20616464726560008201527f7373000000000000000000000000000000000000000000000000000000000000602082015250565b7f536166654d6174683a206164646974696f6e206f766572666c6f770000000000600082015250565b7f4163636f756e7420697320616c7265616479206578636c756465640000000000600082015250565b7f416d6f756e74206d757374206265206c657373207468616e20737570706c7900600082015250565b7f5472616e7366657220616d6f756e74206578636565647320746865206d61785460008201527f78416d6f756e742e000000000000000000000000000000000000000000000000602082015250565b7f536166654d6174683a206d756c7469706c69636174696f6e206f766572666c6f60008201527f7700000000000000000000000000000000000000000000000000000000000000602082015250565b7f4f776e61626c653a2063616c6c6572206973206e6f7420746865206f776e6572600082015250565b7f5472616e7366657220616d6f756e74206d75737420626520677265617465722060008201527f7468616e207a65726f0000000000000000000000000000000000000000000000602082015250565b7f45524332303a207472616e736665722066726f6d20746865207a65726f20616460008201527f6472657373000000000000000000000000000000000000000000000000000000602082015250565b7f45524332303a20617070726f76652066726f6d20746865207a65726f2061646460008201527f7265737300000000000000000000000000000000000000000000000000000000602082015250565b7f436f6e7472616374206973206c6f636b656420756e74696c2037206461797300600082015250565b7f4578636c75646564206164647265737365732063616e6e6f742063616c6c207460008201527f6869732066756e6374696f6e0000000000000000000000000000000000000000602082015250565b7f596f7520646f6e27742068617665207065726d697373696f6e20746f20756e6c60008201527f6f636b0000000000000000000000000000000000000000000000000000000000602082015250565b61414e81613b0f565b811461415957600080fd5b50565b61416581613b21565b811461417057600080fd5b50565b61417c81613b4d565b811461418757600080fd5b5056fe45524332303a207472616e7366657220616d6f756e74206578636565647320616c6c6f77616e636545524332303a2064656372656173656420616c6c6f77616e63652062656c6f77207a65726fa2646970667358221220a3a00d6b9650062542daea7f4723ce2fc67ab2b28e8371512ad7a771036f963b64736f6c63430008070033",
					"opcodes": "PUSH1 0x80 PUSH1 0x40 MSTORE PUSH10 0x69E10DE76676D0800000 PUSH1 0x8 SSTORE PUSH1 0x8 SLOAD PUSH1 0x0 NOT PUSH3 0x24 SWAP2 SWAP1 PUSH3 0x47B JUMP JUMPDEST PUSH1 0x0 NOT PUSH3 0x33 SWAP2 SWAP1 PUSH3 0x400 JUMP JUMPDEST PUSH1 0x9 SSTORE PUSH1 0x40 MLOAD DUP1 PUSH1 0x40 ADD PUSH1 0x40 MSTORE DUP1 PUSH1 0x3 DUP2 MSTORE PUSH1 0x20 ADD PUSH32 0x7465730000000000000000000000000000000000000000000000000000000000 DUP2 MSTORE POP PUSH1 0xB SWAP1 DUP1 MLOAD SWAP1 PUSH1 0x20 ADD SWAP1 PUSH3 0x83 SWAP3 SWAP2 SWAP1 PUSH3 0x322 JUMP JUMPDEST POP PUSH1 0x40 MLOAD DUP1 PUSH1 0x40 ADD PUSH1 0x40 MSTORE DUP1 PUSH1 0x8 DUP2 MSTORE PUSH1 0x20 ADD PUSH32 0x4147554143415445000000000000000000000000000000000000000000000000 DUP2 MSTORE POP PUSH1 0xC SWAP1 DUP1 MLOAD SWAP1 PUSH1 0x20 ADD SWAP1 PUSH3 0xD1 SWAP3 SWAP2 SWAP1 PUSH3 0x322 JUMP JUMPDEST POP PUSH1 0x9 PUSH1 0xD PUSH1 0x0 PUSH2 0x100 EXP DUP2 SLOAD DUP2 PUSH1 0xFF MUL NOT AND SWAP1 DUP4 PUSH1 0xFF AND MUL OR SWAP1 SSTORE POP PUSH1 0x2 PUSH1 0xE SSTORE PUSH1 0xE SLOAD PUSH1 0xF SSTORE PUSH1 0x6 PUSH1 0x10 SSTORE PUSH1 0x10 SLOAD PUSH1 0x11 SSTORE PUSH2 0xDEAD PUSH1 0x12 PUSH1 0x0 PUSH2 0x100 EXP DUP2 SLOAD DUP2 PUSH20 0xFFFFFFFFFFFFFFFFFFFFFFFFFFFFFFFFFFFFFFFF MUL NOT AND SWAP1 DUP4 PUSH20 0xFFFFFFFFFFFFFFFFFFFFFFFFFFFFFFFFFFFFFFFF AND MUL OR SWAP1 SSTORE POP PUSH9 0xAD78EBC5AC6200000 PUSH1 0x13 SSTORE CALLVALUE DUP1 ISZERO PUSH3 0x161 JUMPI PUSH1 0x0 DUP1 REVERT JUMPDEST POP PUSH3 0x182 PUSH3 0x176 PUSH3 0x256 PUSH1 0x20 SHL PUSH1 0x20 SHR JUMP JUMPDEST PUSH3 0x25E PUSH1 0x20 SHL PUSH1 0x20 SHR JUMP JUMPDEST PUSH1 0x9 SLOAD PUSH1 0x3 PUSH1 0x0 PUSH3 0x199 PUSH3 0x256 PUSH1 0x20 SHL PUSH1 0x20 SHR JUMP JUMPDEST PUSH20 0xFFFFFFFFFFFFFFFFFFFFFFFFFFFFFFFFFFFFFFFF AND PUSH20 0xFFFFFFFFFFFFFFFFFFFFFFFFFFFFFFFFFFFFFFFF AND DUP2 MSTORE PUSH1 0x20 ADD SWAP1 DUP2 MSTORE PUSH1 0x20 ADD PUSH1 0x0 KECCAK256 DUP2 SWAP1 SSTORE POP PUSH3 0x1E7 PUSH3 0x256 PUSH1 0x20 SHL PUSH1 0x20 SHR JUMP JUMPDEST PUSH20 0xFFFFFFFFFFFFFFFFFFFFFFFFFFFFFFFFFFFFFFFF AND PUSH1 0x0 PUSH20 0xFFFFFFFFFFFFFFFFFFFFFFFFFFFFFFFFFFFFFFFF AND PUSH32 0xDDF252AD1BE2C89B69C2B068FC378DAA952BA7F163C4A11628F55A4DF523B3EF PUSH1 0x8 SLOAD PUSH1 0x40 MLOAD PUSH3 0x248 SWAP2 SWAP1 PUSH3 0x3E3 JUMP JUMPDEST PUSH1 0x40 MLOAD DUP1 SWAP2 SUB SWAP1 LOG3 PUSH3 0x540 JUMP JUMPDEST PUSH1 0x0 CALLER SWAP1 POP SWAP1 JUMP JUMPDEST PUSH1 0x0 DUP1 PUSH1 0x0 SWAP1 SLOAD SWAP1 PUSH2 0x100 EXP SWAP1 DIV PUSH20 0xFFFFFFFFFFFFFFFFFFFFFFFFFFFFFFFFFFFFFFFF AND SWAP1 POP DUP2 PUSH1 0x0 DUP1 PUSH2 0x100 EXP DUP2 SLOAD DUP2 PUSH20 0xFFFFFFFFFFFFFFFFFFFFFFFFFFFFFFFFFFFFFFFF MUL NOT AND SWAP1 DUP4 PUSH20 0xFFFFFFFFFFFFFFFFFFFFFFFFFFFFFFFFFFFFFFFF AND MUL OR SWAP1 SSTORE POP DUP2 PUSH20 0xFFFFFFFFFFFFFFFFFFFFFFFFFFFFFFFFFFFFFFFF AND DUP2 PUSH20 0xFFFFFFFFFFFFFFFFFFFFFFFFFFFFFFFFFFFFFFFF AND PUSH32 0x8BE0079C531659141344CD1FD0A4F28419497F9722A3DAAFE3B4186F6B6457E0 PUSH1 0x40 MLOAD PUSH1 0x40 MLOAD DUP1 SWAP2 SUB SWAP1 LOG3 POP POP JUMP JUMPDEST DUP3 DUP1 SLOAD PUSH3 0x330 SWAP1 PUSH3 0x445 JUMP JUMPDEST SWAP1 PUSH1 0x0 MSTORE PUSH1 0x20 PUSH1 0x0 KECCAK256 SWAP1 PUSH1 0x1F ADD PUSH1 0x20 SWAP1 DIV DUP2 ADD SWAP3 DUP3 PUSH3 0x354 JUMPI PUSH1 0x0 DUP6 SSTORE PUSH3 0x3A0 JUMP JUMPDEST DUP3 PUSH1 0x1F LT PUSH3 0x36F JUMPI DUP1 MLOAD PUSH1 0xFF NOT AND DUP4 DUP1 ADD OR DUP6 SSTORE PUSH3 0x3A0 JUMP JUMPDEST DUP3 DUP1 ADD PUSH1 0x1 ADD DUP6 SSTORE DUP3 ISZERO PUSH3 0x3A0 JUMPI SWAP2 DUP3 ADD JUMPDEST DUP3 DUP2 GT ISZERO PUSH3 0x39F JUMPI DUP3 MLOAD DUP3 SSTORE SWAP2 PUSH1 0x20 ADD SWAP2 SWAP1 PUSH1 0x1 ADD SWAP1 PUSH3 0x382 JUMP JUMPDEST JUMPDEST POP SWAP1 POP PUSH3 0x3AF SWAP2 SWAP1 PUSH3 0x3B3 JUMP JUMPDEST POP SWAP1 JUMP JUMPDEST JUMPDEST DUP1 DUP3 GT ISZERO PUSH3 0x3CE JUMPI PUSH1 0x0 DUP2 PUSH1 0x0 SWAP1 SSTORE POP PUSH1 0x1 ADD PUSH3 0x3B4 JUMP JUMPDEST POP SWAP1 JUMP JUMPDEST PUSH3 0x3DD DUP2 PUSH3 0x43B JUMP JUMPDEST DUP3 MSTORE POP POP JUMP JUMPDEST PUSH1 0x0 PUSH1 0x20 DUP3 ADD SWAP1 POP PUSH3 0x3FA PUSH1 0x0 DUP4 ADD DUP5 PUSH3 0x3D2 JUMP JUMPDEST SWAP3 SWAP2 POP POP JUMP JUMPDEST PUSH1 0x0 PUSH3 0x40D DUP3 PUSH3 0x43B JUMP JUMPDEST SWAP2 POP PUSH3 0x41A DUP4 PUSH3 0x43B JUMP JUMPDEST SWAP3 POP DUP3 DUP3 LT ISZERO PUSH3 0x430 JUMPI PUSH3 0x42F PUSH3 0x4B3 JUMP JUMPDEST JUMPDEST DUP3 DUP3 SUB SWAP1 POP SWAP3 SWAP2 POP POP JUMP JUMPDEST PUSH1 0x0 DUP2 SWAP1 POP SWAP2 SWAP1 POP JUMP JUMPDEST PUSH1 0x0 PUSH1 0x2 DUP3 DIV SWAP1 POP PUSH1 0x1 DUP3 AND DUP1 PUSH3 0x45E JUMPI PUSH1 0x7F DUP3 AND SWAP2 POP JUMPDEST PUSH1 0x20 DUP3 LT DUP2 EQ ISZERO PUSH3 0x475 JUMPI PUSH3 0x474 PUSH3 0x511 JUMP JUMPDEST JUMPDEST POP SWAP2 SWAP1 POP JUMP JUMPDEST PUSH1 0x0 PUSH3 0x488 DUP3 PUSH3 0x43B JUMP JUMPDEST SWAP2 POP PUSH3 0x495 DUP4 PUSH3 0x43B JUMP JUMPDEST SWAP3 POP DUP3 PUSH3 0x4A8 JUMPI PUSH3 0x4A7 PUSH3 0x4E2 JUMP JUMPDEST JUMPDEST DUP3 DUP3 MOD SWAP1 POP SWAP3 SWAP2 POP POP JUMP JUMPDEST PUSH32 0x4E487B7100000000000000000000000000000000000000000000000000000000 PUSH1 0x0 MSTORE PUSH1 0x11 PUSH1 0x4 MSTORE PUSH1 0x24 PUSH1 0x0 REVERT JUMPDEST PUSH32 0x4E487B7100000000000000000000000000000000000000000000000000000000 PUSH1 0x0 MSTORE PUSH1 0x12 PUSH1 0x4 MSTORE PUSH1 0x24 PUSH1 0x0 REVERT JUMPDEST PUSH32 0x4E487B7100000000000000000000000000000000000000000000000000000000 PUSH1 0x0 MSTORE PUSH1 0x22 PUSH1 0x4 MSTORE PUSH1 0x24 PUSH1 0x0 REVERT JUMPDEST PUSH2 0x420D DUP1 PUSH3 0x550 PUSH1 0x0 CODECOPY PUSH1 0x0 RETURN INVALID PUSH1 0x80 PUSH1 0x40 MSTORE CALLVALUE DUP1 ISZERO PUSH2 0x10 JUMPI PUSH1 0x0 DUP1 REVERT JUMPDEST POP PUSH1 0x4 CALLDATASIZE LT PUSH2 0x1F0 JUMPI PUSH1 0x0 CALLDATALOAD PUSH1 0xE0 SHR DUP1 PUSH4 0x70A08231 GT PUSH2 0x10F JUMPI DUP1 PUSH4 0xC0B0FDA2 GT PUSH2 0xA2 JUMPI DUP1 PUSH4 0xF2CC0C18 GT PUSH2 0x71 JUMPI DUP1 PUSH4 0xF2CC0C18 EQ PUSH2 0x5C1 JUMPI DUP1 PUSH4 0xF2FDE38B EQ PUSH2 0x5DD JUMPI DUP1 PUSH4 0xF7A91591 EQ PUSH2 0x5F9 JUMPI DUP1 PUSH4 0xF84354F1 EQ PUSH2 0x617 JUMPI PUSH2 0x1F0 JUMP JUMPDEST DUP1 PUSH4 0xC0B0FDA2 EQ PUSH2 0x527 JUMPI DUP1 PUSH4 0xCBA0E996 EQ PUSH2 0x545 JUMPI DUP1 PUSH4 0xDD467064 EQ PUSH2 0x575 JUMPI DUP1 PUSH4 0xDD62ED3E EQ PUSH2 0x591 JUMPI PUSH2 0x1F0 JUMP JUMPDEST DUP1 PUSH4 0xA457C2D7 GT PUSH2 0xDE JUMPI DUP1 PUSH4 0xA457C2D7 EQ PUSH2 0x49F JUMPI DUP1 PUSH4 0xA69DF4B5 EQ PUSH2 0x4CF JUMPI DUP1 PUSH4 0xA9059CBB EQ PUSH2 0x4D9 JUMPI DUP1 PUSH4 0xB6C52324 EQ PUSH2 0x509 JUMPI PUSH2 0x1F0 JUMP JUMPDEST DUP1 PUSH4 0x70A08231 EQ PUSH2 0x429 JUMPI DUP1 PUSH4 0x715018A6 EQ PUSH2 0x459 JUMPI DUP1 PUSH4 0x8DA5CB5B EQ PUSH2 0x463 JUMPI DUP1 PUSH4 0x95D89B41 EQ PUSH2 0x481 JUMPI PUSH2 0x1F0 JUMP JUMPDEST DUP1 PUSH4 0x313CE567 GT PUSH2 0x187 JUMPI DUP1 PUSH4 0x3BD5D173 GT PUSH2 0x156 JUMPI DUP1 PUSH4 0x3BD5D173 EQ PUSH2 0x3A3 JUMPI DUP1 PUSH4 0x4549B039 EQ PUSH2 0x3BF JUMPI DUP1 PUSH4 0x5880B873 EQ PUSH2 0x3EF JUMPI DUP1 PUSH4 0x6A39D32C EQ PUSH2 0x40B JUMPI PUSH2 0x1F0 JUMP JUMPDEST DUP1 PUSH4 0x313CE567 EQ PUSH2 0x31B JUMPI DUP1 PUSH4 0x39509351 EQ PUSH2 0x339 JUMPI DUP1 PUSH4 0x3B124FE7 EQ PUSH2 0x369 JUMPI DUP1 PUSH4 0x3B6B1961 EQ PUSH2 0x387 JUMPI PUSH2 0x1F0 JUMP JUMPDEST DUP1 PUSH4 0x18160DDD GT PUSH2 0x1C3 JUMPI DUP1 PUSH4 0x18160DDD EQ PUSH2 0x27F JUMPI DUP1 PUSH4 0x23B872DD EQ PUSH2 0x29D JUMPI DUP1 PUSH4 0x2D838119 EQ PUSH2 0x2CD JUMPI DUP1 PUSH4 0x2FBFF030 EQ PUSH2 0x2FD JUMPI PUSH2 0x1F0 JUMP JUMPDEST DUP1 PUSH4 0x1378F46 EQ PUSH2 0x1F5 JUMPI DUP1 PUSH4 0x6FDDE03 EQ PUSH2 0x213 JUMPI DUP1 PUSH4 0x95EA7B3 EQ PUSH2 0x231 JUMPI DUP1 PUSH4 0x13114A9D EQ PUSH2 0x261 JUMPI JUMPDEST PUSH1 0x0 DUP1 REVERT JUMPDEST PUSH2 0x1FD PUSH2 0x633 JUMP JUMPDEST PUSH1 0x40 MLOAD PUSH2 0x20A SWAP2 SWAP1 PUSH2 0x3750 JUMP JUMPDEST PUSH1 0x40 MLOAD DUP1 SWAP2 SUB SWAP1 RETURN JUMPDEST PUSH2 0x21B PUSH2 0x659 JUMP JUMPDEST PUSH1 0x40 MLOAD PUSH2 0x228 SWAP2 SWAP1 PUSH2 0x3786 JUMP JUMPDEST PUSH1 0x40 MLOAD DUP1 SWAP2 SUB SWAP1 RETURN JUMPDEST PUSH2 0x24B PUSH1 0x4 DUP1 CALLDATASIZE SUB DUP2 ADD SWAP1 PUSH2 0x246 SWAP2 SWAP1 PUSH2 0x33FE JUMP JUMPDEST PUSH2 0x6EB JUMP JUMPDEST PUSH1 0x40 MLOAD PUSH2 0x258 SWAP2 SWAP1 PUSH2 0x376B JUMP JUMPDEST PUSH1 0x40 MLOAD DUP1 SWAP2 SUB SWAP1 RETURN JUMPDEST PUSH2 0x269 PUSH2 0x709 JUMP JUMPDEST PUSH1 0x40 MLOAD PUSH2 0x276 SWAP2 SWAP1 PUSH2 0x39A8 JUMP JUMPDEST PUSH1 0x40 MLOAD DUP1 SWAP2 SUB SWAP1 RETURN JUMPDEST PUSH2 0x287 PUSH2 0x713 JUMP JUMPDEST PUSH1 0x40 MLOAD PUSH2 0x294 SWAP2 SWAP1 PUSH2 0x39A8 JUMP JUMPDEST PUSH1 0x40 MLOAD DUP1 SWAP2 SUB SWAP1 RETURN JUMPDEST PUSH2 0x2B7 PUSH1 0x4 DUP1 CALLDATASIZE SUB DUP2 ADD SWAP1 PUSH2 0x2B2 SWAP2 SWAP1 PUSH2 0x33AB JUMP JUMPDEST PUSH2 0x71D JUMP JUMPDEST PUSH1 0x40 MLOAD PUSH2 0x2C4 SWAP2 SWAP1 PUSH2 0x376B JUMP JUMPDEST PUSH1 0x40 MLOAD DUP1 SWAP2 SUB SWAP1 RETURN JUMPDEST PUSH2 0x2E7 PUSH1 0x4 DUP1 CALLDATASIZE SUB DUP2 ADD SWAP1 PUSH2 0x2E2 SWAP2 SWAP1 PUSH2 0x343E JUMP JUMPDEST PUSH2 0x7F6 JUMP JUMPDEST PUSH1 0x40 MLOAD PUSH2 0x2F4 SWAP2 SWAP1 PUSH2 0x39A8 JUMP JUMPDEST PUSH1 0x40 MLOAD DUP1 SWAP2 SUB SWAP1 RETURN JUMPDEST PUSH2 0x305 PUSH2 0x864 JUMP JUMPDEST PUSH1 0x40 MLOAD PUSH2 0x312 SWAP2 SWAP1 PUSH2 0x39A8 JUMP JUMPDEST PUSH1 0x40 MLOAD DUP1 SWAP2 SUB SWAP1 RETURN JUMPDEST PUSH2 0x323 PUSH2 0x86E JUMP JUMPDEST PUSH1 0x40 MLOAD PUSH2 0x330 SWAP2 SWAP1 PUSH2 0x39C3 JUMP JUMPDEST PUSH1 0x40 MLOAD DUP1 SWAP2 SUB SWAP1 RETURN JUMPDEST PUSH2 0x353 PUSH1 0x4 DUP1 CALLDATASIZE SUB DUP2 ADD SWAP1 PUSH2 0x34E SWAP2 SWAP1 PUSH2 0x33FE JUMP JUMPDEST PUSH2 0x885 JUMP JUMPDEST PUSH1 0x40 MLOAD PUSH2 0x360 SWAP2 SWAP1 PUSH2 0x376B JUMP JUMPDEST PUSH1 0x40 MLOAD DUP1 SWAP2 SUB SWAP1 RETURN JUMPDEST PUSH2 0x371 PUSH2 0x938 JUMP JUMPDEST PUSH1 0x40 MLOAD PUSH2 0x37E SWAP2 SWAP1 PUSH2 0x39A8 JUMP JUMPDEST PUSH1 0x40 MLOAD DUP1 SWAP2 SUB SWAP1 RETURN JUMPDEST PUSH2 0x3A1 PUSH1 0x4 DUP1 CALLDATASIZE SUB DUP2 ADD SWAP1 PUSH2 0x39C SWAP2 SWAP1 PUSH2 0x343E JUMP JUMPDEST PUSH2 0x93E JUMP JUMPDEST STOP JUMPDEST PUSH2 0x3BD PUSH1 0x4 DUP1 CALLDATASIZE SUB DUP2 ADD SWAP1 PUSH2 0x3B8 SWAP2 SWAP1 PUSH2 0x343E JUMP JUMPDEST PUSH2 0x950 JUMP JUMPDEST STOP JUMPDEST PUSH2 0x3D9 PUSH1 0x4 DUP1 CALLDATASIZE SUB DUP2 ADD SWAP1 PUSH2 0x3D4 SWAP2 SWAP1 PUSH2 0x346B JUMP JUMPDEST PUSH2 0xACB JUMP JUMPDEST PUSH1 0x40 MLOAD PUSH2 0x3E6 SWAP2 SWAP1 PUSH2 0x39A8 JUMP JUMPDEST PUSH1 0x40 MLOAD DUP1 SWAP2 SUB SWAP1 RETURN JUMPDEST PUSH2 0x409 PUSH1 0x4 DUP1 CALLDATASIZE SUB DUP2 ADD SWAP1 PUSH2 0x404 SWAP2 SWAP1 PUSH2 0x343E JUMP JUMPDEST PUSH2 0xB4F JUMP JUMPDEST STOP JUMPDEST PUSH2 0x413 PUSH2 0xB61 JUMP JUMPDEST PUSH1 0x40 MLOAD PUSH2 0x420 SWAP2 SWAP1 PUSH2 0x39A8 JUMP JUMPDEST PUSH1 0x40 MLOAD DUP1 SWAP2 SUB SWAP1 RETURN JUMPDEST PUSH2 0x443 PUSH1 0x4 DUP1 CALLDATASIZE SUB DUP2 ADD SWAP1 PUSH2 0x43E SWAP2 SWAP1 PUSH2 0x333E JUMP JUMPDEST PUSH2 0xB6B JUMP JUMPDEST PUSH1 0x40 MLOAD PUSH2 0x450 SWAP2 SWAP1 PUSH2 0x39A8 JUMP JUMPDEST PUSH1 0x40 MLOAD DUP1 SWAP2 SUB SWAP1 RETURN JUMPDEST PUSH2 0x461 PUSH2 0xC56 JUMP JUMPDEST STOP JUMPDEST PUSH2 0x46B PUSH2 0xC6A JUMP JUMPDEST PUSH1 0x40 MLOAD PUSH2 0x478 SWAP2 SWAP1 PUSH2 0x3750 JUMP JUMPDEST PUSH1 0x40 MLOAD DUP1 SWAP2 SUB SWAP1 RETURN JUMPDEST PUSH2 0x489 PUSH2 0xC93 JUMP JUMPDEST PUSH1 0x40 MLOAD PUSH2 0x496 SWAP2 SWAP1 PUSH2 0x3786 JUMP JUMPDEST PUSH1 0x40 MLOAD DUP1 SWAP2 SUB SWAP1 RETURN JUMPDEST PUSH2 0x4B9 PUSH1 0x4 DUP1 CALLDATASIZE SUB DUP2 ADD SWAP1 PUSH2 0x4B4 SWAP2 SWAP1 PUSH2 0x33FE JUMP JUMPDEST PUSH2 0xD25 JUMP JUMPDEST PUSH1 0x40 MLOAD PUSH2 0x4C6 SWAP2 SWAP1 PUSH2 0x376B JUMP JUMPDEST PUSH1 0x40 MLOAD DUP1 SWAP2 SUB SWAP1 RETURN JUMPDEST PUSH2 0x4D7 PUSH2 0xDF2 JUMP JUMPDEST STOP JUMPDEST PUSH2 0x4F3 PUSH1 0x4 DUP1 CALLDATASIZE SUB DUP2 ADD SWAP1 PUSH2 0x4EE SWAP2 SWAP1 PUSH2 0x33FE JUMP JUMPDEST PUSH2 0xFC6 JUMP JUMPDEST PUSH1 0x40 MLOAD PUSH2 0x500 SWAP2 SWAP1 PUSH2 0x376B JUMP JUMPDEST PUSH1 0x40 MLOAD DUP1 SWAP2 SUB SWAP1 RETURN JUMPDEST PUSH2 0x511 PUSH2 0xFE4 JUMP JUMPDEST PUSH1 0x40 MLOAD PUSH2 0x51E SWAP2 SWAP1 PUSH2 0x39A8 JUMP JUMPDEST PUSH1 0x40 MLOAD DUP1 SWAP2 SUB SWAP1 RETURN JUMPDEST PUSH2 0x52F PUSH2 0xFEE JUMP JUMPDEST PUSH1 0x40 MLOAD PUSH2 0x53C SWAP2 SWAP1 PUSH2 0x39A8 JUMP JUMPDEST PUSH1 0x40 MLOAD DUP1 SWAP2 SUB SWAP1 RETURN JUMPDEST PUSH2 0x55F PUSH1 0x4 DUP1 CALLDATASIZE SUB DUP2 ADD SWAP1 PUSH2 0x55A SWAP2 SWAP1 PUSH2 0x333E JUMP JUMPDEST PUSH2 0xFF4 JUMP JUMPDEST PUSH1 0x40 MLOAD PUSH2 0x56C SWAP2 SWAP1 PUSH2 0x376B JUMP JUMPDEST PUSH1 0x40 MLOAD DUP1 SWAP2 SUB SWAP1 RETURN JUMPDEST PUSH2 0x58F PUSH1 0x4 DUP1 CALLDATASIZE SUB DUP2 ADD SWAP1 PUSH2 0x58A SWAP2 SWAP1 PUSH2 0x343E JUMP JUMPDEST PUSH2 0x104A JUMP JUMPDEST STOP JUMPDEST PUSH2 0x5AB PUSH1 0x4 DUP1 CALLDATASIZE SUB DUP2 ADD SWAP1 PUSH2 0x5A6 SWAP2 SWAP1 PUSH2 0x336B JUMP JUMPDEST PUSH2 0x1184 JUMP JUMPDEST PUSH1 0x40 MLOAD PUSH2 0x5B8 SWAP2 SWAP1 PUSH2 0x39A8 JUMP JUMPDEST PUSH1 0x40 MLOAD DUP1 SWAP2 SUB SWAP1 RETURN JUMPDEST PUSH2 0x5DB PUSH1 0x4 DUP1 CALLDATASIZE SUB DUP2 ADD SWAP1 PUSH2 0x5D6 SWAP2 SWAP1 PUSH2 0x333E JUMP JUMPDEST PUSH2 0x120B JUMP JUMPDEST STOP JUMPDEST PUSH2 0x5F7 PUSH1 0x4 DUP1 CALLDATASIZE SUB DUP2 ADD SWAP1 PUSH2 0x5F2 SWAP2 SWAP1 PUSH2 0x333E JUMP JUMPDEST PUSH2 0x1432 JUMP JUMPDEST STOP JUMPDEST PUSH2 0x601 PUSH2 0x14B6 JUMP JUMPDEST PUSH1 0x40 MLOAD PUSH2 0x60E SWAP2 SWAP1 PUSH2 0x39A8 JUMP JUMPDEST PUSH1 0x40 MLOAD DUP1 SWAP2 SUB SWAP1 RETURN JUMPDEST PUSH2 0x631 PUSH1 0x4 DUP1 CALLDATASIZE SUB DUP2 ADD SWAP1 PUSH2 0x62C SWAP2 SWAP1 PUSH2 0x333E JUMP JUMPDEST PUSH2 0x14C0 JUMP JUMPDEST STOP JUMPDEST PUSH1 0x12 PUSH1 0x0 SWAP1 SLOAD SWAP1 PUSH2 0x100 EXP SWAP1 DIV PUSH20 0xFFFFFFFFFFFFFFFFFFFFFFFFFFFFFFFFFFFFFFFF AND DUP2 JUMP JUMPDEST PUSH1 0x60 PUSH1 0xB DUP1 SLOAD PUSH2 0x668 SWAP1 PUSH2 0x3B97 JUMP JUMPDEST DUP1 PUSH1 0x1F ADD PUSH1 0x20 DUP1 SWAP2 DIV MUL PUSH1 0x20 ADD PUSH1 0x40 MLOAD SWAP1 DUP2 ADD PUSH1 0x40 MSTORE DUP1 SWAP3 SWAP2 SWAP1 DUP2 DUP2 MSTORE PUSH1 0x20 ADD DUP3 DUP1 SLOAD PUSH2 0x694 SWAP1 PUSH2 0x3B97 JUMP JUMPDEST DUP1 ISZERO PUSH2 0x6E1 JUMPI DUP1 PUSH1 0x1F LT PUSH2 0x6B6 JUMPI PUSH2 0x100 DUP1 DUP4 SLOAD DIV MUL DUP4 MSTORE SWAP2 PUSH1 0x20 ADD SWAP2 PUSH2 0x6E1 JUMP JUMPDEST DUP3 ADD SWAP2 SWAP1 PUSH1 0x0 MSTORE PUSH1 0x20 PUSH1 0x0 KECCAK256 SWAP1 JUMPDEST DUP2 SLOAD DUP2 MSTORE SWAP1 PUSH1 0x1 ADD SWAP1 PUSH1 0x20 ADD DUP1 DUP4 GT PUSH2 0x6C4 JUMPI DUP3 SWAP1 SUB PUSH1 0x1F AND DUP3 ADD SWAP2 JUMPDEST POP POP POP POP POP SWAP1 POP SWAP1 JUMP JUMPDEST PUSH1 0x0 PUSH2 0x6FF PUSH2 0x6F8 PUSH2 0x1782 JUMP JUMPDEST DUP5 DUP5 PUSH2 0x178A JUMP JUMPDEST PUSH1 0x1 SWAP1 POP SWAP3 SWAP2 POP POP JUMP JUMPDEST PUSH1 0x0 PUSH1 0xA SLOAD SWAP1 POP SWAP1 JUMP JUMPDEST PUSH1 0x0 PUSH1 0x8 SLOAD SWAP1 POP SWAP1 JUMP JUMPDEST PUSH1 0x0 PUSH2 0x72A DUP5 DUP5 DUP5 PUSH2 0x1955 JUMP JUMPDEST PUSH2 0x7EB DUP5 PUSH2 0x736 PUSH2 0x1782 JUMP JUMPDEST PUSH2 0x7E6 DUP6 PUSH1 0x40 MLOAD DUP1 PUSH1 0x60 ADD PUSH1 0x40 MSTORE DUP1 PUSH1 0x28 DUP2 MSTORE PUSH1 0x20 ADD PUSH2 0x418B PUSH1 0x28 SWAP2 CODECOPY PUSH1 0x5 PUSH1 0x0 DUP12 PUSH20 0xFFFFFFFFFFFFFFFFFFFFFFFFFFFFFFFFFFFFFFFF AND PUSH20 0xFFFFFFFFFFFFFFFFFFFFFFFFFFFFFFFFFFFFFFFF AND DUP2 MSTORE PUSH1 0x20 ADD SWAP1 DUP2 MSTORE PUSH1 0x20 ADD PUSH1 0x0 KECCAK256 PUSH1 0x0 PUSH2 0x79C PUSH2 0x1782 JUMP JUMPDEST PUSH20 0xFFFFFFFFFFFFFFFFFFFFFFFFFFFFFFFFFFFFFFFF AND PUSH20 0xFFFFFFFFFFFFFFFFFFFFFFFFFFFFFFFFFFFFFFFF AND DUP2 MSTORE PUSH1 0x20 ADD SWAP1 DUP2 MSTORE PUSH1 0x20 ADD PUSH1 0x0 KECCAK256 SLOAD PUSH2 0x1E2D SWAP1 SWAP3 SWAP2 SWAP1 PUSH4 0xFFFFFFFF AND JUMP JUMPDEST PUSH2 0x178A JUMP JUMPDEST PUSH1 0x1 SWAP1 POP SWAP4 SWAP3 POP POP POP JUMP JUMPDEST PUSH1 0x0 PUSH1 0x9 SLOAD DUP3 GT ISZERO PUSH2 0x83D JUMPI PUSH1 0x40 MLOAD PUSH32 0x8C379A000000000000000000000000000000000000000000000000000000000 DUP2 MSTORE PUSH1 0x4 ADD PUSH2 0x834 SWAP1 PUSH2 0x37C8 JUMP JUMPDEST PUSH1 0x40 MLOAD DUP1 SWAP2 SUB SWAP1 REVERT JUMPDEST PUSH1 0x0 PUSH2 0x847 PUSH2 0x1E91 JUMP JUMPDEST SWAP1 POP PUSH2 0x85C DUP2 DUP5 PUSH2 0x1EBC SWAP1 SWAP2 SWAP1 PUSH4 0xFFFFFFFF AND JUMP JUMPDEST SWAP2 POP POP SWAP2 SWAP1 POP JUMP JUMPDEST PUSH1 0x0 PUSH1 0xE SLOAD SWAP1 POP SWAP1 JUMP JUMPDEST PUSH1 0x0 PUSH1 0xD PUSH1 0x0 SWAP1 SLOAD SWAP1 PUSH2 0x100 EXP SWAP1 DIV PUSH1 0xFF AND SWAP1 POP SWAP1 JUMP JUMPDEST PUSH1 0x0 PUSH2 0x92E PUSH2 0x892 PUSH2 0x1782 JUMP JUMPDEST DUP5 PUSH2 0x929 DUP6 PUSH1 0x5 PUSH1 0x0 PUSH2 0x8A3 PUSH2 0x1782 JUMP JUMPDEST PUSH20 0xFFFFFFFFFFFFFFFFFFFFFFFFFFFFFFFFFFFFFFFF AND PUSH20 0xFFFFFFFFFFFFFFFFFFFFFFFFFFFFFFFFFFFFFFFF AND DUP2 MSTORE PUSH1 0x20 ADD SWAP1 DUP2 MSTORE PUSH1 0x20 ADD PUSH1 0x0 KECCAK256 PUSH1 0x0 DUP10 PUSH20 0xFFFFFFFFFFFFFFFFFFFFFFFFFFFFFFFFFFFFFFFF AND PUSH20 0xFFFFFFFFFFFFFFFFFFFFFFFFFFFFFFFFFFFFFFFF AND DUP2 MSTORE PUSH1 0x20 ADD SWAP1 DUP2 MSTORE PUSH1 0x20 ADD PUSH1 0x0 KECCAK256 SLOAD PUSH2 0x1F06 SWAP1 SWAP2 SWAP1 PUSH4 0xFFFFFFFF AND JUMP JUMPDEST PUSH2 0x178A JUMP JUMPDEST PUSH1 0x1 SWAP1 POP SWAP3 SWAP2 POP POP JUMP JUMPDEST PUSH1 0xE SLOAD DUP2 JUMP JUMPDEST PUSH2 0x946 PUSH2 0x1F64 JUMP JUMPDEST DUP1 PUSH1 0x10 DUP2 SWAP1 SSTORE POP POP JUMP JUMPDEST PUSH1 0x0 PUSH2 0x95A PUSH2 0x1782 JUMP JUMPDEST SWAP1 POP PUSH1 0x6 PUSH1 0x0 DUP3 PUSH20 0xFFFFFFFFFFFFFFFFFFFFFFFFFFFFFFFFFFFFFFFF AND PUSH20 0xFFFFFFFFFFFFFFFFFFFFFFFFFFFFFFFFFFFFFFFF AND DUP2 MSTORE PUSH1 0x20 ADD SWAP1 DUP2 MSTORE PUSH1 0x20 ADD PUSH1 0x0 KECCAK256 PUSH1 0x0 SWAP1 SLOAD SWAP1 PUSH2 0x100 EXP SWAP1 DIV PUSH1 0xFF AND ISZERO PUSH2 0x9E9 JUMPI PUSH1 0x40 MLOAD PUSH32 0x8C379A000000000000000000000000000000000000000000000000000000000 DUP2 MSTORE PUSH1 0x4 ADD PUSH2 0x9E0 SWAP1 PUSH2 0x3968 JUMP JUMPDEST PUSH1 0x40 MLOAD DUP1 SWAP2 SUB SWAP1 REVERT JUMPDEST PUSH1 0x0 PUSH2 0x9F4 DUP4 PUSH2 0x1FE2 JUMP JUMPDEST POP POP POP POP POP SWAP1 POP PUSH2 0xA4D DUP2 PUSH1 0x3 PUSH1 0x0 DUP6 PUSH20 0xFFFFFFFFFFFFFFFFFFFFFFFFFFFFFFFFFFFFFFFF AND PUSH20 0xFFFFFFFFFFFFFFFFFFFFFFFFFFFFFFFFFFFFFFFF AND DUP2 MSTORE PUSH1 0x20 ADD SWAP1 DUP2 MSTORE PUSH1 0x20 ADD PUSH1 0x0 KECCAK256 SLOAD PUSH2 0x2044 SWAP1 SWAP2 SWAP1 PUSH4 0xFFFFFFFF AND JUMP JUMPDEST PUSH1 0x3 PUSH1 0x0 DUP5 PUSH20 0xFFFFFFFFFFFFFFFFFFFFFFFFFFFFFFFFFFFFFFFF AND PUSH20 0xFFFFFFFFFFFFFFFFFFFFFFFFFFFFFFFFFFFFFFFF AND DUP2 MSTORE PUSH1 0x20 ADD SWAP1 DUP2 MSTORE PUSH1 0x20 ADD PUSH1 0x0 KECCAK256 DUP2 SWAP1 SSTORE POP PUSH2 0xAA5 DUP2 PUSH1 0x9 SLOAD PUSH2 0x2044 SWAP1 SWAP2 SWAP1 PUSH4 0xFFFFFFFF AND JUMP JUMPDEST PUSH1 0x9 DUP2 SWAP1 SSTORE POP PUSH2 0xAC0 DUP4 PUSH1 0xA SLOAD PUSH2 0x1F06 SWAP1 SWAP2 SWAP1 PUSH4 0xFFFFFFFF AND JUMP JUMPDEST PUSH1 0xA DUP2 SWAP1 SSTORE POP POP POP POP JUMP JUMPDEST PUSH1 0x0 PUSH1 0x8 SLOAD DUP4 GT ISZERO PUSH2 0xB12 JUMPI PUSH1 0x40 MLOAD PUSH32 0x8C379A000000000000000000000000000000000000000000000000000000000 DUP2 MSTORE PUSH1 0x4 ADD PUSH2 0xB09 SWAP1 PUSH2 0x3868 JUMP JUMPDEST PUSH1 0x40 MLOAD DUP1 SWAP2 SUB SWAP1 REVERT JUMPDEST DUP2 PUSH2 0xB32 JUMPI PUSH1 0x0 PUSH2 0xB22 DUP5 PUSH2 0x1FE2 JUMP JUMPDEST POP POP POP POP POP SWAP1 POP DUP1 SWAP2 POP POP PUSH2 0xB49 JUMP JUMPDEST PUSH1 0x0 PUSH2 0xB3D DUP5 PUSH2 0x1FE2 JUMP JUMPDEST POP POP POP POP SWAP2 POP POP DUP1 SWAP2 POP POP JUMPDEST SWAP3 SWAP2 POP POP JUMP JUMPDEST PUSH2 0xB57 PUSH2 0x1F64 JUMP JUMPDEST DUP1 PUSH1 0xE DUP2 SWAP1 SSTORE POP POP JUMP JUMPDEST PUSH1 0x0 PUSH1 0x10 SLOAD SWAP1 POP SWAP1 JUMP JUMPDEST PUSH1 0x0 PUSH1 0x6 PUSH1 0x0 DUP4 PUSH20 0xFFFFFFFFFFFFFFFFFFFFFFFFFFFFFFFFFFFFFFFF AND PUSH20 0xFFFFFFFFFFFFFFFFFFFFFFFFFFFFFFFFFFFFFFFF AND DUP2 MSTORE PUSH1 0x20 ADD SWAP1 DUP2 MSTORE PUSH1 0x20 ADD PUSH1 0x0 KECCAK256 PUSH1 0x0 SWAP1 SLOAD SWAP1 PUSH2 0x100 EXP SWAP1 DIV PUSH1 0xFF AND ISZERO PUSH2 0xC06 JUMPI PUSH1 0x4 PUSH1 0x0 DUP4 PUSH20 0xFFFFFFFFFFFFFFFFFFFFFFFFFFFFFFFFFFFFFFFF AND PUSH20 0xFFFFFFFFFFFFFFFFFFFFFFFFFFFFFFFFFFFFFFFF AND DUP2 MSTORE PUSH1 0x20 ADD SWAP1 DUP2 MSTORE PUSH1 0x20 ADD PUSH1 0x0 KECCAK256 SLOAD SWAP1 POP PUSH2 0xC51 JUMP JUMPDEST PUSH2 0xC4E PUSH1 0x3 PUSH1 0x0 DUP5 PUSH20 0xFFFFFFFFFFFFFFFFFFFFFFFFFFFFFFFFFFFFFFFF AND PUSH20 0xFFFFFFFFFFFFFFFFFFFFFFFFFFFFFFFFFFFFFFFF AND DUP2 MSTORE PUSH1 0x20 ADD SWAP1 DUP2 MSTORE PUSH1 0x20 ADD PUSH1 0x0 KECCAK256 SLOAD PUSH2 0x7F6 JUMP JUMPDEST SWAP1 POP JUMPDEST SWAP2 SWAP1 POP JUMP JUMPDEST PUSH2 0xC5E PUSH2 0x1F64 JUMP JUMPDEST PUSH2 0xC68 PUSH1 0x0 PUSH2 0x208E JUMP JUMPDEST JUMP JUMPDEST PUSH1 0x0 DUP1 PUSH1 0x0 SWAP1 SLOAD SWAP1 PUSH2 0x100 EXP SWAP1 DIV PUSH20 0xFFFFFFFFFFFFFFFFFFFFFFFFFFFFFFFFFFFFFFFF AND SWAP1 POP SWAP1 JUMP JUMPDEST PUSH1 0x60 PUSH1 0xC DUP1 SLOAD PUSH2 0xCA2 SWAP1 PUSH2 0x3B97 JUMP JUMPDEST DUP1 PUSH1 0x1F ADD PUSH1 0x20 DUP1 SWAP2 DIV MUL PUSH1 0x20 ADD PUSH1 0x40 MLOAD SWAP1 DUP2 ADD PUSH1 0x40 MSTORE DUP1 SWAP3 SWAP2 SWAP1 DUP2 DUP2 MSTORE PUSH1 0x20 ADD DUP3 DUP1 SLOAD PUSH2 0xCCE SWAP1 PUSH2 0x3B97 JUMP JUMPDEST DUP1 ISZERO PUSH2 0xD1B JUMPI DUP1 PUSH1 0x1F LT PUSH2 0xCF0 JUMPI PUSH2 0x100 DUP1 DUP4 SLOAD DIV MUL DUP4 MSTORE SWAP2 PUSH1 0x20 ADD SWAP2 PUSH2 0xD1B JUMP JUMPDEST DUP3 ADD SWAP2 SWAP1 PUSH1 0x0 MSTORE PUSH1 0x20 PUSH1 0x0 KECCAK256 SWAP1 JUMPDEST DUP2 SLOAD DUP2 MSTORE SWAP1 PUSH1 0x1 ADD SWAP1 PUSH1 0x20 ADD DUP1 DUP4 GT PUSH2 0xCFE JUMPI DUP3 SWAP1 SUB PUSH1 0x1F AND DUP3 ADD SWAP2 JUMPDEST POP POP POP POP POP SWAP1 POP SWAP1 JUMP JUMPDEST PUSH1 0x0 PUSH2 0xDE8 PUSH2 0xD32 PUSH2 0x1782 JUMP JUMPDEST DUP5 PUSH2 0xDE3 DUP6 PUSH1 0x40 MLOAD DUP1 PUSH1 0x60 ADD PUSH1 0x40 MSTORE DUP1 PUSH1 0x25 DUP2 MSTORE PUSH1 0x20 ADD PUSH2 0x41B3 PUSH1 0x25 SWAP2 CODECOPY PUSH1 0x5 PUSH1 0x0 PUSH2 0xD5C PUSH2 0x1782 JUMP JUMPDEST PUSH20 0xFFFFFFFFFFFFFFFFFFFFFFFFFFFFFFFFFFFFFFFF AND PUSH20 0xFFFFFFFFFFFFFFFFFFFFFFFFFFFFFFFFFFFFFFFF AND DUP2 MSTORE PUSH1 0x20 ADD SWAP1 DUP2 MSTORE PUSH1 0x20 ADD PUSH1 0x0 KECCAK256 PUSH1 0x0 DUP11 PUSH20 0xFFFFFFFFFFFFFFFFFFFFFFFFFFFFFFFFFFFFFFFF AND PUSH20 0xFFFFFFFFFFFFFFFFFFFFFFFFFFFFFFFFFFFFFFFF AND DUP2 MSTORE PUSH1 0x20 ADD SWAP1 DUP2 MSTORE PUSH1 0x20 ADD PUSH1 0x0 KECCAK256 SLOAD PUSH2 0x1E2D SWAP1 SWAP3 SWAP2 SWAP1 PUSH4 0xFFFFFFFF AND JUMP JUMPDEST PUSH2 0x178A JUMP JUMPDEST PUSH1 0x1 SWAP1 POP SWAP3 SWAP2 POP POP JUMP JUMPDEST CALLER PUSH20 0xFFFFFFFFFFFFFFFFFFFFFFFFFFFFFFFFFFFFFFFF AND PUSH1 0x1 PUSH1 0x0 SWAP1 SLOAD SWAP1 PUSH2 0x100 EXP SWAP1 DIV PUSH20 0xFFFFFFFFFFFFFFFFFFFFFFFFFFFFFFFFFFFFFFFF AND PUSH20 0xFFFFFFFFFFFFFFFFFFFFFFFFFFFFFFFFFFFFFFFF AND EQ PUSH2 0xE82 JUMPI PUSH1 0x40 MLOAD PUSH32 0x8C379A000000000000000000000000000000000000000000000000000000000 DUP2 MSTORE PUSH1 0x4 ADD PUSH2 0xE79 SWAP1 PUSH2 0x3988 JUMP JUMPDEST PUSH1 0x40 MLOAD DUP1 SWAP2 SUB SWAP1 REVERT JUMPDEST PUSH1 0x2 SLOAD TIMESTAMP GT PUSH2 0xEC6 JUMPI PUSH1 0x40 MLOAD PUSH32 0x8C379A000000000000000000000000000000000000000000000000000000000 DUP2 MSTORE PUSH1 0x4 ADD PUSH2 0xEBD SWAP1 PUSH2 0x3948 JUMP JUMPDEST PUSH1 0x40 MLOAD DUP1 SWAP2 SUB SWAP1 REVERT JUMPDEST PUSH1 0x1 PUSH1 0x0 SWAP1 SLOAD SWAP1 PUSH2 0x100 EXP SWAP1 DIV PUSH20 0xFFFFFFFFFFFFFFFFFFFFFFFFFFFFFFFFFFFFFFFF AND PUSH20 0xFFFFFFFFFFFFFFFFFFFFFFFFFFFFFFFFFFFFFFFF AND PUSH1 0x0 DUP1 SLOAD SWAP1 PUSH2 0x100 EXP SWAP1 DIV PUSH20 0xFFFFFFFFFFFFFFFFFFFFFFFFFFFFFFFFFFFFFFFF AND PUSH20 0xFFFFFFFFFFFFFFFFFFFFFFFFFFFFFFFFFFFFFFFF AND PUSH32 0x8BE0079C531659141344CD1FD0A4F28419497F9722A3DAAFE3B4186F6B6457E0 PUSH1 0x40 MLOAD PUSH1 0x40 MLOAD DUP1 SWAP2 SUB SWAP1 LOG3 PUSH1 0x1 PUSH1 0x0 SWAP1 SLOAD SWAP1 PUSH2 0x100 EXP SWAP1 DIV PUSH20 0xFFFFFFFFFFFFFFFFFFFFFFFFFFFFFFFFFFFFFFFF AND PUSH1 0x0 DUP1 PUSH2 0x100 EXP DUP2 SLOAD DUP2 PUSH20 0xFFFFFFFFFFFFFFFFFFFFFFFFFFFFFFFFFFFFFFFF MUL NOT AND SWAP1 DUP4 PUSH20 0xFFFFFFFFFFFFFFFFFFFFFFFFFFFFFFFFFFFFFFFF AND MUL OR SWAP1 SSTORE POP JUMP JUMPDEST PUSH1 0x0 PUSH2 0xFDA PUSH2 0xFD3 PUSH2 0x1782 JUMP JUMPDEST DUP5 DUP5 PUSH2 0x1955 JUMP JUMPDEST PUSH1 0x1 SWAP1 POP SWAP3 SWAP2 POP POP JUMP JUMPDEST PUSH1 0x0 PUSH1 0x2 SLOAD SWAP1 POP SWAP1 JUMP JUMPDEST PUSH1 0x10 SLOAD DUP2 JUMP JUMPDEST PUSH1 0x0 PUSH1 0x6 PUSH1 0x0 DUP4 PUSH20 0xFFFFFFFFFFFFFFFFFFFFFFFFFFFFFFFFFFFFFFFF AND PUSH20 0xFFFFFFFFFFFFFFFFFFFFFFFFFFFFFFFFFFFFFFFF AND DUP2 MSTORE PUSH1 0x20 ADD SWAP1 DUP2 MSTORE PUSH1 0x20 ADD PUSH1 0x0 KECCAK256 PUSH1 0x0 SWAP1 SLOAD SWAP1 PUSH2 0x100 EXP SWAP1 DIV PUSH1 0xFF AND SWAP1 POP SWAP2 SWAP1 POP JUMP JUMPDEST PUSH2 0x1052 PUSH2 0x1F64 JUMP JUMPDEST PUSH1 0x0 DUP1 SLOAD SWAP1 PUSH2 0x100 EXP SWAP1 DIV PUSH20 0xFFFFFFFFFFFFFFFFFFFFFFFFFFFFFFFFFFFFFFFF AND PUSH1 0x1 PUSH1 0x0 PUSH2 0x100 EXP DUP2 SLOAD DUP2 PUSH20 0xFFFFFFFFFFFFFFFFFFFFFFFFFFFFFFFFFFFFFFFF MUL NOT AND SWAP1 DUP4 PUSH20 0xFFFFFFFFFFFFFFFFFFFFFFFFFFFFFFFFFFFFFFFF AND MUL OR SWAP1 SSTORE POP PUSH1 0x0 DUP1 PUSH1 0x0 PUSH2 0x100 EXP DUP2 SLOAD DUP2 PUSH20 0xFFFFFFFFFFFFFFFFFFFFFFFFFFFFFFFFFFFFFFFF MUL NOT AND SWAP1 DUP4 PUSH20 0xFFFFFFFFFFFFFFFFFFFFFFFFFFFFFFFFFFFFFFFF AND MUL OR SWAP1 SSTORE POP DUP1 TIMESTAMP PUSH2 0x1100 SWAP2 SWAP1 PUSH2 0x39FA JUMP JUMPDEST PUSH1 0x2 DUP2 SWAP1 SSTORE POP PUSH1 0x0 PUSH20 0xFFFFFFFFFFFFFFFFFFFFFFFFFFFFFFFFFFFFFFFF AND PUSH1 0x0 DUP1 SLOAD SWAP1 PUSH2 0x100 EXP SWAP1 DIV PUSH20 0xFFFFFFFFFFFFFFFFFFFFFFFFFFFFFFFFFFFFFFFF AND PUSH20 0xFFFFFFFFFFFFFFFFFFFFFFFFFFFFFFFFFFFFFFFF AND PUSH32 0x8BE0079C531659141344CD1FD0A4F28419497F9722A3DAAFE3B4186F6B6457E0 PUSH1 0x40 MLOAD PUSH1 0x40 MLOAD DUP1 SWAP2 SUB SWAP1 LOG3 POP JUMP JUMPDEST PUSH1 0x0 PUSH1 0x5 PUSH1 0x0 DUP5 PUSH20 0xFFFFFFFFFFFFFFFFFFFFFFFFFFFFFFFFFFFFFFFF AND PUSH20 0xFFFFFFFFFFFFFFFFFFFFFFFFFFFFFFFFFFFFFFFF AND DUP2 MSTORE PUSH1 0x20 ADD SWAP1 DUP2 MSTORE PUSH1 0x20 ADD PUSH1 0x0 KECCAK256 PUSH1 0x0 DUP4 PUSH20 0xFFFFFFFFFFFFFFFFFFFFFFFFFFFFFFFFFFFFFFFF AND PUSH20 0xFFFFFFFFFFFFFFFFFFFFFFFFFFFFFFFFFFFFFFFF AND DUP2 MSTORE PUSH1 0x20 ADD SWAP1 DUP2 MSTORE PUSH1 0x20 ADD PUSH1 0x0 KECCAK256 SLOAD SWAP1 POP SWAP3 SWAP2 POP POP JUMP JUMPDEST PUSH2 0x1213 PUSH2 0x1F64 JUMP JUMPDEST PUSH1 0x6 PUSH1 0x0 DUP3 PUSH20 0xFFFFFFFFFFFFFFFFFFFFFFFFFFFFFFFFFFFFFFFF AND PUSH20 0xFFFFFFFFFFFFFFFFFFFFFFFFFFFFFFFFFFFFFFFF AND DUP2 MSTORE PUSH1 0x20 ADD SWAP1 DUP2 MSTORE PUSH1 0x20 ADD PUSH1 0x0 KECCAK256 PUSH1 0x0 SWAP1 SLOAD SWAP1 PUSH2 0x100 EXP SWAP1 DIV PUSH1 0xFF AND ISZERO PUSH2 0x12A0 JUMPI PUSH1 0x40 MLOAD PUSH32 0x8C379A000000000000000000000000000000000000000000000000000000000 DUP2 MSTORE PUSH1 0x4 ADD PUSH2 0x1297 SWAP1 PUSH2 0x3848 JUMP JUMPDEST PUSH1 0x40 MLOAD DUP1 SWAP2 SUB SWAP1 REVERT JUMPDEST PUSH1 0x0 PUSH1 0x3 PUSH1 0x0 DUP4 PUSH20 0xFFFFFFFFFFFFFFFFFFFFFFFFFFFFFFFFFFFFFFFF AND PUSH20 0xFFFFFFFFFFFFFFFFFFFFFFFFFFFFFFFFFFFFFFFF AND DUP2 MSTORE PUSH1 0x20 ADD SWAP1 DUP2 MSTORE PUSH1 0x20 ADD PUSH1 0x0 KECCAK256 SLOAD GT ISZERO PUSH2 0x1374 JUMPI PUSH2 0x1330 PUSH1 0x3 PUSH1 0x0 DUP4 PUSH20 0xFFFFFFFFFFFFFFFFFFFFFFFFFFFFFFFFFFFFFFFF AND PUSH20 0xFFFFFFFFFFFFFFFFFFFFFFFFFFFFFFFFFFFFFFFF AND DUP2 MSTORE PUSH1 0x20 ADD SWAP1 DUP2 MSTORE PUSH1 0x20 ADD PUSH1 0x0 KECCAK256 SLOAD PUSH2 0x7F6 JUMP JUMPDEST PUSH1 0x4 PUSH1 0x0 DUP4 PUSH20 0xFFFFFFFFFFFFFFFFFFFFFFFFFFFFFFFFFFFFFFFF AND PUSH20 0xFFFFFFFFFFFFFFFFFFFFFFFFFFFFFFFFFFFFFFFF AND DUP2 MSTORE PUSH1 0x20 ADD SWAP1 DUP2 MSTORE PUSH1 0x20 ADD PUSH1 0x0 KECCAK256 DUP2 SWAP1 SSTORE POP JUMPDEST PUSH1 0x1 PUSH1 0x6 PUSH1 0x0 DUP4 PUSH20 0xFFFFFFFFFFFFFFFFFFFFFFFFFFFFFFFFFFFFFFFF AND PUSH20 0xFFFFFFFFFFFFFFFFFFFFFFFFFFFFFFFFFFFFFFFF AND DUP2 MSTORE PUSH1 0x20 ADD SWAP1 DUP2 MSTORE PUSH1 0x20 ADD PUSH1 0x0 KECCAK256 PUSH1 0x0 PUSH2 0x100 EXP DUP2 SLOAD DUP2 PUSH1 0xFF MUL NOT AND SWAP1 DUP4 ISZERO ISZERO MUL OR SWAP1 SSTORE POP PUSH1 0x7 DUP2 SWAP1 DUP1 PUSH1 0x1 DUP2 SLOAD ADD DUP1 DUP3 SSTORE DUP1 SWAP2 POP POP PUSH1 0x1 SWAP1 SUB SWAP1 PUSH1 0x0 MSTORE PUSH1 0x20 PUSH1 0x0 KECCAK256 ADD PUSH1 0x0 SWAP1 SWAP2 SWAP1 SWAP2 SWAP1 SWAP2 PUSH2 0x100 EXP DUP2 SLOAD DUP2 PUSH20 0xFFFFFFFFFFFFFFFFFFFFFFFFFFFFFFFFFFFFFFFF MUL NOT AND SWAP1 DUP4 PUSH20 0xFFFFFFFFFFFFFFFFFFFFFFFFFFFFFFFFFFFFFFFF AND MUL OR SWAP1 SSTORE POP POP JUMP JUMPDEST PUSH2 0x143A PUSH2 0x1F64 JUMP JUMPDEST PUSH1 0x0 PUSH20 0xFFFFFFFFFFFFFFFFFFFFFFFFFFFFFFFFFFFFFFFF AND DUP2 PUSH20 0xFFFFFFFFFFFFFFFFFFFFFFFFFFFFFFFFFFFFFFFF AND EQ ISZERO PUSH2 0x14AA JUMPI PUSH1 0x40 MLOAD PUSH32 0x8C379A000000000000000000000000000000000000000000000000000000000 DUP2 MSTORE PUSH1 0x4 ADD PUSH2 0x14A1 SWAP1 PUSH2 0x37E8 JUMP JUMPDEST PUSH1 0x40 MLOAD DUP1 SWAP2 SUB SWAP1 REVERT JUMPDEST PUSH2 0x14B3 DUP2 PUSH2 0x208E JUMP JUMPDEST POP JUMP JUMPDEST PUSH1 0x0 PUSH1 0x13 SLOAD SWAP1 POP SWAP1 JUMP JUMPDEST PUSH2 0x14C8 PUSH2 0x1F64 JUMP JUMPDEST PUSH1 0x6 PUSH1 0x0 DUP3 PUSH20 0xFFFFFFFFFFFFFFFFFFFFFFFFFFFFFFFFFFFFFFFF AND PUSH20 0xFFFFFFFFFFFFFFFFFFFFFFFFFFFFFFFFFFFFFFFF AND DUP2 MSTORE PUSH1 0x20 ADD SWAP1 DUP2 MSTORE PUSH1 0x20 ADD PUSH1 0x0 KECCAK256 PUSH1 0x0 SWAP1 SLOAD SWAP1 PUSH2 0x100 EXP SWAP1 DIV PUSH1 0xFF AND PUSH2 0x1554 JUMPI PUSH1 0x40 MLOAD PUSH32 0x8C379A000000000000000000000000000000000000000000000000000000000 DUP2 MSTORE PUSH1 0x4 ADD PUSH2 0x154B SWAP1 PUSH2 0x3848 JUMP JUMPDEST PUSH1 0x40 MLOAD DUP1 SWAP2 SUB SWAP1 REVERT JUMPDEST PUSH1 0x0 JUMPDEST PUSH1 0x7 DUP1 SLOAD SWAP1 POP DUP2 LT ISZERO PUSH2 0x177E JUMPI DUP2 PUSH20 0xFFFFFFFFFFFFFFFFFFFFFFFFFFFFFFFFFFFFFFFF AND PUSH1 0x7 DUP3 DUP2 SLOAD DUP2 LT PUSH2 0x158F JUMPI PUSH2 0x158E PUSH2 0x3CCE JUMP JUMPDEST JUMPDEST SWAP1 PUSH1 0x0 MSTORE PUSH1 0x20 PUSH1 0x0 KECCAK256 ADD PUSH1 0x0 SWAP1 SLOAD SWAP1 PUSH2 0x100 EXP SWAP1 DIV PUSH20 0xFFFFFFFFFFFFFFFFFFFFFFFFFFFFFFFFFFFFFFFF AND PUSH20 0xFFFFFFFFFFFFFFFFFFFFFFFFFFFFFFFFFFFFFFFF AND EQ ISZERO PUSH2 0x176B JUMPI PUSH1 0x7 PUSH1 0x1 PUSH1 0x7 DUP1 SLOAD SWAP1 POP PUSH2 0x15EA SWAP2 SWAP1 PUSH2 0x3ADB JUMP JUMPDEST DUP2 SLOAD DUP2 LT PUSH2 0x15FB JUMPI PUSH2 0x15FA PUSH2 0x3CCE JUMP JUMPDEST JUMPDEST SWAP1 PUSH1 0x0 MSTORE PUSH1 0x20 PUSH1 0x0 KECCAK256 ADD PUSH1 0x0 SWAP1 SLOAD SWAP1 PUSH2 0x100 EXP SWAP1 DIV PUSH20 0xFFFFFFFFFFFFFFFFFFFFFFFFFFFFFFFFFFFFFFFF AND PUSH1 0x7 DUP3 DUP2 SLOAD DUP2 LT PUSH2 0x163A JUMPI PUSH2 0x1639 PUSH2 0x3CCE JUMP JUMPDEST JUMPDEST SWAP1 PUSH1 0x0 MSTORE PUSH1 0x20 PUSH1 0x0 KECCAK256 ADD PUSH1 0x0 PUSH2 0x100 EXP DUP2 SLOAD DUP2 PUSH20 0xFFFFFFFFFFFFFFFFFFFFFFFFFFFFFFFFFFFFFFFF MUL NOT AND SWAP1 DUP4 PUSH20 0xFFFFFFFFFFFFFFFFFFFFFFFFFFFFFFFFFFFFFFFF AND MUL OR SWAP1 SSTORE POP PUSH1 0x0 PUSH1 0x4 PUSH1 0x0 DUP5 PUSH20 0xFFFFFFFFFFFFFFFFFFFFFFFFFFFFFFFFFFFFFFFF AND PUSH20 0xFFFFFFFFFFFFFFFFFFFFFFFFFFFFFFFFFFFFFFFF AND DUP2 MSTORE PUSH1 0x20 ADD SWAP1 DUP2 MSTORE PUSH1 0x20 ADD PUSH1 0x0 KECCAK256 DUP2 SWAP1 SSTORE POP PUSH1 0x0 PUSH1 0x6 PUSH1 0x0 DUP5 PUSH20 0xFFFFFFFFFFFFFFFFFFFFFFFFFFFFFFFFFFFFFFFF AND PUSH20 0xFFFFFFFFFFFFFFFFFFFFFFFFFFFFFFFFFFFFFFFF AND DUP2 MSTORE PUSH1 0x20 ADD SWAP1 DUP2 MSTORE PUSH1 0x20 ADD PUSH1 0x0 KECCAK256 PUSH1 0x0 PUSH2 0x100 EXP DUP2 SLOAD DUP2 PUSH1 0xFF MUL NOT AND SWAP1 DUP4 ISZERO ISZERO MUL OR SWAP1 SSTORE POP PUSH1 0x7 DUP1 SLOAD DUP1 PUSH2 0x1731 JUMPI PUSH2 0x1730 PUSH2 0x3C9F JUMP JUMPDEST JUMPDEST PUSH1 0x1 SWAP1 SUB DUP2 DUP2 SWAP1 PUSH1 0x0 MSTORE PUSH1 0x20 PUSH1 0x0 KECCAK256 ADD PUSH1 0x0 PUSH2 0x100 EXP DUP2 SLOAD SWAP1 PUSH20 0xFFFFFFFFFFFFFFFFFFFFFFFFFFFFFFFFFFFFFFFF MUL NOT AND SWAP1 SSTORE SWAP1 SSTORE PUSH2 0x177E JUMP JUMPDEST DUP1 DUP1 PUSH2 0x1776 SWAP1 PUSH2 0x3BC9 JUMP JUMPDEST SWAP2 POP POP PUSH2 0x1557 JUMP JUMPDEST POP POP JUMP JUMPDEST PUSH1 0x0 CALLER SWAP1 POP SWAP1 JUMP JUMPDEST PUSH1 0x0 PUSH20 0xFFFFFFFFFFFFFFFFFFFFFFFFFFFFFFFFFFFFFFFF AND DUP4 PUSH20 0xFFFFFFFFFFFFFFFFFFFFFFFFFFFFFFFFFFFFFFFF AND EQ ISZERO PUSH2 0x17FA JUMPI PUSH1 0x40 MLOAD PUSH32 0x8C379A000000000000000000000000000000000000000000000000000000000 DUP2 MSTORE PUSH1 0x4 ADD PUSH2 0x17F1 SWAP1 PUSH2 0x3928 JUMP JUMPDEST PUSH1 0x40 MLOAD DUP1 SWAP2 SUB SWAP1 REVERT JUMPDEST PUSH1 0x0 PUSH20 0xFFFFFFFFFFFFFFFFFFFFFFFFFFFFFFFFFFFFFFFF AND DUP3 PUSH20 0xFFFFFFFFFFFFFFFFFFFFFFFFFFFFFFFFFFFFFFFF AND EQ ISZERO PUSH2 0x186A JUMPI PUSH1 0x40 MLOAD PUSH32 0x8C379A000000000000000000000000000000000000000000000000000000000 DUP2 MSTORE PUSH1 0x4 ADD PUSH2 0x1861 SWAP1 PUSH2 0x3808 JUMP JUMPDEST PUSH1 0x40 MLOAD DUP1 SWAP2 SUB SWAP1 REVERT JUMPDEST DUP1 PUSH1 0x5 PUSH1 0x0 DUP6 PUSH20 0xFFFFFFFFFFFFFFFFFFFFFFFFFFFFFFFFFFFFFFFF AND PUSH20 0xFFFFFFFFFFFFFFFFFFFFFFFFFFFFFFFFFFFFFFFF AND DUP2 MSTORE PUSH1 0x20 ADD SWAP1 DUP2 MSTORE PUSH1 0x20 ADD PUSH1 0x0 KECCAK256 PUSH1 0x0 DUP5 PUSH20 0xFFFFFFFFFFFFFFFFFFFFFFFFFFFFFFFFFFFFFFFF AND PUSH20 0xFFFFFFFFFFFFFFFFFFFFFFFFFFFFFFFFFFFFFFFF AND DUP2 MSTORE PUSH1 0x20 ADD SWAP1 DUP2 MSTORE PUSH1 0x20 ADD PUSH1 0x0 KECCAK256 DUP2 SWAP1 SSTORE POP DUP2 PUSH20 0xFFFFFFFFFFFFFFFFFFFFFFFFFFFFFFFFFFFFFFFF AND DUP4 PUSH20 0xFFFFFFFFFFFFFFFFFFFFFFFFFFFFFFFFFFFFFFFF AND PUSH32 0x8C5BE1E5EBEC7D5BD14F71427D1E84F3DD0314C0F7B2291E5B200AC8C7C3B925 DUP4 PUSH1 0x40 MLOAD PUSH2 0x1948 SWAP2 SWAP1 PUSH2 0x39A8 JUMP JUMPDEST PUSH1 0x40 MLOAD DUP1 SWAP2 SUB SWAP1 LOG3 POP POP POP JUMP JUMPDEST PUSH1 0x0 PUSH20 0xFFFFFFFFFFFFFFFFFFFFFFFFFFFFFFFFFFFFFFFF AND DUP4 PUSH20 0xFFFFFFFFFFFFFFFFFFFFFFFFFFFFFFFFFFFFFFFF AND EQ ISZERO PUSH2 0x19C5 JUMPI PUSH1 0x40 MLOAD PUSH32 0x8C379A000000000000000000000000000000000000000000000000000000000 DUP2 MSTORE PUSH1 0x4 ADD PUSH2 0x19BC SWAP1 PUSH2 0x3908 JUMP JUMPDEST PUSH1 0x40 MLOAD DUP1 SWAP2 SUB SWAP1 REVERT JUMPDEST PUSH1 0x0 PUSH20 0xFFFFFFFFFFFFFFFFFFFFFFFFFFFFFFFFFFFFFFFF AND DUP3 PUSH20 0xFFFFFFFFFFFFFFFFFFFFFFFFFFFFFFFFFFFFFFFF AND EQ ISZERO PUSH2 0x1A35 JUMPI PUSH1 0x40 MLOAD PUSH32 0x8C379A000000000000000000000000000000000000000000000000000000000 DUP2 MSTORE PUSH1 0x4 ADD PUSH2 0x1A2C SWAP1 PUSH2 0x37A8 JUMP JUMPDEST PUSH1 0x40 MLOAD DUP1 SWAP2 SUB SWAP1 REVERT JUMPDEST PUSH1 0x0 DUP2 GT PUSH2 0x1A78 JUMPI PUSH1 0x40 MLOAD PUSH32 0x8C379A000000000000000000000000000000000000000000000000000000000 DUP2 MSTORE PUSH1 0x4 ADD PUSH2 0x1A6F SWAP1 PUSH2 0x38E8 JUMP JUMPDEST PUSH1 0x40 MLOAD DUP1 SWAP2 SUB SWAP1 REVERT JUMPDEST PUSH2 0x1A80 PUSH2 0xC6A JUMP JUMPDEST PUSH20 0xFFFFFFFFFFFFFFFFFFFFFFFFFFFFFFFFFFFFFFFF AND DUP4 PUSH20 0xFFFFFFFFFFFFFFFFFFFFFFFFFFFFFFFFFFFFFFFF AND EQ ISZERO DUP1 ISZERO PUSH2 0x1AEE JUMPI POP PUSH2 0x1ABE PUSH2 0xC6A JUMP JUMPDEST PUSH20 0xFFFFFFFFFFFFFFFFFFFFFFFFFFFFFFFFFFFFFFFF AND DUP3 PUSH20 0xFFFFFFFFFFFFFFFFFFFFFFFFFFFFFFFFFFFFFFFF AND EQ ISZERO JUMPDEST ISZERO PUSH2 0x1B39 JUMPI PUSH1 0x13 SLOAD DUP2 GT ISZERO PUSH2 0x1B38 JUMPI PUSH1 0x40 MLOAD PUSH32 0x8C379A000000000000000000000000000000000000000000000000000000000 DUP2 MSTORE PUSH1 0x4 ADD PUSH2 0x1B2F SWAP1 PUSH2 0x3888 JUMP JUMPDEST PUSH1 0x40 MLOAD DUP1 SWAP2 SUB SWAP1 REVERT JUMPDEST JUMPDEST PUSH1 0x6 PUSH1 0x0 DUP5 PUSH20 0xFFFFFFFFFFFFFFFFFFFFFFFFFFFFFFFFFFFFFFFF AND PUSH20 0xFFFFFFFFFFFFFFFFFFFFFFFFFFFFFFFFFFFFFFFF AND DUP2 MSTORE PUSH1 0x20 ADD SWAP1 DUP2 MSTORE PUSH1 0x20 ADD PUSH1 0x0 KECCAK256 PUSH1 0x0 SWAP1 SLOAD SWAP1 PUSH2 0x100 EXP SWAP1 DIV PUSH1 0xFF AND DUP1 ISZERO PUSH2 0x1BDC JUMPI POP PUSH1 0x6 PUSH1 0x0 DUP4 PUSH20 0xFFFFFFFFFFFFFFFFFFFFFFFFFFFFFFFFFFFFFFFF AND PUSH20 0xFFFFFFFFFFFFFFFFFFFFFFFFFFFFFFFFFFFFFFFF AND DUP2 MSTORE PUSH1 0x20 ADD SWAP1 DUP2 MSTORE PUSH1 0x20 ADD PUSH1 0x0 KECCAK256 PUSH1 0x0 SWAP1 SLOAD SWAP1 PUSH2 0x100 EXP SWAP1 DIV PUSH1 0xFF AND ISZERO JUMPDEST ISZERO PUSH2 0x1BF1 JUMPI PUSH2 0x1BEC DUP4 DUP4 DUP4 PUSH2 0x2152 JUMP JUMPDEST PUSH2 0x1E28 JUMP JUMPDEST PUSH1 0x6 PUSH1 0x0 DUP5 PUSH20 0xFFFFFFFFFFFFFFFFFFFFFFFFFFFFFFFFFFFFFFFF AND PUSH20 0xFFFFFFFFFFFFFFFFFFFFFFFFFFFFFFFFFFFFFFFF AND DUP2 MSTORE PUSH1 0x20 ADD SWAP1 DUP2 MSTORE PUSH1 0x20 ADD PUSH1 0x0 KECCAK256 PUSH1 0x0 SWAP1 SLOAD SWAP1 PUSH2 0x100 EXP SWAP1 DIV PUSH1 0xFF AND ISZERO DUP1 ISZERO PUSH2 0x1C94 JUMPI POP PUSH1 0x6 PUSH1 0x0 DUP4 PUSH20 0xFFFFFFFFFFFFFFFFFFFFFFFFFFFFFFFFFFFFFFFF AND PUSH20 0xFFFFFFFFFFFFFFFFFFFFFFFFFFFFFFFFFFFFFFFF AND DUP2 MSTORE PUSH1 0x20 ADD SWAP1 DUP2 MSTORE PUSH1 0x20 ADD PUSH1 0x0 KECCAK256 PUSH1 0x0 SWAP1 SLOAD SWAP1 PUSH2 0x100 EXP SWAP1 DIV PUSH1 0xFF AND JUMPDEST ISZERO PUSH2 0x1CA9 JUMPI PUSH2 0x1CA4 DUP4 DUP4 DUP4 PUSH2 0x2439 JUMP JUMPDEST PUSH2 0x1E27 JUMP JUMPDEST PUSH1 0x6 PUSH1 0x0 DUP5 PUSH20 0xFFFFFFFFFFFFFFFFFFFFFFFFFFFFFFFFFFFFFFFF AND PUSH20 0xFFFFFFFFFFFFFFFFFFFFFFFFFFFFFFFFFFFFFFFF AND DUP2 MSTORE PUSH1 0x20 ADD SWAP1 DUP2 MSTORE PUSH1 0x20 ADD PUSH1 0x0 KECCAK256 PUSH1 0x0 SWAP1 SLOAD SWAP1 PUSH2 0x100 EXP SWAP1 DIV PUSH1 0xFF AND ISZERO DUP1 ISZERO PUSH2 0x1D4D JUMPI POP PUSH1 0x6 PUSH1 0x0 DUP4 PUSH20 0xFFFFFFFFFFFFFFFFFFFFFFFFFFFFFFFFFFFFFFFF AND PUSH20 0xFFFFFFFFFFFFFFFFFFFFFFFFFFFFFFFFFFFFFFFF AND DUP2 MSTORE PUSH1 0x20 ADD SWAP1 DUP2 MSTORE PUSH1 0x20 ADD PUSH1 0x0 KECCAK256 PUSH1 0x0 SWAP1 SLOAD SWAP1 PUSH2 0x100 EXP SWAP1 DIV PUSH1 0xFF AND ISZERO JUMPDEST ISZERO PUSH2 0x1D62 JUMPI PUSH2 0x1D5D DUP4 DUP4 DUP4 PUSH2 0x2720 JUMP JUMPDEST PUSH2 0x1E26 JUMP JUMPDEST PUSH1 0x6 PUSH1 0x0 DUP5 PUSH20 0xFFFFFFFFFFFFFFFFFFFFFFFFFFFFFFFFFFFFFFFF AND PUSH20 0xFFFFFFFFFFFFFFFFFFFFFFFFFFFFFFFFFFFFFFFF AND DUP2 MSTORE PUSH1 0x20 ADD SWAP1 DUP2 MSTORE PUSH1 0x20 ADD PUSH1 0x0 KECCAK256 PUSH1 0x0 SWAP1 SLOAD SWAP1 PUSH2 0x100 EXP SWAP1 DIV PUSH1 0xFF AND DUP1 ISZERO PUSH2 0x1E04 JUMPI POP PUSH1 0x6 PUSH1 0x0 DUP4 PUSH20 0xFFFFFFFFFFFFFFFFFFFFFFFFFFFFFFFFFFFFFFFF AND PUSH20 0xFFFFFFFFFFFFFFFFFFFFFFFFFFFFFFFFFFFFFFFF AND DUP2 MSTORE PUSH1 0x20 ADD SWAP1 DUP2 MSTORE PUSH1 0x20 ADD PUSH1 0x0 KECCAK256 PUSH1 0x0 SWAP1 SLOAD SWAP1 PUSH2 0x100 EXP SWAP1 DIV PUSH1 0xFF AND JUMPDEST ISZERO PUSH2 0x1E19 JUMPI PUSH2 0x1E14 DUP4 DUP4 DUP4 PUSH2 0x2972 JUMP JUMPDEST PUSH2 0x1E25 JUMP JUMPDEST PUSH2 0x1E24 DUP4 DUP4 DUP4 PUSH2 0x2720 JUMP JUMPDEST JUMPDEST JUMPDEST JUMPDEST JUMPDEST POP POP POP JUMP JUMPDEST PUSH1 0x0 DUP4 DUP4 GT ISZERO DUP3 SWAP1 PUSH2 0x1E75 JUMPI PUSH1 0x40 MLOAD PUSH32 0x8C379A000000000000000000000000000000000000000000000000000000000 DUP2 MSTORE PUSH1 0x4 ADD PUSH2 0x1E6C SWAP2 SWAP1 PUSH2 0x3786 JUMP JUMPDEST PUSH1 0x40 MLOAD DUP1 SWAP2 SUB SWAP1 REVERT JUMPDEST POP PUSH1 0x0 DUP4 DUP6 PUSH2 0x1E84 SWAP2 SWAP1 PUSH2 0x3ADB JUMP JUMPDEST SWAP1 POP DUP1 SWAP2 POP POP SWAP4 SWAP3 POP POP POP JUMP JUMPDEST PUSH1 0x0 DUP1 PUSH1 0x0 PUSH2 0x1E9E PUSH2 0x2CEE JUMP JUMPDEST SWAP2 POP SWAP2 POP PUSH2 0x1EB5 DUP2 DUP4 PUSH2 0x1EBC SWAP1 SWAP2 SWAP1 PUSH4 0xFFFFFFFF AND JUMP JUMPDEST SWAP3 POP POP POP SWAP1 JUMP JUMPDEST PUSH1 0x0 PUSH2 0x1EFE DUP4 DUP4 PUSH1 0x40 MLOAD DUP1 PUSH1 0x40 ADD PUSH1 0x40 MSTORE DUP1 PUSH1 0x1A DUP2 MSTORE PUSH1 0x20 ADD PUSH32 0x536166654D6174683A206469766973696F6E206279207A65726F000000000000 DUP2 MSTORE POP PUSH2 0x2FA1 JUMP JUMPDEST SWAP1 POP SWAP3 SWAP2 POP POP JUMP JUMPDEST PUSH1 0x0 DUP1 DUP3 DUP5 PUSH2 0x1F15 SWAP2 SWAP1 PUSH2 0x39FA JUMP JUMPDEST SWAP1 POP DUP4 DUP2 LT ISZERO PUSH2 0x1F5A JUMPI PUSH1 0x40 MLOAD PUSH32 0x8C379A000000000000000000000000000000000000000000000000000000000 DUP2 MSTORE PUSH1 0x4 ADD PUSH2 0x1F51 SWAP1 PUSH2 0x3828 JUMP JUMPDEST PUSH1 0x40 MLOAD DUP1 SWAP2 SUB SWAP1 REVERT JUMPDEST DUP1 SWAP2 POP POP SWAP3 SWAP2 POP POP JUMP JUMPDEST PUSH2 0x1F6C PUSH2 0x1782 JUMP JUMPDEST PUSH20 0xFFFFFFFFFFFFFFFFFFFFFFFFFFFFFFFFFFFFFFFF AND PUSH2 0x1F8A PUSH2 0xC6A JUMP JUMPDEST PUSH20 0xFFFFFFFFFFFFFFFFFFFFFFFFFFFFFFFFFFFFFFFF AND EQ PUSH2 0x1FE0 JUMPI PUSH1 0x40 MLOAD PUSH32 0x8C379A000000000000000000000000000000000000000000000000000000000 DUP2 MSTORE PUSH1 0x4 ADD PUSH2 0x1FD7 SWAP1 PUSH2 0x38C8 JUMP JUMPDEST PUSH1 0x40 MLOAD DUP1 SWAP2 SUB SWAP1 REVERT JUMPDEST JUMP JUMPDEST PUSH1 0x0 DUP1 PUSH1 0x0 DUP1 PUSH1 0x0 DUP1 PUSH1 0x0 DUP1 PUSH1 0x0 PUSH2 0x1FF9 DUP11 PUSH2 0x3004 JUMP JUMPDEST SWAP3 POP SWAP3 POP SWAP3 POP PUSH1 0x0 PUSH2 0x2009 PUSH2 0x1E91 JUMP JUMPDEST SWAP1 POP PUSH1 0x0 DUP1 PUSH1 0x0 PUSH2 0x201C DUP15 DUP8 DUP8 DUP8 PUSH2 0x305E JUMP JUMPDEST SWAP3 POP SWAP3 POP SWAP3 POP DUP3 DUP3 DUP3 DUP10 DUP10 DUP10 SWAP13 POP SWAP13 POP SWAP13 POP SWAP13 POP SWAP13 POP SWAP13 POP POP POP POP POP POP POP POP SWAP2 SWAP4 SWAP6 POP SWAP2 SWAP4 SWAP6 JUMP JUMPDEST PUSH1 0x0 PUSH2 0x2086 DUP4 DUP4 PUSH1 0x40 MLOAD DUP1 PUSH1 0x40 ADD PUSH1 0x40 MSTORE DUP1 PUSH1 0x1F DUP2 MSTORE PUSH1 0x20 ADD PUSH32 0x536166654D6174683A207375627472616374696F6E20756E646572666C6F7700 DUP2 MSTORE POP PUSH2 0x1E2D JUMP JUMPDEST SWAP1 POP SWAP3 SWAP2 POP POP JUMP JUMPDEST PUSH1 0x0 DUP1 PUSH1 0x0 SWAP1 SLOAD SWAP1 PUSH2 0x100 EXP SWAP1 DIV PUSH20 0xFFFFFFFFFFFFFFFFFFFFFFFFFFFFFFFFFFFFFFFF AND SWAP1 POP DUP2 PUSH1 0x0 DUP1 PUSH2 0x100 EXP DUP2 SLOAD DUP2 PUSH20 0xFFFFFFFFFFFFFFFFFFFFFFFFFFFFFFFFFFFFFFFF MUL NOT AND SWAP1 DUP4 PUSH20 0xFFFFFFFFFFFFFFFFFFFFFFFFFFFFFFFFFFFFFFFF AND MUL OR SWAP1 SSTORE POP DUP2 PUSH20 0xFFFFFFFFFFFFFFFFFFFFFFFFFFFFFFFFFFFFFFFF AND DUP2 PUSH20 0xFFFFFFFFFFFFFFFFFFFFFFFFFFFFFFFFFFFFFFFF AND PUSH32 0x8BE0079C531659141344CD1FD0A4F28419497F9722A3DAAFE3B4186F6B6457E0 PUSH1 0x40 MLOAD PUSH1 0x40 MLOAD DUP1 SWAP2 SUB SWAP1 LOG3 POP POP JUMP JUMPDEST PUSH1 0x0 DUP1 PUSH1 0x0 DUP1 PUSH1 0x0 DUP1 PUSH2 0x2164 DUP8 PUSH2 0x1FE2 JUMP JUMPDEST SWAP6 POP SWAP6 POP SWAP6 POP SWAP6 POP SWAP6 POP SWAP6 POP PUSH2 0x21C2 DUP8 PUSH1 0x4 PUSH1 0x0 DUP13 PUSH20 0xFFFFFFFFFFFFFFFFFFFFFFFFFFFFFFFFFFFFFFFF AND PUSH20 0xFFFFFFFFFFFFFFFFFFFFFFFFFFFFFFFFFFFFFFFF AND DUP2 MSTORE PUSH1 0x20 ADD SWAP1 DUP2 MSTORE PUSH1 0x20 ADD PUSH1 0x0 KECCAK256 SLOAD PUSH2 0x2044 SWAP1 SWAP2 SWAP1 PUSH4 0xFFFFFFFF AND JUMP JUMPDEST PUSH1 0x4 PUSH1 0x0 DUP12 PUSH20 0xFFFFFFFFFFFFFFFFFFFFFFFFFFFFFFFFFFFFFFFF AND PUSH20 0xFFFFFFFFFFFFFFFFFFFFFFFFFFFFFFFFFFFFFFFF AND DUP2 MSTORE PUSH1 0x20 ADD SWAP1 DUP2 MSTORE PUSH1 0x20 ADD PUSH1 0x0 KECCAK256 DUP2 SWAP1 SSTORE POP PUSH2 0x2257 DUP7 PUSH1 0x3 PUSH1 0x0 DUP13 PUSH20 0xFFFFFFFFFFFFFFFFFFFFFFFFFFFFFFFFFFFFFFFF AND PUSH20 0xFFFFFFFFFFFFFFFFFFFFFFFFFFFFFFFFFFFFFFFF AND DUP2 MSTORE PUSH1 0x20 ADD SWAP1 DUP2 MSTORE PUSH1 0x20 ADD PUSH1 0x0 KECCAK256 SLOAD PUSH2 0x2044 SWAP1 SWAP2 SWAP1 PUSH4 0xFFFFFFFF AND JUMP JUMPDEST PUSH1 0x3 PUSH1 0x0 DUP12 PUSH20 0xFFFFFFFFFFFFFFFFFFFFFFFFFFFFFFFFFFFFFFFF AND PUSH20 0xFFFFFFFFFFFFFFFFFFFFFFFFFFFFFFFFFFFFFFFF AND DUP2 MSTORE PUSH1 0x20 ADD SWAP1 DUP2 MSTORE PUSH1 0x20 ADD PUSH1 0x0 KECCAK256 DUP2 SWAP1 SSTORE POP PUSH2 0x22EC DUP6 PUSH1 0x3 PUSH1 0x0 DUP12 PUSH20 0xFFFFFFFFFFFFFFFFFFFFFFFFFFFFFFFFFFFFFFFF AND PUSH20 0xFFFFFFFFFFFFFFFFFFFFFFFFFFFFFFFFFFFFFFFF AND DUP2 MSTORE PUSH1 0x20 ADD SWAP1 DUP2 MSTORE PUSH1 0x20 ADD PUSH1 0x0 KECCAK256 SLOAD PUSH2 0x1F06 SWAP1 SWAP2 SWAP1 PUSH4 0xFFFFFFFF AND JUMP JUMPDEST PUSH1 0x3 PUSH1 0x0 DUP11 PUSH20 0xFFFFFFFFFFFFFFFFFFFFFFFFFFFFFFFFFFFFFFFF AND PUSH20 0xFFFFFFFFFFFFFFFFFFFFFFFFFFFFFFFFFFFFFFFF AND DUP2 MSTORE PUSH1 0x20 ADD SWAP1 DUP2 MSTORE PUSH1 0x20 ADD PUSH1 0x0 KECCAK256 DUP2 SWAP1 SSTORE POP PUSH2 0x2338 DUP2 PUSH2 0x30E7 JUMP JUMPDEST PUSH2 0x2342 DUP5 DUP4 PUSH2 0x31E8 JUMP JUMPDEST PUSH1 0x12 PUSH1 0x0 SWAP1 SLOAD SWAP1 PUSH2 0x100 EXP SWAP1 DIV PUSH20 0xFFFFFFFFFFFFFFFFFFFFFFFFFFFFFFFFFFFFFFFF AND PUSH20 0xFFFFFFFFFFFFFFFFFFFFFFFFFFFFFFFFFFFFFFFF AND DUP10 PUSH20 0xFFFFFFFFFFFFFFFFFFFFFFFFFFFFFFFFFFFFFFFF AND PUSH32 0xDDF252AD1BE2C89B69C2B068FC378DAA952BA7F163C4A11628F55A4DF523B3EF DUP4 PUSH1 0x40 MLOAD PUSH2 0x23C1 SWAP2 SWAP1 PUSH2 0x39A8 JUMP JUMPDEST PUSH1 0x40 MLOAD DUP1 SWAP2 SUB SWAP1 LOG3 DUP8 PUSH20 0xFFFFFFFFFFFFFFFFFFFFFFFFFFFFFFFFFFFFFFFF AND DUP10 PUSH20 0xFFFFFFFFFFFFFFFFFFFFFFFFFFFFFFFFFFFFFFFF AND PUSH32 0xDDF252AD1BE2C89B69C2B068FC378DAA952BA7F163C4A11628F55A4DF523B3EF DUP6 PUSH1 0x40 MLOAD PUSH2 0x2426 SWAP2 SWAP1 PUSH2 0x39A8 JUMP JUMPDEST PUSH1 0x40 MLOAD DUP1 SWAP2 SUB SWAP1 LOG3 POP POP POP POP POP POP POP POP POP JUMP JUMPDEST PUSH1 0x0 DUP1 PUSH1 0x0 DUP1 PUSH1 0x0 DUP1 PUSH2 0x244B DUP8 PUSH2 0x1FE2 JUMP JUMPDEST SWAP6 POP SWAP6 POP SWAP6 POP SWAP6 POP SWAP6 POP SWAP6 POP PUSH2 0x24A9 DUP7 PUSH1 0x3 PUSH1 0x0 DUP13 PUSH20 0xFFFFFFFFFFFFFFFFFFFFFFFFFFFFFFFFFFFFFFFF AND PUSH20 0xFFFFFFFFFFFFFFFFFFFFFFFFFFFFFFFFFFFFFFFF AND DUP2 MSTORE PUSH1 0x20 ADD SWAP1 DUP2 MSTORE PUSH1 0x20 ADD PUSH1 0x0 KECCAK256 SLOAD PUSH2 0x2044 SWAP1 SWAP2 SWAP1 PUSH4 0xFFFFFFFF AND JUMP JUMPDEST PUSH1 0x3 PUSH1 0x0 DUP12 PUSH20 0xFFFFFFFFFFFFFFFFFFFFFFFFFFFFFFFFFFFFFFFF AND PUSH20 0xFFFFFFFFFFFFFFFFFFFFFFFFFFFFFFFFFFFFFFFF AND DUP2 MSTORE PUSH1 0x20 ADD SWAP1 DUP2 MSTORE PUSH1 0x20 ADD PUSH1 0x0 KECCAK256 DUP2 SWAP1 SSTORE POP PUSH2 0x253E DUP4 PUSH1 0x4 PUSH1 0x0 DUP12 PUSH20 0xFFFFFFFFFFFFFFFFFFFFFFFFFFFFFFFFFFFFFFFF AND PUSH20 0xFFFFFFFFFFFFFFFFFFFFFFFFFFFFFFFFFFFFFFFF AND DUP2 MSTORE PUSH1 0x20 ADD SWAP1 DUP2 MSTORE PUSH1 0x20 ADD PUSH1 0x0 KECCAK256 SLOAD PUSH2 0x1F06 SWAP1 SWAP2 SWAP1 PUSH4 0xFFFFFFFF AND JUMP JUMPDEST PUSH1 0x4 PUSH1 0x0 DUP11 PUSH20 0xFFFFFFFFFFFFFFFFFFFFFFFFFFFFFFFFFFFFFFFF AND PUSH20 0xFFFFFFFFFFFFFFFFFFFFFFFFFFFFFFFFFFFFFFFF AND DUP2 MSTORE PUSH1 0x20 ADD SWAP1 DUP2 MSTORE PUSH1 0x20 ADD PUSH1 0x0 KECCAK256 DUP2 SWAP1 SSTORE POP PUSH2 0x25D3 DUP6 PUSH1 0x3 PUSH1 0x0 DUP12 PUSH20 0xFFFFFFFFFFFFFFFFFFFFFFFFFFFFFFFFFFFFFFFF AND PUSH20 0xFFFFFFFFFFFFFFFFFFFFFFFFFFFFFFFFFFFFFFFF AND DUP2 MSTORE PUSH1 0x20 ADD SWAP1 DUP2 MSTORE PUSH1 0x20 ADD PUSH1 0x0 KECCAK256 SLOAD PUSH2 0x1F06 SWAP1 SWAP2 SWAP1 PUSH4 0xFFFFFFFF AND JUMP JUMPDEST PUSH1 0x3 PUSH1 0x0 DUP11 PUSH20 0xFFFFFFFFFFFFFFFFFFFFFFFFFFFFFFFFFFFFFFFF AND PUSH20 0xFFFFFFFFFFFFFFFFFFFFFFFFFFFFFFFFFFFFFFFF AND DUP2 MSTORE PUSH1 0x20 ADD SWAP1 DUP2 MSTORE PUSH1 0x20 ADD PUSH1 0x0 KECCAK256 DUP2 SWAP1 SSTORE POP PUSH2 0x261F DUP2 PUSH2 0x30E7 JUMP JUMPDEST PUSH2 0x2629 DUP5 DUP4 PUSH2 0x31E8 JUMP JUMPDEST PUSH1 0x12 PUSH1 0x0 SWAP1 SLOAD SWAP1 PUSH2 0x100 EXP SWAP1 DIV PUSH20 0xFFFFFFFFFFFFFFFFFFFFFFFFFFFFFFFFFFFFFFFF AND PUSH20 0xFFFFFFFFFFFFFFFFFFFFFFFFFFFFFFFFFFFFFFFF AND DUP10 PUSH20 0xFFFFFFFFFFFFFFFFFFFFFFFFFFFFFFFFFFFFFFFF AND PUSH32 0xDDF252AD1BE2C89B69C2B068FC378DAA952BA7F163C4A11628F55A4DF523B3EF DUP4 PUSH1 0x40 MLOAD PUSH2 0x26A8 SWAP2 SWAP1 PUSH2 0x39A8 JUMP JUMPDEST PUSH1 0x40 MLOAD DUP1 SWAP2 SUB SWAP1 LOG3 DUP8 PUSH20 0xFFFFFFFFFFFFFFFFFFFFFFFFFFFFFFFFFFFFFFFF AND DUP10 PUSH20 0xFFFFFFFFFFFFFFFFFFFFFFFFFFFFFFFFFFFFFFFF AND PUSH32 0xDDF252AD1BE2C89B69C2B068FC378DAA952BA7F163C4A11628F55A4DF523B3EF DUP6 PUSH1 0x40 MLOAD PUSH2 0x270D SWAP2 SWAP1 PUSH2 0x39A8 JUMP JUMPDEST PUSH1 0x40 MLOAD DUP1 SWAP2 SUB SWAP1 LOG3 POP POP POP POP POP POP POP POP POP JUMP JUMPDEST PUSH1 0x0 DUP1 PUSH1 0x0 DUP1 PUSH1 0x0 DUP1 PUSH2 0x2732 DUP8 PUSH2 0x1FE2 JUMP JUMPDEST SWAP6 POP SWAP6 POP SWAP6 POP SWAP6 POP SWAP6 POP SWAP6 POP PUSH2 0x2790 DUP7 PUSH1 0x3 PUSH1 0x0 DUP13 PUSH20 0xFFFFFFFFFFFFFFFFFFFFFFFFFFFFFFFFFFFFFFFF AND PUSH20 0xFFFFFFFFFFFFFFFFFFFFFFFFFFFFFFFFFFFFFFFF AND DUP2 MSTORE PUSH1 0x20 ADD SWAP1 DUP2 MSTORE PUSH1 0x20 ADD PUSH1 0x0 KECCAK256 SLOAD PUSH2 0x2044 SWAP1 SWAP2 SWAP1 PUSH4 0xFFFFFFFF AND JUMP JUMPDEST PUSH1 0x3 PUSH1 0x0 DUP12 PUSH20 0xFFFFFFFFFFFFFFFFFFFFFFFFFFFFFFFFFFFFFFFF AND PUSH20 0xFFFFFFFFFFFFFFFFFFFFFFFFFFFFFFFFFFFFFFFF AND DUP2 MSTORE PUSH1 0x20 ADD SWAP1 DUP2 MSTORE PUSH1 0x20 ADD PUSH1 0x0 KECCAK256 DUP2 SWAP1 SSTORE POP PUSH2 0x2825 DUP6 PUSH1 0x3 PUSH1 0x0 DUP12 PUSH20 0xFFFFFFFFFFFFFFFFFFFFFFFFFFFFFFFFFFFFFFFF AND PUSH20 0xFFFFFFFFFFFFFFFFFFFFFFFFFFFFFFFFFFFFFFFF AND DUP2 MSTORE PUSH1 0x20 ADD SWAP1 DUP2 MSTORE PUSH1 0x20 ADD PUSH1 0x0 KECCAK256 SLOAD PUSH2 0x1F06 SWAP1 SWAP2 SWAP1 PUSH4 0xFFFFFFFF AND JUMP JUMPDEST PUSH1 0x3 PUSH1 0x0 DUP11 PUSH20 0xFFFFFFFFFFFFFFFFFFFFFFFFFFFFFFFFFFFFFFFF AND PUSH20 0xFFFFFFFFFFFFFFFFFFFFFFFFFFFFFFFFFFFFFFFF AND DUP2 MSTORE PUSH1 0x20 ADD SWAP1 DUP2 MSTORE PUSH1 0x20 ADD PUSH1 0x0 KECCAK256 DUP2 SWAP1 SSTORE POP PUSH2 0x2871 DUP2 PUSH2 0x30E7 JUMP JUMPDEST PUSH2 0x287B DUP5 DUP4 PUSH2 0x31E8 JUMP JUMPDEST PUSH1 0x12 PUSH1 0x0 SWAP1 SLOAD SWAP1 PUSH2 0x100 EXP SWAP1 DIV PUSH20 0xFFFFFFFFFFFFFFFFFFFFFFFFFFFFFFFFFFFFFFFF AND PUSH20 0xFFFFFFFFFFFFFFFFFFFFFFFFFFFFFFFFFFFFFFFF AND DUP10 PUSH20 0xFFFFFFFFFFFFFFFFFFFFFFFFFFFFFFFFFFFFFFFF AND PUSH32 0xDDF252AD1BE2C89B69C2B068FC378DAA952BA7F163C4A11628F55A4DF523B3EF DUP4 PUSH1 0x40 MLOAD PUSH2 0x28FA SWAP2 SWAP1 PUSH2 0x39A8 JUMP JUMPDEST PUSH1 0x40 MLOAD DUP1 SWAP2 SUB SWAP1 LOG3 DUP8 PUSH20 0xFFFFFFFFFFFFFFFFFFFFFFFFFFFFFFFFFFFFFFFF AND DUP10 PUSH20 0xFFFFFFFFFFFFFFFFFFFFFFFFFFFFFFFFFFFFFFFF AND PUSH32 0xDDF252AD1BE2C89B69C2B068FC378DAA952BA7F163C4A11628F55A4DF523B3EF DUP6 PUSH1 0x40 MLOAD PUSH2 0x295F SWAP2 SWAP1 PUSH2 0x39A8 JUMP JUMPDEST PUSH1 0x40 MLOAD DUP1 SWAP2 SUB SWAP1 LOG3 POP POP POP POP POP POP POP POP POP JUMP JUMPDEST PUSH1 0x0 DUP1 PUSH1 0x0 DUP1 PUSH1 0x0 DUP1 PUSH2 0x2984 DUP8 PUSH2 0x1FE2 JUMP JUMPDEST SWAP6 POP SWAP6 POP SWAP6 POP SWAP6 POP SWAP6 POP SWAP6 POP PUSH2 0x29E2 DUP8 PUSH1 0x4 PUSH1 0x0 DUP13 PUSH20 0xFFFFFFFFFFFFFFFFFFFFFFFFFFFFFFFFFFFFFFFF AND PUSH20 0xFFFFFFFFFFFFFFFFFFFFFFFFFFFFFFFFFFFFFFFF AND DUP2 MSTORE PUSH1 0x20 ADD SWAP1 DUP2 MSTORE PUSH1 0x20 ADD PUSH1 0x0 KECCAK256 SLOAD PUSH2 0x2044 SWAP1 SWAP2 SWAP1 PUSH4 0xFFFFFFFF AND JUMP JUMPDEST PUSH1 0x4 PUSH1 0x0 DUP12 PUSH20 0xFFFFFFFFFFFFFFFFFFFFFFFFFFFFFFFFFFFFFFFF AND PUSH20 0xFFFFFFFFFFFFFFFFFFFFFFFFFFFFFFFFFFFFFFFF AND DUP2 MSTORE PUSH1 0x20 ADD SWAP1 DUP2 MSTORE PUSH1 0x20 ADD PUSH1 0x0 KECCAK256 DUP2 SWAP1 SSTORE POP PUSH2 0x2A77 DUP7 PUSH1 0x3 PUSH1 0x0 DUP13 PUSH20 0xFFFFFFFFFFFFFFFFFFFFFFFFFFFFFFFFFFFFFFFF AND PUSH20 0xFFFFFFFFFFFFFFFFFFFFFFFFFFFFFFFFFFFFFFFF AND DUP2 MSTORE PUSH1 0x20 ADD SWAP1 DUP2 MSTORE PUSH1 0x20 ADD PUSH1 0x0 KECCAK256 SLOAD PUSH2 0x2044 SWAP1 SWAP2 SWAP1 PUSH4 0xFFFFFFFF AND JUMP JUMPDEST PUSH1 0x3 PUSH1 0x0 DUP12 PUSH20 0xFFFFFFFFFFFFFFFFFFFFFFFFFFFFFFFFFFFFFFFF AND PUSH20 0xFFFFFFFFFFFFFFFFFFFFFFFFFFFFFFFFFFFFFFFF AND DUP2 MSTORE PUSH1 0x20 ADD SWAP1 DUP2 MSTORE PUSH1 0x20 ADD PUSH1 0x0 KECCAK256 DUP2 SWAP1 SSTORE POP PUSH2 0x2B0C DUP4 PUSH1 0x4 PUSH1 0x0 DUP12 PUSH20 0xFFFFFFFFFFFFFFFFFFFFFFFFFFFFFFFFFFFFFFFF AND PUSH20 0xFFFFFFFFFFFFFFFFFFFFFFFFFFFFFFFFFFFFFFFF AND DUP2 MSTORE PUSH1 0x20 ADD SWAP1 DUP2 MSTORE PUSH1 0x20 ADD PUSH1 0x0 KECCAK256 SLOAD PUSH2 0x1F06 SWAP1 SWAP2 SWAP1 PUSH4 0xFFFFFFFF AND JUMP JUMPDEST PUSH1 0x4 PUSH1 0x0 DUP11 PUSH20 0xFFFFFFFFFFFFFFFFFFFFFFFFFFFFFFFFFFFFFFFF AND PUSH20 0xFFFFFFFFFFFFFFFFFFFFFFFFFFFFFFFFFFFFFFFF AND DUP2 MSTORE PUSH1 0x20 ADD SWAP1 DUP2 MSTORE PUSH1 0x20 ADD PUSH1 0x0 KECCAK256 DUP2 SWAP1 SSTORE POP PUSH2 0x2BA1 DUP6 PUSH1 0x3 PUSH1 0x0 DUP12 PUSH20 0xFFFFFFFFFFFFFFFFFFFFFFFFFFFFFFFFFFFFFFFF AND PUSH20 0xFFFFFFFFFFFFFFFFFFFFFFFFFFFFFFFFFFFFFFFF AND DUP2 MSTORE PUSH1 0x20 ADD SWAP1 DUP2 MSTORE PUSH1 0x20 ADD PUSH1 0x0 KECCAK256 SLOAD PUSH2 0x1F06 SWAP1 SWAP2 SWAP1 PUSH4 0xFFFFFFFF AND JUMP JUMPDEST PUSH1 0x3 PUSH1 0x0 DUP11 PUSH20 0xFFFFFFFFFFFFFFFFFFFFFFFFFFFFFFFFFFFFFFFF AND PUSH20 0xFFFFFFFFFFFFFFFFFFFFFFFFFFFFFFFFFFFFFFFF AND DUP2 MSTORE PUSH1 0x20 ADD SWAP1 DUP2 MSTORE PUSH1 0x20 ADD PUSH1 0x0 KECCAK256 DUP2 SWAP1 SSTORE POP PUSH2 0x2BED DUP2 PUSH2 0x30E7 JUMP JUMPDEST PUSH2 0x2BF7 DUP5 DUP4 PUSH2 0x31E8 JUMP JUMPDEST PUSH1 0x12 PUSH1 0x0 SWAP1 SLOAD SWAP1 PUSH2 0x100 EXP SWAP1 DIV PUSH20 0xFFFFFFFFFFFFFFFFFFFFFFFFFFFFFFFFFFFFFFFF AND PUSH20 0xFFFFFFFFFFFFFFFFFFFFFFFFFFFFFFFFFFFFFFFF AND DUP10 PUSH20 0xFFFFFFFFFFFFFFFFFFFFFFFFFFFFFFFFFFFFFFFF AND PUSH32 0xDDF252AD1BE2C89B69C2B068FC378DAA952BA7F163C4A11628F55A4DF523B3EF DUP4 PUSH1 0x40 MLOAD PUSH2 0x2C76 SWAP2 SWAP1 PUSH2 0x39A8 JUMP JUMPDEST PUSH1 0x40 MLOAD DUP1 SWAP2 SUB SWAP1 LOG3 DUP8 PUSH20 0xFFFFFFFFFFFFFFFFFFFFFFFFFFFFFFFFFFFFFFFF AND DUP10 PUSH20 0xFFFFFFFFFFFFFFFFFFFFFFFFFFFFFFFFFFFFFFFF AND PUSH32 0xDDF252AD1BE2C89B69C2B068FC378DAA952BA7F163C4A11628F55A4DF523B3EF DUP6 PUSH1 0x40 MLOAD PUSH2 0x2CDB SWAP2 SWAP1 PUSH2 0x39A8 JUMP JUMPDEST PUSH1 0x40 MLOAD DUP1 SWAP2 SUB SWAP1 LOG3 POP POP POP POP POP POP POP POP POP JUMP JUMPDEST PUSH1 0x0 DUP1 PUSH1 0x0 PUSH1 0x9 SLOAD SWAP1 POP PUSH1 0x0 PUSH1 0x8 SLOAD SWAP1 POP PUSH1 0x0 JUMPDEST PUSH1 0x7 DUP1 SLOAD SWAP1 POP DUP2 LT ISZERO PUSH2 0x2F64 JUMPI DUP3 PUSH1 0x3 PUSH1 0x0 PUSH1 0x7 DUP5 DUP2 SLOAD DUP2 LT PUSH2 0x2D28 JUMPI PUSH2 0x2D27 PUSH2 0x3CCE JUMP JUMPDEST JUMPDEST SWAP1 PUSH1 0x0 MSTORE PUSH1 0x20 PUSH1 0x0 KECCAK256 ADD PUSH1 0x0 SWAP1 SLOAD SWAP1 PUSH2 0x100 EXP SWAP1 DIV PUSH20 0xFFFFFFFFFFFFFFFFFFFFFFFFFFFFFFFFFFFFFFFF AND PUSH20 0xFFFFFFFFFFFFFFFFFFFFFFFFFFFFFFFFFFFFFFFF AND PUSH20 0xFFFFFFFFFFFFFFFFFFFFFFFFFFFFFFFFFFFFFFFF AND DUP2 MSTORE PUSH1 0x20 ADD SWAP1 DUP2 MSTORE PUSH1 0x20 ADD PUSH1 0x0 KECCAK256 SLOAD GT DUP1 PUSH2 0x2E16 JUMPI POP DUP2 PUSH1 0x4 PUSH1 0x0 PUSH1 0x7 DUP5 DUP2 SLOAD DUP2 LT PUSH2 0x2DAE JUMPI PUSH2 0x2DAD PUSH2 0x3CCE JUMP JUMPDEST JUMPDEST SWAP1 PUSH1 0x0 MSTORE PUSH1 0x20 PUSH1 0x0 KECCAK256 ADD PUSH1 0x0 SWAP1 SLOAD SWAP1 PUSH2 0x100 EXP SWAP1 DIV PUSH20 0xFFFFFFFFFFFFFFFFFFFFFFFFFFFFFFFFFFFFFFFF AND PUSH20 0xFFFFFFFFFFFFFFFFFFFFFFFFFFFFFFFFFFFFFFFF AND PUSH20 0xFFFFFFFFFFFFFFFFFFFFFFFFFFFFFFFFFFFFFFFF AND DUP2 MSTORE PUSH1 0x20 ADD SWAP1 DUP2 MSTORE PUSH1 0x20 ADD PUSH1 0x0 KECCAK256 SLOAD GT JUMPDEST ISZERO PUSH2 0x2E2D JUMPI PUSH1 0x9 SLOAD PUSH1 0x8 SLOAD SWAP5 POP SWAP5 POP POP POP POP PUSH2 0x2F9D JUMP JUMPDEST PUSH2 0x2EBD PUSH1 0x3 PUSH1 0x0 PUSH1 0x7 DUP5 DUP2 SLOAD DUP2 LT PUSH2 0x2E48 JUMPI PUSH2 0x2E47 PUSH2 0x3CCE JUMP JUMPDEST JUMPDEST SWAP1 PUSH1 0x0 MSTORE PUSH1 0x20 PUSH1 0x0 KECCAK256 ADD PUSH1 0x0 SWAP1 SLOAD SWAP1 PUSH2 0x100 EXP SWAP1 DIV PUSH20 0xFFFFFFFFFFFFFFFFFFFFFFFFFFFFFFFFFFFFFFFF AND PUSH20 0xFFFFFFFFFFFFFFFFFFFFFFFFFFFFFFFFFFFFFFFF AND PUSH20 0xFFFFFFFFFFFFFFFFFFFFFFFFFFFFFFFFFFFFFFFF AND DUP2 MSTORE PUSH1 0x20 ADD SWAP1 DUP2 MSTORE PUSH1 0x20 ADD PUSH1 0x0 KECCAK256 SLOAD DUP5 PUSH2 0x2044 SWAP1 SWAP2 SWAP1 PUSH4 0xFFFFFFFF AND JUMP JUMPDEST SWAP3 POP PUSH2 0x2F4F PUSH1 0x4 PUSH1 0x0 PUSH1 0x7 DUP5 DUP2 SLOAD DUP2 LT PUSH2 0x2EDA JUMPI PUSH2 0x2ED9 PUSH2 0x3CCE JUMP JUMPDEST JUMPDEST SWAP1 PUSH1 0x0 MSTORE PUSH1 0x20 PUSH1 0x0 KECCAK256 ADD PUSH1 0x0 SWAP1 SLOAD SWAP1 PUSH2 0x100 EXP SWAP1 DIV PUSH20 0xFFFFFFFFFFFFFFFFFFFFFFFFFFFFFFFFFFFFFFFF AND PUSH20 0xFFFFFFFFFFFFFFFFFFFFFFFFFFFFFFFFFFFFFFFF AND PUSH20 0xFFFFFFFFFFFFFFFFFFFFFFFFFFFFFFFFFFFFFFFF AND DUP2 MSTORE PUSH1 0x20 ADD SWAP1 DUP2 MSTORE PUSH1 0x20 ADD PUSH1 0x0 KECCAK256 SLOAD DUP4 PUSH2 0x2044 SWAP1 SWAP2 SWAP1 PUSH4 0xFFFFFFFF AND JUMP JUMPDEST SWAP2 POP DUP1 DUP1 PUSH2 0x2F5C SWAP1 PUSH2 0x3BC9 JUMP JUMPDEST SWAP2 POP POP PUSH2 0x2D02 JUMP JUMPDEST POP PUSH2 0x2F7C PUSH1 0x8 SLOAD PUSH1 0x9 SLOAD PUSH2 0x1EBC SWAP1 SWAP2 SWAP1 PUSH4 0xFFFFFFFF AND JUMP JUMPDEST DUP3 LT ISZERO PUSH2 0x2F94 JUMPI PUSH1 0x9 SLOAD PUSH1 0x8 SLOAD SWAP4 POP SWAP4 POP POP POP PUSH2 0x2F9D JUMP JUMPDEST DUP2 DUP2 SWAP4 POP SWAP4 POP POP POP JUMPDEST SWAP1 SWAP2 JUMP JUMPDEST PUSH1 0x0 DUP1 DUP4 GT DUP3 SWAP1 PUSH2 0x2FE8 JUMPI PUSH1 0x40 MLOAD PUSH32 0x8C379A000000000000000000000000000000000000000000000000000000000 DUP2 MSTORE PUSH1 0x4 ADD PUSH2 0x2FDF SWAP2 SWAP1 PUSH2 0x3786 JUMP JUMPDEST PUSH1 0x40 MLOAD DUP1 SWAP2 SUB SWAP1 REVERT JUMPDEST POP PUSH1 0x0 DUP4 DUP6 PUSH2 0x2FF7 SWAP2 SWAP1 PUSH2 0x3A50 JUMP JUMPDEST SWAP1 POP DUP1 SWAP2 POP POP SWAP4 SWAP3 POP POP POP JUMP JUMPDEST PUSH1 0x0 DUP1 PUSH1 0x0 DUP1 PUSH2 0x3013 DUP6 PUSH2 0x3222 JUMP JUMPDEST SWAP1 POP PUSH1 0x0 PUSH2 0x3020 DUP7 PUSH2 0x3253 JUMP JUMPDEST SWAP1 POP PUSH1 0x0 PUSH2 0x3049 DUP3 PUSH2 0x303B DUP6 DUP11 PUSH2 0x2044 SWAP1 SWAP2 SWAP1 PUSH4 0xFFFFFFFF AND JUMP JUMPDEST PUSH2 0x2044 SWAP1 SWAP2 SWAP1 PUSH4 0xFFFFFFFF AND JUMP JUMPDEST SWAP1 POP DUP1 DUP4 DUP4 SWAP6 POP SWAP6 POP SWAP6 POP POP POP POP SWAP2 SWAP4 SWAP1 SWAP3 POP JUMP JUMPDEST PUSH1 0x0 DUP1 PUSH1 0x0 DUP1 PUSH2 0x3077 DUP6 DUP10 PUSH2 0x3284 SWAP1 SWAP2 SWAP1 PUSH4 0xFFFFFFFF AND JUMP JUMPDEST SWAP1 POP PUSH1 0x0 PUSH2 0x308E DUP7 DUP10 PUSH2 0x3284 SWAP1 SWAP2 SWAP1 PUSH4 0xFFFFFFFF AND JUMP JUMPDEST SWAP1 POP PUSH1 0x0 PUSH2 0x30A5 DUP8 DUP10 PUSH2 0x3284 SWAP1 SWAP2 SWAP1 PUSH4 0xFFFFFFFF AND JUMP JUMPDEST SWAP1 POP PUSH1 0x0 PUSH2 0x30CE DUP3 PUSH2 0x30C0 DUP6 DUP8 PUSH2 0x2044 SWAP1 SWAP2 SWAP1 PUSH4 0xFFFFFFFF AND JUMP JUMPDEST PUSH2 0x2044 SWAP1 SWAP2 SWAP1 PUSH4 0xFFFFFFFF AND JUMP JUMPDEST SWAP1 POP DUP4 DUP2 DUP5 SWAP7 POP SWAP7 POP SWAP7 POP POP POP POP POP SWAP5 POP SWAP5 POP SWAP5 SWAP2 POP POP JUMP JUMPDEST PUSH1 0x0 PUSH2 0x30F1 PUSH2 0x1E91 JUMP JUMPDEST SWAP1 POP PUSH1 0x0 PUSH2 0x3108 DUP3 DUP5 PUSH2 0x3284 SWAP1 SWAP2 SWAP1 PUSH4 0xFFFFFFFF AND JUMP JUMPDEST SWAP1 POP PUSH2 0x317E DUP2 PUSH1 0x3 PUSH1 0x0 PUSH1 0x12 PUSH1 0x0 SWAP1 SLOAD SWAP1 PUSH2 0x100 EXP SWAP1 DIV PUSH20 0xFFFFFFFFFFFFFFFFFFFFFFFFFFFFFFFFFFFFFFFF AND PUSH20 0xFFFFFFFFFFFFFFFFFFFFFFFFFFFFFFFFFFFFFFFF AND PUSH20 0xFFFFFFFFFFFFFFFFFFFFFFFFFFFFFFFFFFFFFFFF AND DUP2 MSTORE PUSH1 0x20 ADD SWAP1 DUP2 MSTORE PUSH1 0x20 ADD PUSH1 0x0 KECCAK256 SLOAD PUSH2 0x1F06 SWAP1 SWAP2 SWAP1 PUSH4 0xFFFFFFFF AND JUMP JUMPDEST PUSH1 0x3 PUSH1 0x0 PUSH1 0x12 PUSH1 0x0 SWAP1 SLOAD SWAP1 PUSH2 0x100 EXP SWAP1 DIV PUSH20 0xFFFFFFFFFFFFFFFFFFFFFFFFFFFFFFFFFFFFFFFF AND PUSH20 0xFFFFFFFFFFFFFFFFFFFFFFFFFFFFFFFFFFFFFFFF AND PUSH20 0xFFFFFFFFFFFFFFFFFFFFFFFFFFFFFFFFFFFFFFFF AND DUP2 MSTORE PUSH1 0x20 ADD SWAP1 DUP2 MSTORE PUSH1 0x20 ADD PUSH1 0x0 KECCAK256 DUP2 SWAP1 SSTORE POP POP POP POP JUMP JUMPDEST PUSH2 0x31FD DUP3 PUSH1 0x9 SLOAD PUSH2 0x2044 SWAP1 SWAP2 SWAP1 PUSH4 0xFFFFFFFF AND JUMP JUMPDEST PUSH1 0x9 DUP2 SWAP1 SSTORE POP PUSH2 0x3218 DUP2 PUSH1 0xA SLOAD PUSH2 0x1F06 SWAP1 SWAP2 SWAP1 PUSH4 0xFFFFFFFF AND JUMP JUMPDEST PUSH1 0xA DUP2 SWAP1 SSTORE POP POP POP JUMP JUMPDEST PUSH1 0x0 PUSH2 0x324C PUSH1 0x64 PUSH2 0x323E PUSH1 0xE SLOAD DUP6 PUSH2 0x3284 SWAP1 SWAP2 SWAP1 PUSH4 0xFFFFFFFF AND JUMP JUMPDEST PUSH2 0x1EBC SWAP1 SWAP2 SWAP1 PUSH4 0xFFFFFFFF AND JUMP JUMPDEST SWAP1 POP SWAP2 SWAP1 POP JUMP JUMPDEST PUSH1 0x0 PUSH2 0x327D PUSH1 0x64 PUSH2 0x326F PUSH1 0x10 SLOAD DUP6 PUSH2 0x3284 SWAP1 SWAP2 SWAP1 PUSH4 0xFFFFFFFF AND JUMP JUMPDEST PUSH2 0x1EBC SWAP1 SWAP2 SWAP1 PUSH4 0xFFFFFFFF AND JUMP JUMPDEST SWAP1 POP SWAP2 SWAP1 POP JUMP JUMPDEST PUSH1 0x0 DUP1 DUP4 EQ ISZERO PUSH2 0x3297 JUMPI PUSH1 0x0 SWAP1 POP PUSH2 0x32F9 JUMP JUMPDEST PUSH1 0x0 DUP3 DUP5 PUSH2 0x32A5 SWAP2 SWAP1 PUSH2 0x3A81 JUMP JUMPDEST SWAP1 POP DUP3 DUP5 DUP3 PUSH2 0x32B4 SWAP2 SWAP1 PUSH2 0x3A50 JUMP JUMPDEST EQ PUSH2 0x32F4 JUMPI PUSH1 0x40 MLOAD PUSH32 0x8C379A000000000000000000000000000000000000000000000000000000000 DUP2 MSTORE PUSH1 0x4 ADD PUSH2 0x32EB SWAP1 PUSH2 0x38A8 JUMP JUMPDEST PUSH1 0x40 MLOAD DUP1 SWAP2 SUB SWAP1 REVERT JUMPDEST DUP1 SWAP2 POP POP JUMPDEST SWAP3 SWAP2 POP POP JUMP JUMPDEST PUSH1 0x0 DUP2 CALLDATALOAD SWAP1 POP PUSH2 0x330E DUP2 PUSH2 0x4145 JUMP JUMPDEST SWAP3 SWAP2 POP POP JUMP JUMPDEST PUSH1 0x0 DUP2 CALLDATALOAD SWAP1 POP PUSH2 0x3323 DUP2 PUSH2 0x415C JUMP JUMPDEST SWAP3 SWAP2 POP POP JUMP JUMPDEST PUSH1 0x0 DUP2 CALLDATALOAD SWAP1 POP PUSH2 0x3338 DUP2 PUSH2 0x4173 JUMP JUMPDEST SWAP3 SWAP2 POP POP JUMP JUMPDEST PUSH1 0x0 PUSH1 0x20 DUP3 DUP5 SUB SLT ISZERO PUSH2 0x3354 JUMPI PUSH2 0x3353 PUSH2 0x3CFD JUMP JUMPDEST JUMPDEST PUSH1 0x0 PUSH2 0x3362 DUP5 DUP3 DUP6 ADD PUSH2 0x32FF JUMP JUMPDEST SWAP2 POP POP SWAP3 SWAP2 POP POP JUMP JUMPDEST PUSH1 0x0 DUP1 PUSH1 0x40 DUP4 DUP6 SUB SLT ISZERO PUSH2 0x3382 JUMPI PUSH2 0x3381 PUSH2 0x3CFD JUMP JUMPDEST JUMPDEST PUSH1 0x0 PUSH2 0x3390 DUP6 DUP3 DUP7 ADD PUSH2 0x32FF JUMP JUMPDEST SWAP3 POP POP PUSH1 0x20 PUSH2 0x33A1 DUP6 DUP3 DUP7 ADD PUSH2 0x32FF JUMP JUMPDEST SWAP2 POP POP SWAP3 POP SWAP3 SWAP1 POP JUMP JUMPDEST PUSH1 0x0 DUP1 PUSH1 0x0 PUSH1 0x60 DUP5 DUP7 SUB SLT ISZERO PUSH2 0x33C4 JUMPI PUSH2 0x33C3 PUSH2 0x3CFD JUMP JUMPDEST JUMPDEST PUSH1 0x0 PUSH2 0x33D2 DUP7 DUP3 DUP8 ADD PUSH2 0x32FF JUMP JUMPDEST SWAP4 POP POP PUSH1 0x20 PUSH2 0x33E3 DUP7 DUP3 DUP8 ADD PUSH2 0x32FF JUMP JUMPDEST SWAP3 POP POP PUSH1 0x40 PUSH2 0x33F4 DUP7 DUP3 DUP8 ADD PUSH2 0x3329 JUMP JUMPDEST SWAP2 POP POP SWAP3 POP SWAP3 POP SWAP3 JUMP JUMPDEST PUSH1 0x0 DUP1 PUSH1 0x40 DUP4 DUP6 SUB SLT ISZERO PUSH2 0x3415 JUMPI PUSH2 0x3414 PUSH2 0x3CFD JUMP JUMPDEST JUMPDEST PUSH1 0x0 PUSH2 0x3423 DUP6 DUP3 DUP7 ADD PUSH2 0x32FF JUMP JUMPDEST SWAP3 POP POP PUSH1 0x20 PUSH2 0x3434 DUP6 DUP3 DUP7 ADD PUSH2 0x3329 JUMP JUMPDEST SWAP2 POP POP SWAP3 POP SWAP3 SWAP1 POP JUMP JUMPDEST PUSH1 0x0 PUSH1 0x20 DUP3 DUP5 SUB SLT ISZERO PUSH2 0x3454 JUMPI PUSH2 0x3453 PUSH2 0x3CFD JUMP JUMPDEST JUMPDEST PUSH1 0x0 PUSH2 0x3462 DUP5 DUP3 DUP6 ADD PUSH2 0x3329 JUMP JUMPDEST SWAP2 POP POP SWAP3 SWAP2 POP POP JUMP JUMPDEST PUSH1 0x0 DUP1 PUSH1 0x40 DUP4 DUP6 SUB SLT ISZERO PUSH2 0x3482 JUMPI PUSH2 0x3481 PUSH2 0x3CFD JUMP JUMPDEST JUMPDEST PUSH1 0x0 PUSH2 0x3490 DUP6 DUP3 DUP7 ADD PUSH2 0x3329 JUMP JUMPDEST SWAP3 POP POP PUSH1 0x20 PUSH2 0x34A1 DUP6 DUP3 DUP7 ADD PUSH2 0x3314 JUMP JUMPDEST SWAP2 POP POP SWAP3 POP SWAP3 SWAP1 POP JUMP JUMPDEST PUSH2 0x34B4 DUP2 PUSH2 0x3B0F JUMP JUMPDEST DUP3 MSTORE POP POP JUMP JUMPDEST PUSH2 0x34C3 DUP2 PUSH2 0x3B21 JUMP JUMPDEST DUP3 MSTORE POP POP JUMP JUMPDEST PUSH1 0x0 PUSH2 0x34D4 DUP3 PUSH2 0x39DE JUMP JUMPDEST PUSH2 0x34DE DUP2 DUP6 PUSH2 0x39E9 JUMP JUMPDEST SWAP4 POP PUSH2 0x34EE DUP2 DUP6 PUSH1 0x20 DUP7 ADD PUSH2 0x3B64 JUMP JUMPDEST PUSH2 0x34F7 DUP2 PUSH2 0x3D02 JUMP JUMPDEST DUP5 ADD SWAP2 POP POP SWAP3 SWAP2 POP POP JUMP JUMPDEST PUSH1 0x0 PUSH2 0x350F PUSH1 0x23 DUP4 PUSH2 0x39E9 JUMP JUMPDEST SWAP2 POP PUSH2 0x351A DUP3 PUSH2 0x3D13 JUMP JUMPDEST PUSH1 0x40 DUP3 ADD SWAP1 POP SWAP2 SWAP1 POP JUMP JUMPDEST PUSH1 0x0 PUSH2 0x3532 PUSH1 0x2A DUP4 PUSH2 0x39E9 JUMP JUMPDEST SWAP2 POP PUSH2 0x353D DUP3 PUSH2 0x3D62 JUMP JUMPDEST PUSH1 0x40 DUP3 ADD SWAP1 POP SWAP2 SWAP1 POP JUMP JUMPDEST PUSH1 0x0 PUSH2 0x3555 PUSH1 0x26 DUP4 PUSH2 0x39E9 JUMP JUMPDEST SWAP2 POP PUSH2 0x3560 DUP3 PUSH2 0x3DB1 JUMP JUMPDEST PUSH1 0x40 DUP3 ADD SWAP1 POP SWAP2 SWAP1 POP JUMP JUMPDEST PUSH1 0x0 PUSH2 0x3578 PUSH1 0x22 DUP4 PUSH2 0x39E9 JUMP JUMPDEST SWAP2 POP PUSH2 0x3583 DUP3 PUSH2 0x3E00 JUMP JUMPDEST PUSH1 0x40 DUP3 ADD SWAP1 POP SWAP2 SWAP1 POP JUMP JUMPDEST PUSH1 0x0 PUSH2 0x359B PUSH1 0x1B DUP4 PUSH2 0x39E9 JUMP JUMPDEST SWAP2 POP PUSH2 0x35A6 DUP3 PUSH2 0x3E4F JUMP JUMPDEST PUSH1 0x20 DUP3 ADD SWAP1 POP SWAP2 SWAP1 POP JUMP JUMPDEST PUSH1 0x0 PUSH2 0x35BE PUSH1 0x1B DUP4 PUSH2 0x39E9 JUMP JUMPDEST SWAP2 POP PUSH2 0x35C9 DUP3 PUSH2 0x3E78 JUMP JUMPDEST PUSH1 0x20 DUP3 ADD SWAP1 POP SWAP2 SWAP1 POP JUMP JUMPDEST PUSH1 0x0 PUSH2 0x35E1 PUSH1 0x1F DUP4 PUSH2 0x39E9 JUMP JUMPDEST SWAP2 POP PUSH2 0x35EC DUP3 PUSH2 0x3EA1 JUMP JUMPDEST PUSH1 0x20 DUP3 ADD SWAP1 POP SWAP2 SWAP1 POP JUMP JUMPDEST PUSH1 0x0 PUSH2 0x3604 PUSH1 0x28 DUP4 PUSH2 0x39E9 JUMP JUMPDEST SWAP2 POP PUSH2 0x360F DUP3 PUSH2 0x3ECA JUMP JUMPDEST PUSH1 0x40 DUP3 ADD SWAP1 POP SWAP2 SWAP1 POP JUMP JUMPDEST PUSH1 0x0 PUSH2 0x3627 PUSH1 0x21 DUP4 PUSH2 0x39E9 JUMP JUMPDEST SWAP2 POP PUSH2 0x3632 DUP3 PUSH2 0x3F19 JUMP JUMPDEST PUSH1 0x40 DUP3 ADD SWAP1 POP SWAP2 SWAP1 POP JUMP JUMPDEST PUSH1 0x0 PUSH2 0x364A PUSH1 0x20 DUP4 PUSH2 0x39E9 JUMP JUMPDEST SWAP2 POP PUSH2 0x3655 DUP3 PUSH2 0x3F68 JUMP JUMPDEST PUSH1 0x20 DUP3 ADD SWAP1 POP SWAP2 SWAP1 POP JUMP JUMPDEST PUSH1 0x0 PUSH2 0x366D PUSH1 0x29 DUP4 PUSH2 0x39E9 JUMP JUMPDEST SWAP2 POP PUSH2 0x3678 DUP3 PUSH2 0x3F91 JUMP JUMPDEST PUSH1 0x40 DUP3 ADD SWAP1 POP SWAP2 SWAP1 POP JUMP JUMPDEST PUSH1 0x0 PUSH2 0x3690 PUSH1 0x25 DUP4 PUSH2 0x39E9 JUMP JUMPDEST SWAP2 POP PUSH2 0x369B DUP3 PUSH2 0x3FE0 JUMP JUMPDEST PUSH1 0x40 DUP3 ADD SWAP1 POP SWAP2 SWAP1 POP JUMP JUMPDEST PUSH1 0x0 PUSH2 0x36B3 PUSH1 0x24 DUP4 PUSH2 0x39E9 JUMP JUMPDEST SWAP2 POP PUSH2 0x36BE DUP3 PUSH2 0x402F JUMP JUMPDEST PUSH1 0x40 DUP3 ADD SWAP1 POP SWAP2 SWAP1 POP JUMP JUMPDEST PUSH1 0x0 PUSH2 0x36D6 PUSH1 0x1F DUP4 PUSH2 0x39E9 JUMP JUMPDEST SWAP2 POP PUSH2 0x36E1 DUP3 PUSH2 0x407E JUMP JUMPDEST PUSH1 0x20 DUP3 ADD SWAP1 POP SWAP2 SWAP1 POP JUMP JUMPDEST PUSH1 0x0 PUSH2 0x36F9 PUSH1 0x2C DUP4 PUSH2 0x39E9 JUMP JUMPDEST SWAP2 POP PUSH2 0x3704 DUP3 PUSH2 0x40A7 JUMP JUMPDEST PUSH1 0x40 DUP3 ADD SWAP1 POP SWAP2 SWAP1 POP JUMP JUMPDEST PUSH1 0x0 PUSH2 0x371C PUSH1 0x23 DUP4 PUSH2 0x39E9 JUMP JUMPDEST SWAP2 POP PUSH2 0x3727 DUP3 PUSH2 0x40F6 JUMP JUMPDEST PUSH1 0x40 DUP3 ADD SWAP1 POP SWAP2 SWAP1 POP JUMP JUMPDEST PUSH2 0x373B DUP2 PUSH2 0x3B4D JUMP JUMPDEST DUP3 MSTORE POP POP JUMP JUMPDEST PUSH2 0x374A DUP2 PUSH2 0x3B57 JUMP JUMPDEST DUP3 MSTORE POP POP JUMP JUMPDEST PUSH1 0x0 PUSH1 0x20 DUP3 ADD SWAP1 POP PUSH2 0x3765 PUSH1 0x0 DUP4 ADD DUP5 PUSH2 0x34AB JUMP JUMPDEST SWAP3 SWAP2 POP POP JUMP JUMPDEST PUSH1 0x0 PUSH1 0x20 DUP3 ADD SWAP1 POP PUSH2 0x3780 PUSH1 0x0 DUP4 ADD DUP5 PUSH2 0x34BA JUMP JUMPDEST SWAP3 SWAP2 POP POP JUMP JUMPDEST PUSH1 0x0 PUSH1 0x20 DUP3 ADD SWAP1 POP DUP2 DUP2 SUB PUSH1 0x0 DUP4 ADD MSTORE PUSH2 0x37A0 DUP2 DUP5 PUSH2 0x34C9 JUMP JUMPDEST SWAP1 POP SWAP3 SWAP2 POP POP JUMP JUMPDEST PUSH1 0x0 PUSH1 0x20 DUP3 ADD SWAP1 POP DUP2 DUP2 SUB PUSH1 0x0 DUP4 ADD MSTORE PUSH2 0x37C1 DUP2 PUSH2 0x3502 JUMP JUMPDEST SWAP1 POP SWAP2 SWAP1 POP JUMP JUMPDEST PUSH1 0x0 PUSH1 0x20 DUP3 ADD SWAP1 POP DUP2 DUP2 SUB PUSH1 0x0 DUP4 ADD MSTORE PUSH2 0x37E1 DUP2 PUSH2 0x3525 JUMP JUMPDEST SWAP1 POP SWAP2 SWAP1 POP JUMP JUMPDEST PUSH1 0x0 PUSH1 0x20 DUP3 ADD SWAP1 POP DUP2 DUP2 SUB PUSH1 0x0 DUP4 ADD MSTORE PUSH2 0x3801 DUP2 PUSH2 0x3548 JUMP JUMPDEST SWAP1 POP SWAP2 SWAP1 POP JUMP JUMPDEST PUSH1 0x0 PUSH1 0x20 DUP3 ADD SWAP1 POP DUP2 DUP2 SUB PUSH1 0x0 DUP4 ADD MSTORE PUSH2 0x3821 DUP2 PUSH2 0x356B JUMP JUMPDEST SWAP1 POP SWAP2 SWAP1 POP JUMP JUMPDEST PUSH1 0x0 PUSH1 0x20 DUP3 ADD SWAP1 POP DUP2 DUP2 SUB PUSH1 0x0 DUP4 ADD MSTORE PUSH2 0x3841 DUP2 PUSH2 0x358E JUMP JUMPDEST SWAP1 POP SWAP2 SWAP1 POP JUMP JUMPDEST PUSH1 0x0 PUSH1 0x20 DUP3 ADD SWAP1 POP DUP2 DUP2 SUB PUSH1 0x0 DUP4 ADD MSTORE PUSH2 0x3861 DUP2 PUSH2 0x35B1 JUMP JUMPDEST SWAP1 POP SWAP2 SWAP1 POP JUMP JUMPDEST PUSH1 0x0 PUSH1 0x20 DUP3 ADD SWAP1 POP DUP2 DUP2 SUB PUSH1 0x0 DUP4 ADD MSTORE PUSH2 0x3881 DUP2 PUSH2 0x35D4 JUMP JUMPDEST SWAP1 POP SWAP2 SWAP1 POP JUMP JUMPDEST PUSH1 0x0 PUSH1 0x20 DUP3 ADD SWAP1 POP DUP2 DUP2 SUB PUSH1 0x0 DUP4 ADD MSTORE PUSH2 0x38A1 DUP2 PUSH2 0x35F7 JUMP JUMPDEST SWAP1 POP SWAP2 SWAP1 POP JUMP JUMPDEST PUSH1 0x0 PUSH1 0x20 DUP3 ADD SWAP1 POP DUP2 DUP2 SUB PUSH1 0x0 DUP4 ADD MSTORE PUSH2 0x38C1 DUP2 PUSH2 0x361A JUMP JUMPDEST SWAP1 POP SWAP2 SWAP1 POP JUMP JUMPDEST PUSH1 0x0 PUSH1 0x20 DUP3 ADD SWAP1 POP DUP2 DUP2 SUB PUSH1 0x0 DUP4 ADD MSTORE PUSH2 0x38E1 DUP2 PUSH2 0x363D JUMP JUMPDEST SWAP1 POP SWAP2 SWAP1 POP JUMP JUMPDEST PUSH1 0x0 PUSH1 0x20 DUP3 ADD SWAP1 POP DUP2 DUP2 SUB PUSH1 0x0 DUP4 ADD MSTORE PUSH2 0x3901 DUP2 PUSH2 0x3660 JUMP JUMPDEST SWAP1 POP SWAP2 SWAP1 POP JUMP JUMPDEST PUSH1 0x0 PUSH1 0x20 DUP3 ADD SWAP1 POP DUP2 DUP2 SUB PUSH1 0x0 DUP4 ADD MSTORE PUSH2 0x3921 DUP2 PUSH2 0x3683 JUMP JUMPDEST SWAP1 POP SWAP2 SWAP1 POP JUMP JUMPDEST PUSH1 0x0 PUSH1 0x20 DUP3 ADD SWAP1 POP DUP2 DUP2 SUB PUSH1 0x0 DUP4 ADD MSTORE PUSH2 0x3941 DUP2 PUSH2 0x36A6 JUMP JUMPDEST SWAP1 POP SWAP2 SWAP1 POP JUMP JUMPDEST PUSH1 0x0 PUSH1 0x20 DUP3 ADD SWAP1 POP DUP2 DUP2 SUB PUSH1 0x0 DUP4 ADD MSTORE PUSH2 0x3961 DUP2 PUSH2 0x36C9 JUMP JUMPDEST SWAP1 POP SWAP2 SWAP1 POP JUMP JUMPDEST PUSH1 0x0 PUSH1 0x20 DUP3 ADD SWAP1 POP DUP2 DUP2 SUB PUSH1 0x0 DUP4 ADD MSTORE PUSH2 0x3981 DUP2 PUSH2 0x36EC JUMP JUMPDEST SWAP1 POP SWAP2 SWAP1 POP JUMP JUMPDEST PUSH1 0x0 PUSH1 0x20 DUP3 ADD SWAP1 POP DUP2 DUP2 SUB PUSH1 0x0 DUP4 ADD MSTORE PUSH2 0x39A1 DUP2 PUSH2 0x370F JUMP JUMPDEST SWAP1 POP SWAP2 SWAP1 POP JUMP JUMPDEST PUSH1 0x0 PUSH1 0x20 DUP3 ADD SWAP1 POP PUSH2 0x39BD PUSH1 0x0 DUP4 ADD DUP5 PUSH2 0x3732 JUMP JUMPDEST SWAP3 SWAP2 POP POP JUMP JUMPDEST PUSH1 0x0 PUSH1 0x20 DUP3 ADD SWAP1 POP PUSH2 0x39D8 PUSH1 0x0 DUP4 ADD DUP5 PUSH2 0x3741 JUMP JUMPDEST SWAP3 SWAP2 POP POP JUMP JUMPDEST PUSH1 0x0 DUP2 MLOAD SWAP1 POP SWAP2 SWAP1 POP JUMP JUMPDEST PUSH1 0x0 DUP3 DUP3 MSTORE PUSH1 0x20 DUP3 ADD SWAP1 POP SWAP3 SWAP2 POP POP JUMP JUMPDEST PUSH1 0x0 PUSH2 0x3A05 DUP3 PUSH2 0x3B4D JUMP JUMPDEST SWAP2 POP PUSH2 0x3A10 DUP4 PUSH2 0x3B4D JUMP JUMPDEST SWAP3 POP DUP3 PUSH32 0xFFFFFFFFFFFFFFFFFFFFFFFFFFFFFFFFFFFFFFFFFFFFFFFFFFFFFFFFFFFFFFFF SUB DUP3 GT ISZERO PUSH2 0x3A45 JUMPI PUSH2 0x3A44 PUSH2 0x3C12 JUMP JUMPDEST JUMPDEST DUP3 DUP3 ADD SWAP1 POP SWAP3 SWAP2 POP POP JUMP JUMPDEST PUSH1 0x0 PUSH2 0x3A5B DUP3 PUSH2 0x3B4D JUMP JUMPDEST SWAP2 POP PUSH2 0x3A66 DUP4 PUSH2 0x3B4D JUMP JUMPDEST SWAP3 POP DUP3 PUSH2 0x3A76 JUMPI PUSH2 0x3A75 PUSH2 0x3C41 JUMP JUMPDEST JUMPDEST DUP3 DUP3 DIV SWAP1 POP SWAP3 SWAP2 POP POP JUMP JUMPDEST PUSH1 0x0 PUSH2 0x3A8C DUP3 PUSH2 0x3B4D JUMP JUMPDEST SWAP2 POP PUSH2 0x3A97 DUP4 PUSH2 0x3B4D JUMP JUMPDEST SWAP3 POP DUP2 PUSH32 0xFFFFFFFFFFFFFFFFFFFFFFFFFFFFFFFFFFFFFFFFFFFFFFFFFFFFFFFFFFFFFFFF DIV DUP4 GT DUP3 ISZERO ISZERO AND ISZERO PUSH2 0x3AD0 JUMPI PUSH2 0x3ACF PUSH2 0x3C12 JUMP JUMPDEST JUMPDEST DUP3 DUP3 MUL SWAP1 POP SWAP3 SWAP2 POP POP JUMP JUMPDEST PUSH1 0x0 PUSH2 0x3AE6 DUP3 PUSH2 0x3B4D JUMP JUMPDEST SWAP2 POP PUSH2 0x3AF1 DUP4 PUSH2 0x3B4D JUMP JUMPDEST SWAP3 POP DUP3 DUP3 LT ISZERO PUSH2 0x3B04 JUMPI PUSH2 0x3B03 PUSH2 0x3C12 JUMP JUMPDEST JUMPDEST DUP3 DUP3 SUB SWAP1 POP SWAP3 SWAP2 POP POP JUMP JUMPDEST PUSH1 0x0 PUSH2 0x3B1A DUP3 PUSH2 0x3B2D JUMP JUMPDEST SWAP1 POP SWAP2 SWAP1 POP JUMP JUMPDEST PUSH1 0x0 DUP2 ISZERO ISZERO SWAP1 POP SWAP2 SWAP1 POP JUMP JUMPDEST PUSH1 0x0 PUSH20 0xFFFFFFFFFFFFFFFFFFFFFFFFFFFFFFFFFFFFFFFF DUP3 AND SWAP1 POP SWAP2 SWAP1 POP JUMP JUMPDEST PUSH1 0x0 DUP2 SWAP1 POP SWAP2 SWAP1 POP JUMP JUMPDEST PUSH1 0x0 PUSH1 0xFF DUP3 AND SWAP1 POP SWAP2 SWAP1 POP JUMP JUMPDEST PUSH1 0x0 JUMPDEST DUP4 DUP2 LT ISZERO PUSH2 0x3B82 JUMPI DUP1 DUP3 ADD MLOAD DUP2 DUP5 ADD MSTORE PUSH1 0x20 DUP2 ADD SWAP1 POP PUSH2 0x3B67 JUMP JUMPDEST DUP4 DUP2 GT ISZERO PUSH2 0x3B91 JUMPI PUSH1 0x0 DUP5 DUP5 ADD MSTORE JUMPDEST POP POP POP POP JUMP JUMPDEST PUSH1 0x0 PUSH1 0x2 DUP3 DIV SWAP1 POP PUSH1 0x1 DUP3 AND DUP1 PUSH2 0x3BAF JUMPI PUSH1 0x7F DUP3 AND SWAP2 POP JUMPDEST PUSH1 0x20 DUP3 LT DUP2 EQ ISZERO PUSH2 0x3BC3 JUMPI PUSH2 0x3BC2 PUSH2 0x3C70 JUMP JUMPDEST JUMPDEST POP SWAP2 SWAP1 POP JUMP JUMPDEST PUSH1 0x0 PUSH2 0x3BD4 DUP3 PUSH2 0x3B4D JUMP JUMPDEST SWAP2 POP PUSH32 0xFFFFFFFFFFFFFFFFFFFFFFFFFFFFFFFFFFFFFFFFFFFFFFFFFFFFFFFFFFFFFFFF DUP3 EQ ISZERO PUSH2 0x3C07 JUMPI PUSH2 0x3C06 PUSH2 0x3C12 JUMP JUMPDEST JUMPDEST PUSH1 0x1 DUP3 ADD SWAP1 POP SWAP2 SWAP1 POP JUMP JUMPDEST PUSH32 0x4E487B7100000000000000000000000000000000000000000000000000000000 PUSH1 0x0 MSTORE PUSH1 0x11 PUSH1 0x4 MSTORE PUSH1 0x24 PUSH1 0x0 REVERT JUMPDEST PUSH32 0x4E487B7100000000000000000000000000000000000000000000000000000000 PUSH1 0x0 MSTORE PUSH1 0x12 PUSH1 0x4 MSTORE PUSH1 0x24 PUSH1 0x0 REVERT JUMPDEST PUSH32 0x4E487B7100000000000000000000000000000000000000000000000000000000 PUSH1 0x0 MSTORE PUSH1 0x22 PUSH1 0x4 MSTORE PUSH1 0x24 PUSH1 0x0 REVERT JUMPDEST PUSH32 0x4E487B7100000000000000000000000000000000000000000000000000000000 PUSH1 0x0 MSTORE PUSH1 0x31 PUSH1 0x4 MSTORE PUSH1 0x24 PUSH1 0x0 REVERT JUMPDEST PUSH32 0x4E487B7100000000000000000000000000000000000000000000000000000000 PUSH1 0x0 MSTORE PUSH1 0x32 PUSH1 0x4 MSTORE PUSH1 0x24 PUSH1 0x0 REVERT JUMPDEST PUSH1 0x0 DUP1 REVERT JUMPDEST PUSH1 0x0 PUSH1 0x1F NOT PUSH1 0x1F DUP4 ADD AND SWAP1 POP SWAP2 SWAP1 POP JUMP JUMPDEST PUSH32 0x45524332303A207472616E7366657220746F20746865207A65726F2061646472 PUSH1 0x0 DUP3 ADD MSTORE PUSH32 0x6573730000000000000000000000000000000000000000000000000000000000 PUSH1 0x20 DUP3 ADD MSTORE POP JUMP JUMPDEST PUSH32 0x416D6F756E74206D757374206265206C657373207468616E20746F74616C2072 PUSH1 0x0 DUP3 ADD MSTORE PUSH32 0x65666C656374696F6E7300000000000000000000000000000000000000000000 PUSH1 0x20 DUP3 ADD MSTORE POP JUMP JUMPDEST PUSH32 0x4F776E61626C653A206E6577206F776E657220697320746865207A65726F2061 PUSH1 0x0 DUP3 ADD MSTORE PUSH32 0x6464726573730000000000000000000000000000000000000000000000000000 PUSH1 0x20 DUP3 ADD MSTORE POP JUMP JUMPDEST PUSH32 0x45524332303A20617070726F766520746F20746865207A65726F206164647265 PUSH1 0x0 DUP3 ADD MSTORE PUSH32 0x7373000000000000000000000000000000000000000000000000000000000000 PUSH1 0x20 DUP3 ADD MSTORE POP JUMP JUMPDEST PUSH32 0x536166654D6174683A206164646974696F6E206F766572666C6F770000000000 PUSH1 0x0 DUP3 ADD MSTORE POP JUMP JUMPDEST PUSH32 0x4163636F756E7420697320616C7265616479206578636C756465640000000000 PUSH1 0x0 DUP3 ADD MSTORE POP JUMP JUMPDEST PUSH32 0x416D6F756E74206D757374206265206C657373207468616E20737570706C7900 PUSH1 0x0 DUP3 ADD MSTORE POP JUMP JUMPDEST PUSH32 0x5472616E7366657220616D6F756E74206578636565647320746865206D617854 PUSH1 0x0 DUP3 ADD MSTORE PUSH32 0x78416D6F756E742E000000000000000000000000000000000000000000000000 PUSH1 0x20 DUP3 ADD MSTORE POP JUMP JUMPDEST PUSH32 0x536166654D6174683A206D756C7469706C69636174696F6E206F766572666C6F PUSH1 0x0 DUP3 ADD MSTORE PUSH32 0x7700000000000000000000000000000000000000000000000000000000000000 PUSH1 0x20 DUP3 ADD MSTORE POP JUMP JUMPDEST PUSH32 0x4F776E61626C653A2063616C6C6572206973206E6F7420746865206F776E6572 PUSH1 0x0 DUP3 ADD MSTORE POP JUMP JUMPDEST PUSH32 0x5472616E7366657220616D6F756E74206D757374206265206772656174657220 PUSH1 0x0 DUP3 ADD MSTORE PUSH32 0x7468616E207A65726F0000000000000000000000000000000000000000000000 PUSH1 0x20 DUP3 ADD MSTORE POP JUMP JUMPDEST PUSH32 0x45524332303A207472616E736665722066726F6D20746865207A65726F206164 PUSH1 0x0 DUP3 ADD MSTORE PUSH32 0x6472657373000000000000000000000000000000000000000000000000000000 PUSH1 0x20 DUP3 ADD MSTORE POP JUMP JUMPDEST PUSH32 0x45524332303A20617070726F76652066726F6D20746865207A65726F20616464 PUSH1 0x0 DUP3 ADD MSTORE PUSH32 0x7265737300000000000000000000000000000000000000000000000000000000 PUSH1 0x20 DUP3 ADD MSTORE POP JUMP JUMPDEST PUSH32 0x436F6E7472616374206973206C6F636B656420756E74696C2037206461797300 PUSH1 0x0 DUP3 ADD MSTORE POP JUMP JUMPDEST PUSH32 0x4578636C75646564206164647265737365732063616E6E6F742063616C6C2074 PUSH1 0x0 DUP3 ADD MSTORE PUSH32 0x6869732066756E6374696F6E0000000000000000000000000000000000000000 PUSH1 0x20 DUP3 ADD MSTORE POP JUMP JUMPDEST PUSH32 0x596F7520646F6E27742068617665207065726D697373696F6E20746F20756E6C PUSH1 0x0 DUP3 ADD MSTORE PUSH32 0x6F636B0000000000000000000000000000000000000000000000000000000000 PUSH1 0x20 DUP3 ADD MSTORE POP JUMP JUMPDEST PUSH2 0x414E DUP2 PUSH2 0x3B0F JUMP JUMPDEST DUP2 EQ PUSH2 0x4159 JUMPI PUSH1 0x0 DUP1 REVERT JUMPDEST POP JUMP JUMPDEST PUSH2 0x4165 DUP2 PUSH2 0x3B21 JUMP JUMPDEST DUP2 EQ PUSH2 0x4170 JUMPI PUSH1 0x0 DUP1 REVERT JUMPDEST POP JUMP JUMPDEST PUSH2 0x417C DUP2 PUSH2 0x3B4D JUMP JUMPDEST DUP2 EQ PUSH2 0x4187 JUMPI PUSH1 0x0 DUP1 REVERT JUMPDEST POP JUMP INVALID GASLIMIT MSTORE NUMBER ORIGIN ADDRESS GASPRICE KECCAK256 PUSH21 0x72616E7366657220616D6F756E7420657863656564 PUSH20 0x20616C6C6F77616E636545524332303A20646563 PUSH19 0x656173656420616C6C6F77616E63652062656C PUSH16 0x77207A65726FA2646970667358221220 LOG3 LOG0 0xD PUSH12 0x9650062542DAEA7F4723CE2F 0xC6 PUSH27 0xB2B28E8371512AD7A771036F963B64736F6C634300080700330000 "
				},
				"gasEstimates": {
					"creation": {
						"codeDepositCost": "3381800",
						"executionCost": "infinite",
						"totalCost": "infinite"
					},
					"external": {
						"_burnFee()": "2474",
						"_getBurnFee()": "2548",
						"_getMaxTxAmount()": "2525",
						"_getTaxFee()": "2549",
						"_setBurnFee(uint256)": "24896",
						"_setTaxFee(uint256)": "24873",
						"_taxFee()": "2519",
						"allowance(address,address)": "infinite",
						"approve(address,uint256)": "infinite",
						"balanceOf(address)": "infinite",
						"burnAdd()": "2561",
						"decimals()": "2525",
						"decreaseAllowance(address,uint256)": "infinite",
						"deliver(uint256)": "infinite",
						"excludeAccount(address)": "infinite",
						"geUnlockTime()": "2548",
						"includeAccount(address)": "infinite",
						"increaseAllowance(address,uint256)": "infinite",
						"isExcluded(address)": "2950",
						"lock(uint256)": "infinite",
						"name()": "infinite",
						"owner()": "2612",
						"reflectionFromToken(uint256,bool)": "infinite",
						"renounceOwnership()": "30466",
						"symbol()": "infinite",
						"tokenFromReflection(uint256)": "infinite",
						"totalFees()": "2550",
						"totalSupply()": "2483",
						"transfer(address,uint256)": "infinite",
						"transferFrom(address,address,uint256)": "infinite",
						"transferOwnership(address)": "30813",
						"unlock()": "36720"
					},
					"internal": {
						"_approve(address,address,uint256)": "infinite",
						"_burn(uint256)": "infinite",
						"_getCurrentSupply()": "infinite",
						"_getRValues(uint256,uint256,uint256,uint256)": "infinite",
						"_getRate()": "infinite",
						"_getTValues(uint256)": "infinite",
						"_getValues(uint256)": "infinite",
						"_reflectFee(uint256,uint256)": "infinite",
						"_transfer(address,address,uint256)": "infinite",
						"_transferBothExcluded(address,address,uint256)": "infinite",
						"_transferFromExcluded(address,address,uint256)": "infinite",
						"_transferStandard(address,address,uint256)": "infinite",
						"_transferToExcluded(address,address,uint256)": "infinite",
						"calculateBurnFee(uint256)": "infinite",
						"calculateTaxFee(uint256)": "infinite",
						"removeAllFee()": "infinite",
						"restoreAllFee()": "infinite"
					}
				},
				"methodIdentifiers": {
					"_burnFee()": "c0b0fda2",
					"_getBurnFee()": "6a39d32c",
					"_getMaxTxAmount()": "f7a91591",
					"_getTaxFee()": "2fbff030",
					"_setBurnFee(uint256)": "3b6b1961",
					"_setTaxFee(uint256)": "5880b873",
					"_taxFee()": "3b124fe7",
					"allowance(address,address)": "dd62ed3e",
					"approve(address,uint256)": "095ea7b3",
					"balanceOf(address)": "70a08231",
					"burnAdd()": "01378f46",
					"decimals()": "313ce567",
					"decreaseAllowance(address,uint256)": "a457c2d7",
					"deliver(uint256)": "3bd5d173",
					"excludeAccount(address)": "f2cc0c18",
					"geUnlockTime()": "b6c52324",
					"includeAccount(address)": "f84354f1",
					"increaseAllowance(address,uint256)": "39509351",
					"isExcluded(address)": "cba0e996",
					"lock(uint256)": "dd467064",
					"name()": "06fdde03",
					"owner()": "8da5cb5b",
					"reflectionFromToken(uint256,bool)": "4549b039",
					"renounceOwnership()": "715018a6",
					"symbol()": "95d89b41",
					"tokenFromReflection(uint256)": "2d838119",
					"totalFees()": "13114a9d",
					"totalSupply()": "18160ddd",
					"transfer(address,uint256)": "a9059cbb",
					"transferFrom(address,address,uint256)": "23b872dd",
					"transferOwnership(address)": "f2fde38b",
					"unlock()": "a69df4b5"
				}
			},
			"storageLayout": {
				"storage": [
					{
						"astId": 1517,
						"contract": "contracts/04_Aguacate_token.sol:AGUACATE",
						"label": "_owner",
						"offset": 0,
						"slot": "0",
						"type": "t_address"
					},
					{
						"astId": 1519,
						"contract": "contracts/04_Aguacate_token.sol:AGUACATE",
						"label": "_previousOwner",
						"offset": 0,
						"slot": "1",
						"type": "t_address"
					},
					{
						"astId": 1521,
						"contract": "contracts/04_Aguacate_token.sol:AGUACATE",
						"label": "_lockTime",
						"offset": 0,
						"slot": "2",
						"type": "t_uint256"
					},
					{
						"astId": 22,
						"contract": "contracts/04_Aguacate_token.sol:AGUACATE",
						"label": "_rOwned",
						"offset": 0,
						"slot": "3",
						"type": "t_mapping(t_address,t_uint256)"
					},
					{
						"astId": 26,
						"contract": "contracts/04_Aguacate_token.sol:AGUACATE",
						"label": "_tOwned",
						"offset": 0,
						"slot": "4",
						"type": "t_mapping(t_address,t_uint256)"
					},
					{
						"astId": 32,
						"contract": "contracts/04_Aguacate_token.sol:AGUACATE",
						"label": "_allowances",
						"offset": 0,
						"slot": "5",
						"type": "t_mapping(t_address,t_mapping(t_address,t_uint256))"
					},
					{
						"astId": 36,
						"contract": "contracts/04_Aguacate_token.sol:AGUACATE",
						"label": "_isExcluded",
						"offset": 0,
						"slot": "6",
						"type": "t_mapping(t_address,t_bool)"
					},
					{
						"astId": 39,
						"contract": "contracts/04_Aguacate_token.sol:AGUACATE",
						"label": "_excluded",
						"offset": 0,
						"slot": "7",
						"type": "t_array(t_address)dyn_storage"
					},
					{
						"astId": 57,
						"contract": "contracts/04_Aguacate_token.sol:AGUACATE",
						"label": "_tTotal",
						"offset": 0,
						"slot": "8",
						"type": "t_uint256"
					},
					{
						"astId": 66,
						"contract": "contracts/04_Aguacate_token.sol:AGUACATE",
						"label": "_rTotal",
						"offset": 0,
						"slot": "9",
						"type": "t_uint256"
					},
					{
						"astId": 68,
						"contract": "contracts/04_Aguacate_token.sol:AGUACATE",
						"label": "_tFeeTotal",
						"offset": 0,
						"slot": "10",
						"type": "t_uint256"
					},
					{
						"astId": 71,
						"contract": "contracts/04_Aguacate_token.sol:AGUACATE",
						"label": "_name",
						"offset": 0,
						"slot": "11",
						"type": "t_string_storage"
					},
					{
						"astId": 74,
						"contract": "contracts/04_Aguacate_token.sol:AGUACATE",
						"label": "_symbol",
						"offset": 0,
						"slot": "12",
						"type": "t_string_storage"
					},
					{
						"astId": 77,
						"contract": "contracts/04_Aguacate_token.sol:AGUACATE",
						"label": "_decimals",
						"offset": 0,
						"slot": "13",
						"type": "t_uint8"
					},
					{
						"astId": 80,
						"contract": "contracts/04_Aguacate_token.sol:AGUACATE",
						"label": "_taxFee",
						"offset": 0,
						"slot": "14",
						"type": "t_uint256"
					},
					{
						"astId": 83,
						"contract": "contracts/04_Aguacate_token.sol:AGUACATE",
						"label": "_previousTaxFee",
						"offset": 0,
						"slot": "15",
						"type": "t_uint256"
					},
					{
						"astId": 86,
						"contract": "contracts/04_Aguacate_token.sol:AGUACATE",
						"label": "_burnFee",
						"offset": 0,
						"slot": "16",
						"type": "t_uint256"
					},
					{
						"astId": 89,
						"contract": "contracts/04_Aguacate_token.sol:AGUACATE",
						"label": "_previousBurnFee",
						"offset": 0,
						"slot": "17",
						"type": "t_uint256"
					},
					{
						"astId": 92,
						"contract": "contracts/04_Aguacate_token.sol:AGUACATE",
						"label": "burnAdd",
						"offset": 0,
						"slot": "18",
						"type": "t_address"
					},
					{
						"astId": 103,
						"contract": "contracts/04_Aguacate_token.sol:AGUACATE",
						"label": "_max_tx_size",
						"offset": 0,
						"slot": "19",
						"type": "t_uint256"
					}
				],
				"types": {
					"t_address": {
						"encoding": "inplace",
						"label": "address",
						"numberOfBytes": "20"
					},
					"t_array(t_address)dyn_storage": {
						"base": "t_address",
						"encoding": "dynamic_array",
						"label": "address[]",
						"numberOfBytes": "32"
					},
					"t_bool": {
						"encoding": "inplace",
						"label": "bool",
						"numberOfBytes": "1"
					},
					"t_mapping(t_address,t_bool)": {
						"encoding": "mapping",
						"key": "t_address",
						"label": "mapping(address => bool)",
						"numberOfBytes": "32",
						"value": "t_bool"
					},
					"t_mapping(t_address,t_mapping(t_address,t_uint256))": {
						"encoding": "mapping",
						"key": "t_address",
						"label": "mapping(address => mapping(address => uint256))",
						"numberOfBytes": "32",
						"value": "t_mapping(t_address,t_uint256)"
					},
					"t_mapping(t_address,t_uint256)": {
						"encoding": "mapping",
						"key": "t_address",
						"label": "mapping(address => uint256)",
						"numberOfBytes": "32",
						"value": "t_uint256"
					},
					"t_string_storage": {
						"encoding": "bytes",
						"label": "string",
						"numberOfBytes": "32"
					},
					"t_uint256": {
						"encoding": "inplace",
						"label": "uint256",
						"numberOfBytes": "32"
					},
					"t_uint8": {
						"encoding": "inplace",
						"label": "uint8",
						"numberOfBytes": "1"
					}
				}
			},
			"userdoc": {
				"kind": "user",
				"methods": {},
				"version": 1
			}
		}
	}
}